:1000000028210020B5010000B1010000B10100006D
:1000100000000000000000000000000000000000E0
:10002000000000000000000000000000B10100001E
:100030000000000000000000B1010000B10100005C
:10004000B1010000B1010000B1010000B1010000E8
:10005000B1010000B1010000B1010000B1010000D8
:10006000B1010000B1010000B1010000B1010000C8
:10007000B1010000290C0000B1010000B101000035
:10008000B1010000B1010000B1010000B1010000A8
:10009000B1010000B1010000B1010000B101000098
:1000A000B1010000B1010000B1010000B101000088
:1000B000B1010000B1010000B101000010B5064C13
:1000C0002378002B07D1054B002B02D0044800E019
:1000D00000BF0123237010BD640000200000000059
:1000E000E4210000044B10B5002B03D00349044861
:1000F00000E000BF10BDC046000000006800002006
:10010000E421000070B504000D001600002802D0A4
:100110000800431E984134220449054B9847320099
:10012000290020002368984770BDC0466420000065
:10013000F103000070B504000D001600002802D085
:100140000800431E98413D220449054B9847320060
:10015000290020006368984770BDC04664200000F5
:10016000F1030000024B034A5A6005221A607047EF
:1001700010E000E0FFFFFF00054A030011680029BE
:1001800001D1044911601068C31813607047C0465C
:100190008000002028210020012040427047802359
:1001A0009B0100204B607047012070470020704782
:1001B000FEE700000D4A0E4B10B50E499A4210D1D1
:1001C00000210D4B0D4A93420ED3FF220C4B93435B
:1001D0000C4A93600C4B98470C4B9847FEE701CABA
:1001E00001C38B42FBD3EBE702C3ECE7E421000041
:1001F0000000002064000020640000202401002092
:100200000000000000ED00E0A9100000BD040000A7
:1002100070B504000D00002802D00800431E98416C
:1002200009490A4B402298472900094B6560201D67
:100230009847002806DB0020064BA382064B23616B
:10024000064BE36070BDC04678200000F10300005B
:10025000950C00000080FFFF01030000C9020000B0
:1002600010B50400431E984157220449044BC0B204
:100270009847044B201D984710BDC04678200000C9
:10028000F1030000410E000030B504000D0087B0FE
:10029000002802D00800431E9841B3220749084BAA
:1002A00098472B68201D03936B6803A90493AB68E0
:1002B00001930593034B984707B030BD78200000A9
:1002C000F10300006D0E00007FB50400431E98414D
:1002D0000E0015000749A322074BC0B29847002320
:1002E0002000029301A9054B0C380196039598470D
:1002F00004B070BD78200000F10300008902000006
:100300007FB50400431E98410E001500074987225F
:10031000074BC0B2984700232000019301A9054B69
:100320000C3802960395984704B070BD7820000001
:10033000F10300008902000070B504000D000028E0
:1003400002D00800431E9841BD220349034B0C34E0
:10035000984700202C6070BD78200000F103000059
:1003600010B5024B1860024B984710BD8400002066
:100370006501000002220C4B1A7509325A75073AC2
:1003800099691142FCD101219A6992080A42FBD174
:10039000072201219A75DA6812090A42FBD08021EE
:1003A0001A7D0A431A75704700100040704700001C
:1003B000084B10B55A685A60074B9847074B984747
:1003C000074B9847074B9847FF20074B9847074B29
:1003D000984710BD0040004125050000750300004E
:1003E000F9030000AD030000050400003D1000000B
:1003F000002800D100BE70470122014B1A717047DE
:1004000000080040C30706D5034A044B1A62044A99
:1004100059681142FCD1704706010100001C0040E0
:10042000FD070000C046704710B51400034B92B2A0
:100430001868034B9847200010BDC046A800002054
:10044000050100000120404270470000F7B5032677
:10045000C0248025320068461149124B9847124F3C
:10046000E405AD0232006946656138680F4B984774
:10047000A561656101AD32000D4B290038689847D0
:100480000C4E0D4F30002978B84730006978B847D6
:10049000A97880253000AD02B8470020A561FEBDD7
:1004A000A0200000F1100000A400002005010000C1
:1004B00035010000942000001511000010B50D4B0F
:1004C00098470D4C0D4920000D4B98470D4A0221CD
:1004D00020000D4B984720000C4B98470C4C0D49C1
:1004E0000D4B200098470D4B200098470C4B984728
:1004F000FEE7C04681100000AC000020A8000020EC
:1005000065090000250400008D090000390900007C
:10051000FC000020A400002039030000610200005C
:100520004D040000F821044B4901DA690A40DA6100
:1005300001221A617047C046001400401F23C2B256
:100540000340400970B5C0014C1C07D101221818A6
:10055000114BC01803789343037070BD82240125AA
:10056000E4050019C618EB4040363478C018AC4397
:100570002C43347030300378C9B22A4206D00F229F
:10058000090113401943C9B20170E6E70F229343F2
:1005900011401943F8E7C04640000041F8B58224F5
:1005A000C0258023E40522000421ED055B026B6079
:1005B000114B5032A362114B114EA36213781020DD
:1005C0008B4313700F49B04780238027DB026B6198
:1005D000AB600D4BFF05A7621220A3620B49B04729
:1005E00080231B036B61AB60094BA7621320094991
:1005F000A362B047F8BDC04600000240010002C03F
:100600003D05000002001000040000C002001200BE
:10061000080000C002001300064B40211A00D0322F
:1006200011604322C8331A600423034AD1690B4383
:10063000D3617047001C00400008004010B5044B17
:1006400098470449044B05489847054B984710BD07
:10065000190600000008004211020000FC00002002
:100660009D050000064B40211A00DC321160432238
:10067000C8331A602023034AD1690B43D361704702
:10068000001C00400008004010B52A20034C04491B
:10069000A0472B200349A04710BDC0463D050000E0
:1006A00003002A0003002B0013B5064B98470023D4
:1006B000054A06490093064C10330648A047064BEE
:1006C000984713BD65060000880000200014004212
:1006D000AD080000AC0000208906000010B50248FB
:1006E000024B984710BDC04610E000E061030000D7
:1006F00010B5164B9847C0228023D2059B02936108
:10070000936082238021DB051C000120C9059962CA
:100710000F495134996221788143217014000821D6
:1007200098348832216011601A000A49A832116099
:10073000C02109061160C3331A7882431A70064B30
:100740009847064B9847064B984710BDB1030000E9
:10075000020000C0080000403D060000A90600009D
:10076000DD0600000023083810B50363436A002B40
:1007700000D0984710BD0023083810B50363C36A42
:10078000002B00D0984710BD10B50400044B2C304E
:100790009847236A083C002B01D02000984710BDE1
:1007A000D90F0000F8B504000E001500002804D091
:1007B000081E02D01000431E984101273C220D491B
:1007C0000D4B3840FF3298472200A31D4C32D88F82
:1007D000118888420AD1A6642000158000220830C2
:1007E000DA87064B276398472800F8BD1C20404253
:1007F000FBE7C046A3200000F1030000BF0B000090
:10080000020010B50400838F44300088083A9842F3
:100810000AD0926C581CA087D15C2000044B9847EA
:100820002000044B984710BD2000034BFAE7C04658
:10083000B90B0000BF0B0000C70B0000F0B50400AF
:100840000E00170085B0002804D0081E02D010004A
:10085000431E9841AC220F4952000F4B9847343445
:100860000E4B03A898470E4B200098470D4B019064
:1008700003A898470025019BAB4201D0BD4202D19D
:10088000280005B0F0BD71192000074B98470135CD
:10089000F1E7C046A3200000F10300008D10000026
:1008A000191000009B100000950F0000F8B504001F
:1008B0000D0016001F00002806D0081E04D0101ED0
:1008C00002D01800431E98413A221149114B984713
:1008D00020003A003100104B34309847002813D1E3
:1008E000200029000D4B0830984700280BD10C4BF5
:1008F00063600C4B23600C4BA3600C4BE3600C4B10
:1009000023610C4B6361F8BD0D204042FBE7C046FC
:10091000A3200000F1030000550F0000310B000080
:100920003D080000A507000001080000890700003D
:10093000650700007707000010B50400431E9841CA
:1009400061220549054BC0B298472000044B08308E
:100950009847002010BDC046A3200000F10300000E
:10096000A10B000070B504000D00002802D00800A3
:10097000431E984177220349034B984700202C607F
:1009800070BDC046A3200000F103000070B5050053
:10099000431E98410E00140014498322144BC0B228
:1009A0009847012E0ED0022E14D0002E1AD1280006
:1009B000AC62621E94410121E2B208300D4B9847AF
:1009C000002070BD28006C62621E94410221E2B2D8
:1009D0000830F3E72800EC62621E94410321E2B282
:1009E0000830EBE70D204042EBE7C046A3200000B3
:1009F000F1030000D10B0000002805DB1F23184085
:100A00001E3B8340014A13607047C04600E100E08E
:100A1000002807DB1F23C02218401E3B83400249E9
:100A200052008B507047C04600E100E0C369194294
:100A3000FCD17047C3691942FCD17047022210B53E
:100A40000368032193430360014B984710BDC046E0
:100A5000350A0000C269012310B514001C401A4277
:100A600008D10268DB18134303600321034B984746
:100A7000200010BD04204042FBE7C0462D0A0000C4
:100A8000002809DB1F2318401E3B8340034AD3671D
:100A9000BFF34F8FBFF36F8F7047C04604E100E094
:100AA0001B4B70B5C3189B0ADBB20400042B04D0A7
:100AB0000020184A1849194B9847E369184DDB077D
:100AC00011D4022603212000A8472368334205D011
:100AD0002000144B984731002000A847052303212C
:100AE00020002360A84720000121A8470E4B2000CA
:100AF00023600321A847C0239B02200063600721D5
:100B0000A8470020094BA381A0733034207070BD2A
:100B100000FCFFBD5E020000C0200000F1030000E9
:100B2000350A00003D0A000004003140098AFFFF39
:100B300070B50600431E98410C00C4220F49104BAB
:100B4000C0B2984720000F4B9847051E13D10E4B9B
:100B5000B4619C4201D10D4B1E600D4BE418A40AF8
:100B6000093464B220000B4B984720000A4B984789
:100B700020000A4B9847280070BDC046C0200000E6
:100B8000F1030000A10A00000014004298000020B8
:100B900000FCFFBD810A0000110A0000F9090000F5
:100BA0000223806910B50268032113430360014BDF
:100BB000984710BD350A00008369198570470122E6
:100BC00083699A757047022283699A75704700009D
:100BD00070B50400431E98410E00104B15001049DB
:100BE000104AC0B2984702223300934309D1012131
:100BF000A369002D02D119751A7570BD99759A7582
:100C0000FBE7012E04D10422A369002DF7D1F3E7FD
:100C1000032EF2D18022A369F7E7C046F10300005A
:100C2000C02000001E020000194B10B518680123F7
:100C30008469227E1A4206D0A27D1A4203D023750F
:100C40000368984710BD237E01229B0707D5A37D2B
:100C5000D340134203D0022323758368F1E7237E38
:100C60005B070BD53723628B1A4202D0483363836C
:100C7000E8E7218D4368C9B29847E3E7237EDB09A3
:100C8000E0D080232376C3689847638B9BB2EEE75E
:100C900098000020F7B55E4B0D00CB189B0ADBB225
:100CA00000240090012B01D15A4C183400980028E0
:100CB00002D02800431E98410127574A5749584BF4
:100CC00038409847002C00D19EE0EB69554E3B42DE
:100CD0001AD11C23227803211A4028000192B04720
:100CE0002B68FF193B4208D02B680321BB43280027
:100CF0002B60B04739002800B0470123019A032137
:100D0000134328002B60B04701212800B0471C2264
:100D1000009B454F1D6023781340082B47D10120CD
:100D2000424A3E493E4B98476278237812021A4362
:100D3000A37803211B041A43E37828001B061343FE
:100D40001F402F60B0476279237912021A43A379BA
:100D500007211B041A43E37928001B061343344A76
:100D60001340344A13436B60B047627A237A12020D
:100D70001A43A37A1B041A43E37A1B0613436B62DC
:100D80002B00627B30331A70EB69002BFCD10722F9
:100D90002379002013405A1E9341009A01331371A6
:100DA000E37BA27B1B021343009AD380FEBD01208C
:100DB000214A1A491A4B98476278237812021A433B
:100DC000A37828001B041A43E37803211B0613436E
:100DD0001F402F60B0476279237912021A43A3792A
:100DE00028001B041A43E37907211B061343134A07
:100DF00013408022920213436B60B047237B2B7316
:100E0000637B30352B70C2E70D204042CEE7C046F1
:100E100000FCFFBDDC2000004E090000C0200000E7
:100E2000F10300002D0A0000FCFEFFFF270900006F
:100E3000BFDDFDFF4002020013090000BF1DFDFFE2
:100E400010B5041E02D00068431E9841034A0449AD
:100E5000044B98472068044B984710BDA90900002F
:100E6000C0200000F1030000550A0000F0B504683E
:100E700085B00290037920000393431E98410E68C9
:100E80004D68304A304B0F00C0B230499847E26994
:100E900007231100194001911A4251D12C4B032113
:100EA000200098472368019A9B071BD501239C4685
:100EB0000420237ED9B2034217D1019B93421DD84F
:100EC000634619421AD0029BDB88002E05D0039B93
:100ED0003078012B21D8030001360198A36201303C
:100EE00001900BE01420404228E0A36A002D04D0BA
:100EF00003982B7001280CD80135013249B2002922
:100F000010DBBB6801998B42D2D89342D0D80198AC
:100F10000FE01B0A6B700235EFE7737802361B0295
:100F20000343DAE7012313205B4263838133237693
:100F300040420323227E1A42FCD0237605B0F0BD46
:100F40000420D0E7AE0A0000F1030000C02000003A
:100F50002D0A000070B504000E001500002804D012
:100F6000081E02D01000431E9841084B2822084951
:100F7000984728006B1E18401D4204D16360A06092
:100F8000E060266070BD0D204042FBE7F1030000E9
:100F90000521000070B504000D00002802D00800F3
:100FA000431E984140220A4B0A499847A368E268C9
:100FB0009A4209D00020626813402268D35C2B70EB
:100FC000A3680133A36070BD0A204042FBE7C0461E
:100FD000F10300000521000070B50400431E984194
:100FE0000D0051220A490B4BC0B29847E268636872
:100FF00013402268D554E368A1686268591A914287
:1010000001D99A1AA26001330020E36070BDC04686
:1010100005210000F103000010B50400431E9841B3
:1010200067220449044BC0B29847E068A368C01A1D
:1010300010BDC04605210000F103000090220221EE
:10104000D20513788B4313707047000013B5EFF38C
:101050001083019372B690230124DB051A78A24312
:101060001A709860D9601A79D207FCD4034B1868BB
:101070005968019B83F310881CBDC04610000048CE
:1010800010B5014B984710BDF1060000EFF3108337
:10109000036072B6BFF35F8F7047BFF35F8F036863
:1010A00083F310887047000070B500260C4D0D4C7E
:1010B000641BA410A64209D1002601F083F80A4D52
:1010C0000A4C641BA410A64205D170BDB300EB58B6
:1010D00098470136EEE7B300EB5898470136F2E740
:1010E000D0210000D0210000D0210000D421000038
:1010F000002310B59A4200D110BDCC5CC45401331A
:10110000F8E703008218934200D170471970013349
:10111000F9E700000FB40B4B13B51C68002C05D089
:10112000A369002B02D1200000F070F805AB20006D
:10113000049AA168019300F093F916BC08BC04B0AE
:101140001847C04600000020002310B504000360CB
:1011500043608360818143661900C28103614361FA
:10116000836108225C30FFF7CCFF054B6362054BBF
:101170002462A362044BE362044B236310BDC046A8
:10118000FD190000251A00005D1A0000891A0000F0
:1011900010B5024900F0BAF810BDC046951D000018
:1011A00070B568254A1E55430E002900743100F0C1
:1011B000D1F8041E08D000212A00016046600C30DE
:1011C000A0606832FFF79DFF200070BD10B5024897
:1011D00000F0BDF810BDC0461C01002010B502484B
:1011E00000F0B6F810BDC0461C01002010B5024842
:1011F00000F0ADF810BDC0461701002010B5024840
:1012000000F0A6F810BDC0461701002013B5040079
:10121000FFF7ECFFA369002B02D0FFF7EFFF13BD30
:10122000A364E3642365134B134A1B68A262019312
:10123000A34201D10123A361200000F01FF86060E8
:10124000200000F01BF8A060200000F017F800223A
:101250000421E0606068FFF777FF01220921A068A0
:10126000FFF772FF02221221E068FFF76DFF0123F2
:10127000A361D2E72C21000091110000F8B507000E
:10128000FFF7A4FF1F4B1E68B369002B02D130008B
:10129000FFF7BCFF4836B4687368013B04D5336878
:1012A000002B22D03668F6E70C22A55E002D1AD15D
:1012B0002000154B5830E360656600F047F8FFF7F3
:1012C0008DFF2000082229002560A560656025614A
:1012D0006561A5615C30FFF714FF6563A563A564D4
:1012E000E5642000F8BD6834D7E704213800FFF733
:1012F00057FF041E3060D5D1FFF770FF0C233B6011
:10130000EFE7C0462C2100000100FFFFF7B5040005
:1013100006000027019148346368A5680093009B8C
:10132000013B009304D52468002CF5D13800FEBDA4
:10133000AB89012B08D90E22AB5E013304D0290002
:101340003000019B984707436835E8E770477047CE
:1013500070470000F8B50323CD1C9D4308350600F7
:101360000C2D1FD20C25A9421ED8300000F0DEFD46
:1013700025490A681400002C1AD1244F3B68002B21
:1013800004D12100300000F027FB38602900300034
:1013900000F022FB431C2BD10C233000336000F003
:1013A000CDFD03E0002DDEDA0C2333600020F8BD14
:1013B00023685B1B19D40B2B03D92360E418256029
:1013C00003E06368A2420ED10B60300000F0B6FD6E
:1013D000200007220B30231D9043C21A9842E6D00A
:1013E0001B1AA350E3E75360EFE722006468C2E7EB
:1013F0000323C41C9C43A042E1D0211A300000F01A
:10140000EBFA431CDBD1C7E79C000020A0000020C2
:10141000936810B5013B9360002B04DA9469A342F2
:1014200007DB0A2905D01368581C106019700800E2
:1014300010BD00F02FFB0100F9E7F8B506000F0022
:101440001400D518AC4201D1002007E021783A0001
:101450003000FFF7DDFF0134431CF3D1F8BD00007D
:10146000F0B5A1B006000C001F000392002804D0C4
:101470008369002B01D1FFF7C9FE8E4B9C421CD122
:101480007468636EDB0705D4A3899B0502D4A06D45
:10149000FFF75DFFA3891B0702D52369002B1DD130
:1014A0002100300000F060FB002817D0636EDB07DE
:1014B0000DD50120404221B0F0BD7F4B9C4201D1AF
:1014C000B468DEE77D4B9C42DBD1F468D9E7A389A1
:1014D0009B05EED4A06DFFF73BFFEAE7002308ADC4
:1014E0006B6120336B761033AB760797039F3B78A5
:1014F000002B01D0252B4ED1039BFB1A0593039B98
:101500009F420DD0059B21003000039AFFF795FF05
:10151000431C00D1B5E06A69059B944663446B6146
:101520003B78002B00D1ACE001227B1C039300230D
:1015300052426A6004A9543252182B60EB60AB60CF
:101540001370AB65039B052219785D4800F0E2FC3F
:10155000039B5F1C002820D12A68D30604D553239F
:1015600004A95B1820211970130704D5532304A97B
:101570005B182B211970039B1B782A2B16D0002196
:10158000EB68039F3A78781C303A8446092A4FD991
:10159000002911D117E00137A9E7494B2A68C01A81
:1015A0000123834013432B600397CBE7079B191D4F
:1015B0001B680791002B01DB0B9304E05B42EB609F
:1015C000022313432B603B782E2B0AD17B782A2BE6
:1015D00037D1079B02371A1D1B680792002B2DDBA2
:1015E000099303223978374800F094FC002807D08B
:1015F000344B2A68C01A40238340134301372B60C1
:1016000039787B1C062230480393297600F082FC4F
:10161000002845D02D4B002B27D10722079B0733ED
:101620009343083307936B69049A9B186B615DE7DA
:101630000A214B4367469B180939A3E701235B4204
:10164000CEE700231A0001376B603978781C3039F7
:101650008446092903D9002BC3D00992C1E70A2384
:101660005A4367465218093BEFE707AB0093220045
:1016700029003000164B00E000BF0490049B0133AA
:10168000D1D1636EDB0705D4A3899B0502D4A06D7D
:10169000FFF75EFEA3895B0600D50AE70D980AE70F
:1016A00007AB0093220029003000094B00F082F8BC
:1016B000E3E7C04650210000702100003021000007
:1016C00090210000962100009A21000000000000F7
:1016D0003B140000F7B5150001938A680B690C00F4
:1016E0000090934200DA130022002B6043321278FC
:1016F000002A01D001332B6023689B0602D52B689A
:1017000002332B602268062317001F401A4227D09D
:10171000230043331B785A1E93412268920630D42B
:10172000220001990098089E4332B047431C25D0FF
:10173000062320682A68E16800250340042B03D1B2
:101740008D1AEB43DB171D40A3682269934201DD2C
:101750009B1AED180027BD4220D1002010E0013770
:10176000E3682A689B1ABB42D2DD2200012301995B
:101770000098089E1932B047431CF0D10120404226
:10178000FEBD3020E1184331087021005A1C45315C
:101790000978A218433202331170C1E722000123F5
:1017A00001990098089E1A32B047431CE6D00137D1
:1017B000D1E70000F0B58BB006920A0043320793E0
:1017C000059004920A7E0C00109B782A06D8622AA3
:1017D00008D8002A00D1C0E0582A52D0260042364C
:1017E000327022E0100063381528F7D800F030FC82
:1017F00016001F00F6FFF6FFF6FFF6FF1F00F6FFCC
:10180000F6FFF6FFF6FFA80036009A00F6FFF6FF97
:10181000B900F6FF3600F6FFF6FF9E0026001A68B4
:101820004236111D1960136833700123A7E0086860
:1018300019680A1D05060BD50D681A60002D03DA1C
:101840002D23049A6D421370614B0A27039332E0F3
:101850000D681A604106F1D52DB2EFE70D681968E1
:10186000081D18602E0601D50D6803E06D06FBD536
:101870000D68ADB2564B0A2703936F2A17D108277C
:1018800015E045310A70524A03921A68216820CA4D
:101890001A60080650D5CB0702D5202319432160D2
:1018A0001027002D03D1202322689A4322602300B1
:1018B000002243331A706368A360002B03DB042209
:1018C000216891432160002D02D1049E002B0CD091
:1018D000049E28003900FFF7B9FB039B013E5B5CC7
:1018E00033702B0005009F42F3D9082F09D12368DC
:1018F000DB0706D563682269934202DC3023013E90
:101900003370049B9B1B2361079B21000093059868
:10191000069B09AAFFF7DEFE431C35D10120404299
:101920000BB0F0BD202209680A4322602200782112
:1019300045321170274AA7E74806ACD5ADB2AAE7F1
:101940001A680D68101D4969186013682E0601D5C4
:10195000196002E06D06FBD519800023049E236107
:10196000D2E71A68111D19601668002130006268FC
:1019700000F0D0FA002801D0801B6060636823610A
:101980000023049A1370BFE7236932000699059873
:10199000079DA847431CC1D023689B0715D4099B0A
:1019A000E0689842BCDA1800BAE7220001230699E1
:1019B0000598079E1932B047431CAFD00135E36844
:1019C000099A9B1AAB42F0DCE9E70025F7E7C0462D
:1019D000A1210000B2210000002370B5064D0400D3
:1019E00008002B60FEF7C8FB431C03D12B68002BBB
:1019F00000D0236070BDC0462001002070B50C00EF
:101A00000E25495F00F0ECFA002803DB636D1B181C
:101A1000636570BDA389024A1340A381F9E7C046FC
:101A2000FFEFFFFFF8B51F008B8905000C001600C3
:101A3000DB0505D50E23C95E0022022300F0EAF97A
:101A4000A389054A28001340A38132000E23E15EDA
:101A50003B0000F075F8F8BDFFEFFFFF70B50C001C
:101A60000E25495F00F0D6F9A389421C03D1054A2F
:101A70001340A38170BD802252011343A38160658E
:101A8000F8E7C046FFEFFFFF10B50E23C95E00F078
:101A9000E3F810BDF8B505000E001400002804D0CE
:101AA0008369002B01D1FFF7B1FB224B9C422ED161
:101AB0006C68A369A360A3891B0732D52369002B37
:101AC0002FD023682269F7B2981A6369F6B283426D
:101AD00005DC2100280000F05DF9002827D1A3686B
:101AE0000130013BA36023685A1C22601F706369A8
:101AF000834204D0A389DB0707D50A2E05D1210034
:101B0000280000F047F9002811D13000F8BD0A4B39
:101B10009C4201D1AC68CCE7084B9C42C9D1EC682F
:101B2000C7E72100280000F01FF80028C9D00126CF
:101B30007642EAE7502100007021000030210000C9
:101B400070B50400080011001A000023054D2B6039
:101B5000FEF76AFC431C03D12B68002B00D02360E6
:101B600070BDC04620010020374B70B51D680600CF
:101B70000C00002D05D0AB69002B02D12800FFF727
:101B800045FB324B9C420FD16C680C23E25E93B252
:101B900011072DD4D90611D409230120336037331E
:101BA0001343A381404270BD294B9C4201D1AC68D4
:101BB000EBE7284B9C42E8D1EC68E6E75B0713D5DE
:101BC000616B002908D023004433994202D03000D1
:101BD00000F0BCF9002363632422A3899343A3810B
:101BE00000236360236923600823A2891343A38130
:101BF0002369002B0BD1A0218022A38989009200A8
:101C00000B40934203D02100300000F03FF90C223A
:101C1000A35E01201A0099B2024003420FD00022B5
:101C2000A26062695242A261002022698242BAD156
:101C30000A06B8D540221343A3810138B3E78807C9
:101C400000D46269A260EFE700000020502100008C
:101C50007021000030210000002370B5064D040003
:101C600008002B60FEF798FA431C03D12B68002B69
:101C700000D0236070BDC04620010020F7B58B89DD
:101C800005000C001A075FD44A68002A04DC0A6CBD
:101C9000002A01DC0020FEBDE76A002FFAD00022F6
:101CA00080212E682A601A0049010A400B4234D074
:101CB000606DA3895B0706D56368C01A636B002B50
:101CC00001D0236CC01A0200216A00232800E76AB1
:101CD000B847A189431C06D12B681D2B31D82C4A4B
:101CE000DA40D3072DD50023636023692360CB043A
:101CF00005D5431C02D12B68002B00D16065616BB8
:101D00002E600029C6D023004433994202D0280017
:101D100000F01CF900206063BDE701232800216A60
:101D2000B847431CC5D12B68002BC2D01D2B01D056
:101D3000162B01D12E60ADE74023A2891343A38166
:101D4000A9E740230B43FAE70F69002FA2D00A68E6
:101D50000F60D21B019200229B0700D14A69A2604A
:101D6000019B002B00DC95E73A002800019B216ACB
:101D7000A66AB047002806DC40230120A289404221
:101D80001343A38187E7019B3F181B1A0193E7E7E1
:101D9000010040200B6970B505000C00002B02D13A
:101DA0000025280070BD002804D08369002B01D1D4
:101DB000FFF72CFA144B9C421BD16C680C22A35EDB
:101DC000002BEDD0626ED20704D49B0502D4A06D27
:101DD000FFF7BDFA28002100FFF750FF636E0500F2
:101DE000DB07DED4A3899B05DBD4A06DFFF7B0FA37
:101DF000D7E7064B9C4201D1AC68DFE7044B9C421D
:101E0000DCD1EC68DAE7C046502100007021000008
:101E10003021000070B50400080011001A000023F2
:101E2000054D2B60FEF7C2F9431C03D12B68002B34
:101E300000D0236070BDC0462001002070B50E00A8
:101E40001D000E23C95E140096B0002907DA002396
:101E50002B60B3891B0611D48023DB000FE06A4698
:101E600000F0D2F80028F2DBF02301991B021940A0
:101E7000054BC9184B4259412960EDE7402300202A
:101E8000236016B070BDC04600E0FFFFF7B5022624
:101E90008B8905000C00334206D0230047332360B2
:101EA000236101236361F7BD6A4601ABFFF7C6FFFB
:101EB000009907002800FFF74DFA002808D10C22EE
:101EC000A35E9A05EFD4032293431E43A681E4E761
:101ED0000F4BAB628023A28920601343A381009B38
:101EE00020616361019B002B0DD028000E23E15E71
:101EF00000F09CF8002806D00322A38993431A001F
:101F000001231343A381A0890743A781CBE7C046E0
:101F100091110000C9B28218904201D1002070478F
:101F200003788B42FBD00130F6E7000010B5024881
:101F3000FFF70DFA10BDC0461801002010B5024889
:101F4000FFF706FA10BDC0461801002070B5050065
:101F5000002910D00C1F2368002B00DAE418280099
:101F6000FFF7E4FF1D4A1368002B05D1636014607E
:101F70002800FFF7E3FF70BDA34208D9216860186D
:101F80008342F3D118685B6841182160EEE71A00BC
:101F90005B68002B01D0A342F9D911685018A04208
:101FA0000BD120680918501811608342E0D11868DD
:101FB0005B68411811605360DAE7A04202D90C2334
:101FC0002B60D5E721686018834203D118685B68ED
:101FD0004118216063605460CAE7C0469C0000203D
:101FE00070B50400080011001A000023054D2B6095
:101FF000FEF728FA431C03D12B68002B00D0236086
:1020000070BDC04620010020002370B5064D0400BD
:10201000080011002B60FEF7C2F8431C03D12B68A7
:10202000002B00D0236070BD20010020002370B57C
:10203000064D040008002B60FEF7B6F8431C03D1E0
:102040002B68002B00D0236070BDC046200100200B
:1020500003B47146490840004900095E49008E44B6
:1020600003BC70472E2E2F68616C2F7372632F682C
:10207000616C5F696F2E63002E2E2F68616C2F7369
:1020800072632F68616C5F7370695F6D5F73796EE7
:10209000632E6300474F54203A20253032780A00DF
:1020A0008100002E2E2F68616C2F7372632F686180
:1020B0006C5F75736172745F6173796E632E630018
:1020C0002E2E2F68706C2F736572636F6D2F687082
:1020D0006C5F736572636F6D2E630000000000001B
:1020E00000000000000000000000000000000000F0
:1020F000000000000C0001100000020000000000C1
:102100000300FF01012E2E2F68616C2F7574696C1E
:10211000732F7372632F7574696C735F72696E6766
:102120006275666665722E63000000000400002080
:10213000000000000000000000000000000000009F
:10214000000000000000000000000000000000008F
:10215000000000000000000000000000000000007F
:10216000000000000000000000000000000000006F
:10217000000000000000000000000000000000005F
:10218000000000000000000000000000000000004F
:10219000232D302B2000686C4C0065666745464750
:1021A00000303132333435363738394142434445D3
:1021B0004600303132333435363738396162636442
:1021C00065660000F8B5C046F8BC08BC9E4670477E
:1021D000E5000000F8B5C046F8BC08BC9E46704754
:0421E000BD0000003E
:1021E40004000020000000005021000070210000C5
:1021F400302100000000000000000000000000008A
:1022040000000000000000000000000000000000CA
:1022140000000000000000000000000000000000BA
:1022240000000000000000000000000000000000AA
:10223400000000000000000000000000000000009A
:042244000000000096
:00000001FF
