
AtmelStart.elf:     file format elf32-littlearm

Sections:
Idx Name          Size      VMA       LMA       File off  Algn
  0 .text         000021e4  00000000  00000000  00010000  2**2
                  CONTENTS, ALLOC, LOAD, READONLY, CODE
  1 .relocate     00000064  20000000  000021e4  00020000  2**2
                  CONTENTS, ALLOC, LOAD, DATA
  2 .bss          000000c0  20000064  00002248  00020064  2**2
                  ALLOC
  3 .stack        00002004  20000124  00002308  00020064  2**0
                  ALLOC
  4 .ARM.attributes 00000028  00000000  00000000  00020064  2**0
                  CONTENTS, READONLY
  5 .comment      00000079  00000000  00000000  0002008c  2**0
                  CONTENTS, READONLY
  6 .debug_info   00018be2  00000000  00000000  00020105  2**0
                  CONTENTS, READONLY, DEBUGGING
  7 .debug_abbrev 00002c27  00000000  00000000  00038ce7  2**0
                  CONTENTS, READONLY, DEBUGGING
  8 .debug_loc    00009a14  00000000  00000000  0003b90e  2**0
                  CONTENTS, READONLY, DEBUGGING
  9 .debug_aranges 000009e0  00000000  00000000  00045322  2**0
                  CONTENTS, READONLY, DEBUGGING
 10 .debug_ranges 000021e0  00000000  00000000  00045d02  2**0
                  CONTENTS, READONLY, DEBUGGING
 11 .debug_macro  0001eb23  00000000  00000000  00047ee2  2**0
                  CONTENTS, READONLY, DEBUGGING
 12 .debug_line   000124c6  00000000  00000000  00066a05  2**0
                  CONTENTS, READONLY, DEBUGGING
 13 .debug_str    0009884d  00000000  00000000  00078ecb  2**0
                  CONTENTS, READONLY, DEBUGGING
 14 .debug_frame  00002220  00000000  00000000  00111718  2**2
                  CONTENTS, READONLY, DEBUGGING

Disassembly of section .text:

00000000 <exception_table>:
}
/**
 * \brief Delay loop to delay n number of cycles
 */
void _delay_cycles(void *const hw, uint32_t cycles)
{
       0:	28 21 00 20 b5 01 00 00 b1 01 00 00 b1 01 00 00     (!. ............
	...
	(void)hw;
	uint8_t  n   = cycles >> 24;
	uint32_t buf = cycles;

	while (n--) {
		SysTick->LOAD = 0xFFFFFF;
      2c:	b1 01 00 00 00 00 00 00 00 00 00 00 b1 01 00 00     ................
		SysTick->VAL  = 0xFFFFFF;
		while (!(SysTick->CTRL & SysTick_CTRL_COUNTFLAG_Msk))
      3c:	b1 01 00 00 b1 01 00 00 b1 01 00 00 b1 01 00 00     ................
      4c:	b1 01 00 00 b1 01 00 00 b1 01 00 00 b1 01 00 00     ................
      5c:	b1 01 00 00 b1 01 00 00 b1 01 00 00 b1 01 00 00     ................
      6c:	b1 01 00 00 b1 01 00 00 29 0c 00 00 b1 01 00 00     ........).......
      7c:	b1 01 00 00 b1 01 00 00 b1 01 00 00 b1 01 00 00     ................
      8c:	b1 01 00 00 b1 01 00 00 b1 01 00 00 b1 01 00 00     ................
      9c:	b1 01 00 00 b1 01 00 00 b1 01 00 00 b1 01 00 00     ................
      ac:	b1 01 00 00 b1 01 00 00 b1 01 00 00 b1 01 00 00     ................

000000bc <__do_global_dtors_aux>:
      bc:	b510      	push	{r4, lr}
      be:	4c06      	ldr	r4, [pc, #24]	; (d8 <__do_global_dtors_aux+0x1c>)
      c0:	7823      	ldrb	r3, [r4, #0]
      c2:	2b00      	cmp	r3, #0
      c4:	d107      	bne.n	d6 <__do_global_dtors_aux+0x1a>
      c6:	4b05      	ldr	r3, [pc, #20]	; (dc <__do_global_dtors_aux+0x20>)
      c8:	2b00      	cmp	r3, #0
      ca:	d002      	beq.n	d2 <__do_global_dtors_aux+0x16>
      cc:	4804      	ldr	r0, [pc, #16]	; (e0 <__do_global_dtors_aux+0x24>)
      ce:	e000      	b.n	d2 <__do_global_dtors_aux+0x16>
      d0:	bf00      	nop
      d2:	2301      	movs	r3, #1
      d4:	7023      	strb	r3, [r4, #0]
      d6:	bd10      	pop	{r4, pc}
      d8:	20000064 	.word	0x20000064
      dc:	00000000 	.word	0x00000000
      e0:	000021e4 	.word	0x000021e4

000000e4 <frame_dummy>:
      e4:	4b04      	ldr	r3, [pc, #16]	; (f8 <frame_dummy+0x14>)
      e6:	b510      	push	{r4, lr}
      e8:	2b00      	cmp	r3, #0
      ea:	d003      	beq.n	f4 <frame_dummy+0x10>
      ec:	4903      	ldr	r1, [pc, #12]	; (fc <frame_dummy+0x18>)
      ee:	4804      	ldr	r0, [pc, #16]	; (100 <frame_dummy+0x1c>)
      f0:	e000      	b.n	f4 <frame_dummy+0x10>
      f2:	bf00      	nop
      f4:	bd10      	pop	{r4, pc}
      f6:	46c0      	nop			; (mov r8, r8)
      f8:	00000000 	.word	0x00000000
      fc:	20000068 	.word	0x20000068
     100:	000021e4 	.word	0x000021e4

00000104 <io_write>:

/**
 * \brief I/O write interface
 */
int32_t io_write(struct io_descriptor *const io_descr, const uint8_t *const buf, const uint16_t length)
{
     104:	b570      	push	{r4, r5, r6, lr}
     106:	0004      	movs	r4, r0
     108:	000d      	movs	r5, r1
     10a:	0016      	movs	r6, r2
	ASSERT(io_descr && buf);
     10c:	2800      	cmp	r0, #0
     10e:	d002      	beq.n	116 <io_write+0x12>
     110:	0008      	movs	r0, r1
     112:	1e43      	subs	r3, r0, #1
     114:	4198      	sbcs	r0, r3
     116:	2234      	movs	r2, #52	; 0x34
     118:	4904      	ldr	r1, [pc, #16]	; (12c <io_write+0x28>)
     11a:	4b05      	ldr	r3, [pc, #20]	; (130 <io_write+0x2c>)
     11c:	4798      	blx	r3
	return io_descr->write(io_descr, buf, length);
     11e:	0032      	movs	r2, r6
     120:	0029      	movs	r1, r5
     122:	0020      	movs	r0, r4
     124:	6823      	ldr	r3, [r4, #0]
     126:	4798      	blx	r3
}
     128:	bd70      	pop	{r4, r5, r6, pc}
     12a:	46c0      	nop			; (mov r8, r8)
     12c:	00002064 	.word	0x00002064
     130:	000003f1 	.word	0x000003f1

00000134 <io_read>:

/**
 * \brief I/O read interface
 */
int32_t io_read(struct io_descriptor *const io_descr, uint8_t *const buf, const uint16_t length)
{
     134:	b570      	push	{r4, r5, r6, lr}
     136:	0004      	movs	r4, r0
     138:	000d      	movs	r5, r1
     13a:	0016      	movs	r6, r2
	ASSERT(io_descr && buf);
     13c:	2800      	cmp	r0, #0
     13e:	d002      	beq.n	146 <io_read+0x12>
     140:	0008      	movs	r0, r1
     142:	1e43      	subs	r3, r0, #1
     144:	4198      	sbcs	r0, r3
     146:	223d      	movs	r2, #61	; 0x3d
     148:	4904      	ldr	r1, [pc, #16]	; (15c <io_read+0x28>)
     14a:	4b05      	ldr	r3, [pc, #20]	; (160 <io_read+0x2c>)
     14c:	4798      	blx	r3
	return io_descr->read(io_descr, buf, length);
     14e:	0032      	movs	r2, r6
     150:	0029      	movs	r1, r5
     152:	0020      	movs	r0, r4
     154:	6863      	ldr	r3, [r4, #4]
     156:	4798      	blx	r3
}
     158:	bd70      	pop	{r4, r5, r6, pc}
     15a:	46c0      	nop			; (mov r8, r8)
     15c:	00002064 	.word	0x00002064
     160:	000003f1 	.word	0x000003f1

00000164 <_delay_init>:
     164:	4b02      	ldr	r3, [pc, #8]	; (170 <_delay_init+0xc>)
     166:	4a03      	ldr	r2, [pc, #12]	; (174 <_delay_init+0x10>)
     168:	605a      	str	r2, [r3, #4]
     16a:	2205      	movs	r2, #5
     16c:	601a      	str	r2, [r3, #0]
     16e:	4770      	bx	lr
     170:	e000e010 	.word	0xe000e010
     174:	00ffffff 	.word	0x00ffffff

00000178 <_sbrk>:
extern caddr_t _sbrk(int incr)
{
	static unsigned char *heap = NULL;
	unsigned char *       prev_heap;

	if (heap == NULL) {
     178:	4a05      	ldr	r2, [pc, #20]	; (190 <_sbrk+0x18>)
{
     17a:	0003      	movs	r3, r0
	if (heap == NULL) {
     17c:	6811      	ldr	r1, [r2, #0]
     17e:	2900      	cmp	r1, #0
     180:	d101      	bne.n	186 <_sbrk+0xe>
		heap = (unsigned char *)&_end;
     182:	4904      	ldr	r1, [pc, #16]	; (194 <_sbrk+0x1c>)
     184:	6011      	str	r1, [r2, #0]
	}
	prev_heap = heap;
     186:	6810      	ldr	r0, [r2, #0]

	heap += incr;
     188:	18c3      	adds	r3, r0, r3
     18a:	6013      	str	r3, [r2, #0]

	return (caddr_t)prev_heap;
}
     18c:	4770      	bx	lr
     18e:	46c0      	nop			; (mov r8, r8)
     190:	20000080 	.word	0x20000080
     194:	20002128 	.word	0x20002128

00000198 <_close>:
 * \brief Replacement of C library of _close
 */
extern int _close(int file)
{
	(void)file;
	return -1;
     198:	2001      	movs	r0, #1
}
     19a:	4240      	negs	r0, r0
     19c:	4770      	bx	lr

0000019e <_fstat>:
 * \brief Replacement of C library of _fstat
 */
extern int _fstat(int file, struct stat *st)
{
	(void)file;
	st->st_mode = S_IFCHR;
     19e:	2380      	movs	r3, #128	; 0x80
     1a0:	019b      	lsls	r3, r3, #6

	return 0;
}
     1a2:	2000      	movs	r0, #0
	st->st_mode = S_IFCHR;
     1a4:	604b      	str	r3, [r1, #4]
}
     1a6:	4770      	bx	lr

000001a8 <_isatty>:
 */
extern int _isatty(int file)
{
	(void)file;
	return 1;
}
     1a8:	2001      	movs	r0, #1
     1aa:	4770      	bx	lr

000001ac <_lseek>:
 */
extern int _lseek(int file, int ptr, int dir)
{
	(void)file, (void)ptr, (void)dir;
	return 0;
}
     1ac:	2000      	movs	r0, #0
     1ae:	4770      	bx	lr

000001b0 <Dummy_Handler>:
/**
 * \brief Default interrupt handler for unused IRQs.
 */
void Dummy_Handler(void)
{
	while (1) {
     1b0:	e7fe      	b.n	1b0 <Dummy_Handler>
	...

000001b4 <Reset_Handler>:
	if (pSrc != pDest) {
     1b4:	4a0d      	ldr	r2, [pc, #52]	; (1ec <Reset_Handler+0x38>)
     1b6:	4b0e      	ldr	r3, [pc, #56]	; (1f0 <Reset_Handler+0x3c>)
{
     1b8:	b510      	push	{r4, lr}
		for (; pDest < &_erelocate;) {
     1ba:	490e      	ldr	r1, [pc, #56]	; (1f4 <Reset_Handler+0x40>)
	if (pSrc != pDest) {
     1bc:	429a      	cmp	r2, r3
     1be:	d110      	bne.n	1e2 <Reset_Handler+0x2e>
		*pDest++ = 0;
     1c0:	2100      	movs	r1, #0
     1c2:	4b0d      	ldr	r3, [pc, #52]	; (1f8 <Reset_Handler+0x44>)
	for (pDest = &_szero; pDest < &_ezero;) {
     1c4:	4a0d      	ldr	r2, [pc, #52]	; (1fc <Reset_Handler+0x48>)
     1c6:	4293      	cmp	r3, r2
     1c8:	d30e      	bcc.n	1e8 <Reset_Handler+0x34>
	SCB->VTOR = ((uint32_t)pSrc & SCB_VTOR_TBLOFF_Msk);
     1ca:	22ff      	movs	r2, #255	; 0xff
     1cc:	4b0c      	ldr	r3, [pc, #48]	; (200 <Reset_Handler+0x4c>)
     1ce:	4393      	bics	r3, r2
     1d0:	4a0c      	ldr	r2, [pc, #48]	; (204 <Reset_Handler+0x50>)
     1d2:	6093      	str	r3, [r2, #8]
	__libc_init_array();
     1d4:	4b0c      	ldr	r3, [pc, #48]	; (208 <Reset_Handler+0x54>)
     1d6:	4798      	blx	r3
	main();
     1d8:	4b0c      	ldr	r3, [pc, #48]	; (20c <Reset_Handler+0x58>)
     1da:	4798      	blx	r3
	while (1)
     1dc:	e7fe      	b.n	1dc <Reset_Handler+0x28>
			*pDest++ = *pSrc++;
     1de:	ca01      	ldmia	r2!, {r0}
     1e0:	c301      	stmia	r3!, {r0}
		for (; pDest < &_erelocate;) {
     1e2:	428b      	cmp	r3, r1
     1e4:	d3fb      	bcc.n	1de <Reset_Handler+0x2a>
     1e6:	e7eb      	b.n	1c0 <Reset_Handler+0xc>
		*pDest++ = 0;
     1e8:	c302      	stmia	r3!, {r1}
     1ea:	e7ec      	b.n	1c6 <Reset_Handler+0x12>
     1ec:	000021e4 	.word	0x000021e4
     1f0:	20000000 	.word	0x20000000
     1f4:	20000064 	.word	0x20000064
     1f8:	20000064 	.word	0x20000064
     1fc:	20000124 	.word	0x20000124
     200:	00000000 	.word	0x00000000
     204:	e000ed00 	.word	0xe000ed00
     208:	000010a9 	.word	0x000010a9
     20c:	000004bd 	.word	0x000004bd

00000210 <spi_m_sync_init>:
	ASSERT(spi);
	spi->func = (struct _spi_m_sync_hpl_interface *)func;
}

int32_t spi_m_sync_init(struct spi_m_sync_descriptor *spi, void *const hw)
{
     210:	b570      	push	{r4, r5, r6, lr}
     212:	0004      	movs	r4, r0
     214:	000d      	movs	r5, r1
	int32_t rc = 0;
	ASSERT(spi && hw);
     216:	2800      	cmp	r0, #0
     218:	d002      	beq.n	220 <spi_m_sync_init+0x10>
     21a:	0008      	movs	r0, r1
     21c:	1e43      	subs	r3, r0, #1
     21e:	4198      	sbcs	r0, r3
     220:	4909      	ldr	r1, [pc, #36]	; (248 <spi_m_sync_init+0x38>)
     222:	4b0a      	ldr	r3, [pc, #40]	; (24c <spi_m_sync_init+0x3c>)
     224:	2240      	movs	r2, #64	; 0x40
     226:	4798      	blx	r3
	spi->dev.prvt = (void *)hw;
	rc            = _spi_m_sync_init(&spi->dev, hw);
     228:	0029      	movs	r1, r5
     22a:	4b09      	ldr	r3, [pc, #36]	; (250 <spi_m_sync_init+0x40>)
	spi->dev.prvt = (void *)hw;
     22c:	6065      	str	r5, [r4, #4]
	rc            = _spi_m_sync_init(&spi->dev, hw);
     22e:	1d20      	adds	r0, r4, #4
     230:	4798      	blx	r3

	if (rc < 0) {
     232:	2800      	cmp	r0, #0
     234:	db06      	blt.n	244 <spi_m_sync_init+0x34>

	spi->flags    = SPI_DEACTIVATE_NEXT;
	spi->io.read  = _spi_m_sync_io_read;
	spi->io.write = _spi_m_sync_io_write;

	return ERR_NONE;
     236:	2000      	movs	r0, #0
	spi->flags    = SPI_DEACTIVATE_NEXT;
     238:	4b06      	ldr	r3, [pc, #24]	; (254 <spi_m_sync_init+0x44>)
     23a:	82a3      	strh	r3, [r4, #20]
	spi->io.read  = _spi_m_sync_io_read;
     23c:	4b06      	ldr	r3, [pc, #24]	; (258 <spi_m_sync_init+0x48>)
     23e:	6123      	str	r3, [r4, #16]
	spi->io.write = _spi_m_sync_io_write;
     240:	4b06      	ldr	r3, [pc, #24]	; (25c <spi_m_sync_init+0x4c>)
     242:	60e3      	str	r3, [r4, #12]
}
     244:	bd70      	pop	{r4, r5, r6, pc}
     246:	46c0      	nop			; (mov r8, r8)
     248:	00002078 	.word	0x00002078
     24c:	000003f1 	.word	0x000003f1
     250:	00000c95 	.word	0x00000c95
     254:	ffff8000 	.word	0xffff8000
     258:	00000301 	.word	0x00000301
     25c:	000002c9 	.word	0x000002c9

00000260 <spi_m_sync_enable>:
	ASSERT(spi);
	_spi_m_sync_deinit(&spi->dev);
}

void spi_m_sync_enable(struct spi_m_sync_descriptor *spi)
{
     260:	b510      	push	{r4, lr}
     262:	0004      	movs	r4, r0
	ASSERT(spi);
     264:	1e43      	subs	r3, r0, #1
     266:	4198      	sbcs	r0, r3
     268:	2257      	movs	r2, #87	; 0x57
     26a:	4904      	ldr	r1, [pc, #16]	; (27c <spi_m_sync_enable+0x1c>)
     26c:	4b04      	ldr	r3, [pc, #16]	; (280 <spi_m_sync_enable+0x20>)
     26e:	b2c0      	uxtb	r0, r0
     270:	4798      	blx	r3
	_spi_m_sync_enable(&spi->dev);
     272:	4b04      	ldr	r3, [pc, #16]	; (284 <spi_m_sync_enable+0x24>)
     274:	1d20      	adds	r0, r4, #4
     276:	4798      	blx	r3
}
     278:	bd10      	pop	{r4, pc}
     27a:	46c0      	nop			; (mov r8, r8)
     27c:	00002078 	.word	0x00002078
     280:	000003f1 	.word	0x000003f1
     284:	00000e41 	.word	0x00000e41

00000288 <spi_m_sync_transfer>:

	return spi_m_sync_transfer(spi, &xfer);
}

int32_t spi_m_sync_transfer(struct spi_m_sync_descriptor *spi, const struct spi_xfer *p_xfer)
{
     288:	b530      	push	{r4, r5, lr}
     28a:	0004      	movs	r4, r0
     28c:	000d      	movs	r5, r1
     28e:	b087      	sub	sp, #28
	struct spi_msg msg;

	ASSERT(spi && p_xfer);
     290:	2800      	cmp	r0, #0
     292:	d002      	beq.n	29a <spi_m_sync_transfer+0x12>
     294:	0008      	movs	r0, r1
     296:	1e43      	subs	r3, r0, #1
     298:	4198      	sbcs	r0, r3
     29a:	22b3      	movs	r2, #179	; 0xb3
     29c:	4907      	ldr	r1, [pc, #28]	; (2bc <spi_m_sync_transfer+0x34>)
     29e:	4b08      	ldr	r3, [pc, #32]	; (2c0 <spi_m_sync_transfer+0x38>)
     2a0:	4798      	blx	r3

	msg.txbuf = p_xfer->txbuf;
     2a2:	682b      	ldr	r3, [r5, #0]
	msg.rxbuf = p_xfer->rxbuf;
	msg.size  = p_xfer->size;
	return _spi_m_sync_trans(&spi->dev, &msg);
     2a4:	1d20      	adds	r0, r4, #4
	msg.txbuf = p_xfer->txbuf;
     2a6:	9303      	str	r3, [sp, #12]
	msg.rxbuf = p_xfer->rxbuf;
     2a8:	686b      	ldr	r3, [r5, #4]
	return _spi_m_sync_trans(&spi->dev, &msg);
     2aa:	a903      	add	r1, sp, #12
	msg.rxbuf = p_xfer->rxbuf;
     2ac:	9304      	str	r3, [sp, #16]
	msg.size  = p_xfer->size;
     2ae:	68ab      	ldr	r3, [r5, #8]
     2b0:	9301      	str	r3, [sp, #4]
     2b2:	9305      	str	r3, [sp, #20]
	return _spi_m_sync_trans(&spi->dev, &msg);
     2b4:	4b03      	ldr	r3, [pc, #12]	; (2c4 <spi_m_sync_transfer+0x3c>)
     2b6:	4798      	blx	r3
}
     2b8:	b007      	add	sp, #28
     2ba:	bd30      	pop	{r4, r5, pc}
     2bc:	00002078 	.word	0x00002078
     2c0:	000003f1 	.word	0x000003f1
     2c4:	00000e6d 	.word	0x00000e6d

000002c8 <_spi_m_sync_io_write>:
{
     2c8:	b57f      	push	{r0, r1, r2, r3, r4, r5, r6, lr}
     2ca:	0004      	movs	r4, r0
	ASSERT(io);
     2cc:	1e43      	subs	r3, r0, #1
     2ce:	4198      	sbcs	r0, r3
{
     2d0:	000e      	movs	r6, r1
     2d2:	0015      	movs	r5, r2
	ASSERT(io);
     2d4:	4907      	ldr	r1, [pc, #28]	; (2f4 <_spi_m_sync_io_write+0x2c>)
     2d6:	22a3      	movs	r2, #163	; 0xa3
     2d8:	4b07      	ldr	r3, [pc, #28]	; (2f8 <_spi_m_sync_io_write+0x30>)
     2da:	b2c0      	uxtb	r0, r0
     2dc:	4798      	blx	r3
	xfer.rxbuf = 0;
     2de:	2300      	movs	r3, #0
	struct spi_m_sync_descriptor *spi = CONTAINER_OF(io, struct spi_m_sync_descriptor, io);
     2e0:	0020      	movs	r0, r4
	xfer.rxbuf = 0;
     2e2:	9302      	str	r3, [sp, #8]
	return spi_m_sync_transfer(spi, &xfer);
     2e4:	a901      	add	r1, sp, #4
     2e6:	4b05      	ldr	r3, [pc, #20]	; (2fc <_spi_m_sync_io_write+0x34>)
	struct spi_m_sync_descriptor *spi = CONTAINER_OF(io, struct spi_m_sync_descriptor, io);
     2e8:	380c      	subs	r0, #12
	xfer.txbuf = (uint8_t *)buf;
     2ea:	9601      	str	r6, [sp, #4]
	xfer.size  = length;
     2ec:	9503      	str	r5, [sp, #12]
	return spi_m_sync_transfer(spi, &xfer);
     2ee:	4798      	blx	r3
}
     2f0:	b004      	add	sp, #16
     2f2:	bd70      	pop	{r4, r5, r6, pc}
     2f4:	00002078 	.word	0x00002078
     2f8:	000003f1 	.word	0x000003f1
     2fc:	00000289 	.word	0x00000289

00000300 <_spi_m_sync_io_read>:
{
     300:	b57f      	push	{r0, r1, r2, r3, r4, r5, r6, lr}
     302:	0004      	movs	r4, r0
	ASSERT(io);
     304:	1e43      	subs	r3, r0, #1
     306:	4198      	sbcs	r0, r3
{
     308:	000e      	movs	r6, r1
     30a:	0015      	movs	r5, r2
	ASSERT(io);
     30c:	4907      	ldr	r1, [pc, #28]	; (32c <_spi_m_sync_io_read+0x2c>)
     30e:	2287      	movs	r2, #135	; 0x87
     310:	4b07      	ldr	r3, [pc, #28]	; (330 <_spi_m_sync_io_read+0x30>)
     312:	b2c0      	uxtb	r0, r0
     314:	4798      	blx	r3
	xfer.txbuf = 0;
     316:	2300      	movs	r3, #0
	struct spi_m_sync_descriptor *spi = CONTAINER_OF(io, struct spi_m_sync_descriptor, io);
     318:	0020      	movs	r0, r4
	xfer.txbuf = 0;
     31a:	9301      	str	r3, [sp, #4]
	return spi_m_sync_transfer(spi, &xfer);
     31c:	a901      	add	r1, sp, #4
     31e:	4b05      	ldr	r3, [pc, #20]	; (334 <_spi_m_sync_io_read+0x34>)
	struct spi_m_sync_descriptor *spi = CONTAINER_OF(io, struct spi_m_sync_descriptor, io);
     320:	380c      	subs	r0, #12
	xfer.rxbuf = buf;
     322:	9602      	str	r6, [sp, #8]
	xfer.size  = length;
     324:	9503      	str	r5, [sp, #12]
	return spi_m_sync_transfer(spi, &xfer);
     326:	4798      	blx	r3
}
     328:	b004      	add	sp, #16
     32a:	bd70      	pop	{r4, r5, r6, pc}
     32c:	00002078 	.word	0x00002078
     330:	000003f1 	.word	0x000003f1
     334:	00000289 	.word	0x00000289

00000338 <spi_m_sync_get_io_descriptor>:

int32_t spi_m_sync_get_io_descriptor(struct spi_m_sync_descriptor *const spi, struct io_descriptor **io)
{
     338:	b570      	push	{r4, r5, r6, lr}
     33a:	0004      	movs	r4, r0
     33c:	000d      	movs	r5, r1
	ASSERT(spi && io);
     33e:	2800      	cmp	r0, #0
     340:	d002      	beq.n	348 <spi_m_sync_get_io_descriptor+0x10>
     342:	0008      	movs	r0, r1
     344:	1e43      	subs	r3, r0, #1
     346:	4198      	sbcs	r0, r3
     348:	22bd      	movs	r2, #189	; 0xbd
     34a:	4903      	ldr	r1, [pc, #12]	; (358 <spi_m_sync_get_io_descriptor+0x20>)
     34c:	4b03      	ldr	r3, [pc, #12]	; (35c <spi_m_sync_get_io_descriptor+0x24>)
	*io = &spi->io;
     34e:	340c      	adds	r4, #12
	ASSERT(spi && io);
     350:	4798      	blx	r3
	return 0;
}
     352:	2000      	movs	r0, #0
	*io = &spi->io;
     354:	602c      	str	r4, [r5, #0]
}
     356:	bd70      	pop	{r4, r5, r6, pc}
     358:	00002078 	.word	0x00002078
     35c:	000003f1 	.word	0x000003f1

00000360 <delay_init>:

/**
 * \brief Initialize Delay driver
 */
void delay_init(void *const hw)
{
     360:	b510      	push	{r4, lr}
	_delay_init(hardware = hw);
     362:	4b02      	ldr	r3, [pc, #8]	; (36c <delay_init+0xc>)
     364:	6018      	str	r0, [r3, #0]
     366:	4b02      	ldr	r3, [pc, #8]	; (370 <delay_init+0x10>)
     368:	4798      	blx	r3
}
     36a:	bd10      	pop	{r4, pc}
     36c:	20000084 	.word	0x20000084
     370:	00000165 	.word	0x00000165

00000374 <_oscctrl_init_sources>:
}

static inline void hri_oscctrl_write_OSC48MCTRL_reg(const void *const hw, hri_oscctrl_osc48mctrl_reg_t data)
{
	OSCCTRL_CRITICAL_SECTION_ENTER();
	((Oscctrl *)hw)->OSC48MCTRL.reg = data;
     374:	2202      	movs	r2, #2
     376:	4b0c      	ldr	r3, [pc, #48]	; (3a8 <_oscctrl_init_sources+0x34>)
     378:	751a      	strb	r2, [r3, #20]
}

static inline void hri_oscctrl_write_OSC48MDIV_reg(const void *const hw, hri_oscctrl_osc48mdiv_reg_t data)
{
	OSCCTRL_CRITICAL_SECTION_ENTER();
	((Oscctrl *)hw)->OSC48MDIV.reg = data;
     37a:	3209      	adds	r2, #9
     37c:	755a      	strb	r2, [r3, #21]
	while (((Oscctrl *)hw)->OSC48MSYNCBUSY.reg & reg) {
     37e:	3a07      	subs	r2, #7
     380:	6999      	ldr	r1, [r3, #24]
     382:	4211      	tst	r1, r2
     384:	d1fc      	bne.n	380 <_oscctrl_init_sources+0xc>
	       >> OSCCTRL_OSC48MSYNCBUSY_OSC48MDIV_Pos;
     386:	2101      	movs	r1, #1
	return (((Oscctrl *)hw)->OSC48MSYNCBUSY.reg & OSCCTRL_OSC48MSYNCBUSY_OSC48MDIV)
     388:	699a      	ldr	r2, [r3, #24]
	       >> OSCCTRL_OSC48MSYNCBUSY_OSC48MDIV_Pos;
     38a:	0892      	lsrs	r2, r2, #2
#if CONF_OSC48M_CONFIG == 1
	hri_oscctrl_write_OSC48MCTRL_reg(hw,
	                                 (CONF_OSC48M_RUNSTDBY << OSCCTRL_OSC48MCTRL_RUNSTDBY_Pos)
	                                     | (CONF_OSC48M_ENABLE << OSCCTRL_OSC48MCTRL_ENABLE_Pos));
	hri_oscctrl_write_OSC48MDIV_reg(hw, OSCCTRL_OSC48MDIV_DIV(CONF_OSC48M_DIV));
	while (hri_oscctrl_get_OSC48MSYNCBUSY_OSC48MDIV_bit(hw))
     38c:	420a      	tst	r2, r1
     38e:	d1fb      	bne.n	388 <_oscctrl_init_sources+0x14>
}

static inline void hri_oscctrl_write_OSC48MSTUP_reg(const void *const hw, hri_oscctrl_osc48mstup_reg_t data)
{
	OSCCTRL_CRITICAL_SECTION_ENTER();
	((Oscctrl *)hw)->OSC48MSTUP.reg = data;
     390:	2207      	movs	r2, #7
	return (((Oscctrl *)hw)->STATUS.reg & OSCCTRL_STATUS_OSC48MRDY) >> OSCCTRL_STATUS_OSC48MRDY_Pos;
     392:	2101      	movs	r1, #1
	((Oscctrl *)hw)->OSC48MSTUP.reg = data;
     394:	759a      	strb	r2, [r3, #22]
	return (((Oscctrl *)hw)->STATUS.reg & OSCCTRL_STATUS_OSC48MRDY) >> OSCCTRL_STATUS_OSC48MRDY_Pos;
     396:	68da      	ldr	r2, [r3, #12]
     398:	0912      	lsrs	r2, r2, #4
#endif
#endif

#if CONF_OSC48M_CONFIG == 1
#if CONF_OSC48M_ENABLE == 1
	while (!hri_oscctrl_get_STATUS_OSC48MRDY_bit(hw))
     39a:	420a      	tst	r2, r1
     39c:	d0fb      	beq.n	396 <_oscctrl_init_sources+0x22>
	((Oscctrl *)hw)->OSC48MCTRL.reg |= OSCCTRL_OSC48MCTRL_ONDEMAND;
     39e:	2180      	movs	r1, #128	; 0x80
     3a0:	7d1a      	ldrb	r2, [r3, #20]
     3a2:	430a      	orrs	r2, r1
     3a4:	751a      	strb	r2, [r3, #20]
#if CONF_OSC48M_ONDEMAND == 1
	hri_oscctrl_set_OSC48MCTRL_ONDEMAND_bit(hw);
#endif
#endif
	(void)hw;
}
     3a6:	4770      	bx	lr
     3a8:	40001000 	.word	0x40001000

000003ac <_oscctrl_init_referenced_generators>:
#if CONF_DPLL_ONDEMAND == 1
	hri_oscctrl_set_DPLLCTRLA_ONDEMAND_bit(hw);
#endif
#endif
	(void)hw;
}
     3ac:	4770      	bx	lr
	...

000003b0 <_init_chip>:
}

static inline void hri_nvmctrl_set_CTRLB_RWS_bf(const void *const hw, hri_nvmctrl_ctrlb_reg_t mask)
{
	NVMCTRL_CRITICAL_SECTION_ENTER();
	((Nvmctrl *)hw)->CTRLB.reg |= NVMCTRL_CTRLB_RWS(mask);
     3b0:	4b08      	ldr	r3, [pc, #32]	; (3d4 <_init_chip+0x24>)

/**
 * \brief Initialize the hardware abstraction layer
 */
void _init_chip(void)
{
     3b2:	b510      	push	{r4, lr}
     3b4:	685a      	ldr	r2, [r3, #4]
     3b6:	605a      	str	r2, [r3, #4]
	hri_nvmctrl_set_CTRLB_RWS_bf(NVMCTRL, CONF_NVM_WAIT_STATE);

	_osc32kctrl_init_sources();
     3b8:	4b07      	ldr	r3, [pc, #28]	; (3d8 <_init_chip+0x28>)
     3ba:	4798      	blx	r3
	_oscctrl_init_sources();
     3bc:	4b07      	ldr	r3, [pc, #28]	; (3dc <_init_chip+0x2c>)
     3be:	4798      	blx	r3
	_mclk_init();
     3c0:	4b07      	ldr	r3, [pc, #28]	; (3e0 <_init_chip+0x30>)
     3c2:	4798      	blx	r3
#if _GCLK_INIT_1ST
	_gclk_init_generators_by_fref(_GCLK_INIT_1ST);
#endif
	_oscctrl_init_referenced_generators();
     3c4:	4b07      	ldr	r3, [pc, #28]	; (3e4 <_init_chip+0x34>)
     3c6:	4798      	blx	r3
	_gclk_init_generators_by_fref(_GCLK_INIT_LAST);
     3c8:	20ff      	movs	r0, #255	; 0xff
     3ca:	4b07      	ldr	r3, [pc, #28]	; (3e8 <_init_chip+0x38>)
     3cc:	4798      	blx	r3

	_div_init();
     3ce:	4b07      	ldr	r3, [pc, #28]	; (3ec <_init_chip+0x3c>)
     3d0:	4798      	blx	r3
#endif

#if (CONF_PORT_EVCTRL_PORT_0 | CONF_PORT_EVCTRL_PORT_1 | CONF_PORT_EVCTRL_PORT_2 | CONF_PORT_EVCTRL_PORT_3)
	_port_event_init();
#endif
}
     3d2:	bd10      	pop	{r4, pc}
     3d4:	41004000 	.word	0x41004000
     3d8:	00000525 	.word	0x00000525
     3dc:	00000375 	.word	0x00000375
     3e0:	000003f9 	.word	0x000003f9
     3e4:	000003ad 	.word	0x000003ad
     3e8:	00000405 	.word	0x00000405
     3ec:	0000103d 	.word	0x0000103d

000003f0 <assert>:
/**
 * \brief Assert function
 */
void assert(const bool condition, const char *const file, const int line)
{
	if (!(condition)) {
     3f0:	2800      	cmp	r0, #0
     3f2:	d100      	bne.n	3f6 <assert+0x6>
		__asm("BKPT #0");
     3f4:	be00      	bkpt	0x0000
	}
	(void)file;
	(void)line;
}
     3f6:	4770      	bx	lr

000003f8 <_mclk_init>:
}

static inline void hri_mclk_write_CPUDIV_reg(const void *const hw, hri_mclk_cpudiv_reg_t data)
{
	MCLK_CRITICAL_SECTION_ENTER();
	((Mclk *)hw)->CPUDIV.reg = data;
     3f8:	2201      	movs	r2, #1
     3fa:	4b01      	ldr	r3, [pc, #4]	; (400 <_mclk_init+0x8>)
     3fc:	711a      	strb	r2, [r3, #4]
 */
void _mclk_init(void)
{
	void *hw = (void *)MCLK;
	hri_mclk_write_CPUDIV_reg(hw, MCLK_CPUDIV_CPUDIV(CONF_MCLK_CPUDIV));
}
     3fe:	4770      	bx	lr
     400:	40000800 	.word	0x40000800

00000404 <_gclk_init_generators_by_fref>:

void _gclk_init_generators_by_fref(uint32_t bm)
{

#if CONF_GCLK_GENERATOR_0_CONFIG == 1
	if (bm & (1ul << 0)) {
     404:	07c3      	lsls	r3, r0, #31
     406:	d506      	bpl.n	416 <_gclk_init_generators_by_fref+0x12>
}

static inline void hri_gclk_write_GENCTRL_reg(const void *const hw, uint8_t index, hri_gclk_genctrl_reg_t data)
{
	GCLK_CRITICAL_SECTION_ENTER();
	((Gclk *)hw)->GENCTRL[index].reg = data;
     408:	4a03      	ldr	r2, [pc, #12]	; (418 <_gclk_init_generators_by_fref+0x14>)
     40a:	4b04      	ldr	r3, [pc, #16]	; (41c <_gclk_init_generators_by_fref+0x18>)
     40c:	621a      	str	r2, [r3, #32]
	while (((Gclk *)hw)->SYNCBUSY.reg & reg) {
     40e:	4a04      	ldr	r2, [pc, #16]	; (420 <_gclk_init_generators_by_fref+0x1c>)
     410:	6859      	ldr	r1, [r3, #4]
     412:	4211      	tst	r1, r2
     414:	d1fc      	bne.n	410 <_gclk_init_generators_by_fref+0xc>
		        | (CONF_GCLK_GEN_8_DIVSEL << GCLK_GENCTRL_DIVSEL_Pos) | (CONF_GCLK_GEN_8_OE << GCLK_GENCTRL_OE_Pos)
		        | (CONF_GCLK_GEN_8_OOV << GCLK_GENCTRL_OOV_Pos) | (CONF_GCLK_GEN_8_IDC << GCLK_GENCTRL_IDC_Pos)
		        | (CONF_GCLK_GENERATOR_8_CONFIG << GCLK_GENCTRL_GENEN_Pos) | CONF_GCLK_GEN_8_SOURCE);
	}
#endif
}
     416:	4770      	bx	lr
     418:	00010106 	.word	0x00010106
     41c:	40001c00 	.word	0x40001c00
     420:	000007fd 	.word	0x000007fd

00000424 <err_cb_UART_DBG>:
int _write(int fd, const void *buf, size_t count) { io_write(uart_dbg, buf, count); return count; }

int _read(int fd, const void *buf, size_t count){ return -1;};

static void err_cb_UART_DBG(const struct usart_async_descriptor *const io_descr) {
  asm("nop");
     424:	46c0      	nop			; (mov r8, r8)
}
     426:	4770      	bx	lr

00000428 <_write>:
int _write(int fd, const void *buf, size_t count) { io_write(uart_dbg, buf, count); return count; }
     428:	b510      	push	{r4, lr}
     42a:	0014      	movs	r4, r2
     42c:	4b03      	ldr	r3, [pc, #12]	; (43c <_write+0x14>)
     42e:	b292      	uxth	r2, r2
     430:	6818      	ldr	r0, [r3, #0]
     432:	4b03      	ldr	r3, [pc, #12]	; (440 <_write+0x18>)
     434:	4798      	blx	r3
     436:	0020      	movs	r0, r4
     438:	bd10      	pop	{r4, pc}
     43a:	46c0      	nop			; (mov r8, r8)
     43c:	200000a8 	.word	0x200000a8
     440:	00000105 	.word	0x00000105

00000444 <_read>:
int _read(int fd, const void *buf, size_t count){ return -1;};
     444:	2001      	movs	r0, #1
     446:	4240      	negs	r0, r0
     448:	4770      	bx	lr
	...

0000044c <dac60508_check_device_id>:
    dac60508_check_device_id();
  while (1) {
  }
}

int dac60508_check_device_id() {
     44c:	b5f7      	push	{r0, r1, r2, r4, r5, r6, r7, lr}
  uint8_t check_device_id_cmd[] = {0x81, 0x00, 0x00};
     44e:	2603      	movs	r6, #3
	((Port *)hw)->Group[submodule_index].OUTCLR.reg = ~data;
}

static inline void hri_port_clear_OUT_reg(const void *const hw, uint8_t submodule_index, hri_port_out_reg_t mask)
{
	((Port *)hw)->Group[submodule_index].OUTCLR.reg = mask;
     450:	24c0      	movs	r4, #192	; 0xc0
     452:	2580      	movs	r5, #128	; 0x80
     454:	0032      	movs	r2, r6
     456:	4668      	mov	r0, sp
     458:	4911      	ldr	r1, [pc, #68]	; (4a0 <dac60508_check_device_id+0x54>)
     45a:	4b12      	ldr	r3, [pc, #72]	; (4a4 <dac60508_check_device_id+0x58>)
     45c:	4798      	blx	r3
  uint8_t check_device_id_ans[3];
  static uint8_t example_SPI_MASTER[12] = "Hello World!";

  gpio_set_pin_level(SPI_EN, 0);
  io_write(spi_master, check_device_id_cmd, sizeof(check_device_id_cmd));
     45e:	4f12      	ldr	r7, [pc, #72]	; (4a8 <dac60508_check_device_id+0x5c>)
     460:	05e4      	lsls	r4, r4, #23
     462:	02ad      	lsls	r5, r5, #10
     464:	0032      	movs	r2, r6
     466:	4669      	mov	r1, sp
     468:	6165      	str	r5, [r4, #20]
     46a:	6838      	ldr	r0, [r7, #0]
     46c:	4b0f      	ldr	r3, [pc, #60]	; (4ac <dac60508_check_device_id+0x60>)
     46e:	4798      	blx	r3
	((Port *)hw)->Group[submodule_index].OUTSET.reg = mask;
     470:	61a5      	str	r5, [r4, #24]
	((Port *)hw)->Group[submodule_index].OUTCLR.reg = mask;
     472:	6165      	str	r5, [r4, #20]
  gpio_set_pin_level(SPI_EN, 1);
  gpio_set_pin_level(SPI_EN, 0);
  io_read(spi_master, check_device_id_ans, sizeof(check_device_id_ans));
     474:	ad01      	add	r5, sp, #4
     476:	0032      	movs	r2, r6
     478:	4b0d      	ldr	r3, [pc, #52]	; (4b0 <dac60508_check_device_id+0x64>)
     47a:	0029      	movs	r1, r5
     47c:	6838      	ldr	r0, [r7, #0]
     47e:	4798      	blx	r3
  for(size_t i = 0; i < sizeof(check_device_id_ans); i++)
    printf("GOT : %02x\n", check_device_id_ans[i]);
     480:	4e0c      	ldr	r6, [pc, #48]	; (4b4 <dac60508_check_device_id+0x68>)
     482:	4f0d      	ldr	r7, [pc, #52]	; (4b8 <dac60508_check_device_id+0x6c>)
     484:	0030      	movs	r0, r6
     486:	7829      	ldrb	r1, [r5, #0]
     488:	47b8      	blx	r7
     48a:	0030      	movs	r0, r6
     48c:	7869      	ldrb	r1, [r5, #1]
     48e:	47b8      	blx	r7
     490:	78a9      	ldrb	r1, [r5, #2]
	((Port *)hw)->Group[submodule_index].OUTSET.reg = mask;
     492:	2580      	movs	r5, #128	; 0x80
     494:	0030      	movs	r0, r6
     496:	02ad      	lsls	r5, r5, #10
     498:	47b8      	blx	r7
  gpio_set_pin_level(SPI_EN, 1);

  return 0;

     49a:	2000      	movs	r0, #0
     49c:	61a5      	str	r5, [r4, #24]
     49e:	bdfe      	pop	{r1, r2, r3, r4, r5, r6, r7, pc}
     4a0:	000020a0 	.word	0x000020a0
     4a4:	000010f1 	.word	0x000010f1
     4a8:	200000a4 	.word	0x200000a4
     4ac:	00000105 	.word	0x00000105
     4b0:	00000135 	.word	0x00000135
     4b4:	00002094 	.word	0x00002094
     4b8:	00001115 	.word	0x00001115

000004bc <main>:
int main(void) {
     4bc:	b510      	push	{r4, lr}
  atmel_start_init();
     4be:	4b0d      	ldr	r3, [pc, #52]	; (4f4 <main+0x38>)
     4c0:	4798      	blx	r3
  usart_async_get_io_descriptor(&UART_DBG, &uart_dbg);
     4c2:	4c0d      	ldr	r4, [pc, #52]	; (4f8 <main+0x3c>)
     4c4:	490d      	ldr	r1, [pc, #52]	; (4fc <main+0x40>)
     4c6:	0020      	movs	r0, r4
     4c8:	4b0d      	ldr	r3, [pc, #52]	; (500 <main+0x44>)
     4ca:	4798      	blx	r3
  usart_async_register_callback(&UART_DBG, USART_ASYNC_ERROR_CB, err_cb_UART_DBG);
     4cc:	4a0d      	ldr	r2, [pc, #52]	; (504 <main+0x48>)
     4ce:	2102      	movs	r1, #2
     4d0:	0020      	movs	r0, r4
     4d2:	4b0d      	ldr	r3, [pc, #52]	; (508 <main+0x4c>)
     4d4:	4798      	blx	r3
  usart_async_enable(&UART_DBG);
     4d6:	0020      	movs	r0, r4
     4d8:	4b0c      	ldr	r3, [pc, #48]	; (50c <main+0x50>)
     4da:	4798      	blx	r3
  spi_m_sync_get_io_descriptor(&SPI_MASTER, &spi_master);
     4dc:	4c0c      	ldr	r4, [pc, #48]	; (510 <main+0x54>)
     4de:	490d      	ldr	r1, [pc, #52]	; (514 <main+0x58>)
     4e0:	4b0d      	ldr	r3, [pc, #52]	; (518 <main+0x5c>)
     4e2:	0020      	movs	r0, r4
     4e4:	4798      	blx	r3
	spi_m_sync_enable(&SPI_MASTER);
     4e6:	4b0d      	ldr	r3, [pc, #52]	; (51c <main+0x60>)
     4e8:	0020      	movs	r0, r4
     4ea:	4798      	blx	r3
    dac60508_check_device_id();
     4ec:	4b0c      	ldr	r3, [pc, #48]	; (520 <main+0x64>)
     4ee:	4798      	blx	r3
  while (1) {
     4f0:	e7fe      	b.n	4f0 <main+0x34>
     4f2:	46c0      	nop			; (mov r8, r8)
     4f4:	00001081 	.word	0x00001081
     4f8:	200000ac 	.word	0x200000ac
     4fc:	200000a8 	.word	0x200000a8
     500:	00000965 	.word	0x00000965
     504:	00000425 	.word	0x00000425
     508:	0000098d 	.word	0x0000098d
     50c:	00000939 	.word	0x00000939
     510:	200000fc 	.word	0x200000fc
     514:	200000a4 	.word	0x200000a4
     518:	00000339 	.word	0x00000339
     51c:	00000261 	.word	0x00000261
     520:	0000044d 	.word	0x0000044d

00000524 <_osc32kctrl_init_sources>:
	calib = hri_osc32kctrl_read_OSCULP32K_CALIB_bf(hw);
	hri_osc32kctrl_write_OSCULP32K_reg(hw,
#if CONF_OSC32K_CALIB_ENABLE == 1
	                                   OSC32KCTRL_OSCULP32K_CALIB(CONF_OSC32K_CALIB)
#else
	                                   OSC32KCTRL_OSCULP32K_CALIB(calib)
     524:	21f8      	movs	r1, #248	; 0xf8
}

static inline hri_osc32kctrl_osculp32k_reg_t hri_osc32kctrl_read_OSCULP32K_CALIB_bf(const void *const hw)
{
	uint32_t tmp;
	tmp = ((Osc32kctrl *)hw)->OSCULP32K.reg;
     526:	4b04      	ldr	r3, [pc, #16]	; (538 <_osc32kctrl_init_sources+0x14>)
     528:	0149      	lsls	r1, r1, #5
     52a:	69da      	ldr	r2, [r3, #28]
     52c:	400a      	ands	r2, r1
}

static inline void hri_osc32kctrl_write_OSCULP32K_reg(const void *const hw, hri_osc32kctrl_osculp32k_reg_t data)
{
	OSC32KCTRL_CRITICAL_SECTION_ENTER();
	((Osc32kctrl *)hw)->OSCULP32K.reg = data;
     52e:	61da      	str	r2, [r3, #28]
	((Osc32kctrl *)hw)->RTCCTRL.reg = data;
     530:	2201      	movs	r2, #1
     532:	611a      	str	r2, [r3, #16]
		;
#endif
#endif
	hri_osc32kctrl_write_RTCCTRL_reg(hw, OSC32KCTRL_RTCCTRL_RTCSEL(CONF_RTCCTRL));
	(void)calib;
}
     534:	4770      	bx	lr
     536:	46c0      	nop			; (mov r8, r8)
     538:	40001400 	.word	0x40001400

0000053c <_gpio_set_pin_function>:
 * \brief Set gpio pin function
 */
static inline void _gpio_set_pin_function(const uint32_t gpio, const uint32_t function)
{
	uint8_t port = GPIO_PORT(gpio);
	uint8_t pin  = GPIO_PIN(gpio);
     53c:	231f      	movs	r3, #31
     53e:	b2c2      	uxtb	r2, r0
     540:	4003      	ands	r3, r0
	uint8_t port = GPIO_PORT(gpio);
     542:	0940      	lsrs	r0, r0, #5
{
     544:	b570      	push	{r4, r5, r6, lr}
     546:	01c0      	lsls	r0, r0, #7

	if (function == GPIO_PIN_FUNCTION_OFF) {
     548:	1c4c      	adds	r4, r1, #1
     54a:	d107      	bne.n	55c <_gpio_set_pin_function+0x20>
                                                    bool value)
{
	uint8_t tmp;
	PORT_CRITICAL_SECTION_ENTER();
	tmp = ((Port *)hw)->Group[submodule_index].PINCFG[index].reg;
	tmp &= ~PORT_PINCFG_PMUXEN;
     54c:	2201      	movs	r2, #1
	tmp = ((Port *)hw)->Group[submodule_index].PINCFG[index].reg;
     54e:	1818      	adds	r0, r3, r0
     550:	4b11      	ldr	r3, [pc, #68]	; (598 <_gpio_set_pin_function+0x5c>)
     552:	18c0      	adds	r0, r0, r3
     554:	7803      	ldrb	r3, [r0, #0]
	tmp &= ~PORT_PINCFG_PMUXEN;
     556:	4393      	bics	r3, r2
	tmp |= value << PORT_PINCFG_PMUXEN_Pos;
	((Port *)hw)->Group[submodule_index].PINCFG[index].reg = tmp;
     558:	7003      	strb	r3, [r0, #0]
		} else {
			// Even numbered pin
			hri_port_write_PMUX_PMUXE_bf(PORT, port, pin >> 1, function & 0xffff);
		}
	}
}
     55a:	bd70      	pop	{r4, r5, r6, pc}
	tmp = ((Port *)hw)->Group[submodule_index].PINCFG[index].reg;
     55c:	2482      	movs	r4, #130	; 0x82
	tmp &= ~PORT_PINCFG_PMUXEN;
     55e:	2501      	movs	r5, #1
	tmp = ((Port *)hw)->Group[submodule_index].PINCFG[index].reg;
     560:	05e4      	lsls	r4, r4, #23
     562:	1900      	adds	r0, r0, r4
     564:	18c6      	adds	r6, r0, r3
     566:	40eb      	lsrs	r3, r5
     568:	3640      	adds	r6, #64	; 0x40
     56a:	7834      	ldrb	r4, [r6, #0]
	tmp &= ~PORT_PINCFG_PMUXEN;
     56c:	18c0      	adds	r0, r0, r3
     56e:	43ac      	bics	r4, r5
	tmp |= value << PORT_PINCFG_PMUXEN_Pos;
     570:	432c      	orrs	r4, r5
	((Port *)hw)->Group[submodule_index].PINCFG[index].reg = tmp;
     572:	7034      	strb	r4, [r6, #0]
	tmp = ((Port *)hw)->Group[submodule_index].PMUX[index].reg;
     574:	3030      	adds	r0, #48	; 0x30
     576:	7803      	ldrb	r3, [r0, #0]
     578:	b2c9      	uxtb	r1, r1
		if (pin & 1) {
     57a:	422a      	tst	r2, r5
     57c:	d006      	beq.n	58c <_gpio_set_pin_function+0x50>
	tmp &= ~PORT_PMUX_PMUXO_Msk;
     57e:	220f      	movs	r2, #15
	tmp |= PORT_PMUX_PMUXO(data);
     580:	0109      	lsls	r1, r1, #4
	tmp &= ~PORT_PMUX_PMUXO_Msk;
     582:	4013      	ands	r3, r2
	tmp |= PORT_PMUX_PMUXO(data);
     584:	4319      	orrs	r1, r3
     586:	b2c9      	uxtb	r1, r1
	((Port *)hw)->Group[submodule_index].PMUX[index].reg = tmp;
     588:	7001      	strb	r1, [r0, #0]
}
     58a:	e7e6      	b.n	55a <_gpio_set_pin_function+0x1e>
	tmp &= ~PORT_PMUX_PMUXE_Msk;
     58c:	220f      	movs	r2, #15
     58e:	4393      	bics	r3, r2
	tmp |= PORT_PMUX_PMUXE(data);
     590:	4011      	ands	r1, r2
     592:	4319      	orrs	r1, r3
     594:	e7f8      	b.n	588 <_gpio_set_pin_function+0x4c>
     596:	46c0      	nop			; (mov r8, r8)
     598:	41000040 	.word	0x41000040

0000059c <SPI_MASTER_PORT_init>:
struct usart_async_descriptor UART_DBG;

static uint8_t UART_DBG_buffer[UART_DBG_BUFFER_SIZE];

void SPI_MASTER_PORT_init(void)
{
     59c:	b5f8      	push	{r3, r4, r5, r6, r7, lr}

static inline void hri_port_write_WRCONFIG_reg(const void *const hw, uint8_t submodule_index,
                                               hri_port_wrconfig_reg_t data)
{
	PORT_CRITICAL_SECTION_ENTER();
	((Port *)hw)->Group[submodule_index].WRCONFIG.reg = data;
     59e:	2482      	movs	r4, #130	; 0x82
	((Port *)hw)->Group[submodule_index].DIRCLR.reg = mask;
     5a0:	25c0      	movs	r5, #192	; 0xc0
     5a2:	2380      	movs	r3, #128	; 0x80
	((Port *)hw)->Group[submodule_index].WRCONFIG.reg = data;
     5a4:	05e4      	lsls	r4, r4, #23
	((Port *)hw)->Group[submodule_index].PINCFG[index].reg &= ~PORT_PINCFG_PULLEN;
     5a6:	0022      	movs	r2, r4
     5a8:	2104      	movs	r1, #4
	((Port *)hw)->Group[submodule_index].DIRCLR.reg = mask;
     5aa:	05ed      	lsls	r5, r5, #23
     5ac:	025b      	lsls	r3, r3, #9
     5ae:	606b      	str	r3, [r5, #4]
	((Port *)hw)->Group[submodule_index].WRCONFIG.reg = data;
     5b0:	4b11      	ldr	r3, [pc, #68]	; (5f8 <SPI_MASTER_PORT_init+0x5c>)
	((Port *)hw)->Group[submodule_index].PINCFG[index].reg &= ~PORT_PINCFG_PULLEN;
     5b2:	3250      	adds	r2, #80	; 0x50
	((Port *)hw)->Group[submodule_index].WRCONFIG.reg = data;
     5b4:	62a3      	str	r3, [r4, #40]	; 0x28
     5b6:	4b11      	ldr	r3, [pc, #68]	; (5fc <SPI_MASTER_PORT_init+0x60>)
 *                      found in the header files for the device
 *
 */
static inline void gpio_set_pin_function(const uint32_t pin, uint32_t function)
{
	_gpio_set_pin_function(pin, function);
     5b8:	4e11      	ldr	r6, [pc, #68]	; (600 <SPI_MASTER_PORT_init+0x64>)
     5ba:	62a3      	str	r3, [r4, #40]	; 0x28
	((Port *)hw)->Group[submodule_index].PINCFG[index].reg &= ~PORT_PINCFG_PULLEN;
     5bc:	7813      	ldrb	r3, [r2, #0]
     5be:	2010      	movs	r0, #16
     5c0:	438b      	bics	r3, r1
     5c2:	7013      	strb	r3, [r2, #0]
     5c4:	490f      	ldr	r1, [pc, #60]	; (604 <SPI_MASTER_PORT_init+0x68>)
     5c6:	47b0      	blx	r6
	((Port *)hw)->Group[submodule_index].OUTCLR.reg = mask;
     5c8:	2380      	movs	r3, #128	; 0x80
	((Port *)hw)->Group[submodule_index].WRCONFIG.reg = data;
     5ca:	2780      	movs	r7, #128	; 0x80
	((Port *)hw)->Group[submodule_index].OUTCLR.reg = mask;
     5cc:	02db      	lsls	r3, r3, #11
     5ce:	616b      	str	r3, [r5, #20]
	((Port *)hw)->Group[submodule_index].DIRSET.reg = mask;
     5d0:	60ab      	str	r3, [r5, #8]
	((Port *)hw)->Group[submodule_index].WRCONFIG.reg = data;
     5d2:	4b0d      	ldr	r3, [pc, #52]	; (608 <SPI_MASTER_PORT_init+0x6c>)
     5d4:	05ff      	lsls	r7, r7, #23
     5d6:	62a7      	str	r7, [r4, #40]	; 0x28
     5d8:	2012      	movs	r0, #18
     5da:	62a3      	str	r3, [r4, #40]	; 0x28
     5dc:	490b      	ldr	r1, [pc, #44]	; (60c <SPI_MASTER_PORT_init+0x70>)
     5de:	47b0      	blx	r6
	((Port *)hw)->Group[submodule_index].OUTCLR.reg = mask;
     5e0:	2380      	movs	r3, #128	; 0x80
     5e2:	031b      	lsls	r3, r3, #12
     5e4:	616b      	str	r3, [r5, #20]
	((Port *)hw)->Group[submodule_index].DIRSET.reg = mask;
     5e6:	60ab      	str	r3, [r5, #8]
	((Port *)hw)->Group[submodule_index].WRCONFIG.reg = data;
     5e8:	4b09      	ldr	r3, [pc, #36]	; (610 <SPI_MASTER_PORT_init+0x74>)
     5ea:	62a7      	str	r7, [r4, #40]	; 0x28
     5ec:	2013      	movs	r0, #19
     5ee:	4909      	ldr	r1, [pc, #36]	; (614 <SPI_MASTER_PORT_init+0x78>)
     5f0:	62a3      	str	r3, [r4, #40]	; 0x28
     5f2:	47b0      	blx	r6

	// Set pin direction to output
	gpio_set_pin_direction(PA19, GPIO_DIRECTION_OUT);

	gpio_set_pin_function(PA19, PINMUX_PA19C_SERCOM1_PAD3);
}
     5f4:	bdf8      	pop	{r3, r4, r5, r6, r7, pc}
     5f6:	46c0      	nop			; (mov r8, r8)
     5f8:	40020000 	.word	0x40020000
     5fc:	c0020001 	.word	0xc0020001
     600:	0000053d 	.word	0x0000053d
     604:	00100002 	.word	0x00100002
     608:	c0000004 	.word	0xc0000004
     60c:	00120002 	.word	0x00120002
     610:	c0000008 	.word	0xc0000008
     614:	00130002 	.word	0x00130002

00000618 <SPI_MASTER_CLOCK_init>:
}

static inline void hri_gclk_write_PCHCTRL_reg(const void *const hw, uint8_t index, hri_gclk_pchctrl_reg_t data)
{
	GCLK_CRITICAL_SECTION_ENTER();
	((Gclk *)hw)->PCHCTRL[index].reg = data;
     618:	4b06      	ldr	r3, [pc, #24]	; (634 <SPI_MASTER_CLOCK_init+0x1c>)
     61a:	2140      	movs	r1, #64	; 0x40
     61c:	001a      	movs	r2, r3
     61e:	32d0      	adds	r2, #208	; 0xd0
     620:	6011      	str	r1, [r2, #0]
     622:	2243      	movs	r2, #67	; 0x43
     624:	33c8      	adds	r3, #200	; 0xc8
     626:	601a      	str	r2, [r3, #0]
}

static inline void hri_mclk_set_APBCMASK_SERCOM1_bit(const void *const hw)
{
	MCLK_CRITICAL_SECTION_ENTER();
	((Mclk *)hw)->APBCMASK.reg |= MCLK_APBCMASK_SERCOM1;
     628:	2304      	movs	r3, #4
     62a:	4a03      	ldr	r2, [pc, #12]	; (638 <SPI_MASTER_CLOCK_init+0x20>)
     62c:	69d1      	ldr	r1, [r2, #28]
     62e:	430b      	orrs	r3, r1
     630:	61d3      	str	r3, [r2, #28]
void SPI_MASTER_CLOCK_init(void)
{
	hri_gclk_write_PCHCTRL_reg(GCLK, SERCOM1_GCLK_ID_CORE, CONF_GCLK_SERCOM1_CORE_SRC | (1 << GCLK_PCHCTRL_CHEN_Pos));
	hri_gclk_write_PCHCTRL_reg(GCLK, SERCOM1_GCLK_ID_SLOW, CONF_GCLK_SERCOM1_SLOW_SRC | (1 << GCLK_PCHCTRL_CHEN_Pos));
	hri_mclk_set_APBCMASK_SERCOM1_bit(MCLK);
}
     632:	4770      	bx	lr
     634:	40001c00 	.word	0x40001c00
     638:	40000800 	.word	0x40000800

0000063c <SPI_MASTER_init>:

void SPI_MASTER_init(void)
{
     63c:	b510      	push	{r4, lr}
	SPI_MASTER_CLOCK_init();
     63e:	4b04      	ldr	r3, [pc, #16]	; (650 <SPI_MASTER_init+0x14>)
     640:	4798      	blx	r3
	spi_m_sync_init(&SPI_MASTER, SERCOM1);
     642:	4904      	ldr	r1, [pc, #16]	; (654 <SPI_MASTER_init+0x18>)
     644:	4b04      	ldr	r3, [pc, #16]	; (658 <SPI_MASTER_init+0x1c>)
     646:	4805      	ldr	r0, [pc, #20]	; (65c <SPI_MASTER_init+0x20>)
     648:	4798      	blx	r3
	SPI_MASTER_PORT_init();
     64a:	4b05      	ldr	r3, [pc, #20]	; (660 <SPI_MASTER_init+0x24>)
     64c:	4798      	blx	r3
}
     64e:	bd10      	pop	{r4, pc}
     650:	00000619 	.word	0x00000619
     654:	42000800 	.word	0x42000800
     658:	00000211 	.word	0x00000211
     65c:	200000fc 	.word	0x200000fc
     660:	0000059d 	.word	0x0000059d

00000664 <UART_DBG_CLOCK_init>:
     664:	4b06      	ldr	r3, [pc, #24]	; (680 <UART_DBG_CLOCK_init+0x1c>)
     666:	2140      	movs	r1, #64	; 0x40
     668:	001a      	movs	r2, r3
     66a:	32dc      	adds	r2, #220	; 0xdc
     66c:	6011      	str	r1, [r2, #0]
     66e:	2243      	movs	r2, #67	; 0x43
     670:	33c8      	adds	r3, #200	; 0xc8
     672:	601a      	str	r2, [r3, #0]
}

static inline void hri_mclk_set_APBCMASK_SERCOM4_bit(const void *const hw)
{
	MCLK_CRITICAL_SECTION_ENTER();
	((Mclk *)hw)->APBCMASK.reg |= MCLK_APBCMASK_SERCOM4;
     674:	2320      	movs	r3, #32
     676:	4a03      	ldr	r2, [pc, #12]	; (684 <UART_DBG_CLOCK_init+0x20>)
     678:	69d1      	ldr	r1, [r2, #28]
     67a:	430b      	orrs	r3, r1
     67c:	61d3      	str	r3, [r2, #28]
{

	hri_gclk_write_PCHCTRL_reg(GCLK, SERCOM4_GCLK_ID_CORE, CONF_GCLK_SERCOM4_CORE_SRC | (1 << GCLK_PCHCTRL_CHEN_Pos));
	hri_gclk_write_PCHCTRL_reg(GCLK, SERCOM4_GCLK_ID_SLOW, CONF_GCLK_SERCOM4_SLOW_SRC | (1 << GCLK_PCHCTRL_CHEN_Pos));
	hri_mclk_set_APBCMASK_SERCOM4_bit(MCLK);
}
     67e:	4770      	bx	lr
     680:	40001c00 	.word	0x40001c00
     684:	40000800 	.word	0x40000800

00000688 <UART_DBG_PORT_init>:
 * \brief USART pinmux initialization function
 *
 * Set each required pin to USART functionality
 */
void UART_DBG_PORT_init()
{
     688:	b510      	push	{r4, lr}
     68a:	202a      	movs	r0, #42	; 0x2a
     68c:	4c03      	ldr	r4, [pc, #12]	; (69c <UART_DBG_PORT_init+0x14>)
     68e:	4904      	ldr	r1, [pc, #16]	; (6a0 <UART_DBG_PORT_init+0x18>)
     690:	47a0      	blx	r4
     692:	202b      	movs	r0, #43	; 0x2b
     694:	4903      	ldr	r1, [pc, #12]	; (6a4 <UART_DBG_PORT_init+0x1c>)
     696:	47a0      	blx	r4

	gpio_set_pin_function(PB10, PINMUX_PB10D_SERCOM4_PAD2);

	gpio_set_pin_function(PB11, PINMUX_PB11D_SERCOM4_PAD3);
}
     698:	bd10      	pop	{r4, pc}
     69a:	46c0      	nop			; (mov r8, r8)
     69c:	0000053d 	.word	0x0000053d
     6a0:	002a0003 	.word	0x002a0003
     6a4:	002b0003 	.word	0x002b0003

000006a8 <UART_DBG_init>:
 * \brief USART initialization function
 *
 * Enables USART peripheral, clocks and initializes USART driver
 */
void UART_DBG_init(void)
{
     6a8:	b513      	push	{r0, r1, r4, lr}
	UART_DBG_CLOCK_init();
     6aa:	4b06      	ldr	r3, [pc, #24]	; (6c4 <UART_DBG_init+0x1c>)
     6ac:	4798      	blx	r3
	usart_async_init(&UART_DBG, SERCOM4, UART_DBG_buffer, UART_DBG_BUFFER_SIZE, (void *)NULL);
     6ae:	2300      	movs	r3, #0
     6b0:	4a05      	ldr	r2, [pc, #20]	; (6c8 <UART_DBG_init+0x20>)
     6b2:	4906      	ldr	r1, [pc, #24]	; (6cc <UART_DBG_init+0x24>)
     6b4:	9300      	str	r3, [sp, #0]
     6b6:	4c06      	ldr	r4, [pc, #24]	; (6d0 <UART_DBG_init+0x28>)
     6b8:	3310      	adds	r3, #16
     6ba:	4806      	ldr	r0, [pc, #24]	; (6d4 <UART_DBG_init+0x2c>)
     6bc:	47a0      	blx	r4
	UART_DBG_PORT_init();
     6be:	4b06      	ldr	r3, [pc, #24]	; (6d8 <UART_DBG_init+0x30>)
     6c0:	4798      	blx	r3
}
     6c2:	bd13      	pop	{r0, r1, r4, pc}
     6c4:	00000665 	.word	0x00000665
     6c8:	20000088 	.word	0x20000088
     6cc:	42001400 	.word	0x42001400
     6d0:	000008ad 	.word	0x000008ad
     6d4:	200000ac 	.word	0x200000ac
     6d8:	00000689 	.word	0x00000689

000006dc <delay_driver_init>:

void delay_driver_init(void)
{
     6dc:	b510      	push	{r4, lr}
	delay_init(SysTick);
     6de:	4802      	ldr	r0, [pc, #8]	; (6e8 <delay_driver_init+0xc>)
     6e0:	4b02      	ldr	r3, [pc, #8]	; (6ec <delay_driver_init+0x10>)
     6e2:	4798      	blx	r3
}
     6e4:	bd10      	pop	{r4, pc}
     6e6:	46c0      	nop			; (mov r8, r8)
     6e8:	e000e010 	.word	0xe000e010
     6ec:	00000361 	.word	0x00000361

000006f0 <system_init>:

void system_init(void)
{
     6f0:	b510      	push	{r4, lr}
 * Currently the following initialization functions are supported:
 *  - System clock initialization
 */
static inline void init_mcu(void)
{
	_init_chip();
     6f2:	4b16      	ldr	r3, [pc, #88]	; (74c <system_init+0x5c>)
     6f4:	4798      	blx	r3
	((Port *)hw)->Group[submodule_index].OUTSET.reg = mask;
     6f6:	22c0      	movs	r2, #192	; 0xc0
     6f8:	2380      	movs	r3, #128	; 0x80
     6fa:	05d2      	lsls	r2, r2, #23
     6fc:	029b      	lsls	r3, r3, #10
     6fe:	6193      	str	r3, [r2, #24]
	((Port *)hw)->Group[submodule_index].DIRSET.reg = mask;
     700:	6093      	str	r3, [r2, #8]
	((Port *)hw)->Group[submodule_index].WRCONFIG.reg = data;
     702:	2382      	movs	r3, #130	; 0x82
     704:	2180      	movs	r1, #128	; 0x80
     706:	05db      	lsls	r3, r3, #23
	tmp = ((Port *)hw)->Group[submodule_index].PINCFG[index].reg;
     708:	001c      	movs	r4, r3
	tmp &= ~PORT_PINCFG_PMUXEN;
     70a:	2001      	movs	r0, #1
	((Port *)hw)->Group[submodule_index].WRCONFIG.reg = data;
     70c:	05c9      	lsls	r1, r1, #23
     70e:	6299      	str	r1, [r3, #40]	; 0x28
     710:	490f      	ldr	r1, [pc, #60]	; (750 <system_init+0x60>)
	tmp = ((Port *)hw)->Group[submodule_index].PINCFG[index].reg;
     712:	3451      	adds	r4, #81	; 0x51
	((Port *)hw)->Group[submodule_index].WRCONFIG.reg = data;
     714:	6299      	str	r1, [r3, #40]	; 0x28
	tmp = ((Port *)hw)->Group[submodule_index].PINCFG[index].reg;
     716:	7821      	ldrb	r1, [r4, #0]
	tmp &= ~PORT_PINCFG_PMUXEN;
     718:	4381      	bics	r1, r0
	((Port *)hw)->Group[submodule_index].PINCFG[index].reg = tmp;
     71a:	7021      	strb	r1, [r4, #0]
	((Port *)hw)->Group[submodule_index].OUTSET.reg = mask;
     71c:	0014      	movs	r4, r2
     71e:	2108      	movs	r1, #8
     720:	3498      	adds	r4, #152	; 0x98
	((Port *)hw)->Group[submodule_index].DIRSET.reg = mask;
     722:	3288      	adds	r2, #136	; 0x88
	((Port *)hw)->Group[submodule_index].OUTSET.reg = mask;
     724:	6021      	str	r1, [r4, #0]
	((Port *)hw)->Group[submodule_index].DIRSET.reg = mask;
     726:	6011      	str	r1, [r2, #0]
	((Port *)hw)->Group[submodule_index].WRCONFIG.reg = data;
     728:	001a      	movs	r2, r3
     72a:	490a      	ldr	r1, [pc, #40]	; (754 <system_init+0x64>)
     72c:	32a8      	adds	r2, #168	; 0xa8
     72e:	6011      	str	r1, [r2, #0]
     730:	21c0      	movs	r1, #192	; 0xc0
     732:	0609      	lsls	r1, r1, #24
     734:	6011      	str	r1, [r2, #0]
	tmp = ((Port *)hw)->Group[submodule_index].PINCFG[index].reg;
     736:	33c3      	adds	r3, #195	; 0xc3
     738:	781a      	ldrb	r2, [r3, #0]
	tmp &= ~PORT_PINCFG_PMUXEN;
     73a:	4382      	bics	r2, r0
	((Port *)hw)->Group[submodule_index].PINCFG[index].reg = tmp;
     73c:	701a      	strb	r2, [r3, #0]
	// Set pin direction to output
	gpio_set_pin_direction(SPI_SS, GPIO_DIRECTION_OUT);

	gpio_set_pin_function(SPI_SS, GPIO_PIN_FUNCTION_OFF);

	SPI_MASTER_init();
     73e:	4b06      	ldr	r3, [pc, #24]	; (758 <system_init+0x68>)
     740:	4798      	blx	r3
	UART_DBG_init();
     742:	4b06      	ldr	r3, [pc, #24]	; (75c <system_init+0x6c>)
     744:	4798      	blx	r3

	delay_driver_init();
     746:	4b06      	ldr	r3, [pc, #24]	; (760 <system_init+0x70>)
     748:	4798      	blx	r3
}
     74a:	bd10      	pop	{r4, pc}
     74c:	000003b1 	.word	0x000003b1
     750:	c0000002 	.word	0xc0000002
     754:	40000008 	.word	0x40000008
     758:	0000063d 	.word	0x0000063d
     75c:	000006a9 	.word	0x000006a9
     760:	000006dd 	.word	0x000006dd

00000764 <usart_transmission_complete>:
 */
static void usart_transmission_complete(struct _usart_async_device *device)
{
	struct usart_async_descriptor *descr = CONTAINER_OF(device, struct usart_async_descriptor, device);

	descr->stat = 0;
     764:	2300      	movs	r3, #0
     766:	3808      	subs	r0, #8
{
     768:	b510      	push	{r4, lr}
	descr->stat = 0;
     76a:	6303      	str	r3, [r0, #48]	; 0x30
	if (descr->usart_cb.tx_done) {
     76c:	6a43      	ldr	r3, [r0, #36]	; 0x24
     76e:	2b00      	cmp	r3, #0
     770:	d000      	beq.n	774 <usart_transmission_complete+0x10>
		descr->usart_cb.tx_done(descr);
     772:	4798      	blx	r3
	}
}
     774:	bd10      	pop	{r4, pc}

00000776 <usart_error>:
 */
static void usart_error(struct _usart_async_device *device)
{
	struct usart_async_descriptor *descr = CONTAINER_OF(device, struct usart_async_descriptor, device);

	descr->stat = 0;
     776:	2300      	movs	r3, #0
     778:	3808      	subs	r0, #8
{
     77a:	b510      	push	{r4, lr}
	descr->stat = 0;
     77c:	6303      	str	r3, [r0, #48]	; 0x30
	if (descr->usart_cb.error) {
     77e:	6ac3      	ldr	r3, [r0, #44]	; 0x2c
     780:	2b00      	cmp	r3, #0
     782:	d000      	beq.n	786 <usart_error+0x10>
		descr->usart_cb.error(descr);
     784:	4798      	blx	r3
	}
}
     786:	bd10      	pop	{r4, pc}

00000788 <usart_fill_rx_buffer>:
{
     788:	b510      	push	{r4, lr}
	ringbuffer_put(&descr->rx, data);
     78a:	0004      	movs	r4, r0
     78c:	4b04      	ldr	r3, [pc, #16]	; (7a0 <usart_fill_rx_buffer+0x18>)
     78e:	302c      	adds	r0, #44	; 0x2c
     790:	4798      	blx	r3
	if (descr->usart_cb.rx_done) {
     792:	6a23      	ldr	r3, [r4, #32]
	ringbuffer_put(&descr->rx, data);
     794:	3c08      	subs	r4, #8
	if (descr->usart_cb.rx_done) {
     796:	2b00      	cmp	r3, #0
     798:	d001      	beq.n	79e <usart_fill_rx_buffer+0x16>
		descr->usart_cb.rx_done(descr);
     79a:	0020      	movs	r0, r4
     79c:	4798      	blx	r3
}
     79e:	bd10      	pop	{r4, pc}
     7a0:	00000fd9 	.word	0x00000fd9

000007a4 <usart_async_write>:
{
     7a4:	b5f8      	push	{r3, r4, r5, r6, r7, lr}
     7a6:	0004      	movs	r4, r0
     7a8:	000e      	movs	r6, r1
     7aa:	0015      	movs	r5, r2
	ASSERT(descr && buf && length);
     7ac:	2800      	cmp	r0, #0
     7ae:	d004      	beq.n	7ba <usart_async_write+0x16>
     7b0:	1e08      	subs	r0, r1, #0
     7b2:	d002      	beq.n	7ba <usart_async_write+0x16>
     7b4:	0010      	movs	r0, r2
     7b6:	1e43      	subs	r3, r0, #1
     7b8:	4198      	sbcs	r0, r3
     7ba:	2701      	movs	r7, #1
     7bc:	223c      	movs	r2, #60	; 0x3c
     7be:	490d      	ldr	r1, [pc, #52]	; (7f4 <usart_async_write+0x50>)
     7c0:	4b0d      	ldr	r3, [pc, #52]	; (7f8 <usart_async_write+0x54>)
     7c2:	4038      	ands	r0, r7
     7c4:	32ff      	adds	r2, #255	; 0xff
     7c6:	4798      	blx	r3
	if (descr->tx_por != descr->tx_buffer_length) {
     7c8:	0022      	movs	r2, r4
     7ca:	1da3      	adds	r3, r4, #6
     7cc:	324c      	adds	r2, #76	; 0x4c
     7ce:	8fd8      	ldrh	r0, [r3, #62]	; 0x3e
     7d0:	8811      	ldrh	r1, [r2, #0]
     7d2:	4288      	cmp	r0, r1
     7d4:	d10a      	bne.n	7ec <usart_async_write+0x48>
	descr->tx_buffer        = (uint8_t *)buf;
     7d6:	64a6      	str	r6, [r4, #72]	; 0x48
	_usart_async_enable_byte_sent_irq(&descr->device);
     7d8:	0020      	movs	r0, r4
	descr->tx_buffer_length = length;
     7da:	8015      	strh	r5, [r2, #0]
	descr->tx_por           = 0;
     7dc:	2200      	movs	r2, #0
	_usart_async_enable_byte_sent_irq(&descr->device);
     7de:	3008      	adds	r0, #8
	descr->tx_por           = 0;
     7e0:	87da      	strh	r2, [r3, #62]	; 0x3e
	_usart_async_enable_byte_sent_irq(&descr->device);
     7e2:	4b06      	ldr	r3, [pc, #24]	; (7fc <usart_async_write+0x58>)
	descr->stat             = USART_ASYNC_STATUS_BUSY;
     7e4:	6327      	str	r7, [r4, #48]	; 0x30
	_usart_async_enable_byte_sent_irq(&descr->device);
     7e6:	4798      	blx	r3
	return (int32_t)length;
     7e8:	0028      	movs	r0, r5
}
     7ea:	bdf8      	pop	{r3, r4, r5, r6, r7, pc}
		return ERR_NO_RESOURCE;
     7ec:	201c      	movs	r0, #28
     7ee:	4240      	negs	r0, r0
     7f0:	e7fb      	b.n	7ea <usart_async_write+0x46>
     7f2:	46c0      	nop			; (mov r8, r8)
     7f4:	000020a3 	.word	0x000020a3
     7f8:	000003f1 	.word	0x000003f1
     7fc:	00000bbf 	.word	0x00000bbf

00000800 <usart_process_byte_sent>:
	if (descr->tx_por != descr->tx_buffer_length) {
     800:	0002      	movs	r2, r0
{
     802:	b510      	push	{r4, lr}
     804:	0004      	movs	r4, r0
	if (descr->tx_por != descr->tx_buffer_length) {
     806:	8f83      	ldrh	r3, [r0, #60]	; 0x3c
     808:	3044      	adds	r0, #68	; 0x44
     80a:	8800      	ldrh	r0, [r0, #0]
     80c:	3a08      	subs	r2, #8
     80e:	4298      	cmp	r0, r3
     810:	d00a      	beq.n	828 <usart_process_byte_sent+0x28>
		_usart_async_write_byte(&descr->device, descr->tx_buffer[descr->tx_por++]);
     812:	6c92      	ldr	r2, [r2, #72]	; 0x48
     814:	1c58      	adds	r0, r3, #1
     816:	87a0      	strh	r0, [r4, #60]	; 0x3c
     818:	5cd1      	ldrb	r1, [r2, r3]
     81a:	0020      	movs	r0, r4
     81c:	4b04      	ldr	r3, [pc, #16]	; (830 <usart_process_byte_sent+0x30>)
     81e:	4798      	blx	r3
		_usart_async_enable_byte_sent_irq(&descr->device);
     820:	0020      	movs	r0, r4
     822:	4b04      	ldr	r3, [pc, #16]	; (834 <usart_process_byte_sent+0x34>)
		_usart_async_enable_tx_done_irq(&descr->device);
     824:	4798      	blx	r3
}
     826:	bd10      	pop	{r4, pc}
		_usart_async_enable_tx_done_irq(&descr->device);
     828:	0020      	movs	r0, r4
     82a:	4b03      	ldr	r3, [pc, #12]	; (838 <usart_process_byte_sent+0x38>)
     82c:	e7fa      	b.n	824 <usart_process_byte_sent+0x24>
     82e:	46c0      	nop			; (mov r8, r8)
     830:	00000bb9 	.word	0x00000bb9
     834:	00000bbf 	.word	0x00000bbf
     838:	00000bc7 	.word	0x00000bc7

0000083c <usart_async_read>:
{
     83c:	b5f0      	push	{r4, r5, r6, r7, lr}
     83e:	0004      	movs	r4, r0
     840:	000e      	movs	r6, r1
     842:	0017      	movs	r7, r2
     844:	b085      	sub	sp, #20
	ASSERT(descr && buf && length);
     846:	2800      	cmp	r0, #0
     848:	d004      	beq.n	854 <usart_async_read+0x18>
     84a:	1e08      	subs	r0, r1, #0
     84c:	d002      	beq.n	854 <usart_async_read+0x18>
     84e:	0010      	movs	r0, r2
     850:	1e43      	subs	r3, r0, #1
     852:	4198      	sbcs	r0, r3
     854:	22ac      	movs	r2, #172	; 0xac
     856:	490f      	ldr	r1, [pc, #60]	; (894 <usart_async_read+0x58>)
     858:	0052      	lsls	r2, r2, #1
     85a:	4b0f      	ldr	r3, [pc, #60]	; (898 <usart_async_read+0x5c>)
     85c:	4798      	blx	r3
	num = ringbuffer_num(&descr->rx);
     85e:	3434      	adds	r4, #52	; 0x34
	CRITICAL_SECTION_ENTER()
     860:	4b0e      	ldr	r3, [pc, #56]	; (89c <usart_async_read+0x60>)
     862:	a803      	add	r0, sp, #12
     864:	4798      	blx	r3
	num = ringbuffer_num(&descr->rx);
     866:	4b0e      	ldr	r3, [pc, #56]	; (8a0 <usart_async_read+0x64>)
     868:	0020      	movs	r0, r4
     86a:	4798      	blx	r3
	CRITICAL_SECTION_LEAVE()
     86c:	4b0d      	ldr	r3, [pc, #52]	; (8a4 <usart_async_read+0x68>)
	num = ringbuffer_num(&descr->rx);
     86e:	9001      	str	r0, [sp, #4]
	CRITICAL_SECTION_LEAVE()
     870:	a803      	add	r0, sp, #12
     872:	4798      	blx	r3
	while ((was_read < num) && (was_read < length)) {
     874:	2500      	movs	r5, #0
     876:	9b01      	ldr	r3, [sp, #4]
     878:	42ab      	cmp	r3, r5
     87a:	d001      	beq.n	880 <usart_async_read+0x44>
     87c:	42bd      	cmp	r5, r7
     87e:	d102      	bne.n	886 <usart_async_read+0x4a>
}
     880:	0028      	movs	r0, r5
     882:	b005      	add	sp, #20
     884:	bdf0      	pop	{r4, r5, r6, r7, pc}
		ringbuffer_get(&descr->rx, &buf[was_read++]);
     886:	1971      	adds	r1, r6, r5
     888:	0020      	movs	r0, r4
     88a:	4b07      	ldr	r3, [pc, #28]	; (8a8 <usart_async_read+0x6c>)
     88c:	4798      	blx	r3
     88e:	3501      	adds	r5, #1
     890:	e7f1      	b.n	876 <usart_async_read+0x3a>
     892:	46c0      	nop			; (mov r8, r8)
     894:	000020a3 	.word	0x000020a3
     898:	000003f1 	.word	0x000003f1
     89c:	0000108d 	.word	0x0000108d
     8a0:	00001019 	.word	0x00001019
     8a4:	0000109b 	.word	0x0000109b
     8a8:	00000f95 	.word	0x00000f95

000008ac <usart_async_init>:
{
     8ac:	b5f8      	push	{r3, r4, r5, r6, r7, lr}
     8ae:	0004      	movs	r4, r0
     8b0:	000d      	movs	r5, r1
     8b2:	0016      	movs	r6, r2
     8b4:	001f      	movs	r7, r3
	ASSERT(descr && hw && rx_buffer && rx_buffer_length);
     8b6:	2800      	cmp	r0, #0
     8b8:	d006      	beq.n	8c8 <usart_async_init+0x1c>
     8ba:	1e08      	subs	r0, r1, #0
     8bc:	d004      	beq.n	8c8 <usart_async_init+0x1c>
     8be:	1e10      	subs	r0, r2, #0
     8c0:	d002      	beq.n	8c8 <usart_async_init+0x1c>
     8c2:	0018      	movs	r0, r3
     8c4:	1e43      	subs	r3, r0, #1
     8c6:	4198      	sbcs	r0, r3
     8c8:	223a      	movs	r2, #58	; 0x3a
     8ca:	4911      	ldr	r1, [pc, #68]	; (910 <usart_async_init+0x64>)
     8cc:	4b11      	ldr	r3, [pc, #68]	; (914 <usart_async_init+0x68>)
     8ce:	4798      	blx	r3
	if (ERR_NONE != ringbuffer_init(&descr->rx, rx_buffer, rx_buffer_length)) {
     8d0:	0020      	movs	r0, r4
     8d2:	003a      	movs	r2, r7
     8d4:	0031      	movs	r1, r6
     8d6:	4b10      	ldr	r3, [pc, #64]	; (918 <usart_async_init+0x6c>)
     8d8:	3034      	adds	r0, #52	; 0x34
     8da:	4798      	blx	r3
     8dc:	2800      	cmp	r0, #0
     8de:	d113      	bne.n	908 <usart_async_init+0x5c>
	init_status = _usart_async_init(&descr->device, hw);
     8e0:	0020      	movs	r0, r4
     8e2:	0029      	movs	r1, r5
     8e4:	4b0d      	ldr	r3, [pc, #52]	; (91c <usart_async_init+0x70>)
     8e6:	3008      	adds	r0, #8
     8e8:	4798      	blx	r3
	if (init_status) {
     8ea:	2800      	cmp	r0, #0
     8ec:	d10b      	bne.n	906 <usart_async_init+0x5a>
	descr->io.read  = usart_async_read;
     8ee:	4b0c      	ldr	r3, [pc, #48]	; (920 <usart_async_init+0x74>)
     8f0:	6063      	str	r3, [r4, #4]
	descr->io.write = usart_async_write;
     8f2:	4b0c      	ldr	r3, [pc, #48]	; (924 <usart_async_init+0x78>)
     8f4:	6023      	str	r3, [r4, #0]
	descr->device.usart_cb.tx_byte_sent = usart_process_byte_sent;
     8f6:	4b0c      	ldr	r3, [pc, #48]	; (928 <usart_async_init+0x7c>)
     8f8:	60a3      	str	r3, [r4, #8]
	descr->device.usart_cb.rx_done_cb   = usart_fill_rx_buffer;
     8fa:	4b0c      	ldr	r3, [pc, #48]	; (92c <usart_async_init+0x80>)
     8fc:	60e3      	str	r3, [r4, #12]
	descr->device.usart_cb.tx_done_cb   = usart_transmission_complete;
     8fe:	4b0c      	ldr	r3, [pc, #48]	; (930 <usart_async_init+0x84>)
     900:	6123      	str	r3, [r4, #16]
	descr->device.usart_cb.error_cb     = usart_error;
     902:	4b0c      	ldr	r3, [pc, #48]	; (934 <usart_async_init+0x88>)
     904:	6163      	str	r3, [r4, #20]
}
     906:	bdf8      	pop	{r3, r4, r5, r6, r7, pc}
		return ERR_INVALID_ARG;
     908:	200d      	movs	r0, #13
     90a:	4240      	negs	r0, r0
     90c:	e7fb      	b.n	906 <usart_async_init+0x5a>
     90e:	46c0      	nop			; (mov r8, r8)
     910:	000020a3 	.word	0x000020a3
     914:	000003f1 	.word	0x000003f1
     918:	00000f55 	.word	0x00000f55
     91c:	00000b31 	.word	0x00000b31
     920:	0000083d 	.word	0x0000083d
     924:	000007a5 	.word	0x000007a5
     928:	00000801 	.word	0x00000801
     92c:	00000789 	.word	0x00000789
     930:	00000765 	.word	0x00000765
     934:	00000777 	.word	0x00000777

00000938 <usart_async_enable>:
{
     938:	b510      	push	{r4, lr}
     93a:	0004      	movs	r4, r0
	ASSERT(descr);
     93c:	1e43      	subs	r3, r0, #1
     93e:	4198      	sbcs	r0, r3
     940:	2261      	movs	r2, #97	; 0x61
     942:	4905      	ldr	r1, [pc, #20]	; (958 <usart_async_enable+0x20>)
     944:	4b05      	ldr	r3, [pc, #20]	; (95c <usart_async_enable+0x24>)
     946:	b2c0      	uxtb	r0, r0
     948:	4798      	blx	r3
	_usart_async_enable(&descr->device);
     94a:	0020      	movs	r0, r4
     94c:	4b04      	ldr	r3, [pc, #16]	; (960 <usart_async_enable+0x28>)
     94e:	3008      	adds	r0, #8
     950:	4798      	blx	r3
}
     952:	2000      	movs	r0, #0
     954:	bd10      	pop	{r4, pc}
     956:	46c0      	nop			; (mov r8, r8)
     958:	000020a3 	.word	0x000020a3
     95c:	000003f1 	.word	0x000003f1
     960:	00000ba1 	.word	0x00000ba1

00000964 <usart_async_get_io_descriptor>:
{
     964:	b570      	push	{r4, r5, r6, lr}
     966:	0004      	movs	r4, r0
     968:	000d      	movs	r5, r1
	ASSERT(descr && io);
     96a:	2800      	cmp	r0, #0
     96c:	d002      	beq.n	974 <usart_async_get_io_descriptor+0x10>
     96e:	0008      	movs	r0, r1
     970:	1e43      	subs	r3, r0, #1
     972:	4198      	sbcs	r0, r3
     974:	2277      	movs	r2, #119	; 0x77
     976:	4903      	ldr	r1, [pc, #12]	; (984 <usart_async_get_io_descriptor+0x20>)
     978:	4b03      	ldr	r3, [pc, #12]	; (988 <usart_async_get_io_descriptor+0x24>)
     97a:	4798      	blx	r3
}
     97c:	2000      	movs	r0, #0
	*io = &descr->io;
     97e:	602c      	str	r4, [r5, #0]
}
     980:	bd70      	pop	{r4, r5, r6, pc}
     982:	46c0      	nop			; (mov r8, r8)
     984:	000020a3 	.word	0x000020a3
     988:	000003f1 	.word	0x000003f1

0000098c <usart_async_register_callback>:
{
     98c:	b570      	push	{r4, r5, r6, lr}
     98e:	0005      	movs	r5, r0
	ASSERT(descr);
     990:	1e43      	subs	r3, r0, #1
     992:	4198      	sbcs	r0, r3
{
     994:	000e      	movs	r6, r1
     996:	0014      	movs	r4, r2
	ASSERT(descr);
     998:	4914      	ldr	r1, [pc, #80]	; (9ec <usart_async_register_callback+0x60>)
     99a:	2283      	movs	r2, #131	; 0x83
     99c:	4b14      	ldr	r3, [pc, #80]	; (9f0 <usart_async_register_callback+0x64>)
     99e:	b2c0      	uxtb	r0, r0
     9a0:	4798      	blx	r3
	switch (type) {
     9a2:	2e01      	cmp	r6, #1
     9a4:	d00e      	beq.n	9c4 <usart_async_register_callback+0x38>
     9a6:	2e02      	cmp	r6, #2
     9a8:	d014      	beq.n	9d4 <usart_async_register_callback+0x48>
     9aa:	2e00      	cmp	r6, #0
     9ac:	d11a      	bne.n	9e4 <usart_async_register_callback+0x58>
		_usart_async_set_irq_state(&descr->device, USART_ASYNC_RX_DONE, NULL != cb);
     9ae:	0028      	movs	r0, r5
		descr->usart_cb.rx_done = cb;
     9b0:	62ac      	str	r4, [r5, #40]	; 0x28
		_usart_async_set_irq_state(&descr->device, USART_ASYNC_RX_DONE, NULL != cb);
     9b2:	1e62      	subs	r2, r4, #1
     9b4:	4194      	sbcs	r4, r2
     9b6:	2101      	movs	r1, #1
     9b8:	b2e2      	uxtb	r2, r4
     9ba:	3008      	adds	r0, #8
		_usart_async_set_irq_state(&descr->device, USART_ASYNC_ERROR, NULL != cb);
     9bc:	4b0d      	ldr	r3, [pc, #52]	; (9f4 <usart_async_register_callback+0x68>)
     9be:	4798      	blx	r3
	return ERR_NONE;
     9c0:	2000      	movs	r0, #0
}
     9c2:	bd70      	pop	{r4, r5, r6, pc}
		_usart_async_set_irq_state(&descr->device, USART_ASYNC_TX_DONE, NULL != cb);
     9c4:	0028      	movs	r0, r5
		descr->usart_cb.tx_done = cb;
     9c6:	626c      	str	r4, [r5, #36]	; 0x24
		_usart_async_set_irq_state(&descr->device, USART_ASYNC_TX_DONE, NULL != cb);
     9c8:	1e62      	subs	r2, r4, #1
     9ca:	4194      	sbcs	r4, r2
     9cc:	2102      	movs	r1, #2
     9ce:	b2e2      	uxtb	r2, r4
     9d0:	3008      	adds	r0, #8
     9d2:	e7f3      	b.n	9bc <usart_async_register_callback+0x30>
		_usart_async_set_irq_state(&descr->device, USART_ASYNC_ERROR, NULL != cb);
     9d4:	0028      	movs	r0, r5
		descr->usart_cb.error = cb;
     9d6:	62ec      	str	r4, [r5, #44]	; 0x2c
		_usart_async_set_irq_state(&descr->device, USART_ASYNC_ERROR, NULL != cb);
     9d8:	1e62      	subs	r2, r4, #1
     9da:	4194      	sbcs	r4, r2
     9dc:	2103      	movs	r1, #3
     9de:	b2e2      	uxtb	r2, r4
     9e0:	3008      	adds	r0, #8
     9e2:	e7eb      	b.n	9bc <usart_async_register_callback+0x30>
	switch (type) {
     9e4:	200d      	movs	r0, #13
     9e6:	4240      	negs	r0, r0
     9e8:	e7eb      	b.n	9c2 <usart_async_register_callback+0x36>
     9ea:	46c0      	nop			; (mov r8, r8)
     9ec:	000020a3 	.word	0x000020a3
     9f0:	000003f1 	.word	0x000003f1
     9f4:	00000bd1 	.word	0x00000bd1

000009f8 <__NVIC_EnableIRQ>:
  \param [in]      IRQn  Device specific interrupt number.
  \note    IRQn must not be negative.
 */
__STATIC_INLINE void __NVIC_EnableIRQ(IRQn_Type IRQn)
{
  if ((int32_t)(IRQn) >= 0)
     9f8:	2800      	cmp	r0, #0
     9fa:	db05      	blt.n	a08 <__NVIC_EnableIRQ+0x10>
  {
    NVIC->ISER[0U] = (uint32_t)(1UL << (((uint32_t)IRQn) & 0x1FUL));
     9fc:	231f      	movs	r3, #31
     9fe:	4018      	ands	r0, r3
     a00:	3b1e      	subs	r3, #30
     a02:	4083      	lsls	r3, r0
     a04:	4a01      	ldr	r2, [pc, #4]	; (a0c <__NVIC_EnableIRQ+0x14>)
     a06:	6013      	str	r3, [r2, #0]
  }
}
     a08:	4770      	bx	lr
     a0a:	46c0      	nop			; (mov r8, r8)
     a0c:	e000e100 	.word	0xe000e100

00000a10 <__NVIC_ClearPendingIRQ>:
  \param [in]      IRQn  Device specific interrupt number.
  \note    IRQn must not be negative.
 */
__STATIC_INLINE void __NVIC_ClearPendingIRQ(IRQn_Type IRQn)
{
  if ((int32_t)(IRQn) >= 0)
     a10:	2800      	cmp	r0, #0
     a12:	db07      	blt.n	a24 <__NVIC_ClearPendingIRQ+0x14>
  {
    NVIC->ICPR[0U] = (uint32_t)(1UL << (((uint32_t)IRQn) & 0x1FUL));
     a14:	231f      	movs	r3, #31
     a16:	22c0      	movs	r2, #192	; 0xc0
     a18:	4018      	ands	r0, r3
     a1a:	3b1e      	subs	r3, #30
     a1c:	4083      	lsls	r3, r0
     a1e:	4902      	ldr	r1, [pc, #8]	; (a28 <__NVIC_ClearPendingIRQ+0x18>)
     a20:	0052      	lsls	r2, r2, #1
     a22:	508b      	str	r3, [r1, r2]
  }
}
     a24:	4770      	bx	lr
     a26:	46c0      	nop			; (mov r8, r8)
     a28:	e000e100 	.word	0xe000e100

00000a2c <hri_sercomspi_wait_for_sync>:
	return ((Sercom *)hw)->I2CS.SYNCBUSY.reg & reg;
}

static inline void hri_sercomspi_wait_for_sync(const void *const hw, hri_sercomspi_syncbusy_reg_t reg)
{
	while (((Sercom *)hw)->SPI.SYNCBUSY.reg & reg) {
     a2c:	69c3      	ldr	r3, [r0, #28]
     a2e:	4219      	tst	r1, r3
     a30:	d1fc      	bne.n	a2c <hri_sercomspi_wait_for_sync>
	};
}
     a32:	4770      	bx	lr

00000a34 <hri_sercomusart_wait_for_sync>:
	return ((Sercom *)hw)->SPI.SYNCBUSY.reg & reg;
}

static inline void hri_sercomusart_wait_for_sync(const void *const hw, hri_sercomusart_syncbusy_reg_t reg)
{
	while (((Sercom *)hw)->USART.SYNCBUSY.reg & reg) {
     a34:	69c3      	ldr	r3, [r0, #28]
     a36:	4219      	tst	r1, r3
     a38:	d1fc      	bne.n	a34 <hri_sercomusart_wait_for_sync>
	};
}
     a3a:	4770      	bx	lr

00000a3c <hri_sercomusart_clear_CTRLA_ENABLE_bit>:
}

static inline void hri_sercomusart_clear_CTRLA_ENABLE_bit(const void *const hw)
{
	SERCOM_CRITICAL_SECTION_ENTER();
	((Sercom *)hw)->USART.CTRLA.reg &= ~SERCOM_USART_CTRLA_ENABLE;
     a3c:	2202      	movs	r2, #2
{
     a3e:	b510      	push	{r4, lr}
	((Sercom *)hw)->USART.CTRLA.reg &= ~SERCOM_USART_CTRLA_ENABLE;
     a40:	6803      	ldr	r3, [r0, #0]
	hri_sercomusart_wait_for_sync(hw, SERCOM_USART_SYNCBUSY_SWRST | SERCOM_USART_SYNCBUSY_ENABLE);
     a42:	2103      	movs	r1, #3
	((Sercom *)hw)->USART.CTRLA.reg &= ~SERCOM_USART_CTRLA_ENABLE;
     a44:	4393      	bics	r3, r2
     a46:	6003      	str	r3, [r0, #0]
	hri_sercomusart_wait_for_sync(hw, SERCOM_USART_SYNCBUSY_SWRST | SERCOM_USART_SYNCBUSY_ENABLE);
     a48:	4b01      	ldr	r3, [pc, #4]	; (a50 <hri_sercomusart_clear_CTRLA_ENABLE_bit+0x14>)
     a4a:	4798      	blx	r3
	SERCOM_CRITICAL_SECTION_LEAVE();
}
     a4c:	bd10      	pop	{r4, pc}
     a4e:	46c0      	nop			; (mov r8, r8)
     a50:	00000a35 	.word	0x00000a35

00000a54 <_spi_sync_enable>:
	return ((Sercom *)hw)->SPI.SYNCBUSY.reg & reg;
     a54:	69c2      	ldr	r2, [r0, #28]
     a56:	2301      	movs	r3, #1
 *  \param[in] hw Pointer to the hardware register base.
 *
 * \return Enabling status
 */
static int32_t _spi_sync_enable(void *const hw)
{
     a58:	b510      	push	{r4, lr}
     a5a:	0014      	movs	r4, r2
     a5c:	401c      	ands	r4, r3
	if (hri_sercomspi_is_syncing(hw, SERCOM_SPI_SYNCBUSY_SWRST)) {
     a5e:	421a      	tst	r2, r3
     a60:	d108      	bne.n	a74 <_spi_sync_enable+0x20>
	((Sercom *)hw)->SPI.CTRLA.reg |= SERCOM_SPI_CTRLA_ENABLE;
     a62:	6802      	ldr	r2, [r0, #0]
     a64:	18db      	adds	r3, r3, r3
     a66:	4313      	orrs	r3, r2
     a68:	6003      	str	r3, [r0, #0]
	hri_sercomspi_wait_for_sync(hw, SERCOM_SPI_SYNCBUSY_SWRST | SERCOM_SPI_SYNCBUSY_ENABLE);
     a6a:	2103      	movs	r1, #3
     a6c:	4b03      	ldr	r3, [pc, #12]	; (a7c <_spi_sync_enable+0x28>)
     a6e:	4798      	blx	r3
		return ERR_BUSY;
	}

	hri_sercomspi_set_CTRLA_ENABLE_bit(hw);

	return ERR_NONE;
     a70:	0020      	movs	r0, r4
}
     a72:	bd10      	pop	{r4, pc}
		return ERR_BUSY;
     a74:	2004      	movs	r0, #4
     a76:	4240      	negs	r0, r0
     a78:	e7fb      	b.n	a72 <_spi_sync_enable+0x1e>
     a7a:	46c0      	nop			; (mov r8, r8)
     a7c:	00000a2d 	.word	0x00000a2d

00000a80 <__NVIC_DisableIRQ>:
  if ((int32_t)(IRQn) >= 0)
     a80:	2800      	cmp	r0, #0
     a82:	db09      	blt.n	a98 <__NVIC_DisableIRQ+0x18>
    NVIC->ICER[0U] = (uint32_t)(1UL << (((uint32_t)IRQn) & 0x1FUL));
     a84:	231f      	movs	r3, #31
     a86:	4018      	ands	r0, r3
     a88:	3b1e      	subs	r3, #30
     a8a:	4083      	lsls	r3, r0
     a8c:	4a03      	ldr	r2, [pc, #12]	; (a9c <__NVIC_DisableIRQ+0x1c>)
     a8e:	67d3      	str	r3, [r2, #124]	; 0x7c
  \details Acts as a special kind of Data Memory Barrier.
           It completes when all explicit memory accesses before this instruction complete.
 */
__STATIC_FORCEINLINE void __DSB(void)
{
  __ASM volatile ("dsb 0xF":::"memory");
     a90:	f3bf 8f4f 	dsb	sy
  __ASM volatile ("isb 0xF":::"memory");
     a94:	f3bf 8f6f 	isb	sy
}
     a98:	4770      	bx	lr
     a9a:	46c0      	nop			; (mov r8, r8)
     a9c:	e000e104 	.word	0xe000e104

00000aa0 <_usart_init>:
	return ((uint32_t)hw - (uint32_t)SERCOM0) >> 10;
     aa0:	4b1b      	ldr	r3, [pc, #108]	; (b10 <_usart_init+0x70>)
{
     aa2:	b570      	push	{r4, r5, r6, lr}
	return ((uint32_t)hw - (uint32_t)SERCOM0) >> 10;
     aa4:	18c3      	adds	r3, r0, r3
     aa6:	0a9b      	lsrs	r3, r3, #10
		if (_usarts[i].number == sercom_offset) {
     aa8:	b2db      	uxtb	r3, r3
{
     aaa:	0004      	movs	r4, r0
		if (_usarts[i].number == sercom_offset) {
     aac:	2b04      	cmp	r3, #4
     aae:	d004      	beq.n	aba <_usart_init+0x1a>
	ASSERT(false);
     ab0:	2000      	movs	r0, #0
     ab2:	4a18      	ldr	r2, [pc, #96]	; (b14 <_usart_init+0x74>)
     ab4:	4918      	ldr	r1, [pc, #96]	; (b18 <_usart_init+0x78>)
     ab6:	4b19      	ldr	r3, [pc, #100]	; (b1c <_usart_init+0x7c>)
     ab8:	4798      	blx	r3
	return ((Sercom *)hw)->USART.SYNCBUSY.reg & reg;
     aba:	69e3      	ldr	r3, [r4, #28]
     abc:	4d18      	ldr	r5, [pc, #96]	; (b20 <_usart_init+0x80>)
	if (!hri_sercomusart_is_syncing(hw, SERCOM_USART_SYNCBUSY_SWRST)) {
     abe:	07db      	lsls	r3, r3, #31
     ac0:	d411      	bmi.n	ae6 <_usart_init+0x46>
                                                                        hri_sercomusart_ctrla_reg_t mask)
{
	uint32_t tmp;
	hri_sercomusart_wait_for_sync(hw, SERCOM_USART_SYNCBUSY_SWRST | SERCOM_USART_SYNCBUSY_ENABLE);
	tmp = ((Sercom *)hw)->USART.CTRLA.reg;
	tmp &= mask;
     ac2:	2602      	movs	r6, #2
	hri_sercomusart_wait_for_sync(hw, SERCOM_USART_SYNCBUSY_SWRST | SERCOM_USART_SYNCBUSY_ENABLE);
     ac4:	2103      	movs	r1, #3
     ac6:	0020      	movs	r0, r4
     ac8:	47a8      	blx	r5
	tmp = ((Sercom *)hw)->USART.CTRLA.reg;
     aca:	6823      	ldr	r3, [r4, #0]
		if (hri_sercomusart_get_CTRLA_reg(hw, SERCOM_USART_CTRLA_ENABLE)) {
     acc:	4233      	tst	r3, r6
     ace:	d005      	beq.n	adc <_usart_init+0x3c>
			hri_sercomusart_clear_CTRLA_ENABLE_bit(hw);
     ad0:	0020      	movs	r0, r4
     ad2:	4b14      	ldr	r3, [pc, #80]	; (b24 <_usart_init+0x84>)
     ad4:	4798      	blx	r3
			hri_sercomusart_wait_for_sync(hw, SERCOM_USART_SYNCBUSY_ENABLE);
     ad6:	0031      	movs	r1, r6
     ad8:	0020      	movs	r0, r4
     ada:	47a8      	blx	r5
}

static inline void hri_sercomusart_write_CTRLA_reg(const void *const hw, hri_sercomusart_ctrla_reg_t data)
{
	SERCOM_CRITICAL_SECTION_ENTER();
	((Sercom *)hw)->USART.CTRLA.reg = data;
     adc:	2305      	movs	r3, #5
	hri_sercomusart_wait_for_sync(hw, SERCOM_USART_SYNCBUSY_SWRST | SERCOM_USART_SYNCBUSY_ENABLE);
     ade:	2103      	movs	r1, #3
     ae0:	0020      	movs	r0, r4
	((Sercom *)hw)->USART.CTRLA.reg = data;
     ae2:	6023      	str	r3, [r4, #0]
	hri_sercomusart_wait_for_sync(hw, SERCOM_USART_SYNCBUSY_SWRST | SERCOM_USART_SYNCBUSY_ENABLE);
     ae4:	47a8      	blx	r5
	hri_sercomusart_wait_for_sync(hw, SERCOM_USART_SYNCBUSY_SWRST);
     ae6:	0020      	movs	r0, r4
     ae8:	2101      	movs	r1, #1
     aea:	47a8      	blx	r5
	((Sercom *)hw)->USART.CTRLA.reg = data;
     aec:	4b0e      	ldr	r3, [pc, #56]	; (b28 <_usart_init+0x88>)
	hri_sercomusart_wait_for_sync(hw, SERCOM_USART_SYNCBUSY_SWRST | SERCOM_USART_SYNCBUSY_ENABLE);
     aee:	0020      	movs	r0, r4
	((Sercom *)hw)->USART.CTRLA.reg = data;
     af0:	6023      	str	r3, [r4, #0]
	hri_sercomusart_wait_for_sync(hw, SERCOM_USART_SYNCBUSY_SWRST | SERCOM_USART_SYNCBUSY_ENABLE);
     af2:	2103      	movs	r1, #3
     af4:	47a8      	blx	r5
}

static inline void hri_sercomusart_write_CTRLB_reg(const void *const hw, hri_sercomusart_ctrlb_reg_t data)
{
	SERCOM_CRITICAL_SECTION_ENTER();
	((Sercom *)hw)->USART.CTRLB.reg = data;
     af6:	23c0      	movs	r3, #192	; 0xc0
     af8:	029b      	lsls	r3, r3, #10
	hri_sercomusart_wait_for_sync(hw, SERCOM_USART_SYNCBUSY_MASK);
     afa:	0020      	movs	r0, r4
	((Sercom *)hw)->USART.CTRLB.reg = data;
     afc:	6063      	str	r3, [r4, #4]
	hri_sercomusart_wait_for_sync(hw, SERCOM_USART_SYNCBUSY_MASK);
     afe:	2107      	movs	r1, #7
     b00:	47a8      	blx	r5
}

static inline void hri_sercomusart_write_RXPL_reg(const void *const hw, hri_sercomusart_rxpl_reg_t data)
{
	SERCOM_CRITICAL_SECTION_ENTER();
	((Sercom *)hw)->USART.RXPL.reg = data;
     b02:	2000      	movs	r0, #0
	((Sercom *)hw)->USART.BAUD.reg = data;
     b04:	4b09      	ldr	r3, [pc, #36]	; (b2c <_usart_init+0x8c>)
     b06:	81a3      	strh	r3, [r4, #12]
	((Sercom *)hw)->USART.RXPL.reg = data;
     b08:	73a0      	strb	r0, [r4, #14]
}

static inline void hri_sercomusart_write_DBGCTRL_reg(const void *const hw, hri_sercomusart_dbgctrl_reg_t data)
{
	SERCOM_CRITICAL_SECTION_ENTER();
	((Sercom *)hw)->USART.DBGCTRL.reg = data;
     b0a:	3430      	adds	r4, #48	; 0x30
     b0c:	7020      	strb	r0, [r4, #0]
}
     b0e:	bd70      	pop	{r4, r5, r6, pc}
     b10:	bdfffc00 	.word	0xbdfffc00
     b14:	0000025e 	.word	0x0000025e
     b18:	000020c0 	.word	0x000020c0
     b1c:	000003f1 	.word	0x000003f1
     b20:	00000a35 	.word	0x00000a35
     b24:	00000a3d 	.word	0x00000a3d
     b28:	40310004 	.word	0x40310004
     b2c:	ffff8a09 	.word	0xffff8a09

00000b30 <_usart_async_init>:
{
     b30:	b570      	push	{r4, r5, r6, lr}
     b32:	0006      	movs	r6, r0
	ASSERT(device);
     b34:	1e43      	subs	r3, r0, #1
     b36:	4198      	sbcs	r0, r3
{
     b38:	000c      	movs	r4, r1
	ASSERT(device);
     b3a:	22c4      	movs	r2, #196	; 0xc4
     b3c:	490f      	ldr	r1, [pc, #60]	; (b7c <_usart_async_init+0x4c>)
     b3e:	4b10      	ldr	r3, [pc, #64]	; (b80 <_usart_async_init+0x50>)
     b40:	b2c0      	uxtb	r0, r0
     b42:	4798      	blx	r3
	init_status = _usart_init(hw);
     b44:	0020      	movs	r0, r4
     b46:	4b0f      	ldr	r3, [pc, #60]	; (b84 <_usart_async_init+0x54>)
     b48:	4798      	blx	r3
     b4a:	1e05      	subs	r5, r0, #0
	if (init_status) {
     b4c:	d113      	bne.n	b76 <_usart_async_init+0x46>
	if (hw == SERCOM4) {
     b4e:	4b0e      	ldr	r3, [pc, #56]	; (b88 <_usart_async_init+0x58>)
	device->hw = hw;
     b50:	61b4      	str	r4, [r6, #24]
	if (hw == SERCOM4) {
     b52:	429c      	cmp	r4, r3
     b54:	d101      	bne.n	b5a <_usart_async_init+0x2a>
		_sercom4_dev = (struct _usart_async_device *)dev;
     b56:	4b0d      	ldr	r3, [pc, #52]	; (b8c <_usart_async_init+0x5c>)
     b58:	601e      	str	r6, [r3, #0]
	return ((uint32_t)hw - (uint32_t)SERCOM0) >> 10;
     b5a:	4b0d      	ldr	r3, [pc, #52]	; (b90 <_usart_async_init+0x60>)
     b5c:	18e4      	adds	r4, r4, r3
     b5e:	0aa4      	lsrs	r4, r4, #10
	return SERCOM0_IRQn + _sercom_get_hardware_index(hw);
     b60:	3409      	adds	r4, #9
	NVIC_DisableIRQ((IRQn_Type)_sercom_get_irq_num(hw));
     b62:	b264      	sxtb	r4, r4
     b64:	0020      	movs	r0, r4
     b66:	4b0b      	ldr	r3, [pc, #44]	; (b94 <_usart_async_init+0x64>)
     b68:	4798      	blx	r3
	NVIC_ClearPendingIRQ((IRQn_Type)_sercom_get_irq_num(hw));
     b6a:	0020      	movs	r0, r4
     b6c:	4b0a      	ldr	r3, [pc, #40]	; (b98 <_usart_async_init+0x68>)
     b6e:	4798      	blx	r3
	NVIC_EnableIRQ((IRQn_Type)_sercom_get_irq_num(hw));
     b70:	0020      	movs	r0, r4
     b72:	4b0a      	ldr	r3, [pc, #40]	; (b9c <_usart_async_init+0x6c>)
     b74:	4798      	blx	r3
}
     b76:	0028      	movs	r0, r5
     b78:	bd70      	pop	{r4, r5, r6, pc}
     b7a:	46c0      	nop			; (mov r8, r8)
     b7c:	000020c0 	.word	0x000020c0
     b80:	000003f1 	.word	0x000003f1
     b84:	00000aa1 	.word	0x00000aa1
     b88:	42001400 	.word	0x42001400
     b8c:	20000098 	.word	0x20000098
     b90:	bdfffc00 	.word	0xbdfffc00
     b94:	00000a81 	.word	0x00000a81
     b98:	00000a11 	.word	0x00000a11
     b9c:	000009f9 	.word	0x000009f9

00000ba0 <_usart_async_enable>:
	((Sercom *)hw)->USART.CTRLA.reg |= SERCOM_USART_CTRLA_ENABLE;
     ba0:	2302      	movs	r3, #2
	hri_sercomusart_set_CTRLA_ENABLE_bit(device->hw);
     ba2:	6980      	ldr	r0, [r0, #24]
{
     ba4:	b510      	push	{r4, lr}
     ba6:	6802      	ldr	r2, [r0, #0]
	hri_sercomusart_wait_for_sync(hw, SERCOM_USART_SYNCBUSY_SWRST | SERCOM_USART_SYNCBUSY_ENABLE);
     ba8:	2103      	movs	r1, #3
	((Sercom *)hw)->USART.CTRLA.reg |= SERCOM_USART_CTRLA_ENABLE;
     baa:	4313      	orrs	r3, r2
     bac:	6003      	str	r3, [r0, #0]
	hri_sercomusart_wait_for_sync(hw, SERCOM_USART_SYNCBUSY_SWRST | SERCOM_USART_SYNCBUSY_ENABLE);
     bae:	4b01      	ldr	r3, [pc, #4]	; (bb4 <_usart_async_enable+0x14>)
     bb0:	4798      	blx	r3
}
     bb2:	bd10      	pop	{r4, pc}
     bb4:	00000a35 	.word	0x00000a35

00000bb8 <_usart_async_write_byte>:
	hri_sercomusart_write_DATA_reg(device->hw, data);
     bb8:	6983      	ldr	r3, [r0, #24]
	((Sercom *)hw)->USART.DATA.reg = data;
     bba:	8519      	strh	r1, [r3, #40]	; 0x28
}
     bbc:	4770      	bx	lr

00000bbe <_usart_async_enable_byte_sent_irq>:
	((Sercom *)hw)->USART.INTENSET.reg = SERCOM_USART_INTENSET_DRE;
     bbe:	2201      	movs	r2, #1
	hri_sercomusart_set_INTEN_DRE_bit(device->hw);
     bc0:	6983      	ldr	r3, [r0, #24]
     bc2:	759a      	strb	r2, [r3, #22]
}
     bc4:	4770      	bx	lr

00000bc6 <_usart_async_enable_tx_done_irq>:
	((Sercom *)hw)->USART.INTENSET.reg = SERCOM_USART_INTENSET_TXC;
     bc6:	2202      	movs	r2, #2
	hri_sercomusart_set_INTEN_TXC_bit(device->hw);
     bc8:	6983      	ldr	r3, [r0, #24]
     bca:	759a      	strb	r2, [r3, #22]
}
     bcc:	4770      	bx	lr
	...

00000bd0 <_usart_async_set_irq_state>:
{
     bd0:	b570      	push	{r4, r5, r6, lr}
     bd2:	0004      	movs	r4, r0
	ASSERT(device);
     bd4:	1e43      	subs	r3, r0, #1
     bd6:	4198      	sbcs	r0, r3
{
     bd8:	000e      	movs	r6, r1
	ASSERT(device);
     bda:	4b10      	ldr	r3, [pc, #64]	; (c1c <_usart_async_set_irq_state+0x4c>)
{
     bdc:	0015      	movs	r5, r2
	ASSERT(device);
     bde:	4910      	ldr	r1, [pc, #64]	; (c20 <_usart_async_set_irq_state+0x50>)
     be0:	4a10      	ldr	r2, [pc, #64]	; (c24 <_usart_async_set_irq_state+0x54>)
     be2:	b2c0      	uxtb	r0, r0
     be4:	4798      	blx	r3
	if (USART_ASYNC_BYTE_SENT == type || USART_ASYNC_TX_DONE == type) {
     be6:	2202      	movs	r2, #2
     be8:	0033      	movs	r3, r6
     bea:	4393      	bics	r3, r2
     bec:	d109      	bne.n	c02 <_usart_async_set_irq_state+0x32>
		hri_sercomusart_write_INTEN_DRE_bit(device->hw, state);
     bee:	2101      	movs	r1, #1
     bf0:	69a3      	ldr	r3, [r4, #24]
	if (value == 0x0) {
     bf2:	2d00      	cmp	r5, #0
     bf4:	d102      	bne.n	bfc <_usart_async_set_irq_state+0x2c>
		((Sercom *)hw)->USART.INTENCLR.reg = SERCOM_USART_INTENSET_DRE;
     bf6:	7519      	strb	r1, [r3, #20]
		((Sercom *)hw)->USART.INTENCLR.reg = SERCOM_USART_INTENSET_ERROR;
     bf8:	751a      	strb	r2, [r3, #20]
}
     bfa:	bd70      	pop	{r4, r5, r6, pc}
		((Sercom *)hw)->USART.INTENSET.reg = SERCOM_USART_INTENSET_DRE;
     bfc:	7599      	strb	r1, [r3, #22]
		((Sercom *)hw)->USART.INTENSET.reg = SERCOM_USART_INTENSET_ERROR;
     bfe:	759a      	strb	r2, [r3, #22]
     c00:	e7fb      	b.n	bfa <_usart_async_set_irq_state+0x2a>
	} else if (USART_ASYNC_RX_DONE == type) {
     c02:	2e01      	cmp	r6, #1
     c04:	d104      	bne.n	c10 <_usart_async_set_irq_state+0x40>
		hri_sercomusart_write_INTEN_RXC_bit(device->hw, state);
     c06:	2204      	movs	r2, #4
     c08:	69a3      	ldr	r3, [r4, #24]
	if (value == 0x0) {
     c0a:	2d00      	cmp	r5, #0
     c0c:	d1f7      	bne.n	bfe <_usart_async_set_irq_state+0x2e>
     c0e:	e7f3      	b.n	bf8 <_usart_async_set_irq_state+0x28>
	} else if (USART_ASYNC_ERROR == type) {
     c10:	2e03      	cmp	r6, #3
     c12:	d1f2      	bne.n	bfa <_usart_async_set_irq_state+0x2a>
		hri_sercomusart_write_INTEN_ERROR_bit(device->hw, state);
     c14:	2280      	movs	r2, #128	; 0x80
     c16:	69a3      	ldr	r3, [r4, #24]
     c18:	e7f7      	b.n	c0a <_usart_async_set_irq_state+0x3a>
     c1a:	46c0      	nop			; (mov r8, r8)
     c1c:	000003f1 	.word	0x000003f1
     c20:	000020c0 	.word	0x000020c0
     c24:	0000021e 	.word	0x0000021e

00000c28 <SERCOM4_Handler>:
	return NULL;
}

void SERCOM4_Handler(void)
{
	_sercom_usart_interrupt_handler(_sercom4_dev);
     c28:	4b19      	ldr	r3, [pc, #100]	; (c90 <SERCOM4_Handler+0x68>)
{
     c2a:	b510      	push	{r4, lr}
	_sercom_usart_interrupt_handler(_sercom4_dev);
     c2c:	6818      	ldr	r0, [r3, #0]
	return (((Sercom *)hw)->USART.INTFLAG.reg & SERCOM_USART_INTFLAG_DRE) >> SERCOM_USART_INTFLAG_DRE_Pos;
     c2e:	2301      	movs	r3, #1
	void *hw = device->hw;
     c30:	6984      	ldr	r4, [r0, #24]
     c32:	7e22      	ldrb	r2, [r4, #24]
	if (hri_sercomusart_get_interrupt_DRE_bit(hw) && hri_sercomusart_get_INTEN_DRE_bit(hw)) {
     c34:	421a      	tst	r2, r3
     c36:	d006      	beq.n	c46 <SERCOM4_Handler+0x1e>
	return (((Sercom *)hw)->USART.INTENSET.reg & SERCOM_USART_INTENSET_DRE) >> SERCOM_USART_INTENSET_DRE_Pos;
     c38:	7da2      	ldrb	r2, [r4, #22]
     c3a:	421a      	tst	r2, r3
     c3c:	d003      	beq.n	c46 <SERCOM4_Handler+0x1e>
	((Sercom *)hw)->USART.INTENCLR.reg = SERCOM_USART_INTENSET_DRE;
     c3e:	7523      	strb	r3, [r4, #20]
		device->usart_cb.tx_byte_sent(device);
     c40:	6803      	ldr	r3, [r0, #0]
		device->usart_cb.tx_done_cb(device);
     c42:	4798      	blx	r3
}
     c44:	bd10      	pop	{r4, pc}
	return (((Sercom *)hw)->USART.INTFLAG.reg & SERCOM_USART_INTFLAG_TXC) >> SERCOM_USART_INTFLAG_TXC_Pos;
     c46:	7e23      	ldrb	r3, [r4, #24]
     c48:	2201      	movs	r2, #1
	} else if (hri_sercomusart_get_interrupt_TXC_bit(hw) && hri_sercomusart_get_INTEN_TXC_bit(hw)) {
     c4a:	079b      	lsls	r3, r3, #30
     c4c:	d507      	bpl.n	c5e <SERCOM4_Handler+0x36>
	return (((Sercom *)hw)->USART.INTENSET.reg & SERCOM_USART_INTENSET_TXC) >> SERCOM_USART_INTENSET_TXC_Pos;
     c4e:	7da3      	ldrb	r3, [r4, #22]
     c50:	40d3      	lsrs	r3, r2
     c52:	4213      	tst	r3, r2
     c54:	d003      	beq.n	c5e <SERCOM4_Handler+0x36>
	((Sercom *)hw)->USART.INTENCLR.reg = SERCOM_USART_INTENSET_TXC;
     c56:	2302      	movs	r3, #2
     c58:	7523      	strb	r3, [r4, #20]
		device->usart_cb.tx_done_cb(device);
     c5a:	6883      	ldr	r3, [r0, #8]
     c5c:	e7f1      	b.n	c42 <SERCOM4_Handler+0x1a>
	return (((Sercom *)hw)->USART.INTFLAG.reg & SERCOM_USART_INTFLAG_RXC) >> SERCOM_USART_INTFLAG_RXC_Pos;
     c5e:	7e23      	ldrb	r3, [r4, #24]
	} else if (hri_sercomusart_get_interrupt_RXC_bit(hw)) {
     c60:	075b      	lsls	r3, r3, #29
     c62:	d50b      	bpl.n	c7c <SERCOM4_Handler+0x54>
		if (hri_sercomusart_read_STATUS_reg(hw)
     c64:	2337      	movs	r3, #55	; 0x37
	SERCOM_CRITICAL_SECTION_LEAVE();
}

static inline hri_sercomusart_status_reg_t hri_sercomusart_read_STATUS_reg(const void *const hw)
{
	return ((Sercom *)hw)->USART.STATUS.reg;
     c66:	8b62      	ldrh	r2, [r4, #26]
     c68:	421a      	tst	r2, r3
     c6a:	d002      	beq.n	c72 <SERCOM4_Handler+0x4a>
	((Sercom *)hw)->USART.STATUS.reg = mask;
     c6c:	3348      	adds	r3, #72	; 0x48
     c6e:	8363      	strh	r3, [r4, #26]
}
     c70:	e7e8      	b.n	c44 <SERCOM4_Handler+0x1c>
	return ((Sercom *)hw)->USART.DATA.reg;
     c72:	8d21      	ldrh	r1, [r4, #40]	; 0x28
		device->usart_cb.rx_done_cb(device, hri_sercomusart_read_DATA_reg(hw));
     c74:	6843      	ldr	r3, [r0, #4]
     c76:	b2c9      	uxtb	r1, r1
     c78:	4798      	blx	r3
     c7a:	e7e3      	b.n	c44 <SERCOM4_Handler+0x1c>
	return (((Sercom *)hw)->USART.INTFLAG.reg & SERCOM_USART_INTFLAG_ERROR) >> SERCOM_USART_INTFLAG_ERROR_Pos;
     c7c:	7e23      	ldrb	r3, [r4, #24]
     c7e:	09db      	lsrs	r3, r3, #7
	} else if (hri_sercomusart_get_interrupt_ERROR_bit(hw)) {
     c80:	d0e0      	beq.n	c44 <SERCOM4_Handler+0x1c>
	((Sercom *)hw)->USART.INTFLAG.reg = SERCOM_USART_INTFLAG_ERROR;
     c82:	2380      	movs	r3, #128	; 0x80
     c84:	7623      	strb	r3, [r4, #24]
		device->usart_cb.error_cb(device);
     c86:	68c3      	ldr	r3, [r0, #12]
     c88:	4798      	blx	r3
	return ((Sercom *)hw)->USART.STATUS.reg;
     c8a:	8b63      	ldrh	r3, [r4, #26]
     c8c:	b29b      	uxth	r3, r3
     c8e:	e7ee      	b.n	c6e <SERCOM4_Handler+0x46>
     c90:	20000098 	.word	0x20000098

00000c94 <_spi_m_sync_init>:

int32_t _spi_m_sync_init(struct _spi_m_sync_dev *dev, void *const hw)
{
     c94:	b5f7      	push	{r0, r1, r2, r4, r5, r6, r7, lr}
	return ((uint32_t)hw - (uint32_t)SERCOM0) >> 10;
     c96:	4b5e      	ldr	r3, [pc, #376]	; (e10 <_spi_m_sync_init+0x17c>)
{
     c98:	000d      	movs	r5, r1
	return ((uint32_t)hw - (uint32_t)SERCOM0) >> 10;
     c9a:	18cb      	adds	r3, r1, r3
     c9c:	0a9b      	lsrs	r3, r3, #10
		if (sercomspi_regs[i].n == n) {
     c9e:	b2db      	uxtb	r3, r3
	return NULL;
     ca0:	2400      	movs	r4, #0
{
     ca2:	9000      	str	r0, [sp, #0]
		if (sercomspi_regs[i].n == n) {
     ca4:	2b01      	cmp	r3, #1
     ca6:	d101      	bne.n	cac <_spi_m_sync_init+0x18>
			return &sercomspi_regs[i];
     ca8:	4c5a      	ldr	r4, [pc, #360]	; (e14 <_spi_m_sync_init+0x180>)
     caa:	3418      	adds	r4, #24
	const struct sercomspi_regs_cfg *regs = _spi_get_regs((uint32_t)hw);

	ASSERT(dev && hw);
     cac:	9800      	ldr	r0, [sp, #0]
     cae:	2800      	cmp	r0, #0
     cb0:	d002      	beq.n	cb8 <_spi_m_sync_init+0x24>
     cb2:	0028      	movs	r0, r5
     cb4:	1e43      	subs	r3, r0, #1
     cb6:	4198      	sbcs	r0, r3
     cb8:	2701      	movs	r7, #1
     cba:	4a57      	ldr	r2, [pc, #348]	; (e18 <_spi_m_sync_init+0x184>)
     cbc:	4957      	ldr	r1, [pc, #348]	; (e1c <_spi_m_sync_init+0x188>)
     cbe:	4b58      	ldr	r3, [pc, #352]	; (e20 <_spi_m_sync_init+0x18c>)
     cc0:	4038      	ands	r0, r7
     cc2:	4798      	blx	r3

	if (regs == NULL) {
     cc4:	2c00      	cmp	r4, #0
     cc6:	d100      	bne.n	cca <_spi_m_sync_init+0x36>
     cc8:	e09e      	b.n	e08 <_spi_m_sync_init+0x174>
	return ((Sercom *)hw)->SPI.SYNCBUSY.reg & reg;
     cca:	69eb      	ldr	r3, [r5, #28]
     ccc:	4e55      	ldr	r6, [pc, #340]	; (e24 <_spi_m_sync_init+0x190>)
		return ERR_INVALID_ARG;
	}

	if (!hri_sercomspi_is_syncing(hw, SERCOM_SPI_SYNCBUSY_SWRST)) {
     cce:	423b      	tst	r3, r7
     cd0:	d11a      	bne.n	d08 <_spi_m_sync_init+0x74>
		uint32_t mode = regs->ctrla & SERCOM_SPI_CTRLA_MODE_Msk;
     cd2:	231c      	movs	r3, #28
     cd4:	7822      	ldrb	r2, [r4, #0]
	hri_sercomspi_wait_for_sync(hw, SERCOM_SPI_SYNCBUSY_SWRST | SERCOM_SPI_SYNCBUSY_ENABLE);
     cd6:	2103      	movs	r1, #3
     cd8:	401a      	ands	r2, r3
     cda:	0028      	movs	r0, r5
     cdc:	9201      	str	r2, [sp, #4]
     cde:	47b0      	blx	r6
	tmp = ((Sercom *)hw)->SPI.CTRLA.reg;
     ce0:	682b      	ldr	r3, [r5, #0]
	tmp &= mask;
     ce2:	19ff      	adds	r7, r7, r7
		if (hri_sercomspi_get_CTRLA_reg(hw, SERCOM_SPI_CTRLA_ENABLE)) {
     ce4:	423b      	tst	r3, r7
     ce6:	d008      	beq.n	cfa <_spi_m_sync_init+0x66>
	((Sercom *)hw)->SPI.CTRLA.reg &= ~SERCOM_SPI_CTRLA_ENABLE;
     ce8:	682b      	ldr	r3, [r5, #0]
	hri_sercomspi_wait_for_sync(hw, SERCOM_SPI_SYNCBUSY_SWRST | SERCOM_SPI_SYNCBUSY_ENABLE);
     cea:	2103      	movs	r1, #3
	((Sercom *)hw)->SPI.CTRLA.reg &= ~SERCOM_SPI_CTRLA_ENABLE;
     cec:	43bb      	bics	r3, r7
	hri_sercomspi_wait_for_sync(hw, SERCOM_SPI_SYNCBUSY_SWRST | SERCOM_SPI_SYNCBUSY_ENABLE);
     cee:	0028      	movs	r0, r5
	((Sercom *)hw)->SPI.CTRLA.reg &= ~SERCOM_SPI_CTRLA_ENABLE;
     cf0:	602b      	str	r3, [r5, #0]
	hri_sercomspi_wait_for_sync(hw, SERCOM_SPI_SYNCBUSY_SWRST | SERCOM_SPI_SYNCBUSY_ENABLE);
     cf2:	47b0      	blx	r6
			hri_sercomspi_clear_CTRLA_ENABLE_bit(hw);
			hri_sercomspi_wait_for_sync(hw, SERCOM_SPI_SYNCBUSY_ENABLE);
     cf4:	0039      	movs	r1, r7
     cf6:	0028      	movs	r0, r5
     cf8:	47b0      	blx	r6
		}
		hri_sercomspi_write_CTRLA_reg(hw, SERCOM_SPI_CTRLA_SWRST | mode);
     cfa:	2301      	movs	r3, #1
     cfc:	9a01      	ldr	r2, [sp, #4]
	hri_sercomspi_wait_for_sync(hw, SERCOM_SPI_SYNCBUSY_SWRST | SERCOM_SPI_SYNCBUSY_ENABLE);
     cfe:	2103      	movs	r1, #3
     d00:	4313      	orrs	r3, r2
     d02:	0028      	movs	r0, r5
	((Sercom *)hw)->SPI.CTRLA.reg = data;
     d04:	602b      	str	r3, [r5, #0]
	hri_sercomspi_wait_for_sync(hw, SERCOM_SPI_SYNCBUSY_SWRST | SERCOM_SPI_SYNCBUSY_ENABLE);
     d06:	47b0      	blx	r6
	}
	hri_sercomspi_wait_for_sync(hw, SERCOM_SPI_SYNCBUSY_SWRST);
     d08:	2101      	movs	r1, #1
     d0a:	0028      	movs	r0, r5
     d0c:	47b0      	blx	r6

	dev->prvt = hw;

	if ((regs->ctrla & SERCOM_SPI_CTRLA_MODE_Msk) == SERCOM_USART_CTRLA_MODE_SPI_SLAVE) {
     d0e:	221c      	movs	r2, #28
	dev->prvt = hw;
     d10:	9b00      	ldr	r3, [sp, #0]
     d12:	4f45      	ldr	r7, [pc, #276]	; (e28 <_spi_m_sync_init+0x194>)
     d14:	601d      	str	r5, [r3, #0]
	if ((regs->ctrla & SERCOM_SPI_CTRLA_MODE_Msk) == SERCOM_USART_CTRLA_MODE_SPI_SLAVE) {
     d16:	7823      	ldrb	r3, [r4, #0]
     d18:	4013      	ands	r3, r2
     d1a:	2b08      	cmp	r3, #8
     d1c:	d147      	bne.n	dae <_spi_m_sync_init+0x11a>
	ASSERT(hw && regs);
     d1e:	2001      	movs	r0, #1
     d20:	4a42      	ldr	r2, [pc, #264]	; (e2c <_spi_m_sync_init+0x198>)
     d22:	493e      	ldr	r1, [pc, #248]	; (e1c <_spi_m_sync_init+0x188>)
     d24:	4b3e      	ldr	r3, [pc, #248]	; (e20 <_spi_m_sync_init+0x18c>)
     d26:	4798      	blx	r3
	    hw, regs->ctrla & ~(SERCOM_SPI_CTRLA_IBON | SERCOM_SPI_CTRLA_ENABLE | SERCOM_SPI_CTRLA_SWRST));
     d28:	7862      	ldrb	r2, [r4, #1]
     d2a:	7823      	ldrb	r3, [r4, #0]
     d2c:	0212      	lsls	r2, r2, #8
     d2e:	431a      	orrs	r2, r3
     d30:	78a3      	ldrb	r3, [r4, #2]
     d32:	2103      	movs	r1, #3
     d34:	041b      	lsls	r3, r3, #16
     d36:	431a      	orrs	r2, r3
     d38:	78e3      	ldrb	r3, [r4, #3]
     d3a:	0028      	movs	r0, r5
     d3c:	061b      	lsls	r3, r3, #24
     d3e:	4313      	orrs	r3, r2
	hri_sercomspi_write_CTRLA_reg(
     d40:	401f      	ands	r7, r3
	((Sercom *)hw)->SPI.CTRLA.reg = data;
     d42:	602f      	str	r7, [r5, #0]
	hri_sercomspi_wait_for_sync(hw, SERCOM_SPI_SYNCBUSY_SWRST | SERCOM_SPI_SYNCBUSY_ENABLE);
     d44:	47b0      	blx	r6
	                              (regs->ctrlb & ~(SERCOM_SPI_CTRLB_MSSEN))
     d46:	7962      	ldrb	r2, [r4, #5]
     d48:	7923      	ldrb	r3, [r4, #4]
     d4a:	0212      	lsls	r2, r2, #8
     d4c:	431a      	orrs	r2, r3
     d4e:	79a3      	ldrb	r3, [r4, #6]
	hri_sercomspi_wait_for_sync(hw, SERCOM_SPI_SYNCBUSY_MASK);
     d50:	2107      	movs	r1, #7
     d52:	041b      	lsls	r3, r3, #16
     d54:	431a      	orrs	r2, r3
     d56:	79e3      	ldrb	r3, [r4, #7]
     d58:	0028      	movs	r0, r5
     d5a:	061b      	lsls	r3, r3, #24
     d5c:	4313      	orrs	r3, r2
	                                  | (SERCOM_SPI_CTRLB_RXEN | SERCOM_SPI_CTRLB_SSDE | SERCOM_SPI_CTRLB_PLOADEN));
     d5e:	4a34      	ldr	r2, [pc, #208]	; (e30 <_spi_m_sync_init+0x19c>)
     d60:	4013      	ands	r3, r2
	hri_sercomspi_write_CTRLB_reg(hw,
     d62:	4a34      	ldr	r2, [pc, #208]	; (e34 <_spi_m_sync_init+0x1a0>)
     d64:	4313      	orrs	r3, r2
	((Sercom *)hw)->SPI.CTRLB.reg = data;
     d66:	606b      	str	r3, [r5, #4]
	hri_sercomspi_wait_for_sync(hw, SERCOM_SPI_SYNCBUSY_MASK);
     d68:	47b0      	blx	r6
	hri_sercomspi_write_ADDR_reg(hw, regs->addr);
     d6a:	7a62      	ldrb	r2, [r4, #9]
     d6c:	7a23      	ldrb	r3, [r4, #8]
     d6e:	0212      	lsls	r2, r2, #8
     d70:	431a      	orrs	r2, r3
     d72:	7aa3      	ldrb	r3, [r4, #10]
     d74:	041b      	lsls	r3, r3, #16
     d76:	431a      	orrs	r2, r3
     d78:	7ae3      	ldrb	r3, [r4, #11]
     d7a:	061b      	lsls	r3, r3, #24
     d7c:	4313      	orrs	r3, r2
	((Sercom *)hw)->SPI.ADDR.reg = data;
     d7e:	626b      	str	r3, [r5, #36]	; 0x24
	((Sercom *)hw)->SPI.DBGCTRL.reg = data;
     d80:	002b      	movs	r3, r5
	hri_sercomspi_write_DBGCTRL_reg(hw, regs->dbgctrl);
     d82:	7b62      	ldrb	r2, [r4, #13]
     d84:	3330      	adds	r3, #48	; 0x30
     d86:	701a      	strb	r2, [r3, #0]
	return ((Sercom *)hw)->SPI.SYNCBUSY.reg & reg;
     d88:	69eb      	ldr	r3, [r5, #28]
	while (hri_sercomspi_is_syncing(hw, 0xFFFFFFFF))
     d8a:	2b00      	cmp	r3, #0
     d8c:	d1fc      	bne.n	d88 <_spi_m_sync_init+0xf4>
	} else {
		_spi_load_regs_master(hw, regs);
	}

	/* Load character size from default hardware configuration */
	dev->char_size = ((regs->ctrlb & SERCOM_SPI_CTRLB_CHSIZE_Msk) == 0) ? 1 : 2;
     d8e:	2207      	movs	r2, #7
     d90:	7923      	ldrb	r3, [r4, #4]

	dev->dummy_byte = regs->dummy_byte;

	return ERR_NONE;
     d92:	2000      	movs	r0, #0
	dev->char_size = ((regs->ctrlb & SERCOM_SPI_CTRLB_CHSIZE_Msk) == 0) ? 1 : 2;
     d94:	4013      	ands	r3, r2
     d96:	1e5a      	subs	r2, r3, #1
     d98:	4193      	sbcs	r3, r2
     d9a:	9a00      	ldr	r2, [sp, #0]
     d9c:	3301      	adds	r3, #1
     d9e:	7113      	strb	r3, [r2, #4]
	dev->dummy_byte = regs->dummy_byte;
     da0:	7be3      	ldrb	r3, [r4, #15]
     da2:	7ba2      	ldrb	r2, [r4, #14]
     da4:	021b      	lsls	r3, r3, #8
     da6:	4313      	orrs	r3, r2
     da8:	9a00      	ldr	r2, [sp, #0]
     daa:	80d3      	strh	r3, [r2, #6]
}
     dac:	bdfe      	pop	{r1, r2, r3, r4, r5, r6, r7, pc}
	ASSERT(hw && regs);
     dae:	2001      	movs	r0, #1
     db0:	4a21      	ldr	r2, [pc, #132]	; (e38 <_spi_m_sync_init+0x1a4>)
     db2:	491a      	ldr	r1, [pc, #104]	; (e1c <_spi_m_sync_init+0x188>)
     db4:	4b1a      	ldr	r3, [pc, #104]	; (e20 <_spi_m_sync_init+0x18c>)
     db6:	4798      	blx	r3
	    hw, regs->ctrla & ~(SERCOM_SPI_CTRLA_IBON | SERCOM_SPI_CTRLA_ENABLE | SERCOM_SPI_CTRLA_SWRST));
     db8:	7862      	ldrb	r2, [r4, #1]
     dba:	7823      	ldrb	r3, [r4, #0]
     dbc:	0212      	lsls	r2, r2, #8
     dbe:	431a      	orrs	r2, r3
     dc0:	78a3      	ldrb	r3, [r4, #2]
	hri_sercomspi_wait_for_sync(hw, SERCOM_SPI_SYNCBUSY_SWRST | SERCOM_SPI_SYNCBUSY_ENABLE);
     dc2:	0028      	movs	r0, r5
     dc4:	041b      	lsls	r3, r3, #16
     dc6:	431a      	orrs	r2, r3
     dc8:	78e3      	ldrb	r3, [r4, #3]
     dca:	2103      	movs	r1, #3
     dcc:	061b      	lsls	r3, r3, #24
     dce:	4313      	orrs	r3, r2
	hri_sercomspi_write_CTRLA_reg(
     dd0:	401f      	ands	r7, r3
	((Sercom *)hw)->SPI.CTRLA.reg = data;
     dd2:	602f      	str	r7, [r5, #0]
	hri_sercomspi_wait_for_sync(hw, SERCOM_SPI_SYNCBUSY_SWRST | SERCOM_SPI_SYNCBUSY_ENABLE);
     dd4:	47b0      	blx	r6
	    (regs->ctrlb
     dd6:	7962      	ldrb	r2, [r4, #5]
     dd8:	7923      	ldrb	r3, [r4, #4]
     dda:	0212      	lsls	r2, r2, #8
     ddc:	431a      	orrs	r2, r3
     dde:	79a3      	ldrb	r3, [r4, #6]
	hri_sercomspi_wait_for_sync(hw, SERCOM_SPI_SYNCBUSY_MASK);
     de0:	0028      	movs	r0, r5
     de2:	041b      	lsls	r3, r3, #16
     de4:	431a      	orrs	r2, r3
     de6:	79e3      	ldrb	r3, [r4, #7]
     de8:	2107      	movs	r1, #7
     dea:	061b      	lsls	r3, r3, #24
     dec:	4313      	orrs	r3, r2
	        | (SERCOM_SPI_CTRLB_RXEN));
     dee:	4a13      	ldr	r2, [pc, #76]	; (e3c <_spi_m_sync_init+0x1a8>)
     df0:	4013      	ands	r3, r2
	hri_sercomspi_write_CTRLB_reg(
     df2:	2280      	movs	r2, #128	; 0x80
     df4:	0292      	lsls	r2, r2, #10
     df6:	4313      	orrs	r3, r2
	((Sercom *)hw)->SPI.CTRLB.reg = data;
     df8:	606b      	str	r3, [r5, #4]
	hri_sercomspi_wait_for_sync(hw, SERCOM_SPI_SYNCBUSY_MASK);
     dfa:	47b0      	blx	r6
	hri_sercomspi_write_BAUD_reg(hw, regs->baud);
     dfc:	7b23      	ldrb	r3, [r4, #12]
	((Sercom *)hw)->SPI.BAUD.reg = data;
     dfe:	732b      	strb	r3, [r5, #12]
	hri_sercomspi_write_DBGCTRL_reg(hw, regs->dbgctrl);
     e00:	7b63      	ldrb	r3, [r4, #13]
	((Sercom *)hw)->SPI.DBGCTRL.reg = data;
     e02:	3530      	adds	r5, #48	; 0x30
     e04:	702b      	strb	r3, [r5, #0]
}
     e06:	e7c2      	b.n	d8e <_spi_m_sync_init+0xfa>
		return ERR_INVALID_ARG;
     e08:	200d      	movs	r0, #13
     e0a:	4240      	negs	r0, r0
     e0c:	e7ce      	b.n	dac <_spi_m_sync_init+0x118>
     e0e:	46c0      	nop			; (mov r8, r8)
     e10:	bdfffc00 	.word	0xbdfffc00
     e14:	000020dc 	.word	0x000020dc
     e18:	0000094e 	.word	0x0000094e
     e1c:	000020c0 	.word	0x000020c0
     e20:	000003f1 	.word	0x000003f1
     e24:	00000a2d 	.word	0x00000a2d
     e28:	fffffefc 	.word	0xfffffefc
     e2c:	00000927 	.word	0x00000927
     e30:	fffdddbf 	.word	0xfffdddbf
     e34:	00020240 	.word	0x00020240
     e38:	00000913 	.word	0x00000913
     e3c:	fffd1dbf 	.word	0xfffd1dbf

00000e40 <_spi_m_sync_enable>:
{
	return _spi_deinit(dev->prvt);
}

int32_t _spi_m_sync_enable(struct _spi_m_sync_dev *dev)
{
     e40:	b510      	push	{r4, lr}
     e42:	1e04      	subs	r4, r0, #0
	ASSERT(dev && dev->prvt);
     e44:	d002      	beq.n	e4c <_spi_m_sync_enable+0xc>
     e46:	6800      	ldr	r0, [r0, #0]
     e48:	1e43      	subs	r3, r0, #1
     e4a:	4198      	sbcs	r0, r3
     e4c:	4a03      	ldr	r2, [pc, #12]	; (e5c <_spi_m_sync_enable+0x1c>)
     e4e:	4904      	ldr	r1, [pc, #16]	; (e60 <_spi_m_sync_enable+0x20>)
     e50:	4b04      	ldr	r3, [pc, #16]	; (e64 <_spi_m_sync_enable+0x24>)
     e52:	4798      	blx	r3

	return _spi_sync_enable(dev->prvt);
     e54:	6820      	ldr	r0, [r4, #0]
     e56:	4b04      	ldr	r3, [pc, #16]	; (e68 <_spi_m_sync_enable+0x28>)
     e58:	4798      	blx	r3
}
     e5a:	bd10      	pop	{r4, pc}
     e5c:	000009a9 	.word	0x000009a9
     e60:	000020c0 	.word	0x000020c0
     e64:	000003f1 	.word	0x000003f1
     e68:	00000a55 	.word	0x00000a55

00000e6c <_spi_m_sync_trans>:

	return ERR_NONE;
}

int32_t _spi_m_sync_trans(struct _spi_m_sync_dev *dev, const struct spi_msg *msg)
{
     e6c:	b5f0      	push	{r4, r5, r6, r7, lr}
	void *                 hw   = dev->prvt;
     e6e:	6804      	ldr	r4, [r0, #0]
{
     e70:	b085      	sub	sp, #20
     e72:	9002      	str	r0, [sp, #8]
	int32_t                rc   = 0;
	struct _spi_trans_ctrl ctrl = {msg->txbuf, msg->rxbuf, 0, 0, dev->char_size};
     e74:	7903      	ldrb	r3, [r0, #4]

	ASSERT(dev && hw);
     e76:	0020      	movs	r0, r4
	struct _spi_trans_ctrl ctrl = {msg->txbuf, msg->rxbuf, 0, 0, dev->char_size};
     e78:	9303      	str	r3, [sp, #12]
	ASSERT(dev && hw);
     e7a:	1e43      	subs	r3, r0, #1
     e7c:	4198      	sbcs	r0, r3
	struct _spi_trans_ctrl ctrl = {msg->txbuf, msg->rxbuf, 0, 0, dev->char_size};
     e7e:	680e      	ldr	r6, [r1, #0]
     e80:	684d      	ldr	r5, [r1, #4]
	ASSERT(dev && hw);
     e82:	4a30      	ldr	r2, [pc, #192]	; (f44 <_spi_m_sync_trans+0xd8>)
     e84:	4b30      	ldr	r3, [pc, #192]	; (f48 <_spi_m_sync_trans+0xdc>)
{
     e86:	000f      	movs	r7, r1
	ASSERT(dev && hw);
     e88:	b2c0      	uxtb	r0, r0
     e8a:	4930      	ldr	r1, [pc, #192]	; (f4c <_spi_m_sync_trans+0xe0>)
     e8c:	4798      	blx	r3
	return ((Sercom *)hw)->SPI.SYNCBUSY.reg & reg;
     e8e:	69e2      	ldr	r2, [r4, #28]
     e90:	2307      	movs	r3, #7
     e92:	0011      	movs	r1, r2
     e94:	4019      	ands	r1, r3
     e96:	9101      	str	r1, [sp, #4]

	/* If settings are not applied (pending), we can not go on */
	if (hri_sercomspi_is_syncing(
     e98:	421a      	tst	r2, r3
     e9a:	d151      	bne.n	f40 <_spi_m_sync_trans+0xd4>
	hri_sercomspi_wait_for_sync(hw, SERCOM_SPI_SYNCBUSY_SWRST | SERCOM_SPI_SYNCBUSY_ENABLE);
     e9c:	4b2c      	ldr	r3, [pc, #176]	; (f50 <_spi_m_sync_trans+0xe4>)
     e9e:	2103      	movs	r1, #3
     ea0:	0020      	movs	r0, r4
     ea2:	4798      	blx	r3
	tmp = ((Sercom *)hw)->SPI.CTRLA.reg;
     ea4:	6823      	ldr	r3, [r4, #0]
	struct _spi_trans_ctrl ctrl = {msg->txbuf, msg->rxbuf, 0, 0, dev->char_size};
     ea6:	9a01      	ldr	r2, [sp, #4]
	        hw, (SERCOM_SPI_SYNCBUSY_SWRST | SERCOM_SPI_SYNCBUSY_ENABLE | SERCOM_SPI_SYNCBUSY_CTRLB))) {
		return ERR_BUSY;
	}

	/* SPI must be enabled to start synchronous transfer */
	if (!hri_sercomspi_get_CTRLA_ENABLE_bit(hw)) {
     ea8:	079b      	lsls	r3, r3, #30
     eaa:	d51b      	bpl.n	ee4 <_spi_m_sync_trans+0x78>
	if (!(SERCOM_SPI_INTFLAG_DRE & iflag)) {
     eac:	2301      	movs	r3, #1
     eae:	469c      	mov	ip, r3
	if (!(iflag & SERCOM_SPI_INTFLAG_RXC)) {
     eb0:	2004      	movs	r0, #4
	return ((Sercom *)hw)->SPI.INTFLAG.reg;
     eb2:	7e23      	ldrb	r3, [r4, #24]
     eb4:	b2d9      	uxtb	r1, r3
     eb6:	4203      	tst	r3, r0
     eb8:	d117      	bne.n	eea <_spi_m_sync_trans+0x7e>
		uint32_t iflag = hri_sercomspi_read_INTFLAG_reg(hw);

		if (!_spi_rx_check_and_receive(hw, iflag, &ctrl)) {
			/* In master mode, do not start next byte before previous byte received
			 * to make better output waveform */
			if (ctrl.rxcnt >= ctrl.txcnt) {
     eba:	9b01      	ldr	r3, [sp, #4]
     ebc:	4293      	cmp	r3, r2
     ebe:	d81d      	bhi.n	efc <_spi_m_sync_trans+0x90>
	if (!(SERCOM_SPI_INTFLAG_DRE & iflag)) {
     ec0:	4663      	mov	r3, ip
     ec2:	4219      	tst	r1, r3
     ec4:	d01a      	beq.n	efc <_spi_m_sync_trans+0x90>
				_spi_tx_check_and_send(hw, iflag, &ctrl, dev->dummy_byte);
     ec6:	9b02      	ldr	r3, [sp, #8]
     ec8:	88db      	ldrh	r3, [r3, #6]
	if (ctrl->txbuf) {
     eca:	2e00      	cmp	r6, #0
     ecc:	d005      	beq.n	eda <_spi_m_sync_trans+0x6e>
		if (ctrl->char_size > 1) {
     ece:	9b03      	ldr	r3, [sp, #12]
		data = *ctrl->txbuf++;
     ed0:	7830      	ldrb	r0, [r6, #0]
		if (ctrl->char_size > 1) {
     ed2:	2b01      	cmp	r3, #1
     ed4:	d821      	bhi.n	f1a <_spi_m_sync_trans+0xae>
		data = *ctrl->txbuf++;
     ed6:	0003      	movs	r3, r0
     ed8:	3601      	adds	r6, #1
	ctrl->txcnt++;
     eda:	9801      	ldr	r0, [sp, #4]
	((Sercom *)hw)->SPI.DATA.reg = data;
     edc:	62a3      	str	r3, [r4, #40]	; 0x28
     ede:	3001      	adds	r0, #1
     ee0:	9001      	str	r0, [sp, #4]
}
     ee2:	e00b      	b.n	efc <_spi_m_sync_trans+0x90>
		return ERR_NOT_INITIALIZED;
     ee4:	2014      	movs	r0, #20
		return ERR_BUSY;
     ee6:	4240      	negs	r0, r0
     ee8:	e028      	b.n	f3c <_spi_m_sync_trans+0xd0>
	return ((Sercom *)hw)->SPI.DATA.reg;
     eea:	6aa3      	ldr	r3, [r4, #40]	; 0x28
	if (ctrl->rxbuf) {
     eec:	2d00      	cmp	r5, #0
     eee:	d004      	beq.n	efa <_spi_m_sync_trans+0x8e>
		if (ctrl->char_size > 1) {
     ef0:	9803      	ldr	r0, [sp, #12]
		*ctrl->rxbuf++ = (uint8_t)data;
     ef2:	702b      	strb	r3, [r5, #0]
		if (ctrl->char_size > 1) {
     ef4:	2801      	cmp	r0, #1
     ef6:	d80c      	bhi.n	f12 <_spi_m_sync_trans+0xa6>
		*ctrl->rxbuf++ = (uint8_t)data;
     ef8:	3501      	adds	r5, #1
	ctrl->rxcnt++;
     efa:	3201      	adds	r2, #1
	if (SERCOM_SPI_INTFLAG_ERROR & iflag) {
     efc:	b249      	sxtb	r1, r1
     efe:	2900      	cmp	r1, #0
     f00:	db10      	blt.n	f24 <_spi_m_sync_trans+0xb8>
		rc = _spi_err_check(iflag, hw);

		if (rc < 0) {
			break;
		}
		if (ctrl.txcnt >= msg->size && ctrl.rxcnt >= msg->size) {
     f02:	68bb      	ldr	r3, [r7, #8]
     f04:	9901      	ldr	r1, [sp, #4]
     f06:	428b      	cmp	r3, r1
     f08:	d8d2      	bhi.n	eb0 <_spi_m_sync_trans+0x44>
     f0a:	4293      	cmp	r3, r2
     f0c:	d8d0      	bhi.n	eb0 <_spi_m_sync_trans+0x44>
			rc = ctrl.txcnt;
     f0e:	9801      	ldr	r0, [sp, #4]
			break;
     f10:	e00f      	b.n	f32 <_spi_m_sync_trans+0xc6>
			*ctrl->rxbuf++ = (uint8_t)(data >> 8);
     f12:	0a1b      	lsrs	r3, r3, #8
     f14:	706b      	strb	r3, [r5, #1]
     f16:	3502      	adds	r5, #2
     f18:	e7ef      	b.n	efa <_spi_m_sync_trans+0x8e>
			data |= (*ctrl->txbuf) << 8;
     f1a:	7873      	ldrb	r3, [r6, #1]
			ctrl->txbuf++;
     f1c:	3602      	adds	r6, #2
			data |= (*ctrl->txbuf) << 8;
     f1e:	021b      	lsls	r3, r3, #8
     f20:	4303      	orrs	r3, r0
			ctrl->txbuf++;
     f22:	e7da      	b.n	eda <_spi_m_sync_trans+0x6e>
	((Sercom *)hw)->SPI.STATUS.reg = mask;
     f24:	2301      	movs	r3, #1
		return ERR_OVERFLOW;
     f26:	2013      	movs	r0, #19
     f28:	425b      	negs	r3, r3
     f2a:	8363      	strh	r3, [r4, #26]
	((Sercom *)hw)->SPI.INTFLAG.reg = mask;
     f2c:	3381      	adds	r3, #129	; 0x81
     f2e:	7623      	strb	r3, [r4, #24]
     f30:	4240      	negs	r0, r0
	tmp &= mask;
     f32:	2303      	movs	r3, #3
	tmp = ((Sercom *)hw)->SPI.INTFLAG.reg;
     f34:	7e22      	ldrb	r2, [r4, #24]
	while (!(hri_sercomspi_get_INTFLAG_reg(hw, SERCOM_SPI_INTFLAG_TXC | SERCOM_SPI_INTFLAG_DRE))) {
     f36:	421a      	tst	r2, r3
     f38:	d0fc      	beq.n	f34 <_spi_m_sync_trans+0xc8>
	((Sercom *)hw)->SPI.INTFLAG.reg = mask;
     f3a:	7623      	strb	r3, [r4, #24]
	}
	/* Wait until SPI bus idle */
	_spi_wait_bus_idle(hw);

	return rc;
}
     f3c:	b005      	add	sp, #20
     f3e:	bdf0      	pop	{r4, r5, r6, r7, pc}
		return ERR_BUSY;
     f40:	2004      	movs	r0, #4
     f42:	e7d0      	b.n	ee6 <_spi_m_sync_trans+0x7a>
     f44:	00000aae 	.word	0x00000aae
     f48:	000003f1 	.word	0x000003f1
     f4c:	000020c0 	.word	0x000020c0
     f50:	00000a2d 	.word	0x00000a2d

00000f54 <ringbuffer_init>:

/**
 * \brief Ringbuffer init
 */
int32_t ringbuffer_init(struct ringbuffer *const rb, void *buf, uint32_t size)
{
     f54:	b570      	push	{r4, r5, r6, lr}
     f56:	0004      	movs	r4, r0
     f58:	000e      	movs	r6, r1
     f5a:	0015      	movs	r5, r2
	ASSERT(rb && buf && size);
     f5c:	2800      	cmp	r0, #0
     f5e:	d004      	beq.n	f6a <ringbuffer_init+0x16>
     f60:	1e08      	subs	r0, r1, #0
     f62:	d002      	beq.n	f6a <ringbuffer_init+0x16>
     f64:	0010      	movs	r0, r2
     f66:	1e43      	subs	r3, r0, #1
     f68:	4198      	sbcs	r0, r3
     f6a:	4b08      	ldr	r3, [pc, #32]	; (f8c <ringbuffer_init+0x38>)
     f6c:	2228      	movs	r2, #40	; 0x28
     f6e:	4908      	ldr	r1, [pc, #32]	; (f90 <ringbuffer_init+0x3c>)
     f70:	4798      	blx	r3

	/*
	 * buf size must be aligned to power of 2
	 */
	if ((size & (size - 1)) != 0) {
     f72:	0028      	movs	r0, r5
     f74:	1e6b      	subs	r3, r5, #1
     f76:	4018      	ands	r0, r3
     f78:	421d      	tst	r5, r3
     f7a:	d104      	bne.n	f86 <ringbuffer_init+0x32>
		return ERR_INVALID_ARG;
	}

	/* size - 1 is faster in calculation */
	rb->size        = size - 1;
     f7c:	6063      	str	r3, [r4, #4]
	rb->read_index  = 0;
     f7e:	60a0      	str	r0, [r4, #8]
	rb->write_index = rb->read_index;
     f80:	60e0      	str	r0, [r4, #12]
	rb->buf         = (uint8_t *)buf;
     f82:	6026      	str	r6, [r4, #0]

	return ERR_NONE;
}
     f84:	bd70      	pop	{r4, r5, r6, pc}
		return ERR_INVALID_ARG;
     f86:	200d      	movs	r0, #13
     f88:	4240      	negs	r0, r0
     f8a:	e7fb      	b.n	f84 <ringbuffer_init+0x30>
     f8c:	000003f1 	.word	0x000003f1
     f90:	00002105 	.word	0x00002105

00000f94 <ringbuffer_get>:
/**
 * \brief Get one byte from ringbuffer
 *
 */
int32_t ringbuffer_get(struct ringbuffer *const rb, uint8_t *data)
{
     f94:	b570      	push	{r4, r5, r6, lr}
     f96:	0004      	movs	r4, r0
     f98:	000d      	movs	r5, r1
	ASSERT(rb && data);
     f9a:	2800      	cmp	r0, #0
     f9c:	d002      	beq.n	fa4 <ringbuffer_get+0x10>
     f9e:	0008      	movs	r0, r1
     fa0:	1e43      	subs	r3, r0, #1
     fa2:	4198      	sbcs	r0, r3
     fa4:	2240      	movs	r2, #64	; 0x40
     fa6:	4b0a      	ldr	r3, [pc, #40]	; (fd0 <ringbuffer_get+0x3c>)
     fa8:	490a      	ldr	r1, [pc, #40]	; (fd4 <ringbuffer_get+0x40>)
     faa:	4798      	blx	r3

	if (rb->write_index != rb->read_index) {
     fac:	68a3      	ldr	r3, [r4, #8]
     fae:	68e2      	ldr	r2, [r4, #12]
     fb0:	429a      	cmp	r2, r3
     fb2:	d009      	beq.n	fc8 <ringbuffer_get+0x34>
		*data = rb->buf[rb->read_index & rb->size];
		rb->read_index++;
		return ERR_NONE;
     fb4:	2000      	movs	r0, #0
		*data = rb->buf[rb->read_index & rb->size];
     fb6:	6862      	ldr	r2, [r4, #4]
     fb8:	4013      	ands	r3, r2
     fba:	6822      	ldr	r2, [r4, #0]
     fbc:	5cd3      	ldrb	r3, [r2, r3]
     fbe:	702b      	strb	r3, [r5, #0]
		rb->read_index++;
     fc0:	68a3      	ldr	r3, [r4, #8]
     fc2:	3301      	adds	r3, #1
     fc4:	60a3      	str	r3, [r4, #8]
	}

	return ERR_NOT_FOUND;
}
     fc6:	bd70      	pop	{r4, r5, r6, pc}
	return ERR_NOT_FOUND;
     fc8:	200a      	movs	r0, #10
     fca:	4240      	negs	r0, r0
     fcc:	e7fb      	b.n	fc6 <ringbuffer_get+0x32>
     fce:	46c0      	nop			; (mov r8, r8)
     fd0:	000003f1 	.word	0x000003f1
     fd4:	00002105 	.word	0x00002105

00000fd8 <ringbuffer_put>:
/**
 * \brief Put one byte to ringbuffer
 *
 */
int32_t ringbuffer_put(struct ringbuffer *const rb, uint8_t data)
{
     fd8:	b570      	push	{r4, r5, r6, lr}
     fda:	0004      	movs	r4, r0
	ASSERT(rb);
     fdc:	1e43      	subs	r3, r0, #1
     fde:	4198      	sbcs	r0, r3
{
     fe0:	000d      	movs	r5, r1
	ASSERT(rb);
     fe2:	2251      	movs	r2, #81	; 0x51
     fe4:	490a      	ldr	r1, [pc, #40]	; (1010 <ringbuffer_put+0x38>)
     fe6:	4b0b      	ldr	r3, [pc, #44]	; (1014 <ringbuffer_put+0x3c>)
     fe8:	b2c0      	uxtb	r0, r0
     fea:	4798      	blx	r3

	rb->buf[rb->write_index & rb->size] = data;
     fec:	68e2      	ldr	r2, [r4, #12]
     fee:	6863      	ldr	r3, [r4, #4]
     ff0:	4013      	ands	r3, r2
     ff2:	6822      	ldr	r2, [r4, #0]
     ff4:	54d5      	strb	r5, [r2, r3]

	/*
	 * buffer full strategy: new data will overwrite the oldest data in
	 * the buffer
	 */
	if ((rb->write_index - rb->read_index) > rb->size) {
     ff6:	68e3      	ldr	r3, [r4, #12]
     ff8:	68a1      	ldr	r1, [r4, #8]
     ffa:	6862      	ldr	r2, [r4, #4]
     ffc:	1a59      	subs	r1, r3, r1
     ffe:	4291      	cmp	r1, r2
    1000:	d901      	bls.n	1006 <ringbuffer_put+0x2e>
		rb->read_index = rb->write_index - rb->size;
    1002:	1a9a      	subs	r2, r3, r2
    1004:	60a2      	str	r2, [r4, #8]
	}

	rb->write_index++;
    1006:	3301      	adds	r3, #1

	return ERR_NONE;
}
    1008:	2000      	movs	r0, #0
	rb->write_index++;
    100a:	60e3      	str	r3, [r4, #12]
}
    100c:	bd70      	pop	{r4, r5, r6, pc}
    100e:	46c0      	nop			; (mov r8, r8)
    1010:	00002105 	.word	0x00002105
    1014:	000003f1 	.word	0x000003f1

00001018 <ringbuffer_num>:

/**
 * \brief Return the element number of ringbuffer
 */
uint32_t ringbuffer_num(const struct ringbuffer *const rb)
{
    1018:	b510      	push	{r4, lr}
    101a:	0004      	movs	r4, r0
	ASSERT(rb);
    101c:	1e43      	subs	r3, r0, #1
    101e:	4198      	sbcs	r0, r3
    1020:	2267      	movs	r2, #103	; 0x67
    1022:	4904      	ldr	r1, [pc, #16]	; (1034 <ringbuffer_num+0x1c>)
    1024:	4b04      	ldr	r3, [pc, #16]	; (1038 <ringbuffer_num+0x20>)
    1026:	b2c0      	uxtb	r0, r0
    1028:	4798      	blx	r3

	return rb->write_index - rb->read_index;
    102a:	68e0      	ldr	r0, [r4, #12]
    102c:	68a3      	ldr	r3, [r4, #8]
    102e:	1ac0      	subs	r0, r0, r3
}
    1030:	bd10      	pop	{r4, pc}
    1032:	46c0      	nop			; (mov r8, r8)
    1034:	00002105 	.word	0x00002105
    1038:	000003f1 	.word	0x000003f1

0000103c <_div_init>:

static inline void hri_divas_write_CTRLA_DLZ_bit(const void *const hw, bool value)
{
	uint8_t tmp;
	DIVAS_CRITICAL_SECTION_ENTER();
	tmp = ((Divas *)hw)->CTRLA.reg;
    103c:	2290      	movs	r2, #144	; 0x90
	tmp &= ~DIVAS_CTRLA_DLZ;
    103e:	2102      	movs	r1, #2
	tmp = ((Divas *)hw)->CTRLA.reg;
    1040:	05d2      	lsls	r2, r2, #23
    1042:	7813      	ldrb	r3, [r2, #0]
	tmp &= ~DIVAS_CTRLA_DLZ;
    1044:	438b      	bics	r3, r1
	tmp |= value << DIVAS_CTRLA_DLZ_Pos;
	((Divas *)hw)->CTRLA.reg = tmp;
    1046:	7013      	strb	r3, [r2, #0]
 * \brief Initialize hardware for division operation
 */
void _div_init(void)
{
	hri_divas_write_CTRLA_DLZ_bit(DIVAS, CONF_DIVAS_DLZ);
}
    1048:	4770      	bx	lr
	...

0000104c <__aeabi_uidivmod>:

/**
 * \brief Do unsigned division, return result and remainder
 */
uint64_t __aeabi_uidivmod(unsigned numerator, unsigned denominator)
{
    104c:	b513      	push	{r0, r1, r4, lr}
  __ASM volatile ("MRS %0, primask" : "=r" (result) :: "memory");
    104e:	f3ef 8310 	mrs	r3, PRIMASK
	uint64_t res;
	_DIVAS_CRITICAL_ENTER();
    1052:	9301      	str	r3, [sp, #4]
  __ASM volatile ("cpsid i" : : : "memory");
    1054:	b672      	cpsid	i
	DIVAS->CTRLA.bit.SIGNED = s;
    1056:	2390      	movs	r3, #144	; 0x90
    1058:	2401      	movs	r4, #1
    105a:	05db      	lsls	r3, r3, #23
    105c:	781a      	ldrb	r2, [r3, #0]
    105e:	43a2      	bics	r2, r4
    1060:	701a      	strb	r2, [r3, #0]
	DIVAS->DIVIDEND.reg     = n;
    1062:	6098      	str	r0, [r3, #8]
	DIVAS->DIVISOR.reg      = d;
    1064:	60d9      	str	r1, [r3, #12]
	while (DIVAS->STATUS.bit.BUSY) {
    1066:	791a      	ldrb	r2, [r3, #4]
    1068:	07d2      	lsls	r2, r2, #31
    106a:	d4fc      	bmi.n	1066 <__aeabi_uidivmod+0x1a>
	_divas_div(0, numerator, denominator);
	res = _divas_result64();
    106c:	4b03      	ldr	r3, [pc, #12]	; (107c <__aeabi_uidivmod+0x30>)
    106e:	6818      	ldr	r0, [r3, #0]
    1070:	6859      	ldr	r1, [r3, #4]
	_DIVAS_CRITICAL_LEAVE();
    1072:	9b01      	ldr	r3, [sp, #4]
  __ASM volatile ("MSR primask, %0" : : "r" (priMask) : "memory");
    1074:	f383 8810 	msr	PRIMASK, r3
	return res;
}
    1078:	bd1c      	pop	{r2, r3, r4, pc}
    107a:	46c0      	nop			; (mov r8, r8)
    107c:	48000010 	.word	0x48000010

00001080 <atmel_start_init>:

/**
 * Initializes MCU, drivers and middleware in the project
 **/
void atmel_start_init(void)
{
    1080:	b510      	push	{r4, lr}
	system_init();
    1082:	4b01      	ldr	r3, [pc, #4]	; (1088 <atmel_start_init+0x8>)
    1084:	4798      	blx	r3
}
    1086:	bd10      	pop	{r4, pc}
    1088:	000006f1 	.word	0x000006f1

0000108c <atomic_enter_critical>:
  __ASM volatile ("MRS %0, primask" : "=r" (result) :: "memory");
    108c:	f3ef 8310 	mrs	r3, PRIMASK
/**
 * \brief Disable interrupts, enter critical section
 */
void atomic_enter_critical(hal_atomic_t volatile *atomic)
{
	*atomic = __get_PRIMASK();
    1090:	6003      	str	r3, [r0, #0]
  __ASM volatile ("cpsid i" : : : "memory");
    1092:	b672      	cpsid	i
  \details Ensures the apparent order of the explicit memory operations before
           and after the instruction, without ensuring their completion.
 */
__STATIC_FORCEINLINE void __DMB(void)
{
  __ASM volatile ("dmb 0xF":::"memory");
    1094:	f3bf 8f5f 	dmb	sy
	__disable_irq();
	__DMB();
}
    1098:	4770      	bx	lr

0000109a <atomic_leave_critical>:
    109a:	f3bf 8f5f 	dmb	sy
 * \brief Exit atomic section
 */
void atomic_leave_critical(hal_atomic_t volatile *atomic)
{
	__DMB();
	__set_PRIMASK(*atomic);
    109e:	6803      	ldr	r3, [r0, #0]
  __ASM volatile ("MSR primask, %0" : : "r" (priMask) : "memory");
    10a0:	f383 8810 	msr	PRIMASK, r3
}
    10a4:	4770      	bx	lr
	...

000010a8 <__libc_init_array>:
    10a8:	b570      	push	{r4, r5, r6, lr}
    10aa:	2600      	movs	r6, #0
    10ac:	4d0c      	ldr	r5, [pc, #48]	; (10e0 <__libc_init_array+0x38>)
    10ae:	4c0d      	ldr	r4, [pc, #52]	; (10e4 <__libc_init_array+0x3c>)
    10b0:	1b64      	subs	r4, r4, r5
    10b2:	10a4      	asrs	r4, r4, #2
    10b4:	42a6      	cmp	r6, r4
    10b6:	d109      	bne.n	10cc <__libc_init_array+0x24>
    10b8:	2600      	movs	r6, #0
    10ba:	f001 f883 	bl	21c4 <_init>
    10be:	4d0a      	ldr	r5, [pc, #40]	; (10e8 <__libc_init_array+0x40>)
    10c0:	4c0a      	ldr	r4, [pc, #40]	; (10ec <__libc_init_array+0x44>)
    10c2:	1b64      	subs	r4, r4, r5
    10c4:	10a4      	asrs	r4, r4, #2
    10c6:	42a6      	cmp	r6, r4
    10c8:	d105      	bne.n	10d6 <__libc_init_array+0x2e>
    10ca:	bd70      	pop	{r4, r5, r6, pc}
    10cc:	00b3      	lsls	r3, r6, #2
    10ce:	58eb      	ldr	r3, [r5, r3]
    10d0:	4798      	blx	r3
    10d2:	3601      	adds	r6, #1
    10d4:	e7ee      	b.n	10b4 <__libc_init_array+0xc>
    10d6:	00b3      	lsls	r3, r6, #2
    10d8:	58eb      	ldr	r3, [r5, r3]
    10da:	4798      	blx	r3
    10dc:	3601      	adds	r6, #1
    10de:	e7f2      	b.n	10c6 <__libc_init_array+0x1e>
    10e0:	000021d0 	.word	0x000021d0
    10e4:	000021d0 	.word	0x000021d0
    10e8:	000021d0 	.word	0x000021d0
    10ec:	000021d4 	.word	0x000021d4

000010f0 <memcpy>:
    10f0:	2300      	movs	r3, #0
    10f2:	b510      	push	{r4, lr}
    10f4:	429a      	cmp	r2, r3
    10f6:	d100      	bne.n	10fa <memcpy+0xa>
    10f8:	bd10      	pop	{r4, pc}
    10fa:	5ccc      	ldrb	r4, [r1, r3]
    10fc:	54c4      	strb	r4, [r0, r3]
    10fe:	3301      	adds	r3, #1
    1100:	e7f8      	b.n	10f4 <memcpy+0x4>

00001102 <memset>:
    1102:	0003      	movs	r3, r0
    1104:	1882      	adds	r2, r0, r2
    1106:	4293      	cmp	r3, r2
    1108:	d100      	bne.n	110c <memset+0xa>
    110a:	4770      	bx	lr
    110c:	7019      	strb	r1, [r3, #0]
    110e:	3301      	adds	r3, #1
    1110:	e7f9      	b.n	1106 <memset+0x4>
	...

00001114 <iprintf>:
    1114:	b40f      	push	{r0, r1, r2, r3}
    1116:	4b0b      	ldr	r3, [pc, #44]	; (1144 <iprintf+0x30>)
    1118:	b513      	push	{r0, r1, r4, lr}
    111a:	681c      	ldr	r4, [r3, #0]
    111c:	2c00      	cmp	r4, #0
    111e:	d005      	beq.n	112c <iprintf+0x18>
    1120:	69a3      	ldr	r3, [r4, #24]
    1122:	2b00      	cmp	r3, #0
    1124:	d102      	bne.n	112c <iprintf+0x18>
    1126:	0020      	movs	r0, r4
    1128:	f000 f870 	bl	120c <__sinit>
    112c:	ab05      	add	r3, sp, #20
    112e:	0020      	movs	r0, r4
    1130:	9a04      	ldr	r2, [sp, #16]
    1132:	68a1      	ldr	r1, [r4, #8]
    1134:	9301      	str	r3, [sp, #4]
    1136:	f000 f993 	bl	1460 <_vfiprintf_r>
    113a:	bc16      	pop	{r1, r2, r4}
    113c:	bc08      	pop	{r3}
    113e:	b004      	add	sp, #16
    1140:	4718      	bx	r3
    1142:	46c0      	nop			; (mov r8, r8)
    1144:	20000000 	.word	0x20000000

00001148 <std>:
    1148:	2300      	movs	r3, #0
    114a:	b510      	push	{r4, lr}
    114c:	0004      	movs	r4, r0
    114e:	6003      	str	r3, [r0, #0]
    1150:	6043      	str	r3, [r0, #4]
    1152:	6083      	str	r3, [r0, #8]
    1154:	8181      	strh	r1, [r0, #12]
    1156:	6643      	str	r3, [r0, #100]	; 0x64
    1158:	0019      	movs	r1, r3
    115a:	81c2      	strh	r2, [r0, #14]
    115c:	6103      	str	r3, [r0, #16]
    115e:	6143      	str	r3, [r0, #20]
    1160:	6183      	str	r3, [r0, #24]
    1162:	2208      	movs	r2, #8
    1164:	305c      	adds	r0, #92	; 0x5c
    1166:	f7ff ffcc 	bl	1102 <memset>
    116a:	4b05      	ldr	r3, [pc, #20]	; (1180 <std+0x38>)
    116c:	6263      	str	r3, [r4, #36]	; 0x24
    116e:	4b05      	ldr	r3, [pc, #20]	; (1184 <std+0x3c>)
    1170:	6224      	str	r4, [r4, #32]
    1172:	62a3      	str	r3, [r4, #40]	; 0x28
    1174:	4b04      	ldr	r3, [pc, #16]	; (1188 <std+0x40>)
    1176:	62e3      	str	r3, [r4, #44]	; 0x2c
    1178:	4b04      	ldr	r3, [pc, #16]	; (118c <std+0x44>)
    117a:	6323      	str	r3, [r4, #48]	; 0x30
    117c:	bd10      	pop	{r4, pc}
    117e:	46c0      	nop			; (mov r8, r8)
    1180:	000019fd 	.word	0x000019fd
    1184:	00001a25 	.word	0x00001a25
    1188:	00001a5d 	.word	0x00001a5d
    118c:	00001a89 	.word	0x00001a89

00001190 <_cleanup_r>:
    1190:	b510      	push	{r4, lr}
    1192:	4902      	ldr	r1, [pc, #8]	; (119c <_cleanup_r+0xc>)
    1194:	f000 f8ba 	bl	130c <_fwalk_reent>
    1198:	bd10      	pop	{r4, pc}
    119a:	46c0      	nop			; (mov r8, r8)
    119c:	00001d95 	.word	0x00001d95

000011a0 <__sfmoreglue>:
    11a0:	b570      	push	{r4, r5, r6, lr}
    11a2:	2568      	movs	r5, #104	; 0x68
    11a4:	1e4a      	subs	r2, r1, #1
    11a6:	4355      	muls	r5, r2
    11a8:	000e      	movs	r6, r1
    11aa:	0029      	movs	r1, r5
    11ac:	3174      	adds	r1, #116	; 0x74
    11ae:	f000 f8d1 	bl	1354 <_malloc_r>
    11b2:	1e04      	subs	r4, r0, #0
    11b4:	d008      	beq.n	11c8 <__sfmoreglue+0x28>
    11b6:	2100      	movs	r1, #0
    11b8:	002a      	movs	r2, r5
    11ba:	6001      	str	r1, [r0, #0]
    11bc:	6046      	str	r6, [r0, #4]
    11be:	300c      	adds	r0, #12
    11c0:	60a0      	str	r0, [r4, #8]
    11c2:	3268      	adds	r2, #104	; 0x68
    11c4:	f7ff ff9d 	bl	1102 <memset>
    11c8:	0020      	movs	r0, r4
    11ca:	bd70      	pop	{r4, r5, r6, pc}

000011cc <__sfp_lock_acquire>:
    11cc:	b510      	push	{r4, lr}
    11ce:	4802      	ldr	r0, [pc, #8]	; (11d8 <__sfp_lock_acquire+0xc>)
    11d0:	f000 f8bd 	bl	134e <__retarget_lock_acquire_recursive>
    11d4:	bd10      	pop	{r4, pc}
    11d6:	46c0      	nop			; (mov r8, r8)
    11d8:	2000011c 	.word	0x2000011c

000011dc <__sfp_lock_release>:
    11dc:	b510      	push	{r4, lr}
    11de:	4802      	ldr	r0, [pc, #8]	; (11e8 <__sfp_lock_release+0xc>)
    11e0:	f000 f8b6 	bl	1350 <__retarget_lock_release_recursive>
    11e4:	bd10      	pop	{r4, pc}
    11e6:	46c0      	nop			; (mov r8, r8)
    11e8:	2000011c 	.word	0x2000011c

000011ec <__sinit_lock_acquire>:
    11ec:	b510      	push	{r4, lr}
    11ee:	4802      	ldr	r0, [pc, #8]	; (11f8 <__sinit_lock_acquire+0xc>)
    11f0:	f000 f8ad 	bl	134e <__retarget_lock_acquire_recursive>
    11f4:	bd10      	pop	{r4, pc}
    11f6:	46c0      	nop			; (mov r8, r8)
    11f8:	20000117 	.word	0x20000117

000011fc <__sinit_lock_release>:
    11fc:	b510      	push	{r4, lr}
    11fe:	4802      	ldr	r0, [pc, #8]	; (1208 <__sinit_lock_release+0xc>)
    1200:	f000 f8a6 	bl	1350 <__retarget_lock_release_recursive>
    1204:	bd10      	pop	{r4, pc}
    1206:	46c0      	nop			; (mov r8, r8)
    1208:	20000117 	.word	0x20000117

0000120c <__sinit>:
    120c:	b513      	push	{r0, r1, r4, lr}
    120e:	0004      	movs	r4, r0
    1210:	f7ff ffec 	bl	11ec <__sinit_lock_acquire>
    1214:	69a3      	ldr	r3, [r4, #24]
    1216:	2b00      	cmp	r3, #0
    1218:	d002      	beq.n	1220 <__sinit+0x14>
    121a:	f7ff ffef 	bl	11fc <__sinit_lock_release>
    121e:	bd13      	pop	{r0, r1, r4, pc}
    1220:	64a3      	str	r3, [r4, #72]	; 0x48
    1222:	64e3      	str	r3, [r4, #76]	; 0x4c
    1224:	6523      	str	r3, [r4, #80]	; 0x50
    1226:	4b13      	ldr	r3, [pc, #76]	; (1274 <__sinit+0x68>)
    1228:	4a13      	ldr	r2, [pc, #76]	; (1278 <__sinit+0x6c>)
    122a:	681b      	ldr	r3, [r3, #0]
    122c:	62a2      	str	r2, [r4, #40]	; 0x28
    122e:	9301      	str	r3, [sp, #4]
    1230:	42a3      	cmp	r3, r4
    1232:	d101      	bne.n	1238 <__sinit+0x2c>
    1234:	2301      	movs	r3, #1
    1236:	61a3      	str	r3, [r4, #24]
    1238:	0020      	movs	r0, r4
    123a:	f000 f81f 	bl	127c <__sfp>
    123e:	6060      	str	r0, [r4, #4]
    1240:	0020      	movs	r0, r4
    1242:	f000 f81b 	bl	127c <__sfp>
    1246:	60a0      	str	r0, [r4, #8]
    1248:	0020      	movs	r0, r4
    124a:	f000 f817 	bl	127c <__sfp>
    124e:	2200      	movs	r2, #0
    1250:	2104      	movs	r1, #4
    1252:	60e0      	str	r0, [r4, #12]
    1254:	6860      	ldr	r0, [r4, #4]
    1256:	f7ff ff77 	bl	1148 <std>
    125a:	2201      	movs	r2, #1
    125c:	2109      	movs	r1, #9
    125e:	68a0      	ldr	r0, [r4, #8]
    1260:	f7ff ff72 	bl	1148 <std>
    1264:	2202      	movs	r2, #2
    1266:	2112      	movs	r1, #18
    1268:	68e0      	ldr	r0, [r4, #12]
    126a:	f7ff ff6d 	bl	1148 <std>
    126e:	2301      	movs	r3, #1
    1270:	61a3      	str	r3, [r4, #24]
    1272:	e7d2      	b.n	121a <__sinit+0xe>
    1274:	0000212c 	.word	0x0000212c
    1278:	00001191 	.word	0x00001191

0000127c <__sfp>:
    127c:	b5f8      	push	{r3, r4, r5, r6, r7, lr}
    127e:	0007      	movs	r7, r0
    1280:	f7ff ffa4 	bl	11cc <__sfp_lock_acquire>
    1284:	4b1f      	ldr	r3, [pc, #124]	; (1304 <__sfp+0x88>)
    1286:	681e      	ldr	r6, [r3, #0]
    1288:	69b3      	ldr	r3, [r6, #24]
    128a:	2b00      	cmp	r3, #0
    128c:	d102      	bne.n	1294 <__sfp+0x18>
    128e:	0030      	movs	r0, r6
    1290:	f7ff ffbc 	bl	120c <__sinit>
    1294:	3648      	adds	r6, #72	; 0x48
    1296:	68b4      	ldr	r4, [r6, #8]
    1298:	6873      	ldr	r3, [r6, #4]
    129a:	3b01      	subs	r3, #1
    129c:	d504      	bpl.n	12a8 <__sfp+0x2c>
    129e:	6833      	ldr	r3, [r6, #0]
    12a0:	2b00      	cmp	r3, #0
    12a2:	d022      	beq.n	12ea <__sfp+0x6e>
    12a4:	6836      	ldr	r6, [r6, #0]
    12a6:	e7f6      	b.n	1296 <__sfp+0x1a>
    12a8:	220c      	movs	r2, #12
    12aa:	5ea5      	ldrsh	r5, [r4, r2]
    12ac:	2d00      	cmp	r5, #0
    12ae:	d11a      	bne.n	12e6 <__sfp+0x6a>
    12b0:	0020      	movs	r0, r4
    12b2:	4b15      	ldr	r3, [pc, #84]	; (1308 <__sfp+0x8c>)
    12b4:	3058      	adds	r0, #88	; 0x58
    12b6:	60e3      	str	r3, [r4, #12]
    12b8:	6665      	str	r5, [r4, #100]	; 0x64
    12ba:	f000 f847 	bl	134c <__retarget_lock_init_recursive>
    12be:	f7ff ff8d 	bl	11dc <__sfp_lock_release>
    12c2:	0020      	movs	r0, r4
    12c4:	2208      	movs	r2, #8
    12c6:	0029      	movs	r1, r5
    12c8:	6025      	str	r5, [r4, #0]
    12ca:	60a5      	str	r5, [r4, #8]
    12cc:	6065      	str	r5, [r4, #4]
    12ce:	6125      	str	r5, [r4, #16]
    12d0:	6165      	str	r5, [r4, #20]
    12d2:	61a5      	str	r5, [r4, #24]
    12d4:	305c      	adds	r0, #92	; 0x5c
    12d6:	f7ff ff14 	bl	1102 <memset>
    12da:	6365      	str	r5, [r4, #52]	; 0x34
    12dc:	63a5      	str	r5, [r4, #56]	; 0x38
    12de:	64a5      	str	r5, [r4, #72]	; 0x48
    12e0:	64e5      	str	r5, [r4, #76]	; 0x4c
    12e2:	0020      	movs	r0, r4
    12e4:	bdf8      	pop	{r3, r4, r5, r6, r7, pc}
    12e6:	3468      	adds	r4, #104	; 0x68
    12e8:	e7d7      	b.n	129a <__sfp+0x1e>
    12ea:	2104      	movs	r1, #4
    12ec:	0038      	movs	r0, r7
    12ee:	f7ff ff57 	bl	11a0 <__sfmoreglue>
    12f2:	1e04      	subs	r4, r0, #0
    12f4:	6030      	str	r0, [r6, #0]
    12f6:	d1d5      	bne.n	12a4 <__sfp+0x28>
    12f8:	f7ff ff70 	bl	11dc <__sfp_lock_release>
    12fc:	230c      	movs	r3, #12
    12fe:	603b      	str	r3, [r7, #0]
    1300:	e7ef      	b.n	12e2 <__sfp+0x66>
    1302:	46c0      	nop			; (mov r8, r8)
    1304:	0000212c 	.word	0x0000212c
    1308:	ffff0001 	.word	0xffff0001

0000130c <_fwalk_reent>:
    130c:	b5f7      	push	{r0, r1, r2, r4, r5, r6, r7, lr}
    130e:	0004      	movs	r4, r0
    1310:	0006      	movs	r6, r0
    1312:	2700      	movs	r7, #0
    1314:	9101      	str	r1, [sp, #4]
    1316:	3448      	adds	r4, #72	; 0x48
    1318:	6863      	ldr	r3, [r4, #4]
    131a:	68a5      	ldr	r5, [r4, #8]
    131c:	9300      	str	r3, [sp, #0]
    131e:	9b00      	ldr	r3, [sp, #0]
    1320:	3b01      	subs	r3, #1
    1322:	9300      	str	r3, [sp, #0]
    1324:	d504      	bpl.n	1330 <_fwalk_reent+0x24>
    1326:	6824      	ldr	r4, [r4, #0]
    1328:	2c00      	cmp	r4, #0
    132a:	d1f5      	bne.n	1318 <_fwalk_reent+0xc>
    132c:	0038      	movs	r0, r7
    132e:	bdfe      	pop	{r1, r2, r3, r4, r5, r6, r7, pc}
    1330:	89ab      	ldrh	r3, [r5, #12]
    1332:	2b01      	cmp	r3, #1
    1334:	d908      	bls.n	1348 <_fwalk_reent+0x3c>
    1336:	220e      	movs	r2, #14
    1338:	5eab      	ldrsh	r3, [r5, r2]
    133a:	3301      	adds	r3, #1
    133c:	d004      	beq.n	1348 <_fwalk_reent+0x3c>
    133e:	0029      	movs	r1, r5
    1340:	0030      	movs	r0, r6
    1342:	9b01      	ldr	r3, [sp, #4]
    1344:	4798      	blx	r3
    1346:	4307      	orrs	r7, r0
    1348:	3568      	adds	r5, #104	; 0x68
    134a:	e7e8      	b.n	131e <_fwalk_reent+0x12>

0000134c <__retarget_lock_init_recursive>:
    134c:	4770      	bx	lr

0000134e <__retarget_lock_acquire_recursive>:
    134e:	4770      	bx	lr

00001350 <__retarget_lock_release_recursive>:
    1350:	4770      	bx	lr
	...

00001354 <_malloc_r>:
    1354:	b5f8      	push	{r3, r4, r5, r6, r7, lr}
    1356:	2303      	movs	r3, #3
    1358:	1ccd      	adds	r5, r1, #3
    135a:	439d      	bics	r5, r3
    135c:	3508      	adds	r5, #8
    135e:	0006      	movs	r6, r0
    1360:	2d0c      	cmp	r5, #12
    1362:	d21f      	bcs.n	13a4 <_malloc_r+0x50>
    1364:	250c      	movs	r5, #12
    1366:	42a9      	cmp	r1, r5
    1368:	d81e      	bhi.n	13a8 <_malloc_r+0x54>
    136a:	0030      	movs	r0, r6
    136c:	f000 fdde 	bl	1f2c <__malloc_lock>
    1370:	4925      	ldr	r1, [pc, #148]	; (1408 <_malloc_r+0xb4>)
    1372:	680a      	ldr	r2, [r1, #0]
    1374:	0014      	movs	r4, r2
    1376:	2c00      	cmp	r4, #0
    1378:	d11a      	bne.n	13b0 <_malloc_r+0x5c>
    137a:	4f24      	ldr	r7, [pc, #144]	; (140c <_malloc_r+0xb8>)
    137c:	683b      	ldr	r3, [r7, #0]
    137e:	2b00      	cmp	r3, #0
    1380:	d104      	bne.n	138c <_malloc_r+0x38>
    1382:	0021      	movs	r1, r4
    1384:	0030      	movs	r0, r6
    1386:	f000 fb27 	bl	19d8 <_sbrk_r>
    138a:	6038      	str	r0, [r7, #0]
    138c:	0029      	movs	r1, r5
    138e:	0030      	movs	r0, r6
    1390:	f000 fb22 	bl	19d8 <_sbrk_r>
    1394:	1c43      	adds	r3, r0, #1
    1396:	d12b      	bne.n	13f0 <_malloc_r+0x9c>
    1398:	230c      	movs	r3, #12
    139a:	0030      	movs	r0, r6
    139c:	6033      	str	r3, [r6, #0]
    139e:	f000 fdcd 	bl	1f3c <__malloc_unlock>
    13a2:	e003      	b.n	13ac <_malloc_r+0x58>
    13a4:	2d00      	cmp	r5, #0
    13a6:	dade      	bge.n	1366 <_malloc_r+0x12>
    13a8:	230c      	movs	r3, #12
    13aa:	6033      	str	r3, [r6, #0]
    13ac:	2000      	movs	r0, #0
    13ae:	bdf8      	pop	{r3, r4, r5, r6, r7, pc}
    13b0:	6823      	ldr	r3, [r4, #0]
    13b2:	1b5b      	subs	r3, r3, r5
    13b4:	d419      	bmi.n	13ea <_malloc_r+0x96>
    13b6:	2b0b      	cmp	r3, #11
    13b8:	d903      	bls.n	13c2 <_malloc_r+0x6e>
    13ba:	6023      	str	r3, [r4, #0]
    13bc:	18e4      	adds	r4, r4, r3
    13be:	6025      	str	r5, [r4, #0]
    13c0:	e003      	b.n	13ca <_malloc_r+0x76>
    13c2:	6863      	ldr	r3, [r4, #4]
    13c4:	42a2      	cmp	r2, r4
    13c6:	d10e      	bne.n	13e6 <_malloc_r+0x92>
    13c8:	600b      	str	r3, [r1, #0]
    13ca:	0030      	movs	r0, r6
    13cc:	f000 fdb6 	bl	1f3c <__malloc_unlock>
    13d0:	0020      	movs	r0, r4
    13d2:	2207      	movs	r2, #7
    13d4:	300b      	adds	r0, #11
    13d6:	1d23      	adds	r3, r4, #4
    13d8:	4390      	bics	r0, r2
    13da:	1ac2      	subs	r2, r0, r3
    13dc:	4298      	cmp	r0, r3
    13de:	d0e6      	beq.n	13ae <_malloc_r+0x5a>
    13e0:	1a1b      	subs	r3, r3, r0
    13e2:	50a3      	str	r3, [r4, r2]
    13e4:	e7e3      	b.n	13ae <_malloc_r+0x5a>
    13e6:	6053      	str	r3, [r2, #4]
    13e8:	e7ef      	b.n	13ca <_malloc_r+0x76>
    13ea:	0022      	movs	r2, r4
    13ec:	6864      	ldr	r4, [r4, #4]
    13ee:	e7c2      	b.n	1376 <_malloc_r+0x22>
    13f0:	2303      	movs	r3, #3
    13f2:	1cc4      	adds	r4, r0, #3
    13f4:	439c      	bics	r4, r3
    13f6:	42a0      	cmp	r0, r4
    13f8:	d0e1      	beq.n	13be <_malloc_r+0x6a>
    13fa:	1a21      	subs	r1, r4, r0
    13fc:	0030      	movs	r0, r6
    13fe:	f000 faeb 	bl	19d8 <_sbrk_r>
    1402:	1c43      	adds	r3, r0, #1
    1404:	d1db      	bne.n	13be <_malloc_r+0x6a>
    1406:	e7c7      	b.n	1398 <_malloc_r+0x44>
    1408:	2000009c 	.word	0x2000009c
    140c:	200000a0 	.word	0x200000a0

00001410 <__sfputc_r>:
    1410:	6893      	ldr	r3, [r2, #8]
    1412:	b510      	push	{r4, lr}
    1414:	3b01      	subs	r3, #1
    1416:	6093      	str	r3, [r2, #8]
    1418:	2b00      	cmp	r3, #0
    141a:	da04      	bge.n	1426 <__sfputc_r+0x16>
    141c:	6994      	ldr	r4, [r2, #24]
    141e:	42a3      	cmp	r3, r4
    1420:	db07      	blt.n	1432 <__sfputc_r+0x22>
    1422:	290a      	cmp	r1, #10
    1424:	d005      	beq.n	1432 <__sfputc_r+0x22>
    1426:	6813      	ldr	r3, [r2, #0]
    1428:	1c58      	adds	r0, r3, #1
    142a:	6010      	str	r0, [r2, #0]
    142c:	7019      	strb	r1, [r3, #0]
    142e:	0008      	movs	r0, r1
    1430:	bd10      	pop	{r4, pc}
    1432:	f000 fb2f 	bl	1a94 <__swbuf_r>
    1436:	0001      	movs	r1, r0
    1438:	e7f9      	b.n	142e <__sfputc_r+0x1e>

0000143a <__sfputs_r>:
    143a:	b5f8      	push	{r3, r4, r5, r6, r7, lr}
    143c:	0006      	movs	r6, r0
    143e:	000f      	movs	r7, r1
    1440:	0014      	movs	r4, r2
    1442:	18d5      	adds	r5, r2, r3
    1444:	42ac      	cmp	r4, r5
    1446:	d101      	bne.n	144c <__sfputs_r+0x12>
    1448:	2000      	movs	r0, #0
    144a:	e007      	b.n	145c <__sfputs_r+0x22>
    144c:	7821      	ldrb	r1, [r4, #0]
    144e:	003a      	movs	r2, r7
    1450:	0030      	movs	r0, r6
    1452:	f7ff ffdd 	bl	1410 <__sfputc_r>
    1456:	3401      	adds	r4, #1
    1458:	1c43      	adds	r3, r0, #1
    145a:	d1f3      	bne.n	1444 <__sfputs_r+0xa>
    145c:	bdf8      	pop	{r3, r4, r5, r6, r7, pc}
	...

00001460 <_vfiprintf_r>:
    1460:	b5f0      	push	{r4, r5, r6, r7, lr}
    1462:	b0a1      	sub	sp, #132	; 0x84
    1464:	0006      	movs	r6, r0
    1466:	000c      	movs	r4, r1
    1468:	001f      	movs	r7, r3
    146a:	9203      	str	r2, [sp, #12]
    146c:	2800      	cmp	r0, #0
    146e:	d004      	beq.n	147a <_vfiprintf_r+0x1a>
    1470:	6983      	ldr	r3, [r0, #24]
    1472:	2b00      	cmp	r3, #0
    1474:	d101      	bne.n	147a <_vfiprintf_r+0x1a>
    1476:	f7ff fec9 	bl	120c <__sinit>
    147a:	4b8e      	ldr	r3, [pc, #568]	; (16b4 <_vfiprintf_r+0x254>)
    147c:	429c      	cmp	r4, r3
    147e:	d11c      	bne.n	14ba <_vfiprintf_r+0x5a>
    1480:	6874      	ldr	r4, [r6, #4]
    1482:	6e63      	ldr	r3, [r4, #100]	; 0x64
    1484:	07db      	lsls	r3, r3, #31
    1486:	d405      	bmi.n	1494 <_vfiprintf_r+0x34>
    1488:	89a3      	ldrh	r3, [r4, #12]
    148a:	059b      	lsls	r3, r3, #22
    148c:	d402      	bmi.n	1494 <_vfiprintf_r+0x34>
    148e:	6da0      	ldr	r0, [r4, #88]	; 0x58
    1490:	f7ff ff5d 	bl	134e <__retarget_lock_acquire_recursive>
    1494:	89a3      	ldrh	r3, [r4, #12]
    1496:	071b      	lsls	r3, r3, #28
    1498:	d502      	bpl.n	14a0 <_vfiprintf_r+0x40>
    149a:	6923      	ldr	r3, [r4, #16]
    149c:	2b00      	cmp	r3, #0
    149e:	d11d      	bne.n	14dc <_vfiprintf_r+0x7c>
    14a0:	0021      	movs	r1, r4
    14a2:	0030      	movs	r0, r6
    14a4:	f000 fb60 	bl	1b68 <__swsetup_r>
    14a8:	2800      	cmp	r0, #0
    14aa:	d017      	beq.n	14dc <_vfiprintf_r+0x7c>
    14ac:	6e63      	ldr	r3, [r4, #100]	; 0x64
    14ae:	07db      	lsls	r3, r3, #31
    14b0:	d50d      	bpl.n	14ce <_vfiprintf_r+0x6e>
    14b2:	2001      	movs	r0, #1
    14b4:	4240      	negs	r0, r0
    14b6:	b021      	add	sp, #132	; 0x84
    14b8:	bdf0      	pop	{r4, r5, r6, r7, pc}
    14ba:	4b7f      	ldr	r3, [pc, #508]	; (16b8 <_vfiprintf_r+0x258>)
    14bc:	429c      	cmp	r4, r3
    14be:	d101      	bne.n	14c4 <_vfiprintf_r+0x64>
    14c0:	68b4      	ldr	r4, [r6, #8]
    14c2:	e7de      	b.n	1482 <_vfiprintf_r+0x22>
    14c4:	4b7d      	ldr	r3, [pc, #500]	; (16bc <_vfiprintf_r+0x25c>)
    14c6:	429c      	cmp	r4, r3
    14c8:	d1db      	bne.n	1482 <_vfiprintf_r+0x22>
    14ca:	68f4      	ldr	r4, [r6, #12]
    14cc:	e7d9      	b.n	1482 <_vfiprintf_r+0x22>
    14ce:	89a3      	ldrh	r3, [r4, #12]
    14d0:	059b      	lsls	r3, r3, #22
    14d2:	d4ee      	bmi.n	14b2 <_vfiprintf_r+0x52>
    14d4:	6da0      	ldr	r0, [r4, #88]	; 0x58
    14d6:	f7ff ff3b 	bl	1350 <__retarget_lock_release_recursive>
    14da:	e7ea      	b.n	14b2 <_vfiprintf_r+0x52>
    14dc:	2300      	movs	r3, #0
    14de:	ad08      	add	r5, sp, #32
    14e0:	616b      	str	r3, [r5, #20]
    14e2:	3320      	adds	r3, #32
    14e4:	766b      	strb	r3, [r5, #25]
    14e6:	3310      	adds	r3, #16
    14e8:	76ab      	strb	r3, [r5, #26]
    14ea:	9707      	str	r7, [sp, #28]
    14ec:	9f03      	ldr	r7, [sp, #12]
    14ee:	783b      	ldrb	r3, [r7, #0]
    14f0:	2b00      	cmp	r3, #0
    14f2:	d001      	beq.n	14f8 <_vfiprintf_r+0x98>
    14f4:	2b25      	cmp	r3, #37	; 0x25
    14f6:	d14e      	bne.n	1596 <_vfiprintf_r+0x136>
    14f8:	9b03      	ldr	r3, [sp, #12]
    14fa:	1afb      	subs	r3, r7, r3
    14fc:	9305      	str	r3, [sp, #20]
    14fe:	9b03      	ldr	r3, [sp, #12]
    1500:	429f      	cmp	r7, r3
    1502:	d00d      	beq.n	1520 <_vfiprintf_r+0xc0>
    1504:	9b05      	ldr	r3, [sp, #20]
    1506:	0021      	movs	r1, r4
    1508:	0030      	movs	r0, r6
    150a:	9a03      	ldr	r2, [sp, #12]
    150c:	f7ff ff95 	bl	143a <__sfputs_r>
    1510:	1c43      	adds	r3, r0, #1
    1512:	d100      	bne.n	1516 <_vfiprintf_r+0xb6>
    1514:	e0b5      	b.n	1682 <_vfiprintf_r+0x222>
    1516:	696a      	ldr	r2, [r5, #20]
    1518:	9b05      	ldr	r3, [sp, #20]
    151a:	4694      	mov	ip, r2
    151c:	4463      	add	r3, ip
    151e:	616b      	str	r3, [r5, #20]
    1520:	783b      	ldrb	r3, [r7, #0]
    1522:	2b00      	cmp	r3, #0
    1524:	d100      	bne.n	1528 <_vfiprintf_r+0xc8>
    1526:	e0ac      	b.n	1682 <_vfiprintf_r+0x222>
    1528:	2201      	movs	r2, #1
    152a:	1c7b      	adds	r3, r7, #1
    152c:	9303      	str	r3, [sp, #12]
    152e:	2300      	movs	r3, #0
    1530:	4252      	negs	r2, r2
    1532:	606a      	str	r2, [r5, #4]
    1534:	a904      	add	r1, sp, #16
    1536:	3254      	adds	r2, #84	; 0x54
    1538:	1852      	adds	r2, r2, r1
    153a:	602b      	str	r3, [r5, #0]
    153c:	60eb      	str	r3, [r5, #12]
    153e:	60ab      	str	r3, [r5, #8]
    1540:	7013      	strb	r3, [r2, #0]
    1542:	65ab      	str	r3, [r5, #88]	; 0x58
    1544:	9b03      	ldr	r3, [sp, #12]
    1546:	2205      	movs	r2, #5
    1548:	7819      	ldrb	r1, [r3, #0]
    154a:	485d      	ldr	r0, [pc, #372]	; (16c0 <_vfiprintf_r+0x260>)
    154c:	f000 fce2 	bl	1f14 <memchr>
    1550:	9b03      	ldr	r3, [sp, #12]
    1552:	1c5f      	adds	r7, r3, #1
    1554:	2800      	cmp	r0, #0
    1556:	d120      	bne.n	159a <_vfiprintf_r+0x13a>
    1558:	682a      	ldr	r2, [r5, #0]
    155a:	06d3      	lsls	r3, r2, #27
    155c:	d504      	bpl.n	1568 <_vfiprintf_r+0x108>
    155e:	2353      	movs	r3, #83	; 0x53
    1560:	a904      	add	r1, sp, #16
    1562:	185b      	adds	r3, r3, r1
    1564:	2120      	movs	r1, #32
    1566:	7019      	strb	r1, [r3, #0]
    1568:	0713      	lsls	r3, r2, #28
    156a:	d504      	bpl.n	1576 <_vfiprintf_r+0x116>
    156c:	2353      	movs	r3, #83	; 0x53
    156e:	a904      	add	r1, sp, #16
    1570:	185b      	adds	r3, r3, r1
    1572:	212b      	movs	r1, #43	; 0x2b
    1574:	7019      	strb	r1, [r3, #0]
    1576:	9b03      	ldr	r3, [sp, #12]
    1578:	781b      	ldrb	r3, [r3, #0]
    157a:	2b2a      	cmp	r3, #42	; 0x2a
    157c:	d016      	beq.n	15ac <_vfiprintf_r+0x14c>
    157e:	2100      	movs	r1, #0
    1580:	68eb      	ldr	r3, [r5, #12]
    1582:	9f03      	ldr	r7, [sp, #12]
    1584:	783a      	ldrb	r2, [r7, #0]
    1586:	1c78      	adds	r0, r7, #1
    1588:	3a30      	subs	r2, #48	; 0x30
    158a:	4684      	mov	ip, r0
    158c:	2a09      	cmp	r2, #9
    158e:	d94f      	bls.n	1630 <_vfiprintf_r+0x1d0>
    1590:	2900      	cmp	r1, #0
    1592:	d111      	bne.n	15b8 <_vfiprintf_r+0x158>
    1594:	e017      	b.n	15c6 <_vfiprintf_r+0x166>
    1596:	3701      	adds	r7, #1
    1598:	e7a9      	b.n	14ee <_vfiprintf_r+0x8e>
    159a:	4b49      	ldr	r3, [pc, #292]	; (16c0 <_vfiprintf_r+0x260>)
    159c:	682a      	ldr	r2, [r5, #0]
    159e:	1ac0      	subs	r0, r0, r3
    15a0:	2301      	movs	r3, #1
    15a2:	4083      	lsls	r3, r0
    15a4:	4313      	orrs	r3, r2
    15a6:	602b      	str	r3, [r5, #0]
    15a8:	9703      	str	r7, [sp, #12]
    15aa:	e7cb      	b.n	1544 <_vfiprintf_r+0xe4>
    15ac:	9b07      	ldr	r3, [sp, #28]
    15ae:	1d19      	adds	r1, r3, #4
    15b0:	681b      	ldr	r3, [r3, #0]
    15b2:	9107      	str	r1, [sp, #28]
    15b4:	2b00      	cmp	r3, #0
    15b6:	db01      	blt.n	15bc <_vfiprintf_r+0x15c>
    15b8:	930b      	str	r3, [sp, #44]	; 0x2c
    15ba:	e004      	b.n	15c6 <_vfiprintf_r+0x166>
    15bc:	425b      	negs	r3, r3
    15be:	60eb      	str	r3, [r5, #12]
    15c0:	2302      	movs	r3, #2
    15c2:	4313      	orrs	r3, r2
    15c4:	602b      	str	r3, [r5, #0]
    15c6:	783b      	ldrb	r3, [r7, #0]
    15c8:	2b2e      	cmp	r3, #46	; 0x2e
    15ca:	d10a      	bne.n	15e2 <_vfiprintf_r+0x182>
    15cc:	787b      	ldrb	r3, [r7, #1]
    15ce:	2b2a      	cmp	r3, #42	; 0x2a
    15d0:	d137      	bne.n	1642 <_vfiprintf_r+0x1e2>
    15d2:	9b07      	ldr	r3, [sp, #28]
    15d4:	3702      	adds	r7, #2
    15d6:	1d1a      	adds	r2, r3, #4
    15d8:	681b      	ldr	r3, [r3, #0]
    15da:	9207      	str	r2, [sp, #28]
    15dc:	2b00      	cmp	r3, #0
    15de:	db2d      	blt.n	163c <_vfiprintf_r+0x1dc>
    15e0:	9309      	str	r3, [sp, #36]	; 0x24
    15e2:	2203      	movs	r2, #3
    15e4:	7839      	ldrb	r1, [r7, #0]
    15e6:	4837      	ldr	r0, [pc, #220]	; (16c4 <_vfiprintf_r+0x264>)
    15e8:	f000 fc94 	bl	1f14 <memchr>
    15ec:	2800      	cmp	r0, #0
    15ee:	d007      	beq.n	1600 <_vfiprintf_r+0x1a0>
    15f0:	4b34      	ldr	r3, [pc, #208]	; (16c4 <_vfiprintf_r+0x264>)
    15f2:	682a      	ldr	r2, [r5, #0]
    15f4:	1ac0      	subs	r0, r0, r3
    15f6:	2340      	movs	r3, #64	; 0x40
    15f8:	4083      	lsls	r3, r0
    15fa:	4313      	orrs	r3, r2
    15fc:	3701      	adds	r7, #1
    15fe:	602b      	str	r3, [r5, #0]
    1600:	7839      	ldrb	r1, [r7, #0]
    1602:	1c7b      	adds	r3, r7, #1
    1604:	2206      	movs	r2, #6
    1606:	4830      	ldr	r0, [pc, #192]	; (16c8 <_vfiprintf_r+0x268>)
    1608:	9303      	str	r3, [sp, #12]
    160a:	7629      	strb	r1, [r5, #24]
    160c:	f000 fc82 	bl	1f14 <memchr>
    1610:	2800      	cmp	r0, #0
    1612:	d045      	beq.n	16a0 <_vfiprintf_r+0x240>
    1614:	4b2d      	ldr	r3, [pc, #180]	; (16cc <_vfiprintf_r+0x26c>)
    1616:	2b00      	cmp	r3, #0
    1618:	d127      	bne.n	166a <_vfiprintf_r+0x20a>
    161a:	2207      	movs	r2, #7
    161c:	9b07      	ldr	r3, [sp, #28]
    161e:	3307      	adds	r3, #7
    1620:	4393      	bics	r3, r2
    1622:	3308      	adds	r3, #8
    1624:	9307      	str	r3, [sp, #28]
    1626:	696b      	ldr	r3, [r5, #20]
    1628:	9a04      	ldr	r2, [sp, #16]
    162a:	189b      	adds	r3, r3, r2
    162c:	616b      	str	r3, [r5, #20]
    162e:	e75d      	b.n	14ec <_vfiprintf_r+0x8c>
    1630:	210a      	movs	r1, #10
    1632:	434b      	muls	r3, r1
    1634:	4667      	mov	r7, ip
    1636:	189b      	adds	r3, r3, r2
    1638:	3909      	subs	r1, #9
    163a:	e7a3      	b.n	1584 <_vfiprintf_r+0x124>
    163c:	2301      	movs	r3, #1
    163e:	425b      	negs	r3, r3
    1640:	e7ce      	b.n	15e0 <_vfiprintf_r+0x180>
    1642:	2300      	movs	r3, #0
    1644:	001a      	movs	r2, r3
    1646:	3701      	adds	r7, #1
    1648:	606b      	str	r3, [r5, #4]
    164a:	7839      	ldrb	r1, [r7, #0]
    164c:	1c78      	adds	r0, r7, #1
    164e:	3930      	subs	r1, #48	; 0x30
    1650:	4684      	mov	ip, r0
    1652:	2909      	cmp	r1, #9
    1654:	d903      	bls.n	165e <_vfiprintf_r+0x1fe>
    1656:	2b00      	cmp	r3, #0
    1658:	d0c3      	beq.n	15e2 <_vfiprintf_r+0x182>
    165a:	9209      	str	r2, [sp, #36]	; 0x24
    165c:	e7c1      	b.n	15e2 <_vfiprintf_r+0x182>
    165e:	230a      	movs	r3, #10
    1660:	435a      	muls	r2, r3
    1662:	4667      	mov	r7, ip
    1664:	1852      	adds	r2, r2, r1
    1666:	3b09      	subs	r3, #9
    1668:	e7ef      	b.n	164a <_vfiprintf_r+0x1ea>
    166a:	ab07      	add	r3, sp, #28
    166c:	9300      	str	r3, [sp, #0]
    166e:	0022      	movs	r2, r4
    1670:	0029      	movs	r1, r5
    1672:	0030      	movs	r0, r6
    1674:	4b16      	ldr	r3, [pc, #88]	; (16d0 <_vfiprintf_r+0x270>)
    1676:	e000      	b.n	167a <_vfiprintf_r+0x21a>
    1678:	bf00      	nop
    167a:	9004      	str	r0, [sp, #16]
    167c:	9b04      	ldr	r3, [sp, #16]
    167e:	3301      	adds	r3, #1
    1680:	d1d1      	bne.n	1626 <_vfiprintf_r+0x1c6>
    1682:	6e63      	ldr	r3, [r4, #100]	; 0x64
    1684:	07db      	lsls	r3, r3, #31
    1686:	d405      	bmi.n	1694 <_vfiprintf_r+0x234>
    1688:	89a3      	ldrh	r3, [r4, #12]
    168a:	059b      	lsls	r3, r3, #22
    168c:	d402      	bmi.n	1694 <_vfiprintf_r+0x234>
    168e:	6da0      	ldr	r0, [r4, #88]	; 0x58
    1690:	f7ff fe5e 	bl	1350 <__retarget_lock_release_recursive>
    1694:	89a3      	ldrh	r3, [r4, #12]
    1696:	065b      	lsls	r3, r3, #25
    1698:	d500      	bpl.n	169c <_vfiprintf_r+0x23c>
    169a:	e70a      	b.n	14b2 <_vfiprintf_r+0x52>
    169c:	980d      	ldr	r0, [sp, #52]	; 0x34
    169e:	e70a      	b.n	14b6 <_vfiprintf_r+0x56>
    16a0:	ab07      	add	r3, sp, #28
    16a2:	9300      	str	r3, [sp, #0]
    16a4:	0022      	movs	r2, r4
    16a6:	0029      	movs	r1, r5
    16a8:	0030      	movs	r0, r6
    16aa:	4b09      	ldr	r3, [pc, #36]	; (16d0 <_vfiprintf_r+0x270>)
    16ac:	f000 f882 	bl	17b4 <_printf_i>
    16b0:	e7e3      	b.n	167a <_vfiprintf_r+0x21a>
    16b2:	46c0      	nop			; (mov r8, r8)
    16b4:	00002150 	.word	0x00002150
    16b8:	00002170 	.word	0x00002170
    16bc:	00002130 	.word	0x00002130
    16c0:	00002190 	.word	0x00002190
    16c4:	00002196 	.word	0x00002196
    16c8:	0000219a 	.word	0x0000219a
    16cc:	00000000 	.word	0x00000000
    16d0:	0000143b 	.word	0x0000143b

000016d4 <_printf_common>:
    16d4:	b5f7      	push	{r0, r1, r2, r4, r5, r6, r7, lr}
    16d6:	0015      	movs	r5, r2
    16d8:	9301      	str	r3, [sp, #4]
    16da:	688a      	ldr	r2, [r1, #8]
    16dc:	690b      	ldr	r3, [r1, #16]
    16de:	000c      	movs	r4, r1
    16e0:	9000      	str	r0, [sp, #0]
    16e2:	4293      	cmp	r3, r2
    16e4:	da00      	bge.n	16e8 <_printf_common+0x14>
    16e6:	0013      	movs	r3, r2
    16e8:	0022      	movs	r2, r4
    16ea:	602b      	str	r3, [r5, #0]
    16ec:	3243      	adds	r2, #67	; 0x43
    16ee:	7812      	ldrb	r2, [r2, #0]
    16f0:	2a00      	cmp	r2, #0
    16f2:	d001      	beq.n	16f8 <_printf_common+0x24>
    16f4:	3301      	adds	r3, #1
    16f6:	602b      	str	r3, [r5, #0]
    16f8:	6823      	ldr	r3, [r4, #0]
    16fa:	069b      	lsls	r3, r3, #26
    16fc:	d502      	bpl.n	1704 <_printf_common+0x30>
    16fe:	682b      	ldr	r3, [r5, #0]
    1700:	3302      	adds	r3, #2
    1702:	602b      	str	r3, [r5, #0]
    1704:	6822      	ldr	r2, [r4, #0]
    1706:	2306      	movs	r3, #6
    1708:	0017      	movs	r7, r2
    170a:	401f      	ands	r7, r3
    170c:	421a      	tst	r2, r3
    170e:	d027      	beq.n	1760 <_printf_common+0x8c>
    1710:	0023      	movs	r3, r4
    1712:	3343      	adds	r3, #67	; 0x43
    1714:	781b      	ldrb	r3, [r3, #0]
    1716:	1e5a      	subs	r2, r3, #1
    1718:	4193      	sbcs	r3, r2
    171a:	6822      	ldr	r2, [r4, #0]
    171c:	0692      	lsls	r2, r2, #26
    171e:	d430      	bmi.n	1782 <_printf_common+0xae>
    1720:	0022      	movs	r2, r4
    1722:	9901      	ldr	r1, [sp, #4]
    1724:	9800      	ldr	r0, [sp, #0]
    1726:	9e08      	ldr	r6, [sp, #32]
    1728:	3243      	adds	r2, #67	; 0x43
    172a:	47b0      	blx	r6
    172c:	1c43      	adds	r3, r0, #1
    172e:	d025      	beq.n	177c <_printf_common+0xa8>
    1730:	2306      	movs	r3, #6
    1732:	6820      	ldr	r0, [r4, #0]
    1734:	682a      	ldr	r2, [r5, #0]
    1736:	68e1      	ldr	r1, [r4, #12]
    1738:	2500      	movs	r5, #0
    173a:	4003      	ands	r3, r0
    173c:	2b04      	cmp	r3, #4
    173e:	d103      	bne.n	1748 <_printf_common+0x74>
    1740:	1a8d      	subs	r5, r1, r2
    1742:	43eb      	mvns	r3, r5
    1744:	17db      	asrs	r3, r3, #31
    1746:	401d      	ands	r5, r3
    1748:	68a3      	ldr	r3, [r4, #8]
    174a:	6922      	ldr	r2, [r4, #16]
    174c:	4293      	cmp	r3, r2
    174e:	dd01      	ble.n	1754 <_printf_common+0x80>
    1750:	1a9b      	subs	r3, r3, r2
    1752:	18ed      	adds	r5, r5, r3
    1754:	2700      	movs	r7, #0
    1756:	42bd      	cmp	r5, r7
    1758:	d120      	bne.n	179c <_printf_common+0xc8>
    175a:	2000      	movs	r0, #0
    175c:	e010      	b.n	1780 <_printf_common+0xac>
    175e:	3701      	adds	r7, #1
    1760:	68e3      	ldr	r3, [r4, #12]
    1762:	682a      	ldr	r2, [r5, #0]
    1764:	1a9b      	subs	r3, r3, r2
    1766:	42bb      	cmp	r3, r7
    1768:	ddd2      	ble.n	1710 <_printf_common+0x3c>
    176a:	0022      	movs	r2, r4
    176c:	2301      	movs	r3, #1
    176e:	9901      	ldr	r1, [sp, #4]
    1770:	9800      	ldr	r0, [sp, #0]
    1772:	9e08      	ldr	r6, [sp, #32]
    1774:	3219      	adds	r2, #25
    1776:	47b0      	blx	r6
    1778:	1c43      	adds	r3, r0, #1
    177a:	d1f0      	bne.n	175e <_printf_common+0x8a>
    177c:	2001      	movs	r0, #1
    177e:	4240      	negs	r0, r0
    1780:	bdfe      	pop	{r1, r2, r3, r4, r5, r6, r7, pc}
    1782:	2030      	movs	r0, #48	; 0x30
    1784:	18e1      	adds	r1, r4, r3
    1786:	3143      	adds	r1, #67	; 0x43
    1788:	7008      	strb	r0, [r1, #0]
    178a:	0021      	movs	r1, r4
    178c:	1c5a      	adds	r2, r3, #1
    178e:	3145      	adds	r1, #69	; 0x45
    1790:	7809      	ldrb	r1, [r1, #0]
    1792:	18a2      	adds	r2, r4, r2
    1794:	3243      	adds	r2, #67	; 0x43
    1796:	3302      	adds	r3, #2
    1798:	7011      	strb	r1, [r2, #0]
    179a:	e7c1      	b.n	1720 <_printf_common+0x4c>
    179c:	0022      	movs	r2, r4
    179e:	2301      	movs	r3, #1
    17a0:	9901      	ldr	r1, [sp, #4]
    17a2:	9800      	ldr	r0, [sp, #0]
    17a4:	9e08      	ldr	r6, [sp, #32]
    17a6:	321a      	adds	r2, #26
    17a8:	47b0      	blx	r6
    17aa:	1c43      	adds	r3, r0, #1
    17ac:	d0e6      	beq.n	177c <_printf_common+0xa8>
    17ae:	3701      	adds	r7, #1
    17b0:	e7d1      	b.n	1756 <_printf_common+0x82>
	...

000017b4 <_printf_i>:
    17b4:	b5f0      	push	{r4, r5, r6, r7, lr}
    17b6:	b08b      	sub	sp, #44	; 0x2c
    17b8:	9206      	str	r2, [sp, #24]
    17ba:	000a      	movs	r2, r1
    17bc:	3243      	adds	r2, #67	; 0x43
    17be:	9307      	str	r3, [sp, #28]
    17c0:	9005      	str	r0, [sp, #20]
    17c2:	9204      	str	r2, [sp, #16]
    17c4:	7e0a      	ldrb	r2, [r1, #24]
    17c6:	000c      	movs	r4, r1
    17c8:	9b10      	ldr	r3, [sp, #64]	; 0x40
    17ca:	2a78      	cmp	r2, #120	; 0x78
    17cc:	d806      	bhi.n	17dc <_printf_i+0x28>
    17ce:	2a62      	cmp	r2, #98	; 0x62
    17d0:	d808      	bhi.n	17e4 <_printf_i+0x30>
    17d2:	2a00      	cmp	r2, #0
    17d4:	d100      	bne.n	17d8 <_printf_i+0x24>
    17d6:	e0c0      	b.n	195a <_printf_i+0x1a6>
    17d8:	2a58      	cmp	r2, #88	; 0x58
    17da:	d052      	beq.n	1882 <_printf_i+0xce>
    17dc:	0026      	movs	r6, r4
    17de:	3642      	adds	r6, #66	; 0x42
    17e0:	7032      	strb	r2, [r6, #0]
    17e2:	e022      	b.n	182a <_printf_i+0x76>
    17e4:	0010      	movs	r0, r2
    17e6:	3863      	subs	r0, #99	; 0x63
    17e8:	2815      	cmp	r0, #21
    17ea:	d8f7      	bhi.n	17dc <_printf_i+0x28>
    17ec:	f000 fc30 	bl	2050 <__gnu_thumb1_case_shi>
    17f0:	001f0016 	.word	0x001f0016
    17f4:	fff6fff6 	.word	0xfff6fff6
    17f8:	fff6fff6 	.word	0xfff6fff6
    17fc:	fff6001f 	.word	0xfff6001f
    1800:	fff6fff6 	.word	0xfff6fff6
    1804:	00a8fff6 	.word	0x00a8fff6
    1808:	009a0036 	.word	0x009a0036
    180c:	fff6fff6 	.word	0xfff6fff6
    1810:	fff600b9 	.word	0xfff600b9
    1814:	fff60036 	.word	0xfff60036
    1818:	009efff6 	.word	0x009efff6
    181c:	0026      	movs	r6, r4
    181e:	681a      	ldr	r2, [r3, #0]
    1820:	3642      	adds	r6, #66	; 0x42
    1822:	1d11      	adds	r1, r2, #4
    1824:	6019      	str	r1, [r3, #0]
    1826:	6813      	ldr	r3, [r2, #0]
    1828:	7033      	strb	r3, [r6, #0]
    182a:	2301      	movs	r3, #1
    182c:	e0a7      	b.n	197e <_printf_i+0x1ca>
    182e:	6808      	ldr	r0, [r1, #0]
    1830:	6819      	ldr	r1, [r3, #0]
    1832:	1d0a      	adds	r2, r1, #4
    1834:	0605      	lsls	r5, r0, #24
    1836:	d50b      	bpl.n	1850 <_printf_i+0x9c>
    1838:	680d      	ldr	r5, [r1, #0]
    183a:	601a      	str	r2, [r3, #0]
    183c:	2d00      	cmp	r5, #0
    183e:	da03      	bge.n	1848 <_printf_i+0x94>
    1840:	232d      	movs	r3, #45	; 0x2d
    1842:	9a04      	ldr	r2, [sp, #16]
    1844:	426d      	negs	r5, r5
    1846:	7013      	strb	r3, [r2, #0]
    1848:	4b61      	ldr	r3, [pc, #388]	; (19d0 <_printf_i+0x21c>)
    184a:	270a      	movs	r7, #10
    184c:	9303      	str	r3, [sp, #12]
    184e:	e032      	b.n	18b6 <_printf_i+0x102>
    1850:	680d      	ldr	r5, [r1, #0]
    1852:	601a      	str	r2, [r3, #0]
    1854:	0641      	lsls	r1, r0, #25
    1856:	d5f1      	bpl.n	183c <_printf_i+0x88>
    1858:	b22d      	sxth	r5, r5
    185a:	e7ef      	b.n	183c <_printf_i+0x88>
    185c:	680d      	ldr	r5, [r1, #0]
    185e:	6819      	ldr	r1, [r3, #0]
    1860:	1d08      	adds	r0, r1, #4
    1862:	6018      	str	r0, [r3, #0]
    1864:	062e      	lsls	r6, r5, #24
    1866:	d501      	bpl.n	186c <_printf_i+0xb8>
    1868:	680d      	ldr	r5, [r1, #0]
    186a:	e003      	b.n	1874 <_printf_i+0xc0>
    186c:	066d      	lsls	r5, r5, #25
    186e:	d5fb      	bpl.n	1868 <_printf_i+0xb4>
    1870:	680d      	ldr	r5, [r1, #0]
    1872:	b2ad      	uxth	r5, r5
    1874:	4b56      	ldr	r3, [pc, #344]	; (19d0 <_printf_i+0x21c>)
    1876:	270a      	movs	r7, #10
    1878:	9303      	str	r3, [sp, #12]
    187a:	2a6f      	cmp	r2, #111	; 0x6f
    187c:	d117      	bne.n	18ae <_printf_i+0xfa>
    187e:	2708      	movs	r7, #8
    1880:	e015      	b.n	18ae <_printf_i+0xfa>
    1882:	3145      	adds	r1, #69	; 0x45
    1884:	700a      	strb	r2, [r1, #0]
    1886:	4a52      	ldr	r2, [pc, #328]	; (19d0 <_printf_i+0x21c>)
    1888:	9203      	str	r2, [sp, #12]
    188a:	681a      	ldr	r2, [r3, #0]
    188c:	6821      	ldr	r1, [r4, #0]
    188e:	ca20      	ldmia	r2!, {r5}
    1890:	601a      	str	r2, [r3, #0]
    1892:	0608      	lsls	r0, r1, #24
    1894:	d550      	bpl.n	1938 <_printf_i+0x184>
    1896:	07cb      	lsls	r3, r1, #31
    1898:	d502      	bpl.n	18a0 <_printf_i+0xec>
    189a:	2320      	movs	r3, #32
    189c:	4319      	orrs	r1, r3
    189e:	6021      	str	r1, [r4, #0]
    18a0:	2710      	movs	r7, #16
    18a2:	2d00      	cmp	r5, #0
    18a4:	d103      	bne.n	18ae <_printf_i+0xfa>
    18a6:	2320      	movs	r3, #32
    18a8:	6822      	ldr	r2, [r4, #0]
    18aa:	439a      	bics	r2, r3
    18ac:	6022      	str	r2, [r4, #0]
    18ae:	0023      	movs	r3, r4
    18b0:	2200      	movs	r2, #0
    18b2:	3343      	adds	r3, #67	; 0x43
    18b4:	701a      	strb	r2, [r3, #0]
    18b6:	6863      	ldr	r3, [r4, #4]
    18b8:	60a3      	str	r3, [r4, #8]
    18ba:	2b00      	cmp	r3, #0
    18bc:	db03      	blt.n	18c6 <_printf_i+0x112>
    18be:	2204      	movs	r2, #4
    18c0:	6821      	ldr	r1, [r4, #0]
    18c2:	4391      	bics	r1, r2
    18c4:	6021      	str	r1, [r4, #0]
    18c6:	2d00      	cmp	r5, #0
    18c8:	d102      	bne.n	18d0 <_printf_i+0x11c>
    18ca:	9e04      	ldr	r6, [sp, #16]
    18cc:	2b00      	cmp	r3, #0
    18ce:	d00c      	beq.n	18ea <_printf_i+0x136>
    18d0:	9e04      	ldr	r6, [sp, #16]
    18d2:	0028      	movs	r0, r5
    18d4:	0039      	movs	r1, r7
    18d6:	f7ff fbb9 	bl	104c <__aeabi_uidivmod>
    18da:	9b03      	ldr	r3, [sp, #12]
    18dc:	3e01      	subs	r6, #1
    18de:	5c5b      	ldrb	r3, [r3, r1]
    18e0:	7033      	strb	r3, [r6, #0]
    18e2:	002b      	movs	r3, r5
    18e4:	0005      	movs	r5, r0
    18e6:	429f      	cmp	r7, r3
    18e8:	d9f3      	bls.n	18d2 <_printf_i+0x11e>
    18ea:	2f08      	cmp	r7, #8
    18ec:	d109      	bne.n	1902 <_printf_i+0x14e>
    18ee:	6823      	ldr	r3, [r4, #0]
    18f0:	07db      	lsls	r3, r3, #31
    18f2:	d506      	bpl.n	1902 <_printf_i+0x14e>
    18f4:	6863      	ldr	r3, [r4, #4]
    18f6:	6922      	ldr	r2, [r4, #16]
    18f8:	4293      	cmp	r3, r2
    18fa:	dc02      	bgt.n	1902 <_printf_i+0x14e>
    18fc:	2330      	movs	r3, #48	; 0x30
    18fe:	3e01      	subs	r6, #1
    1900:	7033      	strb	r3, [r6, #0]
    1902:	9b04      	ldr	r3, [sp, #16]
    1904:	1b9b      	subs	r3, r3, r6
    1906:	6123      	str	r3, [r4, #16]
    1908:	9b07      	ldr	r3, [sp, #28]
    190a:	0021      	movs	r1, r4
    190c:	9300      	str	r3, [sp, #0]
    190e:	9805      	ldr	r0, [sp, #20]
    1910:	9b06      	ldr	r3, [sp, #24]
    1912:	aa09      	add	r2, sp, #36	; 0x24
    1914:	f7ff fede 	bl	16d4 <_printf_common>
    1918:	1c43      	adds	r3, r0, #1
    191a:	d135      	bne.n	1988 <_printf_i+0x1d4>
    191c:	2001      	movs	r0, #1
    191e:	4240      	negs	r0, r0
    1920:	b00b      	add	sp, #44	; 0x2c
    1922:	bdf0      	pop	{r4, r5, r6, r7, pc}
    1924:	2220      	movs	r2, #32
    1926:	6809      	ldr	r1, [r1, #0]
    1928:	430a      	orrs	r2, r1
    192a:	6022      	str	r2, [r4, #0]
    192c:	0022      	movs	r2, r4
    192e:	2178      	movs	r1, #120	; 0x78
    1930:	3245      	adds	r2, #69	; 0x45
    1932:	7011      	strb	r1, [r2, #0]
    1934:	4a27      	ldr	r2, [pc, #156]	; (19d4 <_printf_i+0x220>)
    1936:	e7a7      	b.n	1888 <_printf_i+0xd4>
    1938:	0648      	lsls	r0, r1, #25
    193a:	d5ac      	bpl.n	1896 <_printf_i+0xe2>
    193c:	b2ad      	uxth	r5, r5
    193e:	e7aa      	b.n	1896 <_printf_i+0xe2>
    1940:	681a      	ldr	r2, [r3, #0]
    1942:	680d      	ldr	r5, [r1, #0]
    1944:	1d10      	adds	r0, r2, #4
    1946:	6949      	ldr	r1, [r1, #20]
    1948:	6018      	str	r0, [r3, #0]
    194a:	6813      	ldr	r3, [r2, #0]
    194c:	062e      	lsls	r6, r5, #24
    194e:	d501      	bpl.n	1954 <_printf_i+0x1a0>
    1950:	6019      	str	r1, [r3, #0]
    1952:	e002      	b.n	195a <_printf_i+0x1a6>
    1954:	066d      	lsls	r5, r5, #25
    1956:	d5fb      	bpl.n	1950 <_printf_i+0x19c>
    1958:	8019      	strh	r1, [r3, #0]
    195a:	2300      	movs	r3, #0
    195c:	9e04      	ldr	r6, [sp, #16]
    195e:	6123      	str	r3, [r4, #16]
    1960:	e7d2      	b.n	1908 <_printf_i+0x154>
    1962:	681a      	ldr	r2, [r3, #0]
    1964:	1d11      	adds	r1, r2, #4
    1966:	6019      	str	r1, [r3, #0]
    1968:	6816      	ldr	r6, [r2, #0]
    196a:	2100      	movs	r1, #0
    196c:	0030      	movs	r0, r6
    196e:	6862      	ldr	r2, [r4, #4]
    1970:	f000 fad0 	bl	1f14 <memchr>
    1974:	2800      	cmp	r0, #0
    1976:	d001      	beq.n	197c <_printf_i+0x1c8>
    1978:	1b80      	subs	r0, r0, r6
    197a:	6060      	str	r0, [r4, #4]
    197c:	6863      	ldr	r3, [r4, #4]
    197e:	6123      	str	r3, [r4, #16]
    1980:	2300      	movs	r3, #0
    1982:	9a04      	ldr	r2, [sp, #16]
    1984:	7013      	strb	r3, [r2, #0]
    1986:	e7bf      	b.n	1908 <_printf_i+0x154>
    1988:	6923      	ldr	r3, [r4, #16]
    198a:	0032      	movs	r2, r6
    198c:	9906      	ldr	r1, [sp, #24]
    198e:	9805      	ldr	r0, [sp, #20]
    1990:	9d07      	ldr	r5, [sp, #28]
    1992:	47a8      	blx	r5
    1994:	1c43      	adds	r3, r0, #1
    1996:	d0c1      	beq.n	191c <_printf_i+0x168>
    1998:	6823      	ldr	r3, [r4, #0]
    199a:	079b      	lsls	r3, r3, #30
    199c:	d415      	bmi.n	19ca <_printf_i+0x216>
    199e:	9b09      	ldr	r3, [sp, #36]	; 0x24
    19a0:	68e0      	ldr	r0, [r4, #12]
    19a2:	4298      	cmp	r0, r3
    19a4:	dabc      	bge.n	1920 <_printf_i+0x16c>
    19a6:	0018      	movs	r0, r3
    19a8:	e7ba      	b.n	1920 <_printf_i+0x16c>
    19aa:	0022      	movs	r2, r4
    19ac:	2301      	movs	r3, #1
    19ae:	9906      	ldr	r1, [sp, #24]
    19b0:	9805      	ldr	r0, [sp, #20]
    19b2:	9e07      	ldr	r6, [sp, #28]
    19b4:	3219      	adds	r2, #25
    19b6:	47b0      	blx	r6
    19b8:	1c43      	adds	r3, r0, #1
    19ba:	d0af      	beq.n	191c <_printf_i+0x168>
    19bc:	3501      	adds	r5, #1
    19be:	68e3      	ldr	r3, [r4, #12]
    19c0:	9a09      	ldr	r2, [sp, #36]	; 0x24
    19c2:	1a9b      	subs	r3, r3, r2
    19c4:	42ab      	cmp	r3, r5
    19c6:	dcf0      	bgt.n	19aa <_printf_i+0x1f6>
    19c8:	e7e9      	b.n	199e <_printf_i+0x1ea>
    19ca:	2500      	movs	r5, #0
    19cc:	e7f7      	b.n	19be <_printf_i+0x20a>
    19ce:	46c0      	nop			; (mov r8, r8)
    19d0:	000021a1 	.word	0x000021a1
    19d4:	000021b2 	.word	0x000021b2

000019d8 <_sbrk_r>:
    19d8:	2300      	movs	r3, #0
    19da:	b570      	push	{r4, r5, r6, lr}
    19dc:	4d06      	ldr	r5, [pc, #24]	; (19f8 <_sbrk_r+0x20>)
    19de:	0004      	movs	r4, r0
    19e0:	0008      	movs	r0, r1
    19e2:	602b      	str	r3, [r5, #0]
    19e4:	f7fe fbc8 	bl	178 <_sbrk>
    19e8:	1c43      	adds	r3, r0, #1
    19ea:	d103      	bne.n	19f4 <_sbrk_r+0x1c>
    19ec:	682b      	ldr	r3, [r5, #0]
    19ee:	2b00      	cmp	r3, #0
    19f0:	d000      	beq.n	19f4 <_sbrk_r+0x1c>
    19f2:	6023      	str	r3, [r4, #0]
    19f4:	bd70      	pop	{r4, r5, r6, pc}
    19f6:	46c0      	nop			; (mov r8, r8)
    19f8:	20000120 	.word	0x20000120

000019fc <__sread>:
    19fc:	b570      	push	{r4, r5, r6, lr}
    19fe:	000c      	movs	r4, r1
    1a00:	250e      	movs	r5, #14
    1a02:	5f49      	ldrsh	r1, [r1, r5]
    1a04:	f000 faec 	bl	1fe0 <_read_r>
    1a08:	2800      	cmp	r0, #0
    1a0a:	db03      	blt.n	1a14 <__sread+0x18>
    1a0c:	6d63      	ldr	r3, [r4, #84]	; 0x54
    1a0e:	181b      	adds	r3, r3, r0
    1a10:	6563      	str	r3, [r4, #84]	; 0x54
    1a12:	bd70      	pop	{r4, r5, r6, pc}
    1a14:	89a3      	ldrh	r3, [r4, #12]
    1a16:	4a02      	ldr	r2, [pc, #8]	; (1a20 <__sread+0x24>)
    1a18:	4013      	ands	r3, r2
    1a1a:	81a3      	strh	r3, [r4, #12]
    1a1c:	e7f9      	b.n	1a12 <__sread+0x16>
    1a1e:	46c0      	nop			; (mov r8, r8)
    1a20:	ffffefff 	.word	0xffffefff

00001a24 <__swrite>:
    1a24:	b5f8      	push	{r3, r4, r5, r6, r7, lr}
    1a26:	001f      	movs	r7, r3
    1a28:	898b      	ldrh	r3, [r1, #12]
    1a2a:	0005      	movs	r5, r0
    1a2c:	000c      	movs	r4, r1
    1a2e:	0016      	movs	r6, r2
    1a30:	05db      	lsls	r3, r3, #23
    1a32:	d505      	bpl.n	1a40 <__swrite+0x1c>
    1a34:	230e      	movs	r3, #14
    1a36:	5ec9      	ldrsh	r1, [r1, r3]
    1a38:	2200      	movs	r2, #0
    1a3a:	2302      	movs	r3, #2
    1a3c:	f000 f9ea 	bl	1e14 <_lseek_r>
    1a40:	89a3      	ldrh	r3, [r4, #12]
    1a42:	4a05      	ldr	r2, [pc, #20]	; (1a58 <__swrite+0x34>)
    1a44:	0028      	movs	r0, r5
    1a46:	4013      	ands	r3, r2
    1a48:	81a3      	strh	r3, [r4, #12]
    1a4a:	0032      	movs	r2, r6
    1a4c:	230e      	movs	r3, #14
    1a4e:	5ee1      	ldrsh	r1, [r4, r3]
    1a50:	003b      	movs	r3, r7
    1a52:	f000 f875 	bl	1b40 <_write_r>
    1a56:	bdf8      	pop	{r3, r4, r5, r6, r7, pc}
    1a58:	ffffefff 	.word	0xffffefff

00001a5c <__sseek>:
    1a5c:	b570      	push	{r4, r5, r6, lr}
    1a5e:	000c      	movs	r4, r1
    1a60:	250e      	movs	r5, #14
    1a62:	5f49      	ldrsh	r1, [r1, r5]
    1a64:	f000 f9d6 	bl	1e14 <_lseek_r>
    1a68:	89a3      	ldrh	r3, [r4, #12]
    1a6a:	1c42      	adds	r2, r0, #1
    1a6c:	d103      	bne.n	1a76 <__sseek+0x1a>
    1a6e:	4a05      	ldr	r2, [pc, #20]	; (1a84 <__sseek+0x28>)
    1a70:	4013      	ands	r3, r2
    1a72:	81a3      	strh	r3, [r4, #12]
    1a74:	bd70      	pop	{r4, r5, r6, pc}
    1a76:	2280      	movs	r2, #128	; 0x80
    1a78:	0152      	lsls	r2, r2, #5
    1a7a:	4313      	orrs	r3, r2
    1a7c:	81a3      	strh	r3, [r4, #12]
    1a7e:	6560      	str	r0, [r4, #84]	; 0x54
    1a80:	e7f8      	b.n	1a74 <__sseek+0x18>
    1a82:	46c0      	nop			; (mov r8, r8)
    1a84:	ffffefff 	.word	0xffffefff

00001a88 <__sclose>:
    1a88:	b510      	push	{r4, lr}
    1a8a:	230e      	movs	r3, #14
    1a8c:	5ec9      	ldrsh	r1, [r1, r3]
    1a8e:	f000 f8e3 	bl	1c58 <_close_r>
    1a92:	bd10      	pop	{r4, pc}

00001a94 <__swbuf_r>:
    1a94:	b5f8      	push	{r3, r4, r5, r6, r7, lr}
    1a96:	0005      	movs	r5, r0
    1a98:	000e      	movs	r6, r1
    1a9a:	0014      	movs	r4, r2
    1a9c:	2800      	cmp	r0, #0
    1a9e:	d004      	beq.n	1aaa <__swbuf_r+0x16>
    1aa0:	6983      	ldr	r3, [r0, #24]
    1aa2:	2b00      	cmp	r3, #0
    1aa4:	d101      	bne.n	1aaa <__swbuf_r+0x16>
    1aa6:	f7ff fbb1 	bl	120c <__sinit>
    1aaa:	4b22      	ldr	r3, [pc, #136]	; (1b34 <__swbuf_r+0xa0>)
    1aac:	429c      	cmp	r4, r3
    1aae:	d12e      	bne.n	1b0e <__swbuf_r+0x7a>
    1ab0:	686c      	ldr	r4, [r5, #4]
    1ab2:	69a3      	ldr	r3, [r4, #24]
    1ab4:	60a3      	str	r3, [r4, #8]
    1ab6:	89a3      	ldrh	r3, [r4, #12]
    1ab8:	071b      	lsls	r3, r3, #28
    1aba:	d532      	bpl.n	1b22 <__swbuf_r+0x8e>
    1abc:	6923      	ldr	r3, [r4, #16]
    1abe:	2b00      	cmp	r3, #0
    1ac0:	d02f      	beq.n	1b22 <__swbuf_r+0x8e>
    1ac2:	6823      	ldr	r3, [r4, #0]
    1ac4:	6922      	ldr	r2, [r4, #16]
    1ac6:	b2f7      	uxtb	r7, r6
    1ac8:	1a98      	subs	r0, r3, r2
    1aca:	6963      	ldr	r3, [r4, #20]
    1acc:	b2f6      	uxtb	r6, r6
    1ace:	4283      	cmp	r3, r0
    1ad0:	dc05      	bgt.n	1ade <__swbuf_r+0x4a>
    1ad2:	0021      	movs	r1, r4
    1ad4:	0028      	movs	r0, r5
    1ad6:	f000 f95d 	bl	1d94 <_fflush_r>
    1ada:	2800      	cmp	r0, #0
    1adc:	d127      	bne.n	1b2e <__swbuf_r+0x9a>
    1ade:	68a3      	ldr	r3, [r4, #8]
    1ae0:	3001      	adds	r0, #1
    1ae2:	3b01      	subs	r3, #1
    1ae4:	60a3      	str	r3, [r4, #8]
    1ae6:	6823      	ldr	r3, [r4, #0]
    1ae8:	1c5a      	adds	r2, r3, #1
    1aea:	6022      	str	r2, [r4, #0]
    1aec:	701f      	strb	r7, [r3, #0]
    1aee:	6963      	ldr	r3, [r4, #20]
    1af0:	4283      	cmp	r3, r0
    1af2:	d004      	beq.n	1afe <__swbuf_r+0x6a>
    1af4:	89a3      	ldrh	r3, [r4, #12]
    1af6:	07db      	lsls	r3, r3, #31
    1af8:	d507      	bpl.n	1b0a <__swbuf_r+0x76>
    1afa:	2e0a      	cmp	r6, #10
    1afc:	d105      	bne.n	1b0a <__swbuf_r+0x76>
    1afe:	0021      	movs	r1, r4
    1b00:	0028      	movs	r0, r5
    1b02:	f000 f947 	bl	1d94 <_fflush_r>
    1b06:	2800      	cmp	r0, #0
    1b08:	d111      	bne.n	1b2e <__swbuf_r+0x9a>
    1b0a:	0030      	movs	r0, r6
    1b0c:	bdf8      	pop	{r3, r4, r5, r6, r7, pc}
    1b0e:	4b0a      	ldr	r3, [pc, #40]	; (1b38 <__swbuf_r+0xa4>)
    1b10:	429c      	cmp	r4, r3
    1b12:	d101      	bne.n	1b18 <__swbuf_r+0x84>
    1b14:	68ac      	ldr	r4, [r5, #8]
    1b16:	e7cc      	b.n	1ab2 <__swbuf_r+0x1e>
    1b18:	4b08      	ldr	r3, [pc, #32]	; (1b3c <__swbuf_r+0xa8>)
    1b1a:	429c      	cmp	r4, r3
    1b1c:	d1c9      	bne.n	1ab2 <__swbuf_r+0x1e>
    1b1e:	68ec      	ldr	r4, [r5, #12]
    1b20:	e7c7      	b.n	1ab2 <__swbuf_r+0x1e>
    1b22:	0021      	movs	r1, r4
    1b24:	0028      	movs	r0, r5
    1b26:	f000 f81f 	bl	1b68 <__swsetup_r>
    1b2a:	2800      	cmp	r0, #0
    1b2c:	d0c9      	beq.n	1ac2 <__swbuf_r+0x2e>
    1b2e:	2601      	movs	r6, #1
    1b30:	4276      	negs	r6, r6
    1b32:	e7ea      	b.n	1b0a <__swbuf_r+0x76>
    1b34:	00002150 	.word	0x00002150
    1b38:	00002170 	.word	0x00002170
    1b3c:	00002130 	.word	0x00002130

00001b40 <_write_r>:
    1b40:	b570      	push	{r4, r5, r6, lr}
    1b42:	0004      	movs	r4, r0
    1b44:	0008      	movs	r0, r1
    1b46:	0011      	movs	r1, r2
    1b48:	001a      	movs	r2, r3
    1b4a:	2300      	movs	r3, #0
    1b4c:	4d05      	ldr	r5, [pc, #20]	; (1b64 <_write_r+0x24>)
    1b4e:	602b      	str	r3, [r5, #0]
    1b50:	f7fe fc6a 	bl	428 <_write>
    1b54:	1c43      	adds	r3, r0, #1
    1b56:	d103      	bne.n	1b60 <_write_r+0x20>
    1b58:	682b      	ldr	r3, [r5, #0]
    1b5a:	2b00      	cmp	r3, #0
    1b5c:	d000      	beq.n	1b60 <_write_r+0x20>
    1b5e:	6023      	str	r3, [r4, #0]
    1b60:	bd70      	pop	{r4, r5, r6, pc}
    1b62:	46c0      	nop			; (mov r8, r8)
    1b64:	20000120 	.word	0x20000120

00001b68 <__swsetup_r>:
    1b68:	4b37      	ldr	r3, [pc, #220]	; (1c48 <__swsetup_r+0xe0>)
    1b6a:	b570      	push	{r4, r5, r6, lr}
    1b6c:	681d      	ldr	r5, [r3, #0]
    1b6e:	0006      	movs	r6, r0
    1b70:	000c      	movs	r4, r1
    1b72:	2d00      	cmp	r5, #0
    1b74:	d005      	beq.n	1b82 <__swsetup_r+0x1a>
    1b76:	69ab      	ldr	r3, [r5, #24]
    1b78:	2b00      	cmp	r3, #0
    1b7a:	d102      	bne.n	1b82 <__swsetup_r+0x1a>
    1b7c:	0028      	movs	r0, r5
    1b7e:	f7ff fb45 	bl	120c <__sinit>
    1b82:	4b32      	ldr	r3, [pc, #200]	; (1c4c <__swsetup_r+0xe4>)
    1b84:	429c      	cmp	r4, r3
    1b86:	d10f      	bne.n	1ba8 <__swsetup_r+0x40>
    1b88:	686c      	ldr	r4, [r5, #4]
    1b8a:	230c      	movs	r3, #12
    1b8c:	5ee2      	ldrsh	r2, [r4, r3]
    1b8e:	b293      	uxth	r3, r2
    1b90:	0711      	lsls	r1, r2, #28
    1b92:	d42d      	bmi.n	1bf0 <__swsetup_r+0x88>
    1b94:	06d9      	lsls	r1, r3, #27
    1b96:	d411      	bmi.n	1bbc <__swsetup_r+0x54>
    1b98:	2309      	movs	r3, #9
    1b9a:	2001      	movs	r0, #1
    1b9c:	6033      	str	r3, [r6, #0]
    1b9e:	3337      	adds	r3, #55	; 0x37
    1ba0:	4313      	orrs	r3, r2
    1ba2:	81a3      	strh	r3, [r4, #12]
    1ba4:	4240      	negs	r0, r0
    1ba6:	bd70      	pop	{r4, r5, r6, pc}
    1ba8:	4b29      	ldr	r3, [pc, #164]	; (1c50 <__swsetup_r+0xe8>)
    1baa:	429c      	cmp	r4, r3
    1bac:	d101      	bne.n	1bb2 <__swsetup_r+0x4a>
    1bae:	68ac      	ldr	r4, [r5, #8]
    1bb0:	e7eb      	b.n	1b8a <__swsetup_r+0x22>
    1bb2:	4b28      	ldr	r3, [pc, #160]	; (1c54 <__swsetup_r+0xec>)
    1bb4:	429c      	cmp	r4, r3
    1bb6:	d1e8      	bne.n	1b8a <__swsetup_r+0x22>
    1bb8:	68ec      	ldr	r4, [r5, #12]
    1bba:	e7e6      	b.n	1b8a <__swsetup_r+0x22>
    1bbc:	075b      	lsls	r3, r3, #29
    1bbe:	d513      	bpl.n	1be8 <__swsetup_r+0x80>
    1bc0:	6b61      	ldr	r1, [r4, #52]	; 0x34
    1bc2:	2900      	cmp	r1, #0
    1bc4:	d008      	beq.n	1bd8 <__swsetup_r+0x70>
    1bc6:	0023      	movs	r3, r4
    1bc8:	3344      	adds	r3, #68	; 0x44
    1bca:	4299      	cmp	r1, r3
    1bcc:	d002      	beq.n	1bd4 <__swsetup_r+0x6c>
    1bce:	0030      	movs	r0, r6
    1bd0:	f000 f9bc 	bl	1f4c <_free_r>
    1bd4:	2300      	movs	r3, #0
    1bd6:	6363      	str	r3, [r4, #52]	; 0x34
    1bd8:	2224      	movs	r2, #36	; 0x24
    1bda:	89a3      	ldrh	r3, [r4, #12]
    1bdc:	4393      	bics	r3, r2
    1bde:	81a3      	strh	r3, [r4, #12]
    1be0:	2300      	movs	r3, #0
    1be2:	6063      	str	r3, [r4, #4]
    1be4:	6923      	ldr	r3, [r4, #16]
    1be6:	6023      	str	r3, [r4, #0]
    1be8:	2308      	movs	r3, #8
    1bea:	89a2      	ldrh	r2, [r4, #12]
    1bec:	4313      	orrs	r3, r2
    1bee:	81a3      	strh	r3, [r4, #12]
    1bf0:	6923      	ldr	r3, [r4, #16]
    1bf2:	2b00      	cmp	r3, #0
    1bf4:	d10b      	bne.n	1c0e <__swsetup_r+0xa6>
    1bf6:	21a0      	movs	r1, #160	; 0xa0
    1bf8:	2280      	movs	r2, #128	; 0x80
    1bfa:	89a3      	ldrh	r3, [r4, #12]
    1bfc:	0089      	lsls	r1, r1, #2
    1bfe:	0092      	lsls	r2, r2, #2
    1c00:	400b      	ands	r3, r1
    1c02:	4293      	cmp	r3, r2
    1c04:	d003      	beq.n	1c0e <__swsetup_r+0xa6>
    1c06:	0021      	movs	r1, r4
    1c08:	0030      	movs	r0, r6
    1c0a:	f000 f93f 	bl	1e8c <__smakebuf_r>
    1c0e:	220c      	movs	r2, #12
    1c10:	5ea3      	ldrsh	r3, [r4, r2]
    1c12:	2001      	movs	r0, #1
    1c14:	001a      	movs	r2, r3
    1c16:	b299      	uxth	r1, r3
    1c18:	4002      	ands	r2, r0
    1c1a:	4203      	tst	r3, r0
    1c1c:	d00f      	beq.n	1c3e <__swsetup_r+0xd6>
    1c1e:	2200      	movs	r2, #0
    1c20:	60a2      	str	r2, [r4, #8]
    1c22:	6962      	ldr	r2, [r4, #20]
    1c24:	4252      	negs	r2, r2
    1c26:	61a2      	str	r2, [r4, #24]
    1c28:	2000      	movs	r0, #0
    1c2a:	6922      	ldr	r2, [r4, #16]
    1c2c:	4282      	cmp	r2, r0
    1c2e:	d1ba      	bne.n	1ba6 <__swsetup_r+0x3e>
    1c30:	060a      	lsls	r2, r1, #24
    1c32:	d5b8      	bpl.n	1ba6 <__swsetup_r+0x3e>
    1c34:	2240      	movs	r2, #64	; 0x40
    1c36:	4313      	orrs	r3, r2
    1c38:	81a3      	strh	r3, [r4, #12]
    1c3a:	3801      	subs	r0, #1
    1c3c:	e7b3      	b.n	1ba6 <__swsetup_r+0x3e>
    1c3e:	0788      	lsls	r0, r1, #30
    1c40:	d400      	bmi.n	1c44 <__swsetup_r+0xdc>
    1c42:	6962      	ldr	r2, [r4, #20]
    1c44:	60a2      	str	r2, [r4, #8]
    1c46:	e7ef      	b.n	1c28 <__swsetup_r+0xc0>
    1c48:	20000000 	.word	0x20000000
    1c4c:	00002150 	.word	0x00002150
    1c50:	00002170 	.word	0x00002170
    1c54:	00002130 	.word	0x00002130

00001c58 <_close_r>:
    1c58:	2300      	movs	r3, #0
    1c5a:	b570      	push	{r4, r5, r6, lr}
    1c5c:	4d06      	ldr	r5, [pc, #24]	; (1c78 <_close_r+0x20>)
    1c5e:	0004      	movs	r4, r0
    1c60:	0008      	movs	r0, r1
    1c62:	602b      	str	r3, [r5, #0]
    1c64:	f7fe fa98 	bl	198 <_close>
    1c68:	1c43      	adds	r3, r0, #1
    1c6a:	d103      	bne.n	1c74 <_close_r+0x1c>
    1c6c:	682b      	ldr	r3, [r5, #0]
    1c6e:	2b00      	cmp	r3, #0
    1c70:	d000      	beq.n	1c74 <_close_r+0x1c>
    1c72:	6023      	str	r3, [r4, #0]
    1c74:	bd70      	pop	{r4, r5, r6, pc}
    1c76:	46c0      	nop			; (mov r8, r8)
    1c78:	20000120 	.word	0x20000120

00001c7c <__sflush_r>:
    1c7c:	b5f7      	push	{r0, r1, r2, r4, r5, r6, r7, lr}
    1c7e:	898b      	ldrh	r3, [r1, #12]
    1c80:	0005      	movs	r5, r0
    1c82:	000c      	movs	r4, r1
    1c84:	071a      	lsls	r2, r3, #28
    1c86:	d45f      	bmi.n	1d48 <__sflush_r+0xcc>
    1c88:	684a      	ldr	r2, [r1, #4]
    1c8a:	2a00      	cmp	r2, #0
    1c8c:	dc04      	bgt.n	1c98 <__sflush_r+0x1c>
    1c8e:	6c0a      	ldr	r2, [r1, #64]	; 0x40
    1c90:	2a00      	cmp	r2, #0
    1c92:	dc01      	bgt.n	1c98 <__sflush_r+0x1c>
    1c94:	2000      	movs	r0, #0
    1c96:	bdfe      	pop	{r1, r2, r3, r4, r5, r6, r7, pc}
    1c98:	6ae7      	ldr	r7, [r4, #44]	; 0x2c
    1c9a:	2f00      	cmp	r7, #0
    1c9c:	d0fa      	beq.n	1c94 <__sflush_r+0x18>
    1c9e:	2200      	movs	r2, #0
    1ca0:	2180      	movs	r1, #128	; 0x80
    1ca2:	682e      	ldr	r6, [r5, #0]
    1ca4:	602a      	str	r2, [r5, #0]
    1ca6:	001a      	movs	r2, r3
    1ca8:	0149      	lsls	r1, r1, #5
    1caa:	400a      	ands	r2, r1
    1cac:	420b      	tst	r3, r1
    1cae:	d034      	beq.n	1d1a <__sflush_r+0x9e>
    1cb0:	6d60      	ldr	r0, [r4, #84]	; 0x54
    1cb2:	89a3      	ldrh	r3, [r4, #12]
    1cb4:	075b      	lsls	r3, r3, #29
    1cb6:	d506      	bpl.n	1cc6 <__sflush_r+0x4a>
    1cb8:	6863      	ldr	r3, [r4, #4]
    1cba:	1ac0      	subs	r0, r0, r3
    1cbc:	6b63      	ldr	r3, [r4, #52]	; 0x34
    1cbe:	2b00      	cmp	r3, #0
    1cc0:	d001      	beq.n	1cc6 <__sflush_r+0x4a>
    1cc2:	6c23      	ldr	r3, [r4, #64]	; 0x40
    1cc4:	1ac0      	subs	r0, r0, r3
    1cc6:	0002      	movs	r2, r0
    1cc8:	6a21      	ldr	r1, [r4, #32]
    1cca:	2300      	movs	r3, #0
    1ccc:	0028      	movs	r0, r5
    1cce:	6ae7      	ldr	r7, [r4, #44]	; 0x2c
    1cd0:	47b8      	blx	r7
    1cd2:	89a1      	ldrh	r1, [r4, #12]
    1cd4:	1c43      	adds	r3, r0, #1
    1cd6:	d106      	bne.n	1ce6 <__sflush_r+0x6a>
    1cd8:	682b      	ldr	r3, [r5, #0]
    1cda:	2b1d      	cmp	r3, #29
    1cdc:	d831      	bhi.n	1d42 <__sflush_r+0xc6>
    1cde:	4a2c      	ldr	r2, [pc, #176]	; (1d90 <__sflush_r+0x114>)
    1ce0:	40da      	lsrs	r2, r3
    1ce2:	07d3      	lsls	r3, r2, #31
    1ce4:	d52d      	bpl.n	1d42 <__sflush_r+0xc6>
    1ce6:	2300      	movs	r3, #0
    1ce8:	6063      	str	r3, [r4, #4]
    1cea:	6923      	ldr	r3, [r4, #16]
    1cec:	6023      	str	r3, [r4, #0]
    1cee:	04cb      	lsls	r3, r1, #19
    1cf0:	d505      	bpl.n	1cfe <__sflush_r+0x82>
    1cf2:	1c43      	adds	r3, r0, #1
    1cf4:	d102      	bne.n	1cfc <__sflush_r+0x80>
    1cf6:	682b      	ldr	r3, [r5, #0]
    1cf8:	2b00      	cmp	r3, #0
    1cfa:	d100      	bne.n	1cfe <__sflush_r+0x82>
    1cfc:	6560      	str	r0, [r4, #84]	; 0x54
    1cfe:	6b61      	ldr	r1, [r4, #52]	; 0x34
    1d00:	602e      	str	r6, [r5, #0]
    1d02:	2900      	cmp	r1, #0
    1d04:	d0c6      	beq.n	1c94 <__sflush_r+0x18>
    1d06:	0023      	movs	r3, r4
    1d08:	3344      	adds	r3, #68	; 0x44
    1d0a:	4299      	cmp	r1, r3
    1d0c:	d002      	beq.n	1d14 <__sflush_r+0x98>
    1d0e:	0028      	movs	r0, r5
    1d10:	f000 f91c 	bl	1f4c <_free_r>
    1d14:	2000      	movs	r0, #0
    1d16:	6360      	str	r0, [r4, #52]	; 0x34
    1d18:	e7bd      	b.n	1c96 <__sflush_r+0x1a>
    1d1a:	2301      	movs	r3, #1
    1d1c:	0028      	movs	r0, r5
    1d1e:	6a21      	ldr	r1, [r4, #32]
    1d20:	47b8      	blx	r7
    1d22:	1c43      	adds	r3, r0, #1
    1d24:	d1c5      	bne.n	1cb2 <__sflush_r+0x36>
    1d26:	682b      	ldr	r3, [r5, #0]
    1d28:	2b00      	cmp	r3, #0
    1d2a:	d0c2      	beq.n	1cb2 <__sflush_r+0x36>
    1d2c:	2b1d      	cmp	r3, #29
    1d2e:	d001      	beq.n	1d34 <__sflush_r+0xb8>
    1d30:	2b16      	cmp	r3, #22
    1d32:	d101      	bne.n	1d38 <__sflush_r+0xbc>
    1d34:	602e      	str	r6, [r5, #0]
    1d36:	e7ad      	b.n	1c94 <__sflush_r+0x18>
    1d38:	2340      	movs	r3, #64	; 0x40
    1d3a:	89a2      	ldrh	r2, [r4, #12]
    1d3c:	4313      	orrs	r3, r2
    1d3e:	81a3      	strh	r3, [r4, #12]
    1d40:	e7a9      	b.n	1c96 <__sflush_r+0x1a>
    1d42:	2340      	movs	r3, #64	; 0x40
    1d44:	430b      	orrs	r3, r1
    1d46:	e7fa      	b.n	1d3e <__sflush_r+0xc2>
    1d48:	690f      	ldr	r7, [r1, #16]
    1d4a:	2f00      	cmp	r7, #0
    1d4c:	d0a2      	beq.n	1c94 <__sflush_r+0x18>
    1d4e:	680a      	ldr	r2, [r1, #0]
    1d50:	600f      	str	r7, [r1, #0]
    1d52:	1bd2      	subs	r2, r2, r7
    1d54:	9201      	str	r2, [sp, #4]
    1d56:	2200      	movs	r2, #0
    1d58:	079b      	lsls	r3, r3, #30
    1d5a:	d100      	bne.n	1d5e <__sflush_r+0xe2>
    1d5c:	694a      	ldr	r2, [r1, #20]
    1d5e:	60a2      	str	r2, [r4, #8]
    1d60:	9b01      	ldr	r3, [sp, #4]
    1d62:	2b00      	cmp	r3, #0
    1d64:	dc00      	bgt.n	1d68 <__sflush_r+0xec>
    1d66:	e795      	b.n	1c94 <__sflush_r+0x18>
    1d68:	003a      	movs	r2, r7
    1d6a:	0028      	movs	r0, r5
    1d6c:	9b01      	ldr	r3, [sp, #4]
    1d6e:	6a21      	ldr	r1, [r4, #32]
    1d70:	6aa6      	ldr	r6, [r4, #40]	; 0x28
    1d72:	47b0      	blx	r6
    1d74:	2800      	cmp	r0, #0
    1d76:	dc06      	bgt.n	1d86 <__sflush_r+0x10a>
    1d78:	2340      	movs	r3, #64	; 0x40
    1d7a:	2001      	movs	r0, #1
    1d7c:	89a2      	ldrh	r2, [r4, #12]
    1d7e:	4240      	negs	r0, r0
    1d80:	4313      	orrs	r3, r2
    1d82:	81a3      	strh	r3, [r4, #12]
    1d84:	e787      	b.n	1c96 <__sflush_r+0x1a>
    1d86:	9b01      	ldr	r3, [sp, #4]
    1d88:	183f      	adds	r7, r7, r0
    1d8a:	1a1b      	subs	r3, r3, r0
    1d8c:	9301      	str	r3, [sp, #4]
    1d8e:	e7e7      	b.n	1d60 <__sflush_r+0xe4>
    1d90:	20400001 	.word	0x20400001

00001d94 <_fflush_r>:
    1d94:	690b      	ldr	r3, [r1, #16]
    1d96:	b570      	push	{r4, r5, r6, lr}
    1d98:	0005      	movs	r5, r0
    1d9a:	000c      	movs	r4, r1
    1d9c:	2b00      	cmp	r3, #0
    1d9e:	d102      	bne.n	1da6 <_fflush_r+0x12>
    1da0:	2500      	movs	r5, #0
    1da2:	0028      	movs	r0, r5
    1da4:	bd70      	pop	{r4, r5, r6, pc}
    1da6:	2800      	cmp	r0, #0
    1da8:	d004      	beq.n	1db4 <_fflush_r+0x20>
    1daa:	6983      	ldr	r3, [r0, #24]
    1dac:	2b00      	cmp	r3, #0
    1dae:	d101      	bne.n	1db4 <_fflush_r+0x20>
    1db0:	f7ff fa2c 	bl	120c <__sinit>
    1db4:	4b14      	ldr	r3, [pc, #80]	; (1e08 <_fflush_r+0x74>)
    1db6:	429c      	cmp	r4, r3
    1db8:	d11b      	bne.n	1df2 <_fflush_r+0x5e>
    1dba:	686c      	ldr	r4, [r5, #4]
    1dbc:	220c      	movs	r2, #12
    1dbe:	5ea3      	ldrsh	r3, [r4, r2]
    1dc0:	2b00      	cmp	r3, #0
    1dc2:	d0ed      	beq.n	1da0 <_fflush_r+0xc>
    1dc4:	6e62      	ldr	r2, [r4, #100]	; 0x64
    1dc6:	07d2      	lsls	r2, r2, #31
    1dc8:	d404      	bmi.n	1dd4 <_fflush_r+0x40>
    1dca:	059b      	lsls	r3, r3, #22
    1dcc:	d402      	bmi.n	1dd4 <_fflush_r+0x40>
    1dce:	6da0      	ldr	r0, [r4, #88]	; 0x58
    1dd0:	f7ff fabd 	bl	134e <__retarget_lock_acquire_recursive>
    1dd4:	0028      	movs	r0, r5
    1dd6:	0021      	movs	r1, r4
    1dd8:	f7ff ff50 	bl	1c7c <__sflush_r>
    1ddc:	6e63      	ldr	r3, [r4, #100]	; 0x64
    1dde:	0005      	movs	r5, r0
    1de0:	07db      	lsls	r3, r3, #31
    1de2:	d4de      	bmi.n	1da2 <_fflush_r+0xe>
    1de4:	89a3      	ldrh	r3, [r4, #12]
    1de6:	059b      	lsls	r3, r3, #22
    1de8:	d4db      	bmi.n	1da2 <_fflush_r+0xe>
    1dea:	6da0      	ldr	r0, [r4, #88]	; 0x58
    1dec:	f7ff fab0 	bl	1350 <__retarget_lock_release_recursive>
    1df0:	e7d7      	b.n	1da2 <_fflush_r+0xe>
    1df2:	4b06      	ldr	r3, [pc, #24]	; (1e0c <_fflush_r+0x78>)
    1df4:	429c      	cmp	r4, r3
    1df6:	d101      	bne.n	1dfc <_fflush_r+0x68>
    1df8:	68ac      	ldr	r4, [r5, #8]
    1dfa:	e7df      	b.n	1dbc <_fflush_r+0x28>
    1dfc:	4b04      	ldr	r3, [pc, #16]	; (1e10 <_fflush_r+0x7c>)
    1dfe:	429c      	cmp	r4, r3
    1e00:	d1dc      	bne.n	1dbc <_fflush_r+0x28>
    1e02:	68ec      	ldr	r4, [r5, #12]
    1e04:	e7da      	b.n	1dbc <_fflush_r+0x28>
    1e06:	46c0      	nop			; (mov r8, r8)
    1e08:	00002150 	.word	0x00002150
    1e0c:	00002170 	.word	0x00002170
    1e10:	00002130 	.word	0x00002130

00001e14 <_lseek_r>:
    1e14:	b570      	push	{r4, r5, r6, lr}
    1e16:	0004      	movs	r4, r0
    1e18:	0008      	movs	r0, r1
    1e1a:	0011      	movs	r1, r2
    1e1c:	001a      	movs	r2, r3
    1e1e:	2300      	movs	r3, #0
    1e20:	4d05      	ldr	r5, [pc, #20]	; (1e38 <_lseek_r+0x24>)
    1e22:	602b      	str	r3, [r5, #0]
    1e24:	f7fe f9c2 	bl	1ac <_lseek>
    1e28:	1c43      	adds	r3, r0, #1
    1e2a:	d103      	bne.n	1e34 <_lseek_r+0x20>
    1e2c:	682b      	ldr	r3, [r5, #0]
    1e2e:	2b00      	cmp	r3, #0
    1e30:	d000      	beq.n	1e34 <_lseek_r+0x20>
    1e32:	6023      	str	r3, [r4, #0]
    1e34:	bd70      	pop	{r4, r5, r6, pc}
    1e36:	46c0      	nop			; (mov r8, r8)
    1e38:	20000120 	.word	0x20000120

00001e3c <__swhatbuf_r>:
    1e3c:	b570      	push	{r4, r5, r6, lr}
    1e3e:	000e      	movs	r6, r1
    1e40:	001d      	movs	r5, r3
    1e42:	230e      	movs	r3, #14
    1e44:	5ec9      	ldrsh	r1, [r1, r3]
    1e46:	0014      	movs	r4, r2
    1e48:	b096      	sub	sp, #88	; 0x58
    1e4a:	2900      	cmp	r1, #0
    1e4c:	da07      	bge.n	1e5e <__swhatbuf_r+0x22>
    1e4e:	2300      	movs	r3, #0
    1e50:	602b      	str	r3, [r5, #0]
    1e52:	89b3      	ldrh	r3, [r6, #12]
    1e54:	061b      	lsls	r3, r3, #24
    1e56:	d411      	bmi.n	1e7c <__swhatbuf_r+0x40>
    1e58:	2380      	movs	r3, #128	; 0x80
    1e5a:	00db      	lsls	r3, r3, #3
    1e5c:	e00f      	b.n	1e7e <__swhatbuf_r+0x42>
    1e5e:	466a      	mov	r2, sp
    1e60:	f000 f8d2 	bl	2008 <_fstat_r>
    1e64:	2800      	cmp	r0, #0
    1e66:	dbf2      	blt.n	1e4e <__swhatbuf_r+0x12>
    1e68:	23f0      	movs	r3, #240	; 0xf0
    1e6a:	9901      	ldr	r1, [sp, #4]
    1e6c:	021b      	lsls	r3, r3, #8
    1e6e:	4019      	ands	r1, r3
    1e70:	4b05      	ldr	r3, [pc, #20]	; (1e88 <__swhatbuf_r+0x4c>)
    1e72:	18c9      	adds	r1, r1, r3
    1e74:	424b      	negs	r3, r1
    1e76:	4159      	adcs	r1, r3
    1e78:	6029      	str	r1, [r5, #0]
    1e7a:	e7ed      	b.n	1e58 <__swhatbuf_r+0x1c>
    1e7c:	2340      	movs	r3, #64	; 0x40
    1e7e:	2000      	movs	r0, #0
    1e80:	6023      	str	r3, [r4, #0]
    1e82:	b016      	add	sp, #88	; 0x58
    1e84:	bd70      	pop	{r4, r5, r6, pc}
    1e86:	46c0      	nop			; (mov r8, r8)
    1e88:	ffffe000 	.word	0xffffe000

00001e8c <__smakebuf_r>:
    1e8c:	b5f7      	push	{r0, r1, r2, r4, r5, r6, r7, lr}
    1e8e:	2602      	movs	r6, #2
    1e90:	898b      	ldrh	r3, [r1, #12]
    1e92:	0005      	movs	r5, r0
    1e94:	000c      	movs	r4, r1
    1e96:	4233      	tst	r3, r6
    1e98:	d006      	beq.n	1ea8 <__smakebuf_r+0x1c>
    1e9a:	0023      	movs	r3, r4
    1e9c:	3347      	adds	r3, #71	; 0x47
    1e9e:	6023      	str	r3, [r4, #0]
    1ea0:	6123      	str	r3, [r4, #16]
    1ea2:	2301      	movs	r3, #1
    1ea4:	6163      	str	r3, [r4, #20]
    1ea6:	bdf7      	pop	{r0, r1, r2, r4, r5, r6, r7, pc}
    1ea8:	466a      	mov	r2, sp
    1eaa:	ab01      	add	r3, sp, #4
    1eac:	f7ff ffc6 	bl	1e3c <__swhatbuf_r>
    1eb0:	9900      	ldr	r1, [sp, #0]
    1eb2:	0007      	movs	r7, r0
    1eb4:	0028      	movs	r0, r5
    1eb6:	f7ff fa4d 	bl	1354 <_malloc_r>
    1eba:	2800      	cmp	r0, #0
    1ebc:	d108      	bne.n	1ed0 <__smakebuf_r+0x44>
    1ebe:	220c      	movs	r2, #12
    1ec0:	5ea3      	ldrsh	r3, [r4, r2]
    1ec2:	059a      	lsls	r2, r3, #22
    1ec4:	d4ef      	bmi.n	1ea6 <__smakebuf_r+0x1a>
    1ec6:	2203      	movs	r2, #3
    1ec8:	4393      	bics	r3, r2
    1eca:	431e      	orrs	r6, r3
    1ecc:	81a6      	strh	r6, [r4, #12]
    1ece:	e7e4      	b.n	1e9a <__smakebuf_r+0xe>
    1ed0:	4b0f      	ldr	r3, [pc, #60]	; (1f10 <__smakebuf_r+0x84>)
    1ed2:	62ab      	str	r3, [r5, #40]	; 0x28
    1ed4:	2380      	movs	r3, #128	; 0x80
    1ed6:	89a2      	ldrh	r2, [r4, #12]
    1ed8:	6020      	str	r0, [r4, #0]
    1eda:	4313      	orrs	r3, r2
    1edc:	81a3      	strh	r3, [r4, #12]
    1ede:	9b00      	ldr	r3, [sp, #0]
    1ee0:	6120      	str	r0, [r4, #16]
    1ee2:	6163      	str	r3, [r4, #20]
    1ee4:	9b01      	ldr	r3, [sp, #4]
    1ee6:	2b00      	cmp	r3, #0
    1ee8:	d00d      	beq.n	1f06 <__smakebuf_r+0x7a>
    1eea:	0028      	movs	r0, r5
    1eec:	230e      	movs	r3, #14
    1eee:	5ee1      	ldrsh	r1, [r4, r3]
    1ef0:	f000 f89c 	bl	202c <_isatty_r>
    1ef4:	2800      	cmp	r0, #0
    1ef6:	d006      	beq.n	1f06 <__smakebuf_r+0x7a>
    1ef8:	2203      	movs	r2, #3
    1efa:	89a3      	ldrh	r3, [r4, #12]
    1efc:	4393      	bics	r3, r2
    1efe:	001a      	movs	r2, r3
    1f00:	2301      	movs	r3, #1
    1f02:	4313      	orrs	r3, r2
    1f04:	81a3      	strh	r3, [r4, #12]
    1f06:	89a0      	ldrh	r0, [r4, #12]
    1f08:	4307      	orrs	r7, r0
    1f0a:	81a7      	strh	r7, [r4, #12]
    1f0c:	e7cb      	b.n	1ea6 <__smakebuf_r+0x1a>
    1f0e:	46c0      	nop			; (mov r8, r8)
    1f10:	00001191 	.word	0x00001191

00001f14 <memchr>:
    1f14:	b2c9      	uxtb	r1, r1
    1f16:	1882      	adds	r2, r0, r2
    1f18:	4290      	cmp	r0, r2
    1f1a:	d101      	bne.n	1f20 <memchr+0xc>
    1f1c:	2000      	movs	r0, #0
    1f1e:	4770      	bx	lr
    1f20:	7803      	ldrb	r3, [r0, #0]
    1f22:	428b      	cmp	r3, r1
    1f24:	d0fb      	beq.n	1f1e <memchr+0xa>
    1f26:	3001      	adds	r0, #1
    1f28:	e7f6      	b.n	1f18 <memchr+0x4>
	...

00001f2c <__malloc_lock>:
    1f2c:	b510      	push	{r4, lr}
    1f2e:	4802      	ldr	r0, [pc, #8]	; (1f38 <__malloc_lock+0xc>)
    1f30:	f7ff fa0d 	bl	134e <__retarget_lock_acquire_recursive>
    1f34:	bd10      	pop	{r4, pc}
    1f36:	46c0      	nop			; (mov r8, r8)
    1f38:	20000118 	.word	0x20000118

00001f3c <__malloc_unlock>:
    1f3c:	b510      	push	{r4, lr}
    1f3e:	4802      	ldr	r0, [pc, #8]	; (1f48 <__malloc_unlock+0xc>)
    1f40:	f7ff fa06 	bl	1350 <__retarget_lock_release_recursive>
    1f44:	bd10      	pop	{r4, pc}
    1f46:	46c0      	nop			; (mov r8, r8)
    1f48:	20000118 	.word	0x20000118

00001f4c <_free_r>:
    1f4c:	b570      	push	{r4, r5, r6, lr}
    1f4e:	0005      	movs	r5, r0
    1f50:	2900      	cmp	r1, #0
    1f52:	d010      	beq.n	1f76 <_free_r+0x2a>
    1f54:	1f0c      	subs	r4, r1, #4
    1f56:	6823      	ldr	r3, [r4, #0]
    1f58:	2b00      	cmp	r3, #0
    1f5a:	da00      	bge.n	1f5e <_free_r+0x12>
    1f5c:	18e4      	adds	r4, r4, r3
    1f5e:	0028      	movs	r0, r5
    1f60:	f7ff ffe4 	bl	1f2c <__malloc_lock>
    1f64:	4a1d      	ldr	r2, [pc, #116]	; (1fdc <_free_r+0x90>)
    1f66:	6813      	ldr	r3, [r2, #0]
    1f68:	2b00      	cmp	r3, #0
    1f6a:	d105      	bne.n	1f78 <_free_r+0x2c>
    1f6c:	6063      	str	r3, [r4, #4]
    1f6e:	6014      	str	r4, [r2, #0]
    1f70:	0028      	movs	r0, r5
    1f72:	f7ff ffe3 	bl	1f3c <__malloc_unlock>
    1f76:	bd70      	pop	{r4, r5, r6, pc}
    1f78:	42a3      	cmp	r3, r4
    1f7a:	d908      	bls.n	1f8e <_free_r+0x42>
    1f7c:	6821      	ldr	r1, [r4, #0]
    1f7e:	1860      	adds	r0, r4, r1
    1f80:	4283      	cmp	r3, r0
    1f82:	d1f3      	bne.n	1f6c <_free_r+0x20>
    1f84:	6818      	ldr	r0, [r3, #0]
    1f86:	685b      	ldr	r3, [r3, #4]
    1f88:	1841      	adds	r1, r0, r1
    1f8a:	6021      	str	r1, [r4, #0]
    1f8c:	e7ee      	b.n	1f6c <_free_r+0x20>
    1f8e:	001a      	movs	r2, r3
    1f90:	685b      	ldr	r3, [r3, #4]
    1f92:	2b00      	cmp	r3, #0
    1f94:	d001      	beq.n	1f9a <_free_r+0x4e>
    1f96:	42a3      	cmp	r3, r4
    1f98:	d9f9      	bls.n	1f8e <_free_r+0x42>
    1f9a:	6811      	ldr	r1, [r2, #0]
    1f9c:	1850      	adds	r0, r2, r1
    1f9e:	42a0      	cmp	r0, r4
    1fa0:	d10b      	bne.n	1fba <_free_r+0x6e>
    1fa2:	6820      	ldr	r0, [r4, #0]
    1fa4:	1809      	adds	r1, r1, r0
    1fa6:	1850      	adds	r0, r2, r1
    1fa8:	6011      	str	r1, [r2, #0]
    1faa:	4283      	cmp	r3, r0
    1fac:	d1e0      	bne.n	1f70 <_free_r+0x24>
    1fae:	6818      	ldr	r0, [r3, #0]
    1fb0:	685b      	ldr	r3, [r3, #4]
    1fb2:	1841      	adds	r1, r0, r1
    1fb4:	6011      	str	r1, [r2, #0]
    1fb6:	6053      	str	r3, [r2, #4]
    1fb8:	e7da      	b.n	1f70 <_free_r+0x24>
    1fba:	42a0      	cmp	r0, r4
    1fbc:	d902      	bls.n	1fc4 <_free_r+0x78>
    1fbe:	230c      	movs	r3, #12
    1fc0:	602b      	str	r3, [r5, #0]
    1fc2:	e7d5      	b.n	1f70 <_free_r+0x24>
    1fc4:	6821      	ldr	r1, [r4, #0]
    1fc6:	1860      	adds	r0, r4, r1
    1fc8:	4283      	cmp	r3, r0
    1fca:	d103      	bne.n	1fd4 <_free_r+0x88>
    1fcc:	6818      	ldr	r0, [r3, #0]
    1fce:	685b      	ldr	r3, [r3, #4]
    1fd0:	1841      	adds	r1, r0, r1
    1fd2:	6021      	str	r1, [r4, #0]
    1fd4:	6063      	str	r3, [r4, #4]
    1fd6:	6054      	str	r4, [r2, #4]
    1fd8:	e7ca      	b.n	1f70 <_free_r+0x24>
    1fda:	46c0      	nop			; (mov r8, r8)
    1fdc:	2000009c 	.word	0x2000009c

00001fe0 <_read_r>:
    1fe0:	b570      	push	{r4, r5, r6, lr}
    1fe2:	0004      	movs	r4, r0
    1fe4:	0008      	movs	r0, r1
    1fe6:	0011      	movs	r1, r2
    1fe8:	001a      	movs	r2, r3
    1fea:	2300      	movs	r3, #0
    1fec:	4d05      	ldr	r5, [pc, #20]	; (2004 <STACK_SIZE+0x4>)
    1fee:	602b      	str	r3, [r5, #0]
    1ff0:	f7fe fa28 	bl	444 <_read>
    1ff4:	1c43      	adds	r3, r0, #1
    1ff6:	d103      	bne.n	2000 <STACK_SIZE>
    1ff8:	682b      	ldr	r3, [r5, #0]
    1ffa:	2b00      	cmp	r3, #0
    1ffc:	d000      	beq.n	2000 <STACK_SIZE>
    1ffe:	6023      	str	r3, [r4, #0]
    2000:	bd70      	pop	{r4, r5, r6, pc}
    2002:	46c0      	nop			; (mov r8, r8)
    2004:	20000120 	.word	0x20000120

00002008 <_fstat_r>:
    2008:	2300      	movs	r3, #0
    200a:	b570      	push	{r4, r5, r6, lr}
    200c:	4d06      	ldr	r5, [pc, #24]	; (2028 <_fstat_r+0x20>)
    200e:	0004      	movs	r4, r0
    2010:	0008      	movs	r0, r1
    2012:	0011      	movs	r1, r2
    2014:	602b      	str	r3, [r5, #0]
    2016:	f7fe f8c2 	bl	19e <_fstat>
    201a:	1c43      	adds	r3, r0, #1
    201c:	d103      	bne.n	2026 <_fstat_r+0x1e>
    201e:	682b      	ldr	r3, [r5, #0]
    2020:	2b00      	cmp	r3, #0
    2022:	d000      	beq.n	2026 <_fstat_r+0x1e>
    2024:	6023      	str	r3, [r4, #0]
    2026:	bd70      	pop	{r4, r5, r6, pc}
    2028:	20000120 	.word	0x20000120

0000202c <_isatty_r>:
    202c:	2300      	movs	r3, #0
    202e:	b570      	push	{r4, r5, r6, lr}
    2030:	4d06      	ldr	r5, [pc, #24]	; (204c <_isatty_r+0x20>)
    2032:	0004      	movs	r4, r0
    2034:	0008      	movs	r0, r1
    2036:	602b      	str	r3, [r5, #0]
    2038:	f7fe f8b6 	bl	1a8 <_isatty>
    203c:	1c43      	adds	r3, r0, #1
    203e:	d103      	bne.n	2048 <_isatty_r+0x1c>
    2040:	682b      	ldr	r3, [r5, #0]
    2042:	2b00      	cmp	r3, #0
    2044:	d000      	beq.n	2048 <_isatty_r+0x1c>
    2046:	6023      	str	r3, [r4, #0]
    2048:	bd70      	pop	{r4, r5, r6, pc}
    204a:	46c0      	nop			; (mov r8, r8)
    204c:	20000120 	.word	0x20000120

00002050 <__gnu_thumb1_case_shi>:
    2050:	b403      	push	{r0, r1}
    2052:	4671      	mov	r1, lr
    2054:	0849      	lsrs	r1, r1, #1
    2056:	0040      	lsls	r0, r0, #1
    2058:	0049      	lsls	r1, r1, #1
    205a:	5e09      	ldrsh	r1, [r1, r0]
    205c:	0049      	lsls	r1, r1, #1
    205e:	448e      	add	lr, r1
    2060:	bc03      	pop	{r0, r1}
    2062:	4770      	bx	lr
    2064:	682f2e2e 	.word	0x682f2e2e
    2068:	732f6c61 	.word	0x732f6c61
    206c:	682f6372 	.word	0x682f6372
    2070:	695f6c61 	.word	0x695f6c61
    2074:	00632e6f 	.word	0x00632e6f
    2078:	682f2e2e 	.word	0x682f2e2e
    207c:	732f6c61 	.word	0x732f6c61
    2080:	682f6372 	.word	0x682f6372
    2084:	735f6c61 	.word	0x735f6c61
    2088:	6d5f6970 	.word	0x6d5f6970
    208c:	6e79735f 	.word	0x6e79735f
    2090:	00632e63 	.word	0x00632e63
    2094:	20544f47 	.word	0x20544f47
    2098:	3025203a 	.word	0x3025203a
    209c:	000a7832 	.word	0x000a7832
    20a0:	0081      	.short	0x0081
    20a2:	00          	.byte	0x00
    20a3:	2e          	.byte	0x2e
    20a4:	61682f2e 	.word	0x61682f2e
    20a8:	72732f6c 	.word	0x72732f6c
    20ac:	61682f63 	.word	0x61682f63
    20b0:	73755f6c 	.word	0x73755f6c
    20b4:	5f747261 	.word	0x5f747261
    20b8:	6e797361 	.word	0x6e797361
    20bc:	00632e63 	.word	0x00632e63
    20c0:	682f2e2e 	.word	0x682f2e2e
    20c4:	732f6c70 	.word	0x732f6c70
    20c8:	6f637265 	.word	0x6f637265
    20cc:	70682f6d 	.word	0x70682f6d
    20d0:	65735f6c 	.word	0x65735f6c
    20d4:	6d6f6372 	.word	0x6d6f6372
    20d8:	0000632e 	.word	0x0000632e

000020dc <_i2cms>:
	...

000020f4 <sercomspi_regs>:
    20f4:	1001000c 00020000 00000000 01ff0003     ................
    2104:	2f2e2e01 2f6c6168 6c697475 72732f73     .../hal/utils/sr
    2114:	74752f63 5f736c69 676e6972 66667562     c/utils_ringbuff
    2124:	632e7265 00000000                       er.c....

0000212c <_global_impure_ptr>:
    212c:	20000004                                ... 

00002130 <__sf_fake_stderr>:
	...

00002150 <__sf_fake_stdin>:
	...

00002170 <__sf_fake_stdout>:
	...
    2190:	2b302d23 6c680020 6665004c 47464567     #-0+ .hlL.efgEFG
    21a0:	32313000 36353433 41393837 45444342     .0123456789ABCDE
    21b0:	31300046 35343332 39383736 64636261     F.0123456789abcd
    21c0:	00006665                                ef..

000021c4 <_init>:
    21c4:	b5f8      	push	{r3, r4, r5, r6, r7, lr}
    21c6:	46c0      	nop			; (mov r8, r8)
    21c8:	bcf8      	pop	{r3, r4, r5, r6, r7}
    21ca:	bc08      	pop	{r3}
    21cc:	469e      	mov	lr, r3
    21ce:	4770      	bx	lr

000021d0 <__init_array_start>:
    21d0:	000000e5 	.word	0x000000e5

000021d4 <_fini>:
    21d4:	b5f8      	push	{r3, r4, r5, r6, r7, lr}
    21d6:	46c0      	nop			; (mov r8, r8)
    21d8:	bcf8      	pop	{r3, r4, r5, r6, r7}
    21da:	bc08      	pop	{r3}
    21dc:	469e      	mov	lr, r3
    21de:	4770      	bx	lr

000021e0 <__fini_array_start>:
    21e0:	000000bd 	.word	0x000000bd
