Archive member included to satisfy reference by file (symbol)

/usr/local/Cellar/arm-gcc-bin/9-2019-q4-major/bin/../lib/gcc/arm-none-eabi/9.2.1/thumb/v6-m/nofp/libgcc.a(_aeabi_ldivmod.o)
                              hpl/sercom/hpl_sercom.o (__aeabi_ldivmod)
/usr/local/Cellar/arm-gcc-bin/9-2019-q4-major/bin/../lib/gcc/arm-none-eabi/9.2.1/thumb/v6-m/nofp/libgcc.a(_aeabi_uldivmod.o)
                              hpl/sercom/hpl_sercom.o (__aeabi_uldivmod)
/usr/local/Cellar/arm-gcc-bin/9-2019-q4-major/bin/../lib/gcc/arm-none-eabi/9.2.1/thumb/v6-m/nofp/libgcc.a(_muldi3.o)
                              hpl/sercom/hpl_sercom.o (__aeabi_lmul)
/usr/local/Cellar/arm-gcc-bin/9-2019-q4-major/bin/../lib/gcc/arm-none-eabi/9.2.1/thumb/v6-m/nofp/libgcc.a(_fixunsdfsi.o)
                              hpl/sercom/hpl_sercom.o (__aeabi_d2uiz)
/usr/local/Cellar/arm-gcc-bin/9-2019-q4-major/bin/../lib/gcc/arm-none-eabi/9.2.1/thumb/v6-m/nofp/libgcc.a(_udivmoddi4.o)
                              /usr/local/Cellar/arm-gcc-bin/9-2019-q4-major/bin/../lib/gcc/arm-none-eabi/9.2.1/thumb/v6-m/nofp/libgcc.a(_aeabi_uldivmod.o) (__udivmoddi4)
/usr/local/Cellar/arm-gcc-bin/9-2019-q4-major/bin/../lib/gcc/arm-none-eabi/9.2.1/thumb/v6-m/nofp/libgcc.a(bpabi.o)
                              /usr/local/Cellar/arm-gcc-bin/9-2019-q4-major/bin/../lib/gcc/arm-none-eabi/9.2.1/thumb/v6-m/nofp/libgcc.a(_aeabi_ldivmod.o) (__gnu_ldivmod_helper)
/usr/local/Cellar/arm-gcc-bin/9-2019-q4-major/bin/../lib/gcc/arm-none-eabi/9.2.1/thumb/v6-m/nofp/libgcc.a(divdf3.o)
                              hpl/sercom/hpl_sercom.o (__aeabi_ddiv)
/usr/local/Cellar/arm-gcc-bin/9-2019-q4-major/bin/../lib/gcc/arm-none-eabi/9.2.1/thumb/v6-m/nofp/libgcc.a(muldf3.o)
                              hpl/sercom/hpl_sercom.o (__aeabi_dmul)
/usr/local/Cellar/arm-gcc-bin/9-2019-q4-major/bin/../lib/gcc/arm-none-eabi/9.2.1/thumb/v6-m/nofp/libgcc.a(subdf3.o)
                              hpl/sercom/hpl_sercom.o (__aeabi_dsub)
/usr/local/Cellar/arm-gcc-bin/9-2019-q4-major/bin/../lib/gcc/arm-none-eabi/9.2.1/thumb/v6-m/nofp/libgcc.a(fixdfsi.o)
                              /usr/local/Cellar/arm-gcc-bin/9-2019-q4-major/bin/../lib/gcc/arm-none-eabi/9.2.1/thumb/v6-m/nofp/libgcc.a(_fixunsdfsi.o) (__aeabi_d2iz)
/usr/local/Cellar/arm-gcc-bin/9-2019-q4-major/bin/../lib/gcc/arm-none-eabi/9.2.1/thumb/v6-m/nofp/libgcc.a(floatsidf.o)
                              hpl/sercom/hpl_sercom.o (__aeabi_i2d)
/usr/local/Cellar/arm-gcc-bin/9-2019-q4-major/bin/../lib/gcc/arm-none-eabi/9.2.1/thumb/v6-m/nofp/libgcc.a(floatunsidf.o)
                              hpl/sercom/hpl_sercom.o (__aeabi_ui2d)
/usr/local/Cellar/arm-gcc-bin/9-2019-q4-major/bin/../lib/gcc/arm-none-eabi/9.2.1/thumb/v6-m/nofp/libgcc.a(_dvmd_tls.o)
                              /usr/local/Cellar/arm-gcc-bin/9-2019-q4-major/bin/../lib/gcc/arm-none-eabi/9.2.1/thumb/v6-m/nofp/libgcc.a(_aeabi_ldivmod.o) (__aeabi_ldiv0)
/usr/local/Cellar/arm-gcc-bin/9-2019-q4-major/bin/../lib/gcc/arm-none-eabi/9.2.1/thumb/v6-m/nofp/libgcc.a(_arm_cmpdf2.o)
                              /usr/local/Cellar/arm-gcc-bin/9-2019-q4-major/bin/../lib/gcc/arm-none-eabi/9.2.1/thumb/v6-m/nofp/libgcc.a(_fixunsdfsi.o) (__aeabi_dcmpge)
/usr/local/Cellar/arm-gcc-bin/9-2019-q4-major/bin/../lib/gcc/arm-none-eabi/9.2.1/thumb/v6-m/nofp/libgcc.a(_clzsi2.o)
                              /usr/local/Cellar/arm-gcc-bin/9-2019-q4-major/bin/../lib/gcc/arm-none-eabi/9.2.1/thumb/v6-m/nofp/libgcc.a(divdf3.o) (__clzsi2)
/usr/local/Cellar/arm-gcc-bin/9-2019-q4-major/bin/../lib/gcc/arm-none-eabi/9.2.1/thumb/v6-m/nofp/libgcc.a(_clzdi2.o)
                              /usr/local/Cellar/arm-gcc-bin/9-2019-q4-major/bin/../lib/gcc/arm-none-eabi/9.2.1/thumb/v6-m/nofp/libgcc.a(_udivmoddi4.o) (__clzdi2)
/usr/local/Cellar/arm-gcc-bin/9-2019-q4-major/bin/../lib/gcc/arm-none-eabi/9.2.1/thumb/v6-m/nofp/libgcc.a(_divdi3.o)
                              /usr/local/Cellar/arm-gcc-bin/9-2019-q4-major/bin/../lib/gcc/arm-none-eabi/9.2.1/thumb/v6-m/nofp/libgcc.a(bpabi.o) (__divdi3)
/usr/local/Cellar/arm-gcc-bin/9-2019-q4-major/bin/../lib/gcc/arm-none-eabi/9.2.1/thumb/v6-m/nofp/libgcc.a(eqdf2.o)
                              /usr/local/Cellar/arm-gcc-bin/9-2019-q4-major/bin/../lib/gcc/arm-none-eabi/9.2.1/thumb/v6-m/nofp/libgcc.a(_arm_cmpdf2.o) (__eqdf2)
/usr/local/Cellar/arm-gcc-bin/9-2019-q4-major/bin/../lib/gcc/arm-none-eabi/9.2.1/thumb/v6-m/nofp/libgcc.a(gedf2.o)
                              /usr/local/Cellar/arm-gcc-bin/9-2019-q4-major/bin/../lib/gcc/arm-none-eabi/9.2.1/thumb/v6-m/nofp/libgcc.a(_arm_cmpdf2.o) (__gedf2)
/usr/local/Cellar/arm-gcc-bin/9-2019-q4-major/bin/../lib/gcc/arm-none-eabi/9.2.1/thumb/v6-m/nofp/libgcc.a(ledf2.o)
                              /usr/local/Cellar/arm-gcc-bin/9-2019-q4-major/bin/../lib/gcc/arm-none-eabi/9.2.1/thumb/v6-m/nofp/libgcc.a(_arm_cmpdf2.o) (__ledf2)
/usr/local/Cellar/arm-gcc-bin/9-2019-q4-major/bin/../lib/gcc/arm-none-eabi/9.2.1/../../../../arm-none-eabi/lib/thumb/v6-m/nofp/libc_nano.a(lib_a-exit.o)
                              /usr/local/Cellar/arm-gcc-bin/9-2019-q4-major/bin/../lib/gcc/arm-none-eabi/9.2.1/../../../../arm-none-eabi/lib/thumb/v6-m/nofp/crt0.o (exit)
/usr/local/Cellar/arm-gcc-bin/9-2019-q4-major/bin/../lib/gcc/arm-none-eabi/9.2.1/../../../../arm-none-eabi/lib/thumb/v6-m/nofp/libc_nano.a(lib_a-impure.o)
                              /usr/local/Cellar/arm-gcc-bin/9-2019-q4-major/bin/../lib/gcc/arm-none-eabi/9.2.1/../../../../arm-none-eabi/lib/thumb/v6-m/nofp/libc_nano.a(lib_a-exit.o) (_global_impure_ptr)
/usr/local/Cellar/arm-gcc-bin/9-2019-q4-major/bin/../lib/gcc/arm-none-eabi/9.2.1/../../../../arm-none-eabi/lib/thumb/v6-m/nofp/libc_nano.a(lib_a-init.o)
                              /usr/local/Cellar/arm-gcc-bin/9-2019-q4-major/bin/../lib/gcc/arm-none-eabi/9.2.1/../../../../arm-none-eabi/lib/thumb/v6-m/nofp/crt0.o (__libc_init_array)
/usr/local/Cellar/arm-gcc-bin/9-2019-q4-major/bin/../lib/gcc/arm-none-eabi/9.2.1/../../../../arm-none-eabi/lib/thumb/v6-m/nofp/libc_nano.a(lib_a-memcpy-stub.o)
                              main.o (memcpy)
/usr/local/Cellar/arm-gcc-bin/9-2019-q4-major/bin/../lib/gcc/arm-none-eabi/9.2.1/../../../../arm-none-eabi/lib/thumb/v6-m/nofp/libc_nano.a(lib_a-memset.o)
                              /usr/local/Cellar/arm-gcc-bin/9-2019-q4-major/bin/../lib/gcc/arm-none-eabi/9.2.1/../../../../arm-none-eabi/lib/thumb/v6-m/nofp/crt0.o (memset)
/usr/local/Cellar/arm-gcc-bin/9-2019-q4-major/bin/../lib/gcc/arm-none-eabi/9.2.1/../../../../arm-none-eabi/lib/thumb/v6-m/nofp/libc_nano.a(lib_a-printf.o)
                              hal/utils/src/utils_syscalls.o (printf)
/usr/local/Cellar/arm-gcc-bin/9-2019-q4-major/bin/../lib/gcc/arm-none-eabi/9.2.1/../../../../arm-none-eabi/lib/thumb/v6-m/nofp/libc_nano.a(lib_a-findfp.o)
                              /usr/local/Cellar/arm-gcc-bin/9-2019-q4-major/bin/../lib/gcc/arm-none-eabi/9.2.1/../../../../arm-none-eabi/lib/thumb/v6-m/nofp/libc_nano.a(lib_a-printf.o) (__sinit)
/usr/local/Cellar/arm-gcc-bin/9-2019-q4-major/bin/../lib/gcc/arm-none-eabi/9.2.1/../../../../arm-none-eabi/lib/thumb/v6-m/nofp/libc_nano.a(lib_a-fwalk.o)
                              /usr/local/Cellar/arm-gcc-bin/9-2019-q4-major/bin/../lib/gcc/arm-none-eabi/9.2.1/../../../../arm-none-eabi/lib/thumb/v6-m/nofp/libc_nano.a(lib_a-findfp.o) (_fwalk)
/usr/local/Cellar/arm-gcc-bin/9-2019-q4-major/bin/../lib/gcc/arm-none-eabi/9.2.1/../../../../arm-none-eabi/lib/thumb/v6-m/nofp/libc_nano.a(lib_a-lock.o)
                              /usr/local/Cellar/arm-gcc-bin/9-2019-q4-major/bin/../lib/gcc/arm-none-eabi/9.2.1/../../../../arm-none-eabi/lib/thumb/v6-m/nofp/libc_nano.a(lib_a-findfp.o) (__retarget_lock_init_recursive)
/usr/local/Cellar/arm-gcc-bin/9-2019-q4-major/bin/../lib/gcc/arm-none-eabi/9.2.1/../../../../arm-none-eabi/lib/thumb/v6-m/nofp/libc_nano.a(lib_a-nano-mallocr.o)
                              /usr/local/Cellar/arm-gcc-bin/9-2019-q4-major/bin/../lib/gcc/arm-none-eabi/9.2.1/../../../../arm-none-eabi/lib/thumb/v6-m/nofp/libc_nano.a(lib_a-findfp.o) (_malloc_r)
/usr/local/Cellar/arm-gcc-bin/9-2019-q4-major/bin/../lib/gcc/arm-none-eabi/9.2.1/../../../../arm-none-eabi/lib/thumb/v6-m/nofp/libc_nano.a(lib_a-nano-vfprintf.o)
                              /usr/local/Cellar/arm-gcc-bin/9-2019-q4-major/bin/../lib/gcc/arm-none-eabi/9.2.1/../../../../arm-none-eabi/lib/thumb/v6-m/nofp/libc_nano.a(lib_a-printf.o) (_vfprintf_r)
/usr/local/Cellar/arm-gcc-bin/9-2019-q4-major/bin/../lib/gcc/arm-none-eabi/9.2.1/../../../../arm-none-eabi/lib/thumb/v6-m/nofp/libc_nano.a(lib_a-nano-vfprintf_i.o)
                              /usr/local/Cellar/arm-gcc-bin/9-2019-q4-major/bin/../lib/gcc/arm-none-eabi/9.2.1/../../../../arm-none-eabi/lib/thumb/v6-m/nofp/libc_nano.a(lib_a-nano-vfprintf.o) (_printf_i)
/usr/local/Cellar/arm-gcc-bin/9-2019-q4-major/bin/../lib/gcc/arm-none-eabi/9.2.1/../../../../arm-none-eabi/lib/thumb/v6-m/nofp/libc_nano.a(lib_a-sbrkr.o)
                              /usr/local/Cellar/arm-gcc-bin/9-2019-q4-major/bin/../lib/gcc/arm-none-eabi/9.2.1/../../../../arm-none-eabi/lib/thumb/v6-m/nofp/libc_nano.a(lib_a-nano-mallocr.o) (_sbrk_r)
/usr/local/Cellar/arm-gcc-bin/9-2019-q4-major/bin/../lib/gcc/arm-none-eabi/9.2.1/../../../../arm-none-eabi/lib/thumb/v6-m/nofp/libc_nano.a(lib_a-stdio.o)
                              /usr/local/Cellar/arm-gcc-bin/9-2019-q4-major/bin/../lib/gcc/arm-none-eabi/9.2.1/../../../../arm-none-eabi/lib/thumb/v6-m/nofp/libc_nano.a(lib_a-findfp.o) (__sread)
/usr/local/Cellar/arm-gcc-bin/9-2019-q4-major/bin/../lib/gcc/arm-none-eabi/9.2.1/../../../../arm-none-eabi/lib/thumb/v6-m/nofp/libc_nano.a(lib_a-wbuf.o)
                              /usr/local/Cellar/arm-gcc-bin/9-2019-q4-major/bin/../lib/gcc/arm-none-eabi/9.2.1/../../../../arm-none-eabi/lib/thumb/v6-m/nofp/libc_nano.a(lib_a-nano-vfprintf.o) (__swbuf_r)
/usr/local/Cellar/arm-gcc-bin/9-2019-q4-major/bin/../lib/gcc/arm-none-eabi/9.2.1/../../../../arm-none-eabi/lib/thumb/v6-m/nofp/libc_nano.a(lib_a-writer.o)
                              /usr/local/Cellar/arm-gcc-bin/9-2019-q4-major/bin/../lib/gcc/arm-none-eabi/9.2.1/../../../../arm-none-eabi/lib/thumb/v6-m/nofp/libc_nano.a(lib_a-stdio.o) (_write_r)
/usr/local/Cellar/arm-gcc-bin/9-2019-q4-major/bin/../lib/gcc/arm-none-eabi/9.2.1/../../../../arm-none-eabi/lib/thumb/v6-m/nofp/libc_nano.a(lib_a-wsetup.o)
                              /usr/local/Cellar/arm-gcc-bin/9-2019-q4-major/bin/../lib/gcc/arm-none-eabi/9.2.1/../../../../arm-none-eabi/lib/thumb/v6-m/nofp/libc_nano.a(lib_a-nano-vfprintf.o) (__swsetup_r)
/usr/local/Cellar/arm-gcc-bin/9-2019-q4-major/bin/../lib/gcc/arm-none-eabi/9.2.1/../../../../arm-none-eabi/lib/thumb/v6-m/nofp/libc_nano.a(lib_a-closer.o)
                              /usr/local/Cellar/arm-gcc-bin/9-2019-q4-major/bin/../lib/gcc/arm-none-eabi/9.2.1/../../../../arm-none-eabi/lib/thumb/v6-m/nofp/libc_nano.a(lib_a-stdio.o) (_close_r)
/usr/local/Cellar/arm-gcc-bin/9-2019-q4-major/bin/../lib/gcc/arm-none-eabi/9.2.1/../../../../arm-none-eabi/lib/thumb/v6-m/nofp/libc_nano.a(lib_a-fflush.o)
                              /usr/local/Cellar/arm-gcc-bin/9-2019-q4-major/bin/../lib/gcc/arm-none-eabi/9.2.1/../../../../arm-none-eabi/lib/thumb/v6-m/nofp/libc_nano.a(lib_a-findfp.o) (_fflush_r)
/usr/local/Cellar/arm-gcc-bin/9-2019-q4-major/bin/../lib/gcc/arm-none-eabi/9.2.1/../../../../arm-none-eabi/lib/thumb/v6-m/nofp/libc_nano.a(lib_a-fvwrite.o)
                              /usr/local/Cellar/arm-gcc-bin/9-2019-q4-major/bin/../lib/gcc/arm-none-eabi/9.2.1/../../../../arm-none-eabi/lib/thumb/v6-m/nofp/libc_nano.a(lib_a-nano-vfprintf.o) (__sfvwrite_r)
/usr/local/Cellar/arm-gcc-bin/9-2019-q4-major/bin/../lib/gcc/arm-none-eabi/9.2.1/../../../../arm-none-eabi/lib/thumb/v6-m/nofp/libc_nano.a(lib_a-lseekr.o)
                              /usr/local/Cellar/arm-gcc-bin/9-2019-q4-major/bin/../lib/gcc/arm-none-eabi/9.2.1/../../../../arm-none-eabi/lib/thumb/v6-m/nofp/libc_nano.a(lib_a-stdio.o) (_lseek_r)
/usr/local/Cellar/arm-gcc-bin/9-2019-q4-major/bin/../lib/gcc/arm-none-eabi/9.2.1/../../../../arm-none-eabi/lib/thumb/v6-m/nofp/libc_nano.a(lib_a-makebuf.o)
                              /usr/local/Cellar/arm-gcc-bin/9-2019-q4-major/bin/../lib/gcc/arm-none-eabi/9.2.1/../../../../arm-none-eabi/lib/thumb/v6-m/nofp/libc_nano.a(lib_a-wsetup.o) (__smakebuf_r)
/usr/local/Cellar/arm-gcc-bin/9-2019-q4-major/bin/../lib/gcc/arm-none-eabi/9.2.1/../../../../arm-none-eabi/lib/thumb/v6-m/nofp/libc_nano.a(lib_a-memchr-stub.o)
                              /usr/local/Cellar/arm-gcc-bin/9-2019-q4-major/bin/../lib/gcc/arm-none-eabi/9.2.1/../../../../arm-none-eabi/lib/thumb/v6-m/nofp/libc_nano.a(lib_a-nano-vfprintf.o) (memchr)
/usr/local/Cellar/arm-gcc-bin/9-2019-q4-major/bin/../lib/gcc/arm-none-eabi/9.2.1/../../../../arm-none-eabi/lib/thumb/v6-m/nofp/libc_nano.a(lib_a-memmove.o)
                              /usr/local/Cellar/arm-gcc-bin/9-2019-q4-major/bin/../lib/gcc/arm-none-eabi/9.2.1/../../../../arm-none-eabi/lib/thumb/v6-m/nofp/libc_nano.a(lib_a-fvwrite.o) (memmove)
/usr/local/Cellar/arm-gcc-bin/9-2019-q4-major/bin/../lib/gcc/arm-none-eabi/9.2.1/../../../../arm-none-eabi/lib/thumb/v6-m/nofp/libc_nano.a(lib_a-mlock.o)
                              /usr/local/Cellar/arm-gcc-bin/9-2019-q4-major/bin/../lib/gcc/arm-none-eabi/9.2.1/../../../../arm-none-eabi/lib/thumb/v6-m/nofp/libc_nano.a(lib_a-nano-mallocr.o) (__malloc_lock)
/usr/local/Cellar/arm-gcc-bin/9-2019-q4-major/bin/../lib/gcc/arm-none-eabi/9.2.1/../../../../arm-none-eabi/lib/thumb/v6-m/nofp/libc_nano.a(lib_a-nano-freer.o)
                              /usr/local/Cellar/arm-gcc-bin/9-2019-q4-major/bin/../lib/gcc/arm-none-eabi/9.2.1/../../../../arm-none-eabi/lib/thumb/v6-m/nofp/libc_nano.a(lib_a-wsetup.o) (_free_r)
/usr/local/Cellar/arm-gcc-bin/9-2019-q4-major/bin/../lib/gcc/arm-none-eabi/9.2.1/../../../../arm-none-eabi/lib/thumb/v6-m/nofp/libc_nano.a(lib_a-nano-reallocr.o)
                              /usr/local/Cellar/arm-gcc-bin/9-2019-q4-major/bin/../lib/gcc/arm-none-eabi/9.2.1/../../../../arm-none-eabi/lib/thumb/v6-m/nofp/libc_nano.a(lib_a-fvwrite.o) (_realloc_r)
/usr/local/Cellar/arm-gcc-bin/9-2019-q4-major/bin/../lib/gcc/arm-none-eabi/9.2.1/../../../../arm-none-eabi/lib/thumb/v6-m/nofp/libc_nano.a(lib_a-readr.o)
                              /usr/local/Cellar/arm-gcc-bin/9-2019-q4-major/bin/../lib/gcc/arm-none-eabi/9.2.1/../../../../arm-none-eabi/lib/thumb/v6-m/nofp/libc_nano.a(lib_a-stdio.o) (_read_r)
/usr/local/Cellar/arm-gcc-bin/9-2019-q4-major/bin/../lib/gcc/arm-none-eabi/9.2.1/../../../../arm-none-eabi/lib/thumb/v6-m/nofp/libc_nano.a(lib_a-reent.o)
                              /usr/local/Cellar/arm-gcc-bin/9-2019-q4-major/bin/../lib/gcc/arm-none-eabi/9.2.1/../../../../arm-none-eabi/lib/thumb/v6-m/nofp/libc_nano.a(lib_a-sbrkr.o) (errno)
/usr/local/Cellar/arm-gcc-bin/9-2019-q4-major/bin/../lib/gcc/arm-none-eabi/9.2.1/../../../../arm-none-eabi/lib/thumb/v6-m/nofp/libc_nano.a(lib_a-fstatr.o)
                              /usr/local/Cellar/arm-gcc-bin/9-2019-q4-major/bin/../lib/gcc/arm-none-eabi/9.2.1/../../../../arm-none-eabi/lib/thumb/v6-m/nofp/libc_nano.a(lib_a-makebuf.o) (_fstat_r)
/usr/local/Cellar/arm-gcc-bin/9-2019-q4-major/bin/../lib/gcc/arm-none-eabi/9.2.1/../../../../arm-none-eabi/lib/thumb/v6-m/nofp/libc_nano.a(lib_a-isattyr.o)
                              /usr/local/Cellar/arm-gcc-bin/9-2019-q4-major/bin/../lib/gcc/arm-none-eabi/9.2.1/../../../../arm-none-eabi/lib/thumb/v6-m/nofp/libc_nano.a(lib_a-makebuf.o) (_isatty_r)
/usr/local/Cellar/arm-gcc-bin/9-2019-q4-major/bin/../lib/gcc/arm-none-eabi/9.2.1/../../../../arm-none-eabi/lib/thumb/v6-m/nofp/libc_nano.a(lib_a-nano-msizer.o)
                              /usr/local/Cellar/arm-gcc-bin/9-2019-q4-major/bin/../lib/gcc/arm-none-eabi/9.2.1/../../../../arm-none-eabi/lib/thumb/v6-m/nofp/libc_nano.a(lib_a-nano-reallocr.o) (_malloc_usable_size_r)
/usr/local/Cellar/arm-gcc-bin/9-2019-q4-major/bin/../lib/gcc/arm-none-eabi/9.2.1/thumb/v6-m/nofp/libgcc.a(_thumb1_case_shi.o)
                              /usr/local/Cellar/arm-gcc-bin/9-2019-q4-major/bin/../lib/gcc/arm-none-eabi/9.2.1/../../../../arm-none-eabi/lib/thumb/v6-m/nofp/libc_nano.a(lib_a-nano-vfprintf_i.o) (__gnu_thumb1_case_shi)

Allocating common symbols
Common symbol       size              file

spi_master          0x4               main.o
uart_dbg            0x4               main.o
__lock___atexit_recursive_mutex
                    0x1               /usr/local/Cellar/arm-gcc-bin/9-2019-q4-major/bin/../lib/gcc/arm-none-eabi/9.2.1/../../../../arm-none-eabi/lib/thumb/v6-m/nofp/libc_nano.a(lib_a-lock.o)
__lock___arc4random_mutex
                    0x1               /usr/local/Cellar/arm-gcc-bin/9-2019-q4-major/bin/../lib/gcc/arm-none-eabi/9.2.1/../../../../arm-none-eabi/lib/thumb/v6-m/nofp/libc_nano.a(lib_a-lock.o)
UART_DBG            0x50              driver_init.o
errno               0x4               /usr/local/Cellar/arm-gcc-bin/9-2019-q4-major/bin/../lib/gcc/arm-none-eabi/9.2.1/../../../../arm-none-eabi/lib/thumb/v6-m/nofp/libc_nano.a(lib_a-reent.o)
SPI_MASTER          0x18              driver_init.o
__lock___env_recursive_mutex
                    0x1               /usr/local/Cellar/arm-gcc-bin/9-2019-q4-major/bin/../lib/gcc/arm-none-eabi/9.2.1/../../../../arm-none-eabi/lib/thumb/v6-m/nofp/libc_nano.a(lib_a-lock.o)
__lock___sinit_recursive_mutex
                    0x1               /usr/local/Cellar/arm-gcc-bin/9-2019-q4-major/bin/../lib/gcc/arm-none-eabi/9.2.1/../../../../arm-none-eabi/lib/thumb/v6-m/nofp/libc_nano.a(lib_a-lock.o)
__lock___malloc_recursive_mutex
                    0x1               /usr/local/Cellar/arm-gcc-bin/9-2019-q4-major/bin/../lib/gcc/arm-none-eabi/9.2.1/../../../../arm-none-eabi/lib/thumb/v6-m/nofp/libc_nano.a(lib_a-lock.o)
_irq_table          0x7c              hpl/core/hpl_core_m0plus_base.o
__lock___at_quick_exit_mutex
                    0x1               /usr/local/Cellar/arm-gcc-bin/9-2019-q4-major/bin/../lib/gcc/arm-none-eabi/9.2.1/../../../../arm-none-eabi/lib/thumb/v6-m/nofp/libc_nano.a(lib_a-lock.o)
__lock___dd_hash_mutex
                    0x1               /usr/local/Cellar/arm-gcc-bin/9-2019-q4-major/bin/../lib/gcc/arm-none-eabi/9.2.1/../../../../arm-none-eabi/lib/thumb/v6-m/nofp/libc_nano.a(lib_a-lock.o)
__lock___tz_mutex   0x1               /usr/local/Cellar/arm-gcc-bin/9-2019-q4-major/bin/../lib/gcc/arm-none-eabi/9.2.1/../../../../arm-none-eabi/lib/thumb/v6-m/nofp/libc_nano.a(lib_a-lock.o)
__lock___sfp_recursive_mutex
                    0x1               /usr/local/Cellar/arm-gcc-bin/9-2019-q4-major/bin/../lib/gcc/arm-none-eabi/9.2.1/../../../../arm-none-eabi/lib/thumb/v6-m/nofp/libc_nano.a(lib_a-lock.o)

Discarded input sections

 .text          0x0000000000000000        0x0 /usr/local/Cellar/arm-gcc-bin/9-2019-q4-major/bin/../lib/gcc/arm-none-eabi/9.2.1/thumb/v6-m/nofp/crti.o
 .data          0x0000000000000000        0x0 /usr/local/Cellar/arm-gcc-bin/9-2019-q4-major/bin/../lib/gcc/arm-none-eabi/9.2.1/thumb/v6-m/nofp/crti.o
 .bss           0x0000000000000000        0x0 /usr/local/Cellar/arm-gcc-bin/9-2019-q4-major/bin/../lib/gcc/arm-none-eabi/9.2.1/thumb/v6-m/nofp/crti.o
 .data          0x0000000000000000        0x4 /usr/local/Cellar/arm-gcc-bin/9-2019-q4-major/bin/../lib/gcc/arm-none-eabi/9.2.1/thumb/v6-m/nofp/crtbegin.o
 .text          0x0000000000000000       0x78 /usr/local/Cellar/arm-gcc-bin/9-2019-q4-major/bin/../lib/gcc/arm-none-eabi/9.2.1/../../../../arm-none-eabi/lib/thumb/v6-m/nofp/crt0.o
 .data          0x0000000000000000        0x0 /usr/local/Cellar/arm-gcc-bin/9-2019-q4-major/bin/../lib/gcc/arm-none-eabi/9.2.1/../../../../arm-none-eabi/lib/thumb/v6-m/nofp/crt0.o
 .bss           0x0000000000000000        0x0 /usr/local/Cellar/arm-gcc-bin/9-2019-q4-major/bin/../lib/gcc/arm-none-eabi/9.2.1/../../../../arm-none-eabi/lib/thumb/v6-m/nofp/crt0.o
 .ARM.extab     0x0000000000000000        0x0 /usr/local/Cellar/arm-gcc-bin/9-2019-q4-major/bin/../lib/gcc/arm-none-eabi/9.2.1/../../../../arm-none-eabi/lib/thumb/v6-m/nofp/crt0.o
 .ARM.exidx     0x0000000000000000        0x8 /usr/local/Cellar/arm-gcc-bin/9-2019-q4-major/bin/../lib/gcc/arm-none-eabi/9.2.1/../../../../arm-none-eabi/lib/thumb/v6-m/nofp/crt0.o
 .ARM.attributes
                0x0000000000000000       0x1b /usr/local/Cellar/arm-gcc-bin/9-2019-q4-major/bin/../lib/gcc/arm-none-eabi/9.2.1/../../../../arm-none-eabi/lib/thumb/v6-m/nofp/crt0.o
 .group         0x0000000000000000        0xc hal/src/hal_io.o
 .group         0x0000000000000000        0xc hal/src/hal_io.o
 .group         0x0000000000000000        0xc hal/src/hal_io.o
 .group         0x0000000000000000        0xc hal/src/hal_io.o
 .group         0x0000000000000000        0xc hal/src/hal_io.o
 .group         0x0000000000000000        0xc hal/src/hal_io.o
 .group         0x0000000000000000        0xc hal/src/hal_io.o
Memory Configuration

Name             Origin             Length             Attributes
rom              0x0000000000000000 0x0000000000040000 xr
ram              0x0000000020000000 0x0000000000008000 xrw
*default*        0x0000000000000000 0xffffffffffffffff

Linker script and memory map

LOAD /usr/local/Cellar/arm-gcc-bin/9-2019-q4-major/bin/../lib/gcc/arm-none-eabi/9.2.1/thumb/v6-m/nofp/crti.o
LOAD /usr/local/Cellar/arm-gcc-bin/9-2019-q4-major/bin/../lib/gcc/arm-none-eabi/9.2.1/thumb/v6-m/nofp/crtbegin.o
LOAD /usr/local/Cellar/arm-gcc-bin/9-2019-q4-major/bin/../lib/gcc/arm-none-eabi/9.2.1/../../../../arm-none-eabi/lib/thumb/v6-m/nofp/crt0.o
LOAD hal/src/hal_io.o
LOAD samc21/gcc/system_samc21.o
LOAD hpl/systick/hpl_systick.o
LOAD hal/utils/src/utils_syscalls.o
LOAD samc21/gcc/gcc/startup_samc21.o
LOAD hal/src/hal_spi_m_sync.o
LOAD hal/src/hal_delay.o
LOAD hpl/oscctrl/hpl_oscctrl.o
LOAD hpl/core/hpl_init.o
LOAD hal/utils/src/utils_list.o
LOAD hpl/core/hpl_core_m0plus_base.o
LOAD hal/utils/src/utils_assert.o
LOAD hpl/dmac/hpl_dmac.o
LOAD hpl/pm/hpl_pm.o
LOAD hpl/mclk/hpl_mclk.o
LOAD hpl/gclk/hpl_gclk.o
LOAD hal/src/hal_init.o
LOAD main.o
LOAD hpl/osc32kctrl/hpl_osc32kctrl.o
LOAD examples/driver_examples.o
LOAD driver_init.o
LOAD hal/src/hal_usart_async.o
LOAD hpl/sercom/hpl_sercom.o
LOAD hal/utils/src/utils_ringbuffer.o
LOAD hal/src/hal_gpio.o
LOAD hpl/divas/hpl_divas.o
LOAD hal/utils/src/utils_event.o
LOAD hal/src/hal_sleep.o
LOAD atmel_start.o
LOAD hal/src/hal_atomic.o
START GROUP
LOAD /usr/local/Cellar/arm-gcc-bin/9-2019-q4-major/bin/../lib/gcc/arm-none-eabi/9.2.1/../../../../arm-none-eabi/lib/thumb/v6-m/nofp/libm.a
END GROUP
START GROUP
LOAD /usr/local/Cellar/arm-gcc-bin/9-2019-q4-major/bin/../lib/gcc/arm-none-eabi/9.2.1/thumb/v6-m/nofp/libgcc.a
LOAD /usr/local/Cellar/arm-gcc-bin/9-2019-q4-major/bin/../lib/gcc/arm-none-eabi/9.2.1/../../../../arm-none-eabi/lib/thumb/v6-m/nofp/libc_nano.a
END GROUP
START GROUP
LOAD /usr/local/Cellar/arm-gcc-bin/9-2019-q4-major/bin/../lib/gcc/arm-none-eabi/9.2.1/thumb/v6-m/nofp/libgcc.a
LOAD /usr/local/Cellar/arm-gcc-bin/9-2019-q4-major/bin/../lib/gcc/arm-none-eabi/9.2.1/../../../../arm-none-eabi/lib/thumb/v6-m/nofp/libc_nano.a
END GROUP
LOAD /usr/local/Cellar/arm-gcc-bin/9-2019-q4-major/bin/../lib/gcc/arm-none-eabi/9.2.1/thumb/v6-m/nofp/crtend.o
LOAD /usr/local/Cellar/arm-gcc-bin/9-2019-q4-major/bin/../lib/gcc/arm-none-eabi/9.2.1/thumb/v6-m/nofp/crtn.o
                0x0000000000002000                STACK_SIZE = DEFINED (STACK_SIZE)?STACK_SIZE:DEFINED (__stack_size__)?__stack_size__:0x2000

.text           0x0000000000000000     0x21e4
                0x0000000000000000                . = ALIGN (0x4)
                0x0000000000000000                _sfixed = .
 *(.vectors .vectors.*)
 .vectors       0x0000000000000000       0xbc samc21/gcc/gcc/startup_samc21.o
                0x0000000000000000                exception_table
 *(.text .text.* .gnu.linkonce.t.*)
 .text          0x00000000000000bc       0x48 /usr/local/Cellar/arm-gcc-bin/9-2019-q4-major/bin/../lib/gcc/arm-none-eabi/9.2.1/thumb/v6-m/nofp/crtbegin.o
 .text.io_write
                0x0000000000000104       0x30 hal/src/hal_io.o
                0x0000000000000104                io_write
 .text.io_read  0x0000000000000134       0x30 hal/src/hal_io.o
                0x0000000000000134                io_read
 .text._delay_init
                0x0000000000000164       0x14 hpl/systick/hpl_systick.o
                0x0000000000000164                _delay_init
 .text._sbrk    0x0000000000000178       0x20 hal/utils/src/utils_syscalls.o
                0x0000000000000178                _sbrk
 .text._close   0x0000000000000198        0x6 hal/utils/src/utils_syscalls.o
                0x0000000000000198                _close
 .text._fstat   0x000000000000019e        0xa hal/utils/src/utils_syscalls.o
                0x000000000000019e                _fstat
 .text._isatty  0x00000000000001a8        0x4 hal/utils/src/utils_syscalls.o
                0x00000000000001a8                _isatty
 .text._lseek   0x00000000000001ac        0x4 hal/utils/src/utils_syscalls.o
                0x00000000000001ac                _lseek
 .text.Dummy_Handler
                0x00000000000001b0        0x2 samc21/gcc/gcc/startup_samc21.o
                0x00000000000001b0                TC0_Handler
                0x00000000000001b0                DMAC_Handler
                0x00000000000001b0                HardFault_Handler
                0x00000000000001b0                TC2_Handler
                0x00000000000001b0                AC_Handler
                0x00000000000001b0                SysTick_Handler
                0x00000000000001b0                PendSV_Handler
                0x00000000000001b0                SERCOM1_Handler
                0x00000000000001b0                NonMaskableInt_Handler
                0x00000000000001b0                TCC1_Handler
                0x00000000000001b0                SERCOM2_Handler
                0x00000000000001b0                TCC0_Handler
                0x00000000000001b0                RTC_Handler
                0x00000000000001b0                ADC1_Handler
                0x00000000000001b0                EIC_Handler
                0x00000000000001b0                WDT_Handler
                0x00000000000001b0                CAN0_Handler
                0x00000000000001b0                TC4_Handler
                0x00000000000001b0                TC1_Handler
                0x00000000000001b0                TC3_Handler
                0x00000000000001b0                SDADC_Handler
                0x00000000000001b0                Dummy_Handler
                0x00000000000001b0                SERCOM5_Handler
                0x00000000000001b0                CAN1_Handler
                0x00000000000001b0                ADC0_Handler
                0x00000000000001b0                TSENS_Handler
                0x00000000000001b0                TCC2_Handler
                0x00000000000001b0                EVSYS_Handler
                0x00000000000001b0                SERCOM3_Handler
                0x00000000000001b0                NVMCTRL_Handler
                0x00000000000001b0                SYSTEM_Handler
                0x00000000000001b0                SERCOM0_Handler
                0x00000000000001b0                DAC_Handler
                0x00000000000001b0                PTC_Handler
                0x00000000000001b0                FREQM_Handler
                0x00000000000001b0                SVCall_Handler
 *fill*         0x00000000000001b2        0x2 
 .text.Reset_Handler
                0x00000000000001b4       0x5c samc21/gcc/gcc/startup_samc21.o
                0x00000000000001b4                Reset_Handler
 .text.spi_m_sync_init
                0x0000000000000210       0x50 hal/src/hal_spi_m_sync.o
                0x0000000000000210                spi_m_sync_init
 .text.spi_m_sync_enable
                0x0000000000000260       0x28 hal/src/hal_spi_m_sync.o
                0x0000000000000260                spi_m_sync_enable
 .text.spi_m_sync_transfer
                0x0000000000000288       0x40 hal/src/hal_spi_m_sync.o
                0x0000000000000288                spi_m_sync_transfer
 .text._spi_m_sync_io_write
                0x00000000000002c8       0x38 hal/src/hal_spi_m_sync.o
 .text._spi_m_sync_io_read
                0x0000000000000300       0x38 hal/src/hal_spi_m_sync.o
 .text.spi_m_sync_get_io_descriptor
                0x0000000000000338       0x28 hal/src/hal_spi_m_sync.o
                0x0000000000000338                spi_m_sync_get_io_descriptor
 .text.delay_init
                0x0000000000000360       0x14 hal/src/hal_delay.o
                0x0000000000000360                delay_init
 .text._oscctrl_init_sources
                0x0000000000000374       0x38 hpl/oscctrl/hpl_oscctrl.o
                0x0000000000000374                _oscctrl_init_sources
 .text._oscctrl_init_referenced_generators
                0x00000000000003ac        0x2 hpl/oscctrl/hpl_oscctrl.o
                0x00000000000003ac                _oscctrl_init_referenced_generators
 *fill*         0x00000000000003ae        0x2 
 .text._init_chip
                0x00000000000003b0       0x40 hpl/core/hpl_init.o
                0x00000000000003b0                _init_chip
 .text.assert   0x00000000000003f0        0x8 hal/utils/src/utils_assert.o
                0x00000000000003f0                assert
 .text._mclk_init
                0x00000000000003f8        0xc hpl/mclk/hpl_mclk.o
                0x00000000000003f8                _mclk_init
 .text._gclk_init_generators_by_fref
                0x0000000000000404       0x20 hpl/gclk/hpl_gclk.o
                0x0000000000000404                _gclk_init_generators_by_fref
 .text.err_cb_UART_DBG
                0x0000000000000424        0x4 main.o
 .text._write   0x0000000000000428       0x1c main.o
                0x0000000000000428                _write
 .text._read    0x0000000000000444        0x6 main.o
                0x0000000000000444                _read
 *fill*         0x000000000000044a        0x2 
 .text.dac60508_check_device_id
                0x000000000000044c       0x70 main.o
                0x000000000000044c                dac60508_check_device_id
 .text.startup.main
                0x00000000000004bc       0x68 main.o
                0x00000000000004bc                main
 .text._osc32kctrl_init_sources
                0x0000000000000524       0x18 hpl/osc32kctrl/hpl_osc32kctrl.o
                0x0000000000000524                _osc32kctrl_init_sources
 .text._gpio_set_pin_function
                0x000000000000053c       0x60 driver_init.o
 .text.SPI_MASTER_PORT_init
                0x000000000000059c       0x7c driver_init.o
                0x000000000000059c                SPI_MASTER_PORT_init
 .text.SPI_MASTER_CLOCK_init
                0x0000000000000618       0x24 driver_init.o
                0x0000000000000618                SPI_MASTER_CLOCK_init
 .text.SPI_MASTER_init
                0x000000000000063c       0x28 driver_init.o
                0x000000000000063c                SPI_MASTER_init
 .text.UART_DBG_CLOCK_init
                0x0000000000000664       0x24 driver_init.o
                0x0000000000000664                UART_DBG_CLOCK_init
 .text.UART_DBG_PORT_init
                0x0000000000000688       0x20 driver_init.o
                0x0000000000000688                UART_DBG_PORT_init
 .text.UART_DBG_init
                0x00000000000006a8       0x34 driver_init.o
                0x00000000000006a8                UART_DBG_init
 .text.delay_driver_init
                0x00000000000006dc       0x14 driver_init.o
                0x00000000000006dc                delay_driver_init
 .text.system_init
                0x00000000000006f0       0x74 driver_init.o
                0x00000000000006f0                system_init
 .text.usart_transmission_complete
                0x0000000000000764       0x12 hal/src/hal_usart_async.o
 .text.usart_error
                0x0000000000000776       0x12 hal/src/hal_usart_async.o
 .text.usart_fill_rx_buffer
                0x0000000000000788       0x1c hal/src/hal_usart_async.o
 .text.usart_async_write
                0x00000000000007a4       0x5c hal/src/hal_usart_async.o
 .text.usart_process_byte_sent
                0x0000000000000800       0x3c hal/src/hal_usart_async.o
 .text.usart_async_read
                0x000000000000083c       0x70 hal/src/hal_usart_async.o
 .text.usart_async_init
                0x00000000000008ac       0x8c hal/src/hal_usart_async.o
                0x00000000000008ac                usart_async_init
 .text.usart_async_enable
                0x0000000000000938       0x2c hal/src/hal_usart_async.o
                0x0000000000000938                usart_async_enable
 .text.usart_async_get_io_descriptor
                0x0000000000000964       0x28 hal/src/hal_usart_async.o
                0x0000000000000964                usart_async_get_io_descriptor
 .text.usart_async_register_callback
                0x000000000000098c       0x6c hal/src/hal_usart_async.o
                0x000000000000098c                usart_async_register_callback
 .text.__NVIC_EnableIRQ
                0x00000000000009f8       0x18 hpl/sercom/hpl_sercom.o
 .text.__NVIC_ClearPendingIRQ
                0x0000000000000a10       0x1c hpl/sercom/hpl_sercom.o
 .text.hri_sercomspi_wait_for_sync
                0x0000000000000a2c        0x8 hpl/sercom/hpl_sercom.o
 .text.hri_sercomusart_wait_for_sync
                0x0000000000000a34        0x8 hpl/sercom/hpl_sercom.o
 .text.hri_sercomusart_clear_CTRLA_ENABLE_bit
                0x0000000000000a3c       0x18 hpl/sercom/hpl_sercom.o
 .text._spi_sync_enable
                0x0000000000000a54       0x2c hpl/sercom/hpl_sercom.o
 .text.__NVIC_DisableIRQ
                0x0000000000000a80       0x20 hpl/sercom/hpl_sercom.o
 .text._usart_init
                0x0000000000000aa0       0x90 hpl/sercom/hpl_sercom.o
 .text._usart_async_init
                0x0000000000000b30       0x70 hpl/sercom/hpl_sercom.o
                0x0000000000000b30                _usart_async_init
 .text._usart_async_enable
                0x0000000000000ba0       0x18 hpl/sercom/hpl_sercom.o
                0x0000000000000ba0                _usart_async_enable
 .text._usart_async_write_byte
                0x0000000000000bb8        0x6 hpl/sercom/hpl_sercom.o
                0x0000000000000bb8                _usart_async_write_byte
 .text._usart_async_enable_byte_sent_irq
                0x0000000000000bbe        0x8 hpl/sercom/hpl_sercom.o
                0x0000000000000bbe                _usart_async_enable_byte_sent_irq
 .text._usart_async_enable_tx_done_irq
                0x0000000000000bc6        0x8 hpl/sercom/hpl_sercom.o
                0x0000000000000bc6                _usart_async_enable_tx_done_irq
 *fill*         0x0000000000000bce        0x2 
 .text._usart_async_set_irq_state
                0x0000000000000bd0       0x58 hpl/sercom/hpl_sercom.o
                0x0000000000000bd0                _usart_async_set_irq_state
 .text.SERCOM4_Handler
                0x0000000000000c28       0x6c hpl/sercom/hpl_sercom.o
                0x0000000000000c28                SERCOM4_Handler
 .text._spi_m_sync_init
                0x0000000000000c94      0x1ac hpl/sercom/hpl_sercom.o
                0x0000000000000c94                _spi_m_sync_init
 .text._spi_m_sync_enable
                0x0000000000000e40       0x2c hpl/sercom/hpl_sercom.o
                0x0000000000000e40                _spi_m_sync_enable
 .text._spi_m_sync_trans
                0x0000000000000e6c       0xe8 hpl/sercom/hpl_sercom.o
                0x0000000000000e6c                _spi_m_sync_trans
 .text.ringbuffer_init
                0x0000000000000f54       0x40 hal/utils/src/utils_ringbuffer.o
                0x0000000000000f54                ringbuffer_init
 .text.ringbuffer_get
                0x0000000000000f94       0x44 hal/utils/src/utils_ringbuffer.o
                0x0000000000000f94                ringbuffer_get
 .text.ringbuffer_put
                0x0000000000000fd8       0x40 hal/utils/src/utils_ringbuffer.o
                0x0000000000000fd8                ringbuffer_put
 .text.ringbuffer_num
                0x0000000000001018       0x24 hal/utils/src/utils_ringbuffer.o
                0x0000000000001018                ringbuffer_num
 .text._div_init
                0x000000000000103c        0xe hpl/divas/hpl_divas.o
                0x000000000000103c                _div_init
 *fill*         0x000000000000104a        0x2 
 .text.__aeabi_uidivmod
                0x000000000000104c       0x34 hpl/divas/hpl_divas.o
                0x000000000000104c                __aeabi_uidivmod
 .text.atmel_start_init
                0x0000000000001080        0xc atmel_start.o
                0x0000000000001080                atmel_start_init
 .text.atomic_enter_critical
                0x000000000000108c        0xe hal/src/hal_atomic.o
                0x000000000000108c                atomic_enter_critical
 .text.atomic_leave_critical
                0x000000000000109a        0xc hal/src/hal_atomic.o
                0x000000000000109a                atomic_leave_critical
 *fill*         0x00000000000010a6        0x2 
 .text.__libc_init_array
                0x00000000000010a8       0x48 /usr/local/Cellar/arm-gcc-bin/9-2019-q4-major/bin/../lib/gcc/arm-none-eabi/9.2.1/../../../../arm-none-eabi/lib/thumb/v6-m/nofp/libc_nano.a(lib_a-init.o)
                0x00000000000010a8                __libc_init_array
 .text.memcpy   0x00000000000010f0       0x12 /usr/local/Cellar/arm-gcc-bin/9-2019-q4-major/bin/../lib/gcc/arm-none-eabi/9.2.1/../../../../arm-none-eabi/lib/thumb/v6-m/nofp/libc_nano.a(lib_a-memcpy-stub.o)
                0x00000000000010f0                memcpy
 .text.memset   0x0000000000001102       0x10 /usr/local/Cellar/arm-gcc-bin/9-2019-q4-major/bin/../lib/gcc/arm-none-eabi/9.2.1/../../../../arm-none-eabi/lib/thumb/v6-m/nofp/libc_nano.a(lib_a-memset.o)
                0x0000000000001102                memset
 *fill*         0x0000000000001112        0x2 
 .text.printf   0x0000000000001114       0x34 /usr/local/Cellar/arm-gcc-bin/9-2019-q4-major/bin/../lib/gcc/arm-none-eabi/9.2.1/../../../../arm-none-eabi/lib/thumb/v6-m/nofp/libc_nano.a(lib_a-printf.o)
                0x0000000000001114                printf
                0x0000000000001114                iprintf
 .text.std      0x0000000000001148       0x48 /usr/local/Cellar/arm-gcc-bin/9-2019-q4-major/bin/../lib/gcc/arm-none-eabi/9.2.1/../../../../arm-none-eabi/lib/thumb/v6-m/nofp/libc_nano.a(lib_a-findfp.o)
 .text._cleanup_r
                0x0000000000001190       0x10 /usr/local/Cellar/arm-gcc-bin/9-2019-q4-major/bin/../lib/gcc/arm-none-eabi/9.2.1/../../../../arm-none-eabi/lib/thumb/v6-m/nofp/libc_nano.a(lib_a-findfp.o)
                0x0000000000001190                _cleanup_r
 .text.__sfmoreglue
                0x00000000000011a0       0x2c /usr/local/Cellar/arm-gcc-bin/9-2019-q4-major/bin/../lib/gcc/arm-none-eabi/9.2.1/../../../../arm-none-eabi/lib/thumb/v6-m/nofp/libc_nano.a(lib_a-findfp.o)
                0x00000000000011a0                __sfmoreglue
 .text.__sfp_lock_acquire
                0x00000000000011cc       0x10 /usr/local/Cellar/arm-gcc-bin/9-2019-q4-major/bin/../lib/gcc/arm-none-eabi/9.2.1/../../../../arm-none-eabi/lib/thumb/v6-m/nofp/libc_nano.a(lib_a-findfp.o)
                0x00000000000011cc                __sfp_lock_acquire
 .text.__sfp_lock_release
                0x00000000000011dc       0x10 /usr/local/Cellar/arm-gcc-bin/9-2019-q4-major/bin/../lib/gcc/arm-none-eabi/9.2.1/../../../../arm-none-eabi/lib/thumb/v6-m/nofp/libc_nano.a(lib_a-findfp.o)
                0x00000000000011dc                __sfp_lock_release
 .text.__sinit_lock_acquire
                0x00000000000011ec       0x10 /usr/local/Cellar/arm-gcc-bin/9-2019-q4-major/bin/../lib/gcc/arm-none-eabi/9.2.1/../../../../arm-none-eabi/lib/thumb/v6-m/nofp/libc_nano.a(lib_a-findfp.o)
                0x00000000000011ec                __sinit_lock_acquire
 .text.__sinit_lock_release
                0x00000000000011fc       0x10 /usr/local/Cellar/arm-gcc-bin/9-2019-q4-major/bin/../lib/gcc/arm-none-eabi/9.2.1/../../../../arm-none-eabi/lib/thumb/v6-m/nofp/libc_nano.a(lib_a-findfp.o)
                0x00000000000011fc                __sinit_lock_release
 .text.__sinit  0x000000000000120c       0x70 /usr/local/Cellar/arm-gcc-bin/9-2019-q4-major/bin/../lib/gcc/arm-none-eabi/9.2.1/../../../../arm-none-eabi/lib/thumb/v6-m/nofp/libc_nano.a(lib_a-findfp.o)
                0x000000000000120c                __sinit
 .text.__sfp    0x000000000000127c       0x90 /usr/local/Cellar/arm-gcc-bin/9-2019-q4-major/bin/../lib/gcc/arm-none-eabi/9.2.1/../../../../arm-none-eabi/lib/thumb/v6-m/nofp/libc_nano.a(lib_a-findfp.o)
                0x000000000000127c                __sfp
 .text._fwalk_reent
                0x000000000000130c       0x40 /usr/local/Cellar/arm-gcc-bin/9-2019-q4-major/bin/../lib/gcc/arm-none-eabi/9.2.1/../../../../arm-none-eabi/lib/thumb/v6-m/nofp/libc_nano.a(lib_a-fwalk.o)
                0x000000000000130c                _fwalk_reent
 .text.__retarget_lock_init_recursive
                0x000000000000134c        0x2 /usr/local/Cellar/arm-gcc-bin/9-2019-q4-major/bin/../lib/gcc/arm-none-eabi/9.2.1/../../../../arm-none-eabi/lib/thumb/v6-m/nofp/libc_nano.a(lib_a-lock.o)
                0x000000000000134c                __retarget_lock_init_recursive
 .text.__retarget_lock_acquire_recursive
                0x000000000000134e        0x2 /usr/local/Cellar/arm-gcc-bin/9-2019-q4-major/bin/../lib/gcc/arm-none-eabi/9.2.1/../../../../arm-none-eabi/lib/thumb/v6-m/nofp/libc_nano.a(lib_a-lock.o)
                0x000000000000134e                __retarget_lock_acquire_recursive
 .text.__retarget_lock_release_recursive
                0x0000000000001350        0x2 /usr/local/Cellar/arm-gcc-bin/9-2019-q4-major/bin/../lib/gcc/arm-none-eabi/9.2.1/../../../../arm-none-eabi/lib/thumb/v6-m/nofp/libc_nano.a(lib_a-lock.o)
                0x0000000000001350                __retarget_lock_release_recursive
 *fill*         0x0000000000001352        0x2 
 .text._malloc_r
                0x0000000000001354       0xbc /usr/local/Cellar/arm-gcc-bin/9-2019-q4-major/bin/../lib/gcc/arm-none-eabi/9.2.1/../../../../arm-none-eabi/lib/thumb/v6-m/nofp/libc_nano.a(lib_a-nano-mallocr.o)
                0x0000000000001354                _malloc_r
 .text.__sfputc_r
                0x0000000000001410       0x2a /usr/local/Cellar/arm-gcc-bin/9-2019-q4-major/bin/../lib/gcc/arm-none-eabi/9.2.1/../../../../arm-none-eabi/lib/thumb/v6-m/nofp/libc_nano.a(lib_a-nano-vfprintf.o)
 .text.__sfputs_r
                0x000000000000143a       0x24 /usr/local/Cellar/arm-gcc-bin/9-2019-q4-major/bin/../lib/gcc/arm-none-eabi/9.2.1/../../../../arm-none-eabi/lib/thumb/v6-m/nofp/libc_nano.a(lib_a-nano-vfprintf.o)
                0x000000000000143a                __sfputs_r
 *fill*         0x000000000000145e        0x2 
 .text._vfprintf_r
                0x0000000000001460      0x274 /usr/local/Cellar/arm-gcc-bin/9-2019-q4-major/bin/../lib/gcc/arm-none-eabi/9.2.1/../../../../arm-none-eabi/lib/thumb/v6-m/nofp/libc_nano.a(lib_a-nano-vfprintf.o)
                0x0000000000001460                _vfiprintf_r
                0x0000000000001460                _vfprintf_r
 .text._printf_common
                0x00000000000016d4       0xde /usr/local/Cellar/arm-gcc-bin/9-2019-q4-major/bin/../lib/gcc/arm-none-eabi/9.2.1/../../../../arm-none-eabi/lib/thumb/v6-m/nofp/libc_nano.a(lib_a-nano-vfprintf_i.o)
                0x00000000000016d4                _printf_common
 *fill*         0x00000000000017b2        0x2 
 .text._printf_i
                0x00000000000017b4      0x224 /usr/local/Cellar/arm-gcc-bin/9-2019-q4-major/bin/../lib/gcc/arm-none-eabi/9.2.1/../../../../arm-none-eabi/lib/thumb/v6-m/nofp/libc_nano.a(lib_a-nano-vfprintf_i.o)
                0x00000000000017b4                _printf_i
 .text._sbrk_r  0x00000000000019d8       0x24 /usr/local/Cellar/arm-gcc-bin/9-2019-q4-major/bin/../lib/gcc/arm-none-eabi/9.2.1/../../../../arm-none-eabi/lib/thumb/v6-m/nofp/libc_nano.a(lib_a-sbrkr.o)
                0x00000000000019d8                _sbrk_r
 .text.__sread  0x00000000000019fc       0x28 /usr/local/Cellar/arm-gcc-bin/9-2019-q4-major/bin/../lib/gcc/arm-none-eabi/9.2.1/../../../../arm-none-eabi/lib/thumb/v6-m/nofp/libc_nano.a(lib_a-stdio.o)
                0x00000000000019fc                __sread
 .text.__swrite
                0x0000000000001a24       0x38 /usr/local/Cellar/arm-gcc-bin/9-2019-q4-major/bin/../lib/gcc/arm-none-eabi/9.2.1/../../../../arm-none-eabi/lib/thumb/v6-m/nofp/libc_nano.a(lib_a-stdio.o)
                0x0000000000001a24                __swrite
 .text.__sseek  0x0000000000001a5c       0x2c /usr/local/Cellar/arm-gcc-bin/9-2019-q4-major/bin/../lib/gcc/arm-none-eabi/9.2.1/../../../../arm-none-eabi/lib/thumb/v6-m/nofp/libc_nano.a(lib_a-stdio.o)
                0x0000000000001a5c                __sseek
 .text.__sclose
                0x0000000000001a88        0xc /usr/local/Cellar/arm-gcc-bin/9-2019-q4-major/bin/../lib/gcc/arm-none-eabi/9.2.1/../../../../arm-none-eabi/lib/thumb/v6-m/nofp/libc_nano.a(lib_a-stdio.o)
                0x0000000000001a88                __sclose
 .text.__swbuf_r
                0x0000000000001a94       0xac /usr/local/Cellar/arm-gcc-bin/9-2019-q4-major/bin/../lib/gcc/arm-none-eabi/9.2.1/../../../../arm-none-eabi/lib/thumb/v6-m/nofp/libc_nano.a(lib_a-wbuf.o)
                0x0000000000001a94                __swbuf_r
 .text._write_r
                0x0000000000001b40       0x28 /usr/local/Cellar/arm-gcc-bin/9-2019-q4-major/bin/../lib/gcc/arm-none-eabi/9.2.1/../../../../arm-none-eabi/lib/thumb/v6-m/nofp/libc_nano.a(lib_a-writer.o)
                0x0000000000001b40                _write_r
 .text.__swsetup_r
                0x0000000000001b68       0xf0 /usr/local/Cellar/arm-gcc-bin/9-2019-q4-major/bin/../lib/gcc/arm-none-eabi/9.2.1/../../../../arm-none-eabi/lib/thumb/v6-m/nofp/libc_nano.a(lib_a-wsetup.o)
                0x0000000000001b68                __swsetup_r
 .text._close_r
                0x0000000000001c58       0x24 /usr/local/Cellar/arm-gcc-bin/9-2019-q4-major/bin/../lib/gcc/arm-none-eabi/9.2.1/../../../../arm-none-eabi/lib/thumb/v6-m/nofp/libc_nano.a(lib_a-closer.o)
                0x0000000000001c58                _close_r
 .text.__sflush_r
                0x0000000000001c7c      0x118 /usr/local/Cellar/arm-gcc-bin/9-2019-q4-major/bin/../lib/gcc/arm-none-eabi/9.2.1/../../../../arm-none-eabi/lib/thumb/v6-m/nofp/libc_nano.a(lib_a-fflush.o)
                0x0000000000001c7c                __sflush_r
 .text._fflush_r
                0x0000000000001d94       0x80 /usr/local/Cellar/arm-gcc-bin/9-2019-q4-major/bin/../lib/gcc/arm-none-eabi/9.2.1/../../../../arm-none-eabi/lib/thumb/v6-m/nofp/libc_nano.a(lib_a-fflush.o)
                0x0000000000001d94                _fflush_r
 .text._lseek_r
                0x0000000000001e14       0x28 /usr/local/Cellar/arm-gcc-bin/9-2019-q4-major/bin/../lib/gcc/arm-none-eabi/9.2.1/../../../../arm-none-eabi/lib/thumb/v6-m/nofp/libc_nano.a(lib_a-lseekr.o)
                0x0000000000001e14                _lseek_r
 .text.__swhatbuf_r
                0x0000000000001e3c       0x50 /usr/local/Cellar/arm-gcc-bin/9-2019-q4-major/bin/../lib/gcc/arm-none-eabi/9.2.1/../../../../arm-none-eabi/lib/thumb/v6-m/nofp/libc_nano.a(lib_a-makebuf.o)
                0x0000000000001e3c                __swhatbuf_r
 .text.__smakebuf_r
                0x0000000000001e8c       0x88 /usr/local/Cellar/arm-gcc-bin/9-2019-q4-major/bin/../lib/gcc/arm-none-eabi/9.2.1/../../../../arm-none-eabi/lib/thumb/v6-m/nofp/libc_nano.a(lib_a-makebuf.o)
                0x0000000000001e8c                __smakebuf_r
 .text.memchr   0x0000000000001f14       0x16 /usr/local/Cellar/arm-gcc-bin/9-2019-q4-major/bin/../lib/gcc/arm-none-eabi/9.2.1/../../../../arm-none-eabi/lib/thumb/v6-m/nofp/libc_nano.a(lib_a-memchr-stub.o)
                0x0000000000001f14                memchr
 *fill*         0x0000000000001f2a        0x2 
 .text.__malloc_lock
                0x0000000000001f2c       0x10 /usr/local/Cellar/arm-gcc-bin/9-2019-q4-major/bin/../lib/gcc/arm-none-eabi/9.2.1/../../../../arm-none-eabi/lib/thumb/v6-m/nofp/libc_nano.a(lib_a-mlock.o)
                0x0000000000001f2c                __malloc_lock
 .text.__malloc_unlock
                0x0000000000001f3c       0x10 /usr/local/Cellar/arm-gcc-bin/9-2019-q4-major/bin/../lib/gcc/arm-none-eabi/9.2.1/../../../../arm-none-eabi/lib/thumb/v6-m/nofp/libc_nano.a(lib_a-mlock.o)
                0x0000000000001f3c                __malloc_unlock
 .text._free_r  0x0000000000001f4c       0x94 /usr/local/Cellar/arm-gcc-bin/9-2019-q4-major/bin/../lib/gcc/arm-none-eabi/9.2.1/../../../../arm-none-eabi/lib/thumb/v6-m/nofp/libc_nano.a(lib_a-nano-freer.o)
                0x0000000000001f4c                _free_r
 .text._read_r  0x0000000000001fe0       0x28 /usr/local/Cellar/arm-gcc-bin/9-2019-q4-major/bin/../lib/gcc/arm-none-eabi/9.2.1/../../../../arm-none-eabi/lib/thumb/v6-m/nofp/libc_nano.a(lib_a-readr.o)
                0x0000000000001fe0                _read_r
 .text._fstat_r
                0x0000000000002008       0x24 /usr/local/Cellar/arm-gcc-bin/9-2019-q4-major/bin/../lib/gcc/arm-none-eabi/9.2.1/../../../../arm-none-eabi/lib/thumb/v6-m/nofp/libc_nano.a(lib_a-fstatr.o)
                0x0000000000002008                _fstat_r
 .text._isatty_r
                0x000000000000202c       0x24 /usr/local/Cellar/arm-gcc-bin/9-2019-q4-major/bin/../lib/gcc/arm-none-eabi/9.2.1/../../../../arm-none-eabi/lib/thumb/v6-m/nofp/libc_nano.a(lib_a-isattyr.o)
                0x000000000000202c                _isatty_r
 .text          0x0000000000002050       0x14 /usr/local/Cellar/arm-gcc-bin/9-2019-q4-major/bin/../lib/gcc/arm-none-eabi/9.2.1/thumb/v6-m/nofp/libgcc.a(_thumb1_case_shi.o)
                0x0000000000002050                __gnu_thumb1_case_shi
 *(.glue_7t)
 .glue_7t       0x0000000000002064        0x0 linker stubs
 *(.glue_7)
 .glue_7        0x0000000000002064        0x0 linker stubs
 *(.rodata .rodata* .gnu.linkonce.r.*)
 .rodata.str1.1
                0x0000000000002064       0x14 hal/src/hal_io.o
 .rodata.str1.1
                0x0000000000002078       0x1c hal/src/hal_spi_m_sync.o
 .rodata.str1.1
                0x0000000000002094        0xc main.o
 .rodata        0x00000000000020a0        0x3 main.o
 .rodata.str1.1
                0x00000000000020a3       0x1d hal/src/hal_usart_async.o
 .rodata.str1.1
                0x00000000000020c0       0x1b hpl/sercom/hpl_sercom.o
 *fill*         0x00000000000020db        0x1 
 .rodata        0x00000000000020dc       0x29 hpl/sercom/hpl_sercom.o
 .rodata.str1.1
                0x0000000000002105       0x24 hal/utils/src/utils_ringbuffer.o
 *fill*         0x0000000000002129        0x3 
 .rodata._global_impure_ptr
                0x000000000000212c        0x4 /usr/local/Cellar/arm-gcc-bin/9-2019-q4-major/bin/../lib/gcc/arm-none-eabi/9.2.1/../../../../arm-none-eabi/lib/thumb/v6-m/nofp/libc_nano.a(lib_a-impure.o)
                0x000000000000212c                _global_impure_ptr
 .rodata.__sf_fake_stderr
                0x0000000000002130       0x20 /usr/local/Cellar/arm-gcc-bin/9-2019-q4-major/bin/../lib/gcc/arm-none-eabi/9.2.1/../../../../arm-none-eabi/lib/thumb/v6-m/nofp/libc_nano.a(lib_a-findfp.o)
                0x0000000000002130                __sf_fake_stderr
 .rodata.__sf_fake_stdin
                0x0000000000002150       0x20 /usr/local/Cellar/arm-gcc-bin/9-2019-q4-major/bin/../lib/gcc/arm-none-eabi/9.2.1/../../../../arm-none-eabi/lib/thumb/v6-m/nofp/libc_nano.a(lib_a-findfp.o)
                0x0000000000002150                __sf_fake_stdin
 .rodata.__sf_fake_stdout
                0x0000000000002170       0x20 /usr/local/Cellar/arm-gcc-bin/9-2019-q4-major/bin/../lib/gcc/arm-none-eabi/9.2.1/../../../../arm-none-eabi/lib/thumb/v6-m/nofp/libc_nano.a(lib_a-findfp.o)
                0x0000000000002170                __sf_fake_stdout
 .rodata._vfprintf_r.str1.1
                0x0000000000002190       0x11 /usr/local/Cellar/arm-gcc-bin/9-2019-q4-major/bin/../lib/gcc/arm-none-eabi/9.2.1/../../../../arm-none-eabi/lib/thumb/v6-m/nofp/libc_nano.a(lib_a-nano-vfprintf.o)
 .rodata._printf_i.str1.1
                0x00000000000021a1       0x22 /usr/local/Cellar/arm-gcc-bin/9-2019-q4-major/bin/../lib/gcc/arm-none-eabi/9.2.1/../../../../arm-none-eabi/lib/thumb/v6-m/nofp/libc_nano.a(lib_a-nano-vfprintf_i.o)
 *(.ARM.extab* .gnu.linkonce.armextab.*)
                0x00000000000021c4                . = ALIGN (0x4)
 *fill*         0x00000000000021c3        0x1 
 *(.init)
 .init          0x00000000000021c4        0x4 /usr/local/Cellar/arm-gcc-bin/9-2019-q4-major/bin/../lib/gcc/arm-none-eabi/9.2.1/thumb/v6-m/nofp/crti.o
                0x00000000000021c4                _init
 .init          0x00000000000021c8        0x8 /usr/local/Cellar/arm-gcc-bin/9-2019-q4-major/bin/../lib/gcc/arm-none-eabi/9.2.1/thumb/v6-m/nofp/crtn.o
                0x00000000000021d0                . = ALIGN (0x4)
                0x00000000000021d0                __preinit_array_start = .
 *(.preinit_array)
                0x00000000000021d0                __preinit_array_end = .
                0x00000000000021d0                . = ALIGN (0x4)
                0x00000000000021d0                __init_array_start = .
 *(SORT_BY_NAME(.init_array.*))
 *(.init_array)
 .init_array    0x00000000000021d0        0x4 /usr/local/Cellar/arm-gcc-bin/9-2019-q4-major/bin/../lib/gcc/arm-none-eabi/9.2.1/thumb/v6-m/nofp/crtbegin.o
                0x00000000000021d4                __init_array_end = .
                0x00000000000021d4                . = ALIGN (0x4)
 *crtbegin.o(.ctors)
 *(EXCLUDE_FILE(*crtend.o) .ctors)
 *(SORT_BY_NAME(.ctors.*))
 *crtend.o(.ctors)
                0x00000000000021d4                . = ALIGN (0x4)
 *(.fini)
 .fini          0x00000000000021d4        0x4 /usr/local/Cellar/arm-gcc-bin/9-2019-q4-major/bin/../lib/gcc/arm-none-eabi/9.2.1/thumb/v6-m/nofp/crti.o
                0x00000000000021d4                _fini
 .fini          0x00000000000021d8        0x8 /usr/local/Cellar/arm-gcc-bin/9-2019-q4-major/bin/../lib/gcc/arm-none-eabi/9.2.1/thumb/v6-m/nofp/crtn.o
                0x00000000000021e0                . = ALIGN (0x4)
                0x00000000000021e0                __fini_array_start = .
 *(.fini_array)
 .fini_array    0x00000000000021e0        0x4 /usr/local/Cellar/arm-gcc-bin/9-2019-q4-major/bin/../lib/gcc/arm-none-eabi/9.2.1/thumb/v6-m/nofp/crtbegin.o
 *(SORT_BY_NAME(.fini_array.*))
                0x00000000000021e4                __fini_array_end = .
 *crtbegin.o(.dtors)
 *(EXCLUDE_FILE(*crtend.o) .dtors)
 *(SORT_BY_NAME(.dtors.*))
 *crtend.o(.dtors)
                0x00000000000021e4                . = ALIGN (0x4)
                0x00000000000021e4                _efixed = .
                [!provide]                        PROVIDE (__exidx_start = .)

.vfp11_veneer   0x00000000000021e4        0x0
 .vfp11_veneer  0x00000000000021e4        0x0 linker stubs

.v4_bx          0x00000000000021e4        0x0
 .v4_bx         0x00000000000021e4        0x0 linker stubs

.iplt           0x00000000000021e4        0x0
 .iplt          0x00000000000021e4        0x0 /usr/local/Cellar/arm-gcc-bin/9-2019-q4-major/bin/../lib/gcc/arm-none-eabi/9.2.1/thumb/v6-m/nofp/crtbegin.o

.igot.plt       0x00000000000021e4        0x0
 .igot.plt      0x00000000000021e4        0x0 /usr/local/Cellar/arm-gcc-bin/9-2019-q4-major/bin/../lib/gcc/arm-none-eabi/9.2.1/thumb/v6-m/nofp/crtbegin.o

.eh_frame       0x00000000000021e4        0x0
 .eh_frame      0x00000000000021e4        0x0 /usr/local/Cellar/arm-gcc-bin/9-2019-q4-major/bin/../lib/gcc/arm-none-eabi/9.2.1/thumb/v6-m/nofp/crtbegin.o

.rel.dyn        0x00000000000021e4        0x0
 .rel.iplt      0x00000000000021e4        0x0 /usr/local/Cellar/arm-gcc-bin/9-2019-q4-major/bin/../lib/gcc/arm-none-eabi/9.2.1/thumb/v6-m/nofp/crtbegin.o

.ARM.exidx
 *(.ARM.exidx* .gnu.linkonce.armexidx.*)
                [!provide]                        PROVIDE (__exidx_end = .)
                0x00000000000021e4                . = ALIGN (0x4)
                0x00000000000021e4                _etext = .

.relocate       0x0000000020000000       0x64 load address 0x00000000000021e4
                0x0000000020000000                . = ALIGN (0x4)
                0x0000000020000000                _srelocate = .
 *(.ramfunc .ramfunc.*)
 *(.data .data.*)
 .data._impure_ptr
                0x0000000020000000        0x4 /usr/local/Cellar/arm-gcc-bin/9-2019-q4-major/bin/../lib/gcc/arm-none-eabi/9.2.1/../../../../arm-none-eabi/lib/thumb/v6-m/nofp/libc_nano.a(lib_a-impure.o)
                0x0000000020000000                _impure_ptr
 .data.impure_data
                0x0000000020000004       0x60 /usr/local/Cellar/arm-gcc-bin/9-2019-q4-major/bin/../lib/gcc/arm-none-eabi/9.2.1/../../../../arm-none-eabi/lib/thumb/v6-m/nofp/libc_nano.a(lib_a-impure.o)
                0x0000000020000064                . = ALIGN (0x4)
                0x0000000020000064                _erelocate = .

.bss            0x0000000020000064       0xc0 load address 0x0000000000002248
                0x0000000020000064                . = ALIGN (0x4)
                0x0000000020000064                _sbss = .
                0x0000000020000064                _szero = .
 *(.bss .bss.*)
 .bss           0x0000000020000064       0x1c /usr/local/Cellar/arm-gcc-bin/9-2019-q4-major/bin/../lib/gcc/arm-none-eabi/9.2.1/thumb/v6-m/nofp/crtbegin.o
 .bss           0x0000000020000080        0x4 hal/utils/src/utils_syscalls.o
 .bss           0x0000000020000084        0x4 hal/src/hal_delay.o
 .bss           0x0000000020000088       0x10 driver_init.o
 .bss           0x0000000020000098        0x4 hpl/sercom/hpl_sercom.o
 .bss.__malloc_free_list
                0x000000002000009c        0x4 /usr/local/Cellar/arm-gcc-bin/9-2019-q4-major/bin/../lib/gcc/arm-none-eabi/9.2.1/../../../../arm-none-eabi/lib/thumb/v6-m/nofp/libc_nano.a(lib_a-nano-mallocr.o)
                0x000000002000009c                __malloc_free_list
 .bss.__malloc_sbrk_start
                0x00000000200000a0        0x4 /usr/local/Cellar/arm-gcc-bin/9-2019-q4-major/bin/../lib/gcc/arm-none-eabi/9.2.1/../../../../arm-none-eabi/lib/thumb/v6-m/nofp/libc_nano.a(lib_a-nano-mallocr.o)
                0x00000000200000a0                __malloc_sbrk_start
 *(COMMON)
 COMMON         0x00000000200000a4        0x8 main.o
                0x00000000200000a4                spi_master
                0x00000000200000a8                uart_dbg
 COMMON         0x00000000200000ac       0x68 driver_init.o
                0x00000000200000ac                UART_DBG
                0x00000000200000fc                SPI_MASTER
 COMMON         0x0000000020000114        0x9 /usr/local/Cellar/arm-gcc-bin/9-2019-q4-major/bin/../lib/gcc/arm-none-eabi/9.2.1/../../../../arm-none-eabi/lib/thumb/v6-m/nofp/libc_nano.a(lib_a-lock.o)
                0x0000000020000114                __lock___atexit_recursive_mutex
                0x0000000020000115                __lock___arc4random_mutex
                0x0000000020000116                __lock___env_recursive_mutex
                0x0000000020000117                __lock___sinit_recursive_mutex
                0x0000000020000118                __lock___malloc_recursive_mutex
                0x0000000020000119                __lock___at_quick_exit_mutex
                0x000000002000011a                __lock___dd_hash_mutex
                0x000000002000011b                __lock___tz_mutex
                0x000000002000011c                __lock___sfp_recursive_mutex
 *fill*         0x000000002000011d        0x3 
 COMMON         0x0000000020000120        0x4 /usr/local/Cellar/arm-gcc-bin/9-2019-q4-major/bin/../lib/gcc/arm-none-eabi/9.2.1/../../../../arm-none-eabi/lib/thumb/v6-m/nofp/libc_nano.a(lib_a-reent.o)
                0x0000000020000120                errno
                0x0000000020000124                . = ALIGN (0x4)
                0x0000000020000124                _ebss = .
                0x0000000020000124                _ezero = .

.stack          0x0000000020000124     0x2004 load address 0x0000000000002308
                0x0000000020000128                . = ALIGN (0x8)
 *fill*         0x0000000020000124        0x4 
                0x0000000020000128                _sstack = .
                0x0000000020002128                . = (. + STACK_SIZE)
 *fill*         0x0000000020000128     0x2000 
                0x0000000020002128                . = ALIGN (0x8)
                0x0000000020002128                _estack = .
                0x0000000020002128                . = ALIGN (0x4)
                0x0000000020002128                _end = .
OUTPUT(AtmelStart.elf elf32-littlearm)

.ARM.attributes
                0x0000000000000000       0x28
 .ARM.attributes
                0x0000000000000000       0x1e /usr/local/Cellar/arm-gcc-bin/9-2019-q4-major/bin/../lib/gcc/arm-none-eabi/9.2.1/thumb/v6-m/nofp/crti.o
 .ARM.attributes
                0x000000000000001e       0x2c /usr/local/Cellar/arm-gcc-bin/9-2019-q4-major/bin/../lib/gcc/arm-none-eabi/9.2.1/thumb/v6-m/nofp/crtbegin.o
 .ARM.attributes
                0x000000000000004a       0x2c hal/src/hal_io.o
 .ARM.attributes
                0x0000000000000076       0x2c hpl/systick/hpl_systick.o
 .ARM.attributes
                0x00000000000000a2       0x2c hal/utils/src/utils_syscalls.o
 .ARM.attributes
                0x00000000000000ce       0x2c samc21/gcc/gcc/startup_samc21.o
 .ARM.attributes
                0x00000000000000fa       0x2c hal/src/hal_spi_m_sync.o
 .ARM.attributes
                0x0000000000000126       0x2c hal/src/hal_delay.o
 .ARM.attributes
                0x0000000000000152       0x2c hpl/oscctrl/hpl_oscctrl.o
 .ARM.attributes
                0x000000000000017e       0x2c hpl/core/hpl_init.o
 .ARM.attributes
                0x00000000000001aa       0x2c hal/utils/src/utils_assert.o
 .ARM.attributes
                0x00000000000001d6       0x2c hpl/mclk/hpl_mclk.o
 .ARM.attributes
                0x0000000000000202       0x2c hpl/gclk/hpl_gclk.o
 .ARM.attributes
                0x000000000000022e       0x2c main.o
 .ARM.attributes
                0x000000000000025a       0x2c hpl/osc32kctrl/hpl_osc32kctrl.o
 .ARM.attributes
                0x0000000000000286       0x2c driver_init.o
 .ARM.attributes
                0x00000000000002b2       0x2c hal/src/hal_usart_async.o
 .ARM.attributes
                0x00000000000002de       0x2c hpl/sercom/hpl_sercom.o
 .ARM.attributes
                0x000000000000030a       0x2c hal/utils/src/utils_ringbuffer.o
 .ARM.attributes
                0x0000000000000336       0x2c hpl/divas/hpl_divas.o
 .ARM.attributes
                0x0000000000000362       0x2c atmel_start.o
 .ARM.attributes
                0x000000000000038e       0x2c hal/src/hal_atomic.o
 .ARM.attributes
                0x00000000000003ba       0x2c /usr/local/Cellar/arm-gcc-bin/9-2019-q4-major/bin/../lib/gcc/arm-none-eabi/9.2.1/../../../../arm-none-eabi/lib/thumb/v6-m/nofp/libc_nano.a(lib_a-impure.o)
 .ARM.attributes
                0x00000000000003e6       0x2c /usr/local/Cellar/arm-gcc-bin/9-2019-q4-major/bin/../lib/gcc/arm-none-eabi/9.2.1/../../../../arm-none-eabi/lib/thumb/v6-m/nofp/libc_nano.a(lib_a-init.o)
 .ARM.attributes
                0x0000000000000412       0x2c /usr/local/Cellar/arm-gcc-bin/9-2019-q4-major/bin/../lib/gcc/arm-none-eabi/9.2.1/../../../../arm-none-eabi/lib/thumb/v6-m/nofp/libc_nano.a(lib_a-memcpy-stub.o)
 .ARM.attributes
                0x000000000000043e       0x2c /usr/local/Cellar/arm-gcc-bin/9-2019-q4-major/bin/../lib/gcc/arm-none-eabi/9.2.1/../../../../arm-none-eabi/lib/thumb/v6-m/nofp/libc_nano.a(lib_a-memset.o)
 .ARM.attributes
                0x000000000000046a       0x2c /usr/local/Cellar/arm-gcc-bin/9-2019-q4-major/bin/../lib/gcc/arm-none-eabi/9.2.1/../../../../arm-none-eabi/lib/thumb/v6-m/nofp/libc_nano.a(lib_a-printf.o)
 .ARM.attributes
                0x0000000000000496       0x2c /usr/local/Cellar/arm-gcc-bin/9-2019-q4-major/bin/../lib/gcc/arm-none-eabi/9.2.1/../../../../arm-none-eabi/lib/thumb/v6-m/nofp/libc_nano.a(lib_a-findfp.o)
 .ARM.attributes
                0x00000000000004c2       0x2c /usr/local/Cellar/arm-gcc-bin/9-2019-q4-major/bin/../lib/gcc/arm-none-eabi/9.2.1/../../../../arm-none-eabi/lib/thumb/v6-m/nofp/libc_nano.a(lib_a-fwalk.o)
 .ARM.attributes
                0x00000000000004ee       0x2c /usr/local/Cellar/arm-gcc-bin/9-2019-q4-major/bin/../lib/gcc/arm-none-eabi/9.2.1/../../../../arm-none-eabi/lib/thumb/v6-m/nofp/libc_nano.a(lib_a-lock.o)
 .ARM.attributes
                0x000000000000051a       0x2c /usr/local/Cellar/arm-gcc-bin/9-2019-q4-major/bin/../lib/gcc/arm-none-eabi/9.2.1/../../../../arm-none-eabi/lib/thumb/v6-m/nofp/libc_nano.a(lib_a-nano-mallocr.o)
 .ARM.attributes
                0x0000000000000546       0x2c /usr/local/Cellar/arm-gcc-bin/9-2019-q4-major/bin/../lib/gcc/arm-none-eabi/9.2.1/../../../../arm-none-eabi/lib/thumb/v6-m/nofp/libc_nano.a(lib_a-nano-vfprintf.o)
 .ARM.attributes
                0x0000000000000572       0x2c /usr/local/Cellar/arm-gcc-bin/9-2019-q4-major/bin/../lib/gcc/arm-none-eabi/9.2.1/../../../../arm-none-eabi/lib/thumb/v6-m/nofp/libc_nano.a(lib_a-nano-vfprintf_i.o)
 .ARM.attributes
                0x000000000000059e       0x2c /usr/local/Cellar/arm-gcc-bin/9-2019-q4-major/bin/../lib/gcc/arm-none-eabi/9.2.1/../../../../arm-none-eabi/lib/thumb/v6-m/nofp/libc_nano.a(lib_a-sbrkr.o)
 .ARM.attributes
                0x00000000000005ca       0x2c /usr/local/Cellar/arm-gcc-bin/9-2019-q4-major/bin/../lib/gcc/arm-none-eabi/9.2.1/../../../../arm-none-eabi/lib/thumb/v6-m/nofp/libc_nano.a(lib_a-stdio.o)
 .ARM.attributes
                0x00000000000005f6       0x2c /usr/local/Cellar/arm-gcc-bin/9-2019-q4-major/bin/../lib/gcc/arm-none-eabi/9.2.1/../../../../arm-none-eabi/lib/thumb/v6-m/nofp/libc_nano.a(lib_a-wbuf.o)
 .ARM.attributes
                0x0000000000000622       0x2c /usr/local/Cellar/arm-gcc-bin/9-2019-q4-major/bin/../lib/gcc/arm-none-eabi/9.2.1/../../../../arm-none-eabi/lib/thumb/v6-m/nofp/libc_nano.a(lib_a-writer.o)
 .ARM.attributes
                0x000000000000064e       0x2c /usr/local/Cellar/arm-gcc-bin/9-2019-q4-major/bin/../lib/gcc/arm-none-eabi/9.2.1/../../../../arm-none-eabi/lib/thumb/v6-m/nofp/libc_nano.a(lib_a-wsetup.o)
 .ARM.attributes
                0x000000000000067a       0x2c /usr/local/Cellar/arm-gcc-bin/9-2019-q4-major/bin/../lib/gcc/arm-none-eabi/9.2.1/../../../../arm-none-eabi/lib/thumb/v6-m/nofp/libc_nano.a(lib_a-closer.o)
 .ARM.attributes
                0x00000000000006a6       0x2c /usr/local/Cellar/arm-gcc-bin/9-2019-q4-major/bin/../lib/gcc/arm-none-eabi/9.2.1/../../../../arm-none-eabi/lib/thumb/v6-m/nofp/libc_nano.a(lib_a-fflush.o)
 .ARM.attributes
                0x00000000000006d2       0x2c /usr/local/Cellar/arm-gcc-bin/9-2019-q4-major/bin/../lib/gcc/arm-none-eabi/9.2.1/../../../../arm-none-eabi/lib/thumb/v6-m/nofp/libc_nano.a(lib_a-lseekr.o)
 .ARM.attributes
                0x00000000000006fe       0x2c /usr/local/Cellar/arm-gcc-bin/9-2019-q4-major/bin/../lib/gcc/arm-none-eabi/9.2.1/../../../../arm-none-eabi/lib/thumb/v6-m/nofp/libc_nano.a(lib_a-makebuf.o)
 .ARM.attributes
                0x000000000000072a       0x2c /usr/local/Cellar/arm-gcc-bin/9-2019-q4-major/bin/../lib/gcc/arm-none-eabi/9.2.1/../../../../arm-none-eabi/lib/thumb/v6-m/nofp/libc_nano.a(lib_a-memchr-stub.o)
 .ARM.attributes
                0x0000000000000756       0x2c /usr/local/Cellar/arm-gcc-bin/9-2019-q4-major/bin/../lib/gcc/arm-none-eabi/9.2.1/../../../../arm-none-eabi/lib/thumb/v6-m/nofp/libc_nano.a(lib_a-mlock.o)
 .ARM.attributes
                0x0000000000000782       0x2c /usr/local/Cellar/arm-gcc-bin/9-2019-q4-major/bin/../lib/gcc/arm-none-eabi/9.2.1/../../../../arm-none-eabi/lib/thumb/v6-m/nofp/libc_nano.a(lib_a-nano-freer.o)
 .ARM.attributes
                0x00000000000007ae       0x2c /usr/local/Cellar/arm-gcc-bin/9-2019-q4-major/bin/../lib/gcc/arm-none-eabi/9.2.1/../../../../arm-none-eabi/lib/thumb/v6-m/nofp/libc_nano.a(lib_a-readr.o)
 .ARM.attributes
                0x00000000000007da       0x2c /usr/local/Cellar/arm-gcc-bin/9-2019-q4-major/bin/../lib/gcc/arm-none-eabi/9.2.1/../../../../arm-none-eabi/lib/thumb/v6-m/nofp/libc_nano.a(lib_a-reent.o)
 .ARM.attributes
                0x0000000000000806       0x2c /usr/local/Cellar/arm-gcc-bin/9-2019-q4-major/bin/../lib/gcc/arm-none-eabi/9.2.1/../../../../arm-none-eabi/lib/thumb/v6-m/nofp/libc_nano.a(lib_a-fstatr.o)
 .ARM.attributes
                0x0000000000000832       0x2c /usr/local/Cellar/arm-gcc-bin/9-2019-q4-major/bin/../lib/gcc/arm-none-eabi/9.2.1/../../../../arm-none-eabi/lib/thumb/v6-m/nofp/libc_nano.a(lib_a-isattyr.o)
 .ARM.attributes
                0x000000000000085e       0x1e /usr/local/Cellar/arm-gcc-bin/9-2019-q4-major/bin/../lib/gcc/arm-none-eabi/9.2.1/thumb/v6-m/nofp/libgcc.a(_thumb1_case_shi.o)
 .ARM.attributes
                0x000000000000087c       0x1e /usr/local/Cellar/arm-gcc-bin/9-2019-q4-major/bin/../lib/gcc/arm-none-eabi/9.2.1/thumb/v6-m/nofp/crtn.o

.comment        0x0000000000000000       0x79
 .comment       0x0000000000000000       0x79 hal/src/hal_io.o
                                         0x7a (size before relaxing)
 .comment       0x0000000000000079       0x7a hpl/systick/hpl_systick.o
 .comment       0x0000000000000079       0x7a hal/utils/src/utils_syscalls.o
 .comment       0x0000000000000079       0x7a samc21/gcc/gcc/startup_samc21.o
 .comment       0x0000000000000079       0x7a hal/src/hal_spi_m_sync.o
 .comment       0x0000000000000079       0x7a hal/src/hal_delay.o
 .comment       0x0000000000000079       0x7a hpl/oscctrl/hpl_oscctrl.o
 .comment       0x0000000000000079       0x7a hpl/core/hpl_init.o
 .comment       0x0000000000000079       0x7a hal/utils/src/utils_assert.o
 .comment       0x0000000000000079       0x7a hpl/mclk/hpl_mclk.o
 .comment       0x0000000000000079       0x7a hpl/gclk/hpl_gclk.o
 .comment       0x0000000000000079       0x7a main.o
 .comment       0x0000000000000079       0x7a hpl/osc32kctrl/hpl_osc32kctrl.o
 .comment       0x0000000000000079       0x7a driver_init.o
 .comment       0x0000000000000079       0x7a hal/src/hal_usart_async.o
 .comment       0x0000000000000079       0x7a hpl/sercom/hpl_sercom.o
 .comment       0x0000000000000079       0x7a hal/utils/src/utils_ringbuffer.o
 .comment       0x0000000000000079       0x7a hpl/divas/hpl_divas.o
 .comment       0x0000000000000079       0x7a atmel_start.o
 .comment       0x0000000000000079       0x7a hal/src/hal_atomic.o

.debug_info     0x0000000000000000    0x18be2
 .debug_info    0x0000000000000000      0x2bf hal/src/hal_io.o
 .debug_info    0x00000000000002bf      0x256 hpl/systick/hpl_systick.o
 .debug_info    0x0000000000000515      0xd77 hal/utils/src/utils_syscalls.o
 .debug_info    0x000000000000128c      0x4ca samc21/gcc/gcc/startup_samc21.o
 .debug_info    0x0000000000001756      0xa10 hal/src/hal_spi_m_sync.o
 .debug_info    0x0000000000002166      0x1d1 hal/src/hal_delay.o
 .debug_info    0x0000000000002337      0xe1d hpl/oscctrl/hpl_oscctrl.o
 .debug_info    0x0000000000003154      0x766 hpl/core/hpl_init.o
 .debug_info    0x00000000000038ba       0xfd hal/utils/src/utils_assert.o
 .debug_info    0x00000000000039b7      0x7ae hpl/mclk/hpl_mclk.o
 .debug_info    0x0000000000004165      0x5a2 hpl/gclk/hpl_gclk.o
 .debug_info    0x0000000000004707     0x19c2 main.o
 .debug_info    0x00000000000060c9      0x79f hpl/osc32kctrl/hpl_osc32kctrl.o
 .debug_info    0x0000000000006868     0x478d driver_init.o
 .debug_info    0x000000000000aff5     0x12bb hal/src/hal_usart_async.o
 .debug_info    0x000000000000c2b0     0xb6ed hpl/sercom/hpl_sercom.o
 .debug_info    0x000000000001799d      0x300 hal/utils/src/utils_ringbuffer.o
 .debug_info    0x0000000000017c9d      0x922 hpl/divas/hpl_divas.o
 .debug_info    0x00000000000185bf      0x440 atmel_start.o
 .debug_info    0x00000000000189ff      0x1e3 hal/src/hal_atomic.o

.debug_abbrev   0x0000000000000000     0x2c27
 .debug_abbrev  0x0000000000000000      0x12a hal/src/hal_io.o
 .debug_abbrev  0x000000000000012a      0x189 hpl/systick/hpl_systick.o
 .debug_abbrev  0x00000000000002b3      0x2c4 hal/utils/src/utils_syscalls.o
 .debug_abbrev  0x0000000000000577      0x16b samc21/gcc/gcc/startup_samc21.o
 .debug_abbrev  0x00000000000006e2      0x1d9 hal/src/hal_spi_m_sync.o
 .debug_abbrev  0x00000000000008bb       0xef hal/src/hal_delay.o
 .debug_abbrev  0x00000000000009aa      0x241 hpl/oscctrl/hpl_oscctrl.o
 .debug_abbrev  0x0000000000000beb      0x1f9 hpl/core/hpl_init.o
 .debug_abbrev  0x0000000000000de4       0x8c hal/utils/src/utils_assert.o
 .debug_abbrev  0x0000000000000e70      0x1d8 hpl/mclk/hpl_mclk.o
 .debug_abbrev  0x0000000000001048      0x1c9 hpl/gclk/hpl_gclk.o
 .debug_abbrev  0x0000000000001211      0x459 main.o
 .debug_abbrev  0x000000000000166a      0x224 hpl/osc32kctrl/hpl_osc32kctrl.o
 .debug_abbrev  0x000000000000188e      0x3c6 driver_init.o
 .debug_abbrev  0x0000000000001c54      0x304 hal/src/hal_usart_async.o
 .debug_abbrev  0x0000000000001f58      0x6c1 hpl/sercom/hpl_sercom.o
 .debug_abbrev  0x0000000000002619      0x109 hal/utils/src/utils_ringbuffer.o
 .debug_abbrev  0x0000000000002722      0x2a2 hpl/divas/hpl_divas.o
 .debug_abbrev  0x00000000000029c4       0xf7 atmel_start.o
 .debug_abbrev  0x0000000000002abb      0x16c hal/src/hal_atomic.o

.debug_loc      0x0000000000000000     0x9a14
 .debug_loc     0x0000000000000000      0x112 hal/src/hal_io.o
 .debug_loc     0x0000000000000112       0xe5 hpl/systick/hpl_systick.o
 .debug_loc     0x00000000000001f7      0x132 hal/utils/src/utils_syscalls.o
 .debug_loc     0x0000000000000329       0x5a samc21/gcc/gcc/startup_samc21.o
 .debug_loc     0x0000000000000383      0x571 hal/src/hal_spi_m_sync.o
 .debug_loc     0x00000000000008f4       0x6f hal/src/hal_delay.o
 .debug_loc     0x0000000000000963       0xde hpl/oscctrl/hpl_oscctrl.o
 .debug_loc     0x0000000000000a41       0x30 hpl/core/hpl_init.o
 .debug_loc     0x0000000000000a71       0x30 hpl/mclk/hpl_mclk.o
 .debug_loc     0x0000000000000aa1       0x7c hpl/gclk/hpl_gclk.o
 .debug_loc     0x0000000000000b1d      0x38a main.o
 .debug_loc     0x0000000000000ea7       0xca hpl/osc32kctrl/hpl_osc32kctrl.o
 .debug_loc     0x0000000000000f71     0x107b driver_init.o
 .debug_loc     0x0000000000001fec      0xb73 hal/src/hal_usart_async.o
 .debug_loc     0x0000000000002b5f     0x69b9 hpl/sercom/hpl_sercom.o
 .debug_loc     0x0000000000009518      0x1f5 hal/utils/src/utils_ringbuffer.o
 .debug_loc     0x000000000000970d      0x2dd hpl/divas/hpl_divas.o
 .debug_loc     0x00000000000099ea       0x2a hal/src/hal_atomic.o

.debug_aranges  0x0000000000000000      0x9e0
 .debug_aranges
                0x0000000000000000       0x30 hal/src/hal_io.o
 .debug_aranges
                0x0000000000000030       0x40 hpl/systick/hpl_systick.o
 .debug_aranges
                0x0000000000000070       0x60 hal/utils/src/utils_syscalls.o
 .debug_aranges
                0x00000000000000d0       0x28 samc21/gcc/gcc/startup_samc21.o
 .debug_aranges
                0x00000000000000f8       0x88 hal/src/hal_spi_m_sync.o
 .debug_aranges
                0x0000000000000180       0x38 hal/src/hal_delay.o
 .debug_aranges
                0x00000000000001b8       0x28 hpl/oscctrl/hpl_oscctrl.o
 .debug_aranges
                0x00000000000001e0       0x20 hpl/core/hpl_init.o
 .debug_aranges
                0x0000000000000200       0x20 hal/utils/src/utils_assert.o
 .debug_aranges
                0x0000000000000220       0x20 hpl/mclk/hpl_mclk.o
 .debug_aranges
                0x0000000000000240       0x28 hpl/gclk/hpl_gclk.o
 .debug_aranges
                0x0000000000000268       0x40 main.o
 .debug_aranges
                0x00000000000002a8       0x20 hpl/osc32kctrl/hpl_osc32kctrl.o
 .debug_aranges
                0x00000000000002c8       0x60 driver_init.o
 .debug_aranges
                0x0000000000000328       0xe0 hal/src/hal_usart_async.o
 .debug_aranges
                0x0000000000000408      0x508 hpl/sercom/hpl_sercom.o
 .debug_aranges
                0x0000000000000910       0x40 hal/utils/src/utils_ringbuffer.o
 .debug_aranges
                0x0000000000000950       0x40 hpl/divas/hpl_divas.o
 .debug_aranges
                0x0000000000000990       0x20 atmel_start.o
 .debug_aranges
                0x00000000000009b0       0x30 hal/src/hal_atomic.o

.debug_ranges   0x0000000000000000     0x21e0
 .debug_ranges  0x0000000000000000       0x20 hal/src/hal_io.o
 .debug_ranges  0x0000000000000020       0x30 hpl/systick/hpl_systick.o
 .debug_ranges  0x0000000000000050       0x50 hal/utils/src/utils_syscalls.o
 .debug_ranges  0x00000000000000a0       0x18 samc21/gcc/gcc/startup_samc21.o
 .debug_ranges  0x00000000000000b8       0x78 hal/src/hal_spi_m_sync.o
 .debug_ranges  0x0000000000000130       0x28 hal/src/hal_delay.o
 .debug_ranges  0x0000000000000158       0x78 hpl/oscctrl/hpl_oscctrl.o
 .debug_ranges  0x00000000000001d0       0x30 hpl/core/hpl_init.o
 .debug_ranges  0x0000000000000200       0x10 hal/utils/src/utils_assert.o
 .debug_ranges  0x0000000000000210       0x28 hpl/mclk/hpl_mclk.o
 .debug_ranges  0x0000000000000238       0x18 hpl/gclk/hpl_gclk.o
 .debug_ranges  0x0000000000000250      0x1b0 main.o
 .debug_ranges  0x0000000000000400       0x30 hpl/osc32kctrl/hpl_osc32kctrl.o
 .debug_ranges  0x0000000000000430      0x558 driver_init.o
 .debug_ranges  0x0000000000000988       0xd0 hal/src/hal_usart_async.o
 .debug_ranges  0x0000000000000a58     0x1620 hpl/sercom/hpl_sercom.o
 .debug_ranges  0x0000000000002078       0x30 hal/utils/src/utils_ringbuffer.o
 .debug_ranges  0x00000000000020a8      0x108 hpl/divas/hpl_divas.o
 .debug_ranges  0x00000000000021b0       0x10 atmel_start.o
 .debug_ranges  0x00000000000021c0       0x20 hal/src/hal_atomic.o

.debug_macro    0x0000000000000000    0x1eb23
 .debug_macro   0x0000000000000000      0x54f hal/src/hal_io.o
 .debug_macro   0x000000000000054f      0xa7e hal/src/hal_io.o
 .debug_macro   0x0000000000000fcd      0x16d hal/src/hal_io.o
 .debug_macro   0x000000000000113a       0x22 hal/src/hal_io.o
 .debug_macro   0x000000000000115c       0x8e hal/src/hal_io.o
 .debug_macro   0x00000000000011ea       0x51 hal/src/hal_io.o
 .debug_macro   0x000000000000123b       0xef hal/src/hal_io.o
 .debug_macro   0x000000000000132a       0x6a hal/src/hal_io.o
 .debug_macro   0x0000000000001394      0x1df hal/src/hal_io.o
 .debug_macro   0x0000000000001573       0x22 hal/src/hal_io.o
 .debug_macro   0x0000000000001595       0x3f hal/src/hal_io.o
 .debug_macro   0x00000000000015d4       0x1c hal/src/hal_io.o
 .debug_macro   0x00000000000015f0       0x22 hal/src/hal_io.o
 .debug_macro   0x0000000000001612       0xb5 hal/src/hal_io.o
 .debug_macro   0x00000000000016c7      0x4da hal/src/hal_io.o
 .debug_macro   0x0000000000001ba1      0x11f hal/src/hal_io.o
 .debug_macro   0x0000000000001cc0      0x897 hal/src/hal_io.o
 .debug_macro   0x0000000000002557      0x8c0 hal/src/hal_io.o
 .debug_macro   0x0000000000002e17     0x2d61 hal/src/hal_io.o
 .debug_macro   0x0000000000005b78      0x21e hal/src/hal_io.o
 .debug_macro   0x0000000000005d96      0x282 hal/src/hal_io.o
 .debug_macro   0x0000000000006018      0x130 hal/src/hal_io.o
 .debug_macro   0x0000000000006148      0xd32 hal/src/hal_io.o
 .debug_macro   0x0000000000006e7a      0x61f hal/src/hal_io.o
 .debug_macro   0x0000000000007499      0x5be hal/src/hal_io.o
 .debug_macro   0x0000000000007a57      0x824 hal/src/hal_io.o
 .debug_macro   0x000000000000827b      0x172 hal/src/hal_io.o
 .debug_macro   0x00000000000083ed      0x306 hal/src/hal_io.o
 .debug_macro   0x00000000000086f3      0x55f hal/src/hal_io.o
 .debug_macro   0x0000000000008c52      0x421 hal/src/hal_io.o
 .debug_macro   0x0000000000009073      0x21c hal/src/hal_io.o
 .debug_macro   0x000000000000928f      0x719 hal/src/hal_io.o
 .debug_macro   0x00000000000099a8      0x5ab hal/src/hal_io.o
 .debug_macro   0x0000000000009f53      0x335 hal/src/hal_io.o
 .debug_macro   0x000000000000a288      0x68d hal/src/hal_io.o
 .debug_macro   0x000000000000a915       0xc4 hal/src/hal_io.o
 .debug_macro   0x000000000000a9d9      0x340 hal/src/hal_io.o
 .debug_macro   0x000000000000ad19       0x6a hal/src/hal_io.o
 .debug_macro   0x000000000000ad83     0x124b hal/src/hal_io.o
 .debug_macro   0x000000000000bfce      0x5a5 hal/src/hal_io.o
 .debug_macro   0x000000000000c573      0xfc4 hal/src/hal_io.o
 .debug_macro   0x000000000000d537      0x59e hal/src/hal_io.o
 .debug_macro   0x000000000000dad5      0x8ae hal/src/hal_io.o
 .debug_macro   0x000000000000e383     0x19be hal/src/hal_io.o
 .debug_macro   0x000000000000fd41      0x39c hal/src/hal_io.o
 .debug_macro   0x00000000000100dd      0x36a hal/src/hal_io.o
 .debug_macro   0x0000000000010447       0x94 hal/src/hal_io.o
 .debug_macro   0x00000000000104db       0xac hal/src/hal_io.o
 .debug_macro   0x0000000000010587       0xac hal/src/hal_io.o
 .debug_macro   0x0000000000010633      0x149 hal/src/hal_io.o
 .debug_macro   0x000000000001077c      0x149 hal/src/hal_io.o
 .debug_macro   0x00000000000108c5       0x4c hal/src/hal_io.o
 .debug_macro   0x0000000000010911       0x58 hal/src/hal_io.o
 .debug_macro   0x0000000000010969       0x3a hal/src/hal_io.o
 .debug_macro   0x00000000000109a3       0xd6 hal/src/hal_io.o
 .debug_macro   0x0000000000010a79       0xb8 hal/src/hal_io.o
 .debug_macro   0x0000000000010b31       0x64 hal/src/hal_io.o
 .debug_macro   0x0000000000010b95      0x5d7 hal/src/hal_io.o
 .debug_macro   0x000000000001116c       0x4c hal/src/hal_io.o
 .debug_macro   0x00000000000111b8      0x1be hal/src/hal_io.o
 .debug_macro   0x0000000000011376      0x184 hal/src/hal_io.o
 .debug_macro   0x00000000000114fa       0x52 hal/src/hal_io.o
 .debug_macro   0x000000000001154c       0xa0 hal/src/hal_io.o
 .debug_macro   0x00000000000115ec       0xd6 hal/src/hal_io.o
 .debug_macro   0x00000000000116c2       0x94 hal/src/hal_io.o
 .debug_macro   0x0000000000011756       0x4c hal/src/hal_io.o
 .debug_macro   0x00000000000117a2       0x64 hal/src/hal_io.o
 .debug_macro   0x0000000000011806       0x22 hal/src/hal_io.o
 .debug_macro   0x0000000000011828      0x16c hal/src/hal_io.o
 .debug_macro   0x0000000000011994       0x2e hal/src/hal_io.o
 .debug_macro   0x00000000000119c2       0x16 hal/src/hal_io.o
 .debug_macro   0x00000000000119d8       0xd6 hal/src/hal_io.o
 .debug_macro   0x0000000000011aae       0xa0 hal/src/hal_io.o
 .debug_macro   0x0000000000011b4e      0x133 hal/src/hal_io.o
 .debug_macro   0x0000000000011c81      0x133 hal/src/hal_io.o
 .debug_macro   0x0000000000011db4      0x133 hal/src/hal_io.o
 .debug_macro   0x0000000000011ee7      0x133 hal/src/hal_io.o
 .debug_macro   0x000000000001201a      0x133 hal/src/hal_io.o
 .debug_macro   0x000000000001214d      0x133 hal/src/hal_io.o
 .debug_macro   0x0000000000012280       0x4c hal/src/hal_io.o
 .debug_macro   0x00000000000122cc       0xfa hal/src/hal_io.o
 .debug_macro   0x00000000000123c6       0xfa hal/src/hal_io.o
 .debug_macro   0x00000000000124c0       0xfa hal/src/hal_io.o
 .debug_macro   0x00000000000125ba       0xfa hal/src/hal_io.o
 .debug_macro   0x00000000000126b4       0xfa hal/src/hal_io.o
 .debug_macro   0x00000000000127ae      0x124 hal/src/hal_io.o
 .debug_macro   0x00000000000128d2       0xfa hal/src/hal_io.o
 .debug_macro   0x00000000000129cc       0xee hal/src/hal_io.o
 .debug_macro   0x0000000000012aba       0x76 hal/src/hal_io.o
 .debug_macro   0x0000000000012b30       0x3a hal/src/hal_io.o
 .debug_macro   0x0000000000012b6a      0x46b hal/src/hal_io.o
 .debug_macro   0x0000000000012fd5     0x2678 hal/src/hal_io.o
 .debug_macro   0x000000000001564d       0x82 hal/src/hal_io.o
 .debug_macro   0x00000000000156cf       0x10 hal/src/hal_io.o
 .debug_macro   0x00000000000156df       0x10 hal/src/hal_io.o
 .debug_macro   0x00000000000156ef       0x16 hal/src/hal_io.o
 .debug_macro   0x0000000000015705       0x16 hal/src/hal_io.o
 .debug_macro   0x000000000001571b       0x16 hal/src/hal_io.o
 .debug_macro   0x0000000000015731       0x16 hal/src/hal_io.o
 .debug_macro   0x0000000000015747       0x16 hal/src/hal_io.o
 .debug_macro   0x000000000001575d       0x16 hal/src/hal_io.o
 .debug_macro   0x0000000000015773       0x16 hal/src/hal_io.o
 .debug_macro   0x0000000000015789       0x16 hal/src/hal_io.o
 .debug_macro   0x000000000001579f       0x16 hal/src/hal_io.o
 .debug_macro   0x00000000000157b5       0x16 hal/src/hal_io.o
 .debug_macro   0x00000000000157cb       0x16 hal/src/hal_io.o
 .debug_macro   0x00000000000157e1       0x16 hal/src/hal_io.o
 .debug_macro   0x00000000000157f7       0x16 hal/src/hal_io.o
 .debug_macro   0x000000000001580d       0x16 hal/src/hal_io.o
 .debug_macro   0x0000000000015823       0x16 hal/src/hal_io.o
 .debug_macro   0x0000000000015839       0x16 hal/src/hal_io.o
 .debug_macro   0x000000000001584f       0x16 hal/src/hal_io.o
 .debug_macro   0x0000000000015865       0x16 hal/src/hal_io.o
 .debug_macro   0x000000000001587b       0x16 hal/src/hal_io.o
 .debug_macro   0x0000000000015891       0x16 hal/src/hal_io.o
 .debug_macro   0x00000000000158a7       0x16 hal/src/hal_io.o
 .debug_macro   0x00000000000158bd      0x262 hal/src/hal_io.o
 .debug_macro   0x0000000000015b1f       0x16 hal/src/hal_io.o
 .debug_macro   0x0000000000015b35       0x94 hal/src/hal_io.o
 .debug_macro   0x0000000000015bc9       0x16 hal/src/hal_io.o
 .debug_macro   0x0000000000015bdf       0xbe hal/src/hal_io.o
 .debug_macro   0x0000000000015c9d      0x28c hal/src/hal_io.o
 .debug_macro   0x0000000000015f29       0x16 hal/src/hal_io.o
 .debug_macro   0x0000000000015f3f       0x16 hal/src/hal_io.o
 .debug_macro   0x0000000000015f55       0xca hal/src/hal_io.o
 .debug_macro   0x000000000001601f       0x16 hal/src/hal_io.o
 .debug_macro   0x0000000000016035      0x549 hpl/systick/hpl_systick.o
 .debug_macro   0x000000000001657e       0x10 hpl/systick/hpl_systick.o
 .debug_macro   0x000000000001658e      0x1e3 hal/utils/src/utils_syscalls.o
 .debug_macro   0x0000000000016771       0x58 hal/utils/src/utils_syscalls.o
 .debug_macro   0x00000000000167c9       0x18 hal/utils/src/utils_syscalls.o
 .debug_macro   0x00000000000167e1       0x94 hal/utils/src/utils_syscalls.o
 .debug_macro   0x0000000000016875       0x35 hal/utils/src/utils_syscalls.o
 .debug_macro   0x00000000000168aa       0x34 hal/utils/src/utils_syscalls.o
 .debug_macro   0x00000000000168de       0x16 hal/utils/src/utils_syscalls.o
 .debug_macro   0x00000000000168f4       0x57 hal/utils/src/utils_syscalls.o
 .debug_macro   0x000000000001694b       0x97 hal/utils/src/utils_syscalls.o
 .debug_macro   0x00000000000169e2      0x35c hal/utils/src/utils_syscalls.o
 .debug_macro   0x0000000000016d3e       0xf6 hal/utils/src/utils_syscalls.o
 .debug_macro   0x0000000000016e34       0x10 hal/utils/src/utils_syscalls.o
 .debug_macro   0x0000000000016e44       0x58 hal/utils/src/utils_syscalls.o
 .debug_macro   0x0000000000016e9c       0x1f hal/utils/src/utils_syscalls.o
 .debug_macro   0x0000000000016ebb       0x43 hal/utils/src/utils_syscalls.o
 .debug_macro   0x0000000000016efe       0x20 hal/utils/src/utils_syscalls.o
 .debug_macro   0x0000000000016f1e      0x18e hal/utils/src/utils_syscalls.o
 .debug_macro   0x00000000000170ac       0x10 hal/utils/src/utils_syscalls.o
 .debug_macro   0x00000000000170bc       0x1c hal/utils/src/utils_syscalls.o
 .debug_macro   0x00000000000170d8       0x52 hal/utils/src/utils_syscalls.o
 .debug_macro   0x000000000001712a       0x40 hal/utils/src/utils_syscalls.o
 .debug_macro   0x000000000001716a       0x10 hal/utils/src/utils_syscalls.o
 .debug_macro   0x000000000001717a       0x40 hal/utils/src/utils_syscalls.o
 .debug_macro   0x00000000000171ba       0xd7 hal/utils/src/utils_syscalls.o
 .debug_macro   0x0000000000017291       0x1c hal/utils/src/utils_syscalls.o
 .debug_macro   0x00000000000172ad       0x3d hal/utils/src/utils_syscalls.o
 .debug_macro   0x00000000000172ea       0x16 hal/utils/src/utils_syscalls.o
 .debug_macro   0x0000000000017300      0x16f hal/utils/src/utils_syscalls.o
 .debug_macro   0x000000000001746f       0x4c hal/utils/src/utils_syscalls.o
 .debug_macro   0x00000000000174bb       0x16 hal/utils/src/utils_syscalls.o
 .debug_macro   0x00000000000174d1       0x35 hal/utils/src/utils_syscalls.o
 .debug_macro   0x0000000000017506       0x10 hal/utils/src/utils_syscalls.o
 .debug_macro   0x0000000000017516       0x10 hal/utils/src/utils_syscalls.o
 .debug_macro   0x0000000000017526       0x35 hal/utils/src/utils_syscalls.o
 .debug_macro   0x000000000001755b      0x122 hal/utils/src/utils_syscalls.o
 .debug_macro   0x000000000001767d      0x3ba samc21/gcc/gcc/startup_samc21.o
 .debug_macro   0x0000000000017a37      0x597 hal/src/hal_spi_m_sync.o
 .debug_macro   0x0000000000017fce       0xc9 hal/src/hal_spi_m_sync.o
 .debug_macro   0x0000000000018097      0x571 hal/src/hal_delay.o
 .debug_macro   0x0000000000018608      0x549 hpl/oscctrl/hpl_oscctrl.o
 .debug_macro   0x0000000000018b51      0x130 hpl/oscctrl/hpl_oscctrl.o
 .debug_macro   0x0000000000018c81      0x5c9 hpl/core/hpl_init.o
 .debug_macro   0x000000000001924a       0x1c hpl/core/hpl_init.o
 .debug_macro   0x0000000000019266       0xcf hpl/core/hpl_init.o
 .debug_macro   0x0000000000019335       0x42 hpl/core/hpl_init.o
 .debug_macro   0x0000000000019377       0x1c hpl/core/hpl_init.o
 .debug_macro   0x0000000000019393      0x772 hpl/core/hpl_init.o
 .debug_macro   0x0000000000019b05      0x544 hal/utils/src/utils_assert.o
 .debug_macro   0x000000000001a049       0x10 hal/utils/src/utils_assert.o
 .debug_macro   0x000000000001a059      0x54e hpl/mclk/hpl_mclk.o
 .debug_macro   0x000000000001a5a7      0x553 hpl/gclk/hpl_gclk.o
 .debug_macro   0x000000000001aafa      0x1f4 hpl/gclk/hpl_gclk.o
 .debug_macro   0x000000000001acee      0x7ef main.o
 .debug_macro   0x000000000001b4dd       0x64 main.o
 .debug_macro   0x000000000001b541       0x5e main.o
 .debug_macro   0x000000000001b59f      0x356 main.o
 .debug_macro   0x000000000001b8f5      0x549 hpl/osc32kctrl/hpl_osc32kctrl.o
 .debug_macro   0x000000000001be3e       0xb8 hpl/osc32kctrl/hpl_osc32kctrl.o
 .debug_macro   0x000000000001bef6      0x679 driver_init.o
 .debug_macro   0x000000000001c56f      0x59e hal/src/hal_usart_async.o
 .debug_macro   0x000000000001cb0d      0x796 hpl/sercom/hpl_sercom.o
 .debug_macro   0x000000000001d2a3       0x70 hpl/sercom/hpl_sercom.o
 .debug_macro   0x000000000001d313      0x158 hpl/sercom/hpl_sercom.o
 .debug_macro   0x000000000001d46b       0x10 hpl/sercom/hpl_sercom.o
 .debug_macro   0x000000000001d47b       0x1c hpl/sercom/hpl_sercom.o
 .debug_macro   0x000000000001d497       0x22 hpl/sercom/hpl_sercom.o
 .debug_macro   0x000000000001d4b9       0x10 hpl/sercom/hpl_sercom.o
 .debug_macro   0x000000000001d4c9      0x549 hal/utils/src/utils_ringbuffer.o
 .debug_macro   0x000000000001da12      0x562 hpl/divas/hpl_divas.o
 .debug_macro   0x000000000001df74      0x675 atmel_start.o
 .debug_macro   0x000000000001e5e9      0x53a hal/src/hal_atomic.o

.debug_line     0x0000000000000000    0x124c6
 .debug_line    0x0000000000000000      0x9ad hal/src/hal_io.o
 .debug_line    0x00000000000009ad      0xa4e hpl/systick/hpl_systick.o
 .debug_line    0x00000000000013fb      0x453 hal/utils/src/utils_syscalls.o
 .debug_line    0x000000000000184e      0x67b samc21/gcc/gcc/startup_samc21.o
 .debug_line    0x0000000000001ec9      0xcef hal/src/hal_spi_m_sync.o
 .debug_line    0x0000000000002bb8      0x9a1 hal/src/hal_delay.o
 .debug_line    0x0000000000003559      0xa7a hpl/oscctrl/hpl_oscctrl.o
 .debug_line    0x0000000000003fd3      0xa33 hpl/core/hpl_init.o
 .debug_line    0x0000000000004a06      0x91b hal/utils/src/utils_assert.o
 .debug_line    0x0000000000005321      0x95b hpl/mclk/hpl_mclk.o
 .debug_line    0x0000000000005c7c      0x9b9 hpl/gclk/hpl_gclk.o
 .debug_line    0x0000000000006635      0xdcc main.o
 .debug_line    0x0000000000007401      0x9c0 hpl/osc32kctrl/hpl_osc32kctrl.o
 .debug_line    0x0000000000007dc1     0x1292 driver_init.o
 .debug_line    0x0000000000009053     0x100e hal/src/hal_usart_async.o
 .debug_line    0x000000000000a061     0x595c hpl/sercom/hpl_sercom.o
 .debug_line    0x000000000000f9bd      0xac7 hal/utils/src/utils_ringbuffer.o
 .debug_line    0x0000000000010484      0xc13 hpl/divas/hpl_divas.o
 .debug_line    0x0000000000011097      0xaa8 atmel_start.o
 .debug_line    0x0000000000011b3f      0x987 hal/src/hal_atomic.o

.debug_str      0x0000000000000000    0x9884d
 .debug_str     0x0000000000000000    0x891a4 hal/src/hal_io.o
                                      0x89d27 (size before relaxing)
 .debug_str     0x00000000000891a4       0xff hpl/systick/hpl_systick.o
                                      0x89cd2 (size before relaxing)
 .debug_str     0x00000000000892a3     0x45b4 hal/utils/src/utils_syscalls.o
                                       0x7be2 (size before relaxing)
 .debug_str     0x000000000008d857      0x3e2 samc21/gcc/gcc/startup_samc21.o
                                      0x85509 (size before relaxing)
 .debug_str     0x000000000008dc39      0x849 hal/src/hal_spi_m_sync.o
                                      0x8a614 (size before relaxing)
 .debug_str     0x000000000008e482       0xdb hal/src/hal_delay.o
                                      0x89ce4 (size before relaxing)
 .debug_str     0x000000000008e55d      0x9c2 hpl/oscctrl/hpl_oscctrl.o
                                      0x8a5ba (size before relaxing)
 .debug_str     0x000000000008ef1f     0x24e5 hpl/core/hpl_init.o
                                      0x8c22f (size before relaxing)
 .debug_str     0x0000000000091404       0x2a hal/utils/src/utils_assert.o
                                      0x89c8a (size before relaxing)
 .debug_str     0x000000000009142e      0x24b hpl/mclk/hpl_mclk.o
                                      0x8a098 (size before relaxing)
 .debug_str     0x0000000000091679      0x8e8 hpl/gclk/hpl_gclk.o
                                      0x8a5bf (size before relaxing)
 .debug_str     0x0000000000091f61      0x735 main.o
                                      0x8f282 (size before relaxing)
 .debug_str     0x0000000000092696      0x4f5 hpl/osc32kctrl/hpl_osc32kctrl.o
                                      0x8a19a (size before relaxing)
 .debug_str     0x0000000000092b8b      0x977 driver_init.o
                                      0x8c11a (size before relaxing)
 .debug_str     0x0000000000093502      0x63f hal/src/hal_usart_async.o
                                      0x8ab71 (size before relaxing)
 .debug_str     0x0000000000093b41     0x4a04 hpl/sercom/hpl_sercom.o
                                      0x8fd32 (size before relaxing)
 .debug_str     0x0000000000098545       0x24 hal/utils/src/utils_ringbuffer.o
                                      0x89d30 (size before relaxing)
 .debug_str     0x0000000000098569      0x2a2 hpl/divas/hpl_divas.o
                                      0x89efb (size before relaxing)
 .debug_str     0x000000000009880b       0x11 atmel_start.o
                                      0x8af6d (size before relaxing)
 .debug_str     0x000000000009881c       0x31 hal/src/hal_atomic.o
                                      0x89c7a (size before relaxing)

.debug_frame    0x0000000000000000     0x2220
 .debug_frame   0x0000000000000000       0x58 hal/src/hal_io.o
 .debug_frame   0x0000000000000058       0x7c hpl/systick/hpl_systick.o
 .debug_frame   0x00000000000000d4       0xa8 hal/utils/src/utils_syscalls.o
 .debug_frame   0x000000000000017c       0x38 samc21/gcc/gcc/startup_samc21.o
 .debug_frame   0x00000000000001b4      0x190 hal/src/hal_spi_m_sync.o
 .debug_frame   0x0000000000000344       0x68 hal/src/hal_delay.o
 .debug_frame   0x00000000000003ac       0x30 hpl/oscctrl/hpl_oscctrl.o
 .debug_frame   0x00000000000003dc       0x28 hpl/core/hpl_init.o
 .debug_frame   0x0000000000000404       0x20 hal/utils/src/utils_assert.o
 .debug_frame   0x0000000000000424       0x20 hpl/mclk/hpl_mclk.o
 .debug_frame   0x0000000000000444       0x30 hpl/gclk/hpl_gclk.o
 .debug_frame   0x0000000000000474       0x84 main.o
 .debug_frame   0x00000000000004f8       0x20 hpl/osc32kctrl/hpl_osc32kctrl.o
 .debug_frame   0x0000000000000518       0xe8 driver_init.o
 .debug_frame   0x0000000000000600      0x2a4 hal/src/hal_usart_async.o
 .debug_frame   0x00000000000008a4      0xfcc hpl/sercom/hpl_sercom.o
 .debug_frame   0x0000000000001870       0x94 hal/utils/src/utils_ringbuffer.o
 .debug_frame   0x0000000000001904       0x90 hpl/divas/hpl_divas.o
 .debug_frame   0x0000000000001994       0x28 atmel_start.o
 .debug_frame   0x00000000000019bc       0x40 hal/src/hal_atomic.o
 .debug_frame   0x00000000000019fc       0x2c /usr/local/Cellar/arm-gcc-bin/9-2019-q4-major/bin/../lib/gcc/arm-none-eabi/9.2.1/../../../../arm-none-eabi/lib/thumb/v6-m/nofp/libc_nano.a(lib_a-init.o)
 .debug_frame   0x0000000000001a28       0x28 /usr/local/Cellar/arm-gcc-bin/9-2019-q4-major/bin/../lib/gcc/arm-none-eabi/9.2.1/../../../../arm-none-eabi/lib/thumb/v6-m/nofp/libc_nano.a(lib_a-memcpy-stub.o)
 .debug_frame   0x0000000000001a50       0x20 /usr/local/Cellar/arm-gcc-bin/9-2019-q4-major/bin/../lib/gcc/arm-none-eabi/9.2.1/../../../../arm-none-eabi/lib/thumb/v6-m/nofp/libc_nano.a(lib_a-memset.o)
 .debug_frame   0x0000000000001a70       0x50 /usr/local/Cellar/arm-gcc-bin/9-2019-q4-major/bin/../lib/gcc/arm-none-eabi/9.2.1/../../../../arm-none-eabi/lib/thumb/v6-m/nofp/libc_nano.a(lib_a-printf.o)
 .debug_frame   0x0000000000001ac0      0x170 /usr/local/Cellar/arm-gcc-bin/9-2019-q4-major/bin/../lib/gcc/arm-none-eabi/9.2.1/../../../../arm-none-eabi/lib/thumb/v6-m/nofp/libc_nano.a(lib_a-findfp.o)
 .debug_frame   0x0000000000001c30       0x58 /usr/local/Cellar/arm-gcc-bin/9-2019-q4-major/bin/../lib/gcc/arm-none-eabi/9.2.1/../../../../arm-none-eabi/lib/thumb/v6-m/nofp/libc_nano.a(lib_a-fwalk.o)
 .debug_frame   0x0000000000001c88       0xb0 /usr/local/Cellar/arm-gcc-bin/9-2019-q4-major/bin/../lib/gcc/arm-none-eabi/9.2.1/../../../../arm-none-eabi/lib/thumb/v6-m/nofp/libc_nano.a(lib_a-lock.o)
 .debug_frame   0x0000000000001d38       0x30 /usr/local/Cellar/arm-gcc-bin/9-2019-q4-major/bin/../lib/gcc/arm-none-eabi/9.2.1/../../../../arm-none-eabi/lib/thumb/v6-m/nofp/libc_nano.a(lib_a-nano-mallocr.o)
 .debug_frame   0x0000000000001d68       0x9c /usr/local/Cellar/arm-gcc-bin/9-2019-q4-major/bin/../lib/gcc/arm-none-eabi/9.2.1/../../../../arm-none-eabi/lib/thumb/v6-m/nofp/libc_nano.a(lib_a-nano-vfprintf.o)
 .debug_frame   0x0000000000001e04       0x54 /usr/local/Cellar/arm-gcc-bin/9-2019-q4-major/bin/../lib/gcc/arm-none-eabi/9.2.1/../../../../arm-none-eabi/lib/thumb/v6-m/nofp/libc_nano.a(lib_a-nano-vfprintf_i.o)
 .debug_frame   0x0000000000001e58       0x2c /usr/local/Cellar/arm-gcc-bin/9-2019-q4-major/bin/../lib/gcc/arm-none-eabi/9.2.1/../../../../arm-none-eabi/lib/thumb/v6-m/nofp/libc_nano.a(lib_a-sbrkr.o)
 .debug_frame   0x0000000000001e84       0x90 /usr/local/Cellar/arm-gcc-bin/9-2019-q4-major/bin/../lib/gcc/arm-none-eabi/9.2.1/../../../../arm-none-eabi/lib/thumb/v6-m/nofp/libc_nano.a(lib_a-stdio.o)
 .debug_frame   0x0000000000001f14       0x48 /usr/local/Cellar/arm-gcc-bin/9-2019-q4-major/bin/../lib/gcc/arm-none-eabi/9.2.1/../../../../arm-none-eabi/lib/thumb/v6-m/nofp/libc_nano.a(lib_a-wbuf.o)
 .debug_frame   0x0000000000001f5c       0x2c /usr/local/Cellar/arm-gcc-bin/9-2019-q4-major/bin/../lib/gcc/arm-none-eabi/9.2.1/../../../../arm-none-eabi/lib/thumb/v6-m/nofp/libc_nano.a(lib_a-writer.o)
 .debug_frame   0x0000000000001f88       0x2c /usr/local/Cellar/arm-gcc-bin/9-2019-q4-major/bin/../lib/gcc/arm-none-eabi/9.2.1/../../../../arm-none-eabi/lib/thumb/v6-m/nofp/libc_nano.a(lib_a-wsetup.o)
 .debug_frame   0x0000000000001fb4       0x2c /usr/local/Cellar/arm-gcc-bin/9-2019-q4-major/bin/../lib/gcc/arm-none-eabi/9.2.1/../../../../arm-none-eabi/lib/thumb/v6-m/nofp/libc_nano.a(lib_a-closer.o)
 .debug_frame   0x0000000000001fe0       0x68 /usr/local/Cellar/arm-gcc-bin/9-2019-q4-major/bin/../lib/gcc/arm-none-eabi/9.2.1/../../../../arm-none-eabi/lib/thumb/v6-m/nofp/libc_nano.a(lib_a-fflush.o)
 .debug_frame   0x0000000000002048       0x2c /usr/local/Cellar/arm-gcc-bin/9-2019-q4-major/bin/../lib/gcc/arm-none-eabi/9.2.1/../../../../arm-none-eabi/lib/thumb/v6-m/nofp/libc_nano.a(lib_a-lseekr.o)
 .debug_frame   0x0000000000002074       0x54 /usr/local/Cellar/arm-gcc-bin/9-2019-q4-major/bin/../lib/gcc/arm-none-eabi/9.2.1/../../../../arm-none-eabi/lib/thumb/v6-m/nofp/libc_nano.a(lib_a-makebuf.o)
 .debug_frame   0x00000000000020c8       0x20 /usr/local/Cellar/arm-gcc-bin/9-2019-q4-major/bin/../lib/gcc/arm-none-eabi/9.2.1/../../../../arm-none-eabi/lib/thumb/v6-m/nofp/libc_nano.a(lib_a-memchr-stub.o)
 .debug_frame   0x00000000000020e8       0x40 /usr/local/Cellar/arm-gcc-bin/9-2019-q4-major/bin/../lib/gcc/arm-none-eabi/9.2.1/../../../../arm-none-eabi/lib/thumb/v6-m/nofp/libc_nano.a(lib_a-mlock.o)
 .debug_frame   0x0000000000002128       0x2c /usr/local/Cellar/arm-gcc-bin/9-2019-q4-major/bin/../lib/gcc/arm-none-eabi/9.2.1/../../../../arm-none-eabi/lib/thumb/v6-m/nofp/libc_nano.a(lib_a-nano-freer.o)
 .debug_frame   0x0000000000002154       0x2c /usr/local/Cellar/arm-gcc-bin/9-2019-q4-major/bin/../lib/gcc/arm-none-eabi/9.2.1/../../../../arm-none-eabi/lib/thumb/v6-m/nofp/libc_nano.a(lib_a-readr.o)
 .debug_frame   0x0000000000002180       0x48 /usr/local/Cellar/arm-gcc-bin/9-2019-q4-major/bin/../lib/gcc/arm-none-eabi/9.2.1/../../../../arm-none-eabi/lib/thumb/v6-m/nofp/libc_nano.a(lib_a-reent.o)
 .debug_frame   0x00000000000021c8       0x2c /usr/local/Cellar/arm-gcc-bin/9-2019-q4-major/bin/../lib/gcc/arm-none-eabi/9.2.1/../../../../arm-none-eabi/lib/thumb/v6-m/nofp/libc_nano.a(lib_a-fstatr.o)
 .debug_frame   0x00000000000021f4       0x2c /usr/local/Cellar/arm-gcc-bin/9-2019-q4-major/bin/../lib/gcc/arm-none-eabi/9.2.1/../../../../arm-none-eabi/lib/thumb/v6-m/nofp/libc_nano.a(lib_a-isattyr.o)
